:020000040800F2
:20000000E80500201D1E0008711D0008731D00080000000000000000000000000000000062
:20002000000000000000000000000000751D00080000000000000000771D0008791D0008EC
:200040006F120008A71A0008CB1D0008D71D0008351E0008371E0008391E00083B1E0008EA
:20006000000000003D1E00083F1E0008411E0008431E0008451E000800000000471E000810
:2000800000000000000000000000000000000000491E0008000000004B1E00084D1E00080D
:2000A000000000004F1E00080000000000000000811D0008511E00080000000000000000AE
:2000C00070B5030074335C68202C37D100290BD0140009D0846880256D01AC4206D1066915
:2000E000002E03D1CE0701D5012070BD7426865D012E23D001261E70C164010050310A8080
:200100004A8000228A61DA6021265E60AC4204D10469002C01D1264C00E0264C8C611A7060
:20012000EFF31081012282F310880068026880231343036081F31088002070BD022070BD46
:2001400070B5030074339C68202C2ED100290BD0140009D0846880256D01AC4206D104695F
:20016000002C03D1CC0701D5012070BD7424045D012C1AD001241C700023036603680E4C76
:20018000A3420FD05B681B020CD5EFF31083012484F31088046825688026F6042E432660A1
:2001A00083F3108800F0C2FA70BD022070BD00009B0800087908000800480040FEB5040096
:2001C0002368D869194609689A682500583520260E4000962026064001960026A94F07401D
:2001E0000BD1019F002F0CD0009F002F09D0E968002901D020008847F7BDD70702D4A24F3E
:200200000F4078D0C70706D5CF0504D501271F62AB6A1F43AF62830708D5D30706D502237F
:2002200027683B62AB6A04271F43AF620423184207D0D70705D527683B62AB6A02271F4303
:20024000AF620823184209D0009F002F01D1D20704D522681362AA6A1343AB6280221201B2
:20026000104007D0480105D520680262A86A20210143A962A86A002833D00198002807D0D1
:200280000098002804D0E968002901D020008847A86A402721688968394002D128210140C7
:2002A00024D0200000F0A2FA20688068074019D0EFF31080012181F3108821688A68402380
:2002C0009A438A6080F31088A86900280AD06F498163A86900F0CDFB002802D0A869816BDD
:2002E0008847F7BD200000F0EBFBF7BD200000F0E7FBAE62F7BDAF68012F00D094E0102759
:20030000384200D0394200D18EE01F621020C0430121C9432268926852064AD5AA6913686E
:200320005B689BB2002BE5D05827E75BBB42E1DA6B8012681268920635D4EFF310820092CE
:20034000012282F3108822681368514F1F401760009A82F31088EFF31082012383F31088A5
:2003600023689F683940996082F31088EFF31081012282F31088226893684027BB439360EC
:2003800081F3108820216962AE60EFF31081012282F31088226813681840106081F31088BB
:2003A000A86900F041FB5820205A6988411A89B236E05822A25A6B88D21A6B461A806A88DF
:2003C000002A5ED06A461288002A5AD0EFF310820192012282F31088226813684B4F1F40F2
:2003E0001760019A82F31088EFF31082012383F3108823689F683940996082F310882021E6
:200400006962AE60EE60EFF31081012282F31088226813681840106081F310886846018802
:20042000200000F04EFBF7BD80277F03384206D0520204D51F62200000F044FBF7BD8022E3
:20044000104207D00A4005D02969002919D020008847F7BD4022104013D00A4011D0EFF36B
:200460001080012181F3108821680A6840239A430A6080F31088202028622E61200000F0A5
:2004800022FBF7BD0F0800002001000465080008FFFEFFFF70B5040000250026206801687A
:2004A0009F4A0A40A168114322690A4361691143E2690A43026041689A4A0A40E168114348
:2004C0004160A169444A904202D00A00216A11438268954B13401943816000F04FFC002899
:2004E0000ED061684A08801800F06AFC80B201001039B64A914202D22168C86000E001263A
:200500006566A566300070BD00000000DFFEFFFF2421415CC90706D501684A68AC4B1340DB
:20052000826A1A434A602421415C890706D501684A68A84B1340C26A1A434A602421415C05
:20054000490706D501684A68A34B1340026B1A434A602421415C090706D501684A689F4BCE
:200560001340426B1A434A602421415CC90606D501688A689A4B1340826B1A438A602421DC
:20058000415C890606D501688A682C4B1340C26B1A438A602421415C490611D501684A6889
:2005A000904B1340026C1A434A60026C80235B039A4205D14A688C4B1340426C1A434A60E6
:2005C0002421415C090606D501684A689E4B1340806C18434860704700480040F8B5040019
:2005E00000257430C56000F025FC0700974E20680068000709D500963B000022802189031B
:20060000200000F01DF800280DD12068006840070BD500963B0000228021C903200000F028
:200620000FF8002801D00320F2BD2100743120204860886025660D700020F2BDFFDFFFFF9F
:20064000FEB5089F802424010025060001916846027002933068C06901990140019881420D
:2006600001D1012000E0002069460978884254D10020C0438742EDD000F0DCFB0299401A03
:20068000874201D3002F1FD1EFF31080012181F3108831680A686E4B13400B6080F3108871
:2006A000EFF31080012181F3108831688A6801239A438A6080F31088300074302021416063
:2006C000816005700320FEBD306800684007C1D53068C0692040BDD030680462EFF31080EB
:2006E000012181F3108831680A68594B13400B6080F31088EFF31080012181F3108831681B
:200700008A6801239A438A6080F3108830007430202141608160C160D3E70020FEBD0000A4
:20072000F369FFEFFFCFFFFFFFF4FFFFF0B54165010058310A804A800022CA608668FF242C
:2007400080235B019E4204D10569002D11D1414C0FE07F25002E03D10669002E06D108E0EA
:200760001C04A64207D10469002C01D18D8003E03F248C8000E08A808A6222244C62EFF323
:200780001084012585F310880568AE6801273743AF6084F3108884689C4204D10369002B16
:2007A00001D12D4B00E02D4BCB600A77EFF31081012282F310880068026890235B00134312
:2007C000036081F310880020F0BD0000F0FF0000FFFFFDFFFFFFFEFFFFFFFBFFFF7FFFFF85
:2007E000FFEFFFFFFFFFEFFFFFFF9FFF10B5EFF31081012282F3108802681368184C1C4078
:20080000146081F31088EFF31081012282F31088026893680124A343936081F31088016ED7
:2008200001290BD1EFF31081012282F31088026813681024A343136081F310882021C16728
:2008400000210166416610BDFFFFF7FFFFFFFF015FFEFFFFFF01000079090008FF080008B6
:20086000DFFEFFFF80B5806A0100523100220A810A8000F025F901BD816F212900D0704736
:2008800010B55221415A002900D11FE0C16C097802689162C16C491C11E0816F212900D0F4
:2008A000704710B55221415A002900D10EE0C16C0988C905C90D02689162C16C891CC16410
:2008C0005221415A491E5222815210BDEFF31081012282F31088026813688024A34313600A
:2008E00081F31088EFF31081012282F310880068026840231343036081F3108810BD38B595
:200900000100583102684B6A222B30D1526A8B881340426D1370426D521C42654A88521E86
:200920004A804A88002A26D1EFF31082012383F3108803681C682F4D25401D6082F31088FA
:20094000EFF31082012383F3108803689C680125AC439C6082F3108820224A620022CA602A
:200960008B68012B00D147E000F06AFA31BD906908210143916131BD38B5010058310268F7
:200980004B6A222B30D1526A8B881340426D1380426D921C42654A88521E4A804A88002AE4
:2009A00026D1EFF31082012383F3108803681C68104D25401D6082F31088EFF310820123C7
:2009C00083F3108803689C680125AC439C6082F3108820224A620022CA608B68012B00D152
:2009E0000AE000F02DFA31BD906908210143916131BD0000DFFEFFFF8A60EFF31081012267
:200A000082F31088026813681024A343136081F3108801681022CB69134000D00A62582174
:200A2000415A00F04EF831BD30B50100243100222523C35C022B04D00423C3630A7001204A
:200A400030BD03681C680E25AC431C6003681C680125AC431C6001234424045D1C25254009
:200A60000124AC40056C6C60252403550A70002030BD70B50022002401212523C35C022BDF
:200A800003D00422C263012418E003681D680E26B5431D6003681D688D431D604423C35CBF
:200AA0001C251D400123AB40056C6B602523C15424214254816B002900D08847200070BD14
:200AC000704770477047704738B59D4C60689D490140B0200002084360602068A10D01431E
:200AE000216000F0A7F905002068800506D400F0A1F9401B0328F7D3032032BDE0680321A1
:200B00008843E060E0680C21014006D000F092F9401B8D498842F5D3EEE78C488C4908601A
:200B20008C48006800F08AFB010025D120688A49014021602068802149020840009000980C
:200B4000206894490140216000F074F905002068800105D500F06EF9401B0328F7D3CBE7D0
:200B60000020E0602061FF20C030A061206D8021090401432165002032BD7CB5002817D030
:200B80006F4CE2680C21114080225202E36813400578ED0743D55500082903D00C2909D14D
:200BA000934207D121680D4039D04068002836D1012076BD4168914207D0A023DB029942B0
:200BC000216805D193000B43236021680A4309E0714B0B40236021680A4000920099216882
:200BE0006C4A0A402260406800280CD000F022F906002068284012D100F01CF9801B6528B6
:200C0000F7D3032076BD00F015F906002068284005D000F00FF9801B6528F7D3F1E7002009
:200C200076BDF8B5070033D000910124E4435B480068C107C90F0098814219D257480068F5
:200C40002040009901435548016000F0F3F8009D060052480068C107C90FA94207D000F087
:200C6000E9F8801B38498842F3D30320F2BD0095334D3878800705D5E868F0218843B968A2
:200C80000143E9603878C00719D52868800301D40120F2BDE8680321884379680143E960FD
:200CA00000F0C8F80600E8680C210140082906D000F0C0F8801B24498842F4D3D5E7009824
:200CC00036490968CA07D20F904217D2334800680440009820433149086000F0ABF8009C84
:200CE00006002E480068C107C90FA14206D000F0A1F8801B14498842F3D3B6E73878400712
:200D000005D5E86826490140F8680843E8603878000706D5E868234901403869C0000843CB
:200D2000E86000F01BF82049EA681206120F895CC840074908600748006800F07FFAF2BD00
:200D400000100240FF00FF008913000068FF1F00900000208C000020D4FFF6FE14488168B9
:200D60000C220A40082A01D112487047006801210004400F401C8140C80370470E480068AC
:200D80000E490A4A12685205FFE7520F895CC84070470000FFFFFBFFFFFFFEFF0020024097
:200DA000FFF8FFFFFFC7FFFF0C1E00080C1002400410024000127A00900000202C1E000806
:200DC000094214D088420FD30122030C01D100041204002300185B418B4200D35B1A52419B
:200DE000F8D319001000704701000020704708B500F03CFA08BD30B501684118446862080B
:200E00008A188368E40704D54C461B1901E0641C09D1914203D00C7864B2491C01E00C30BE
:200E200030BD0D78491C1D705B1C002CEFD4641EF7D5EEE701484068704700BF84000020BA
:200E400010B5384C01222100FFF77AF900280AD160882178344A1154401C60800120A080B8
:200E600000F002F8A06010BD80B5FFF7E3FF02BD10B50400FFF7DEFF001B10BD38B5C24D6F
:200E80002C682022291D200000F012FA80342C6031BD00001CB5684608A10A68026000F000
:200EA00064FA002808D1214C200000F0E1F901226946200000F0FCF913BD00005A5AA5A5D7
:200EC00038B50225174C6078002808D0012808D003280CD004281AD0062820D031BD012078
:200EE0001BE0A84800F0C4F9657001200CE0FFF7C5FF00F034FAE188814202D265700220A9
:200F000002E004206070002000F020FA31BDFFF7C1FF042000F01AFA0520607031BD00F032
:200F200001FA31BDD401002034010020807F0008F8B588B00027B44800689149884201D191
:200F400000F0F0F900F01AFA00F020F9142103A800F03CFA0124AD480168214301600168F4
:200F6000214000910099022102680A430260006801400091009800228421A020C00500F09C
:200F800091FA84200390049400240594069403A9A020C00500F022FA9D4D9E486860E120CA
:200FA0004002A86080204001E8602C61810869610C21A961EC612C626C623821A962C100D9
:200FC000A963E86340002864002300220021281D00F076FA002801D000F02EF98E48882154
:200FE000685003202900883148608C4829008831C8602900883188602800883000F0A6FA74
:20100000002801D000F018F9854E01223100281DFFF796F8FFF728FF290088310861FFF788
:2010200023FFB0600020707000F090F9002000F099F91EE00020707000F088F9FFF714FFEB
:2010400003990861B0680090FFF7F4FE0099401A03280ED3718806290BDBB088012808D1B4
:20106000704800F0BFFAB480748085216D4800F0ADF90121281DFFF724FDFFF721FF28003A
:201080008830039000F08DFA03980069FFF7F0FE3D28D7D38021A020C00500F009FA00F08E
:2010A00058F901280ED1009080239B01012201A9032000F081FA082201A9281DFFF700F8A6
:2010C0000220B9E700F045F9022814D100F047F900280ED0F0880090534B012201A9062042
:2010E00000F06AFA082201A9281DFEF7E9FF0320A2E70120A0E700F02CF9032811D14020D0
:20110000009084239B01012201A9032000F054FA082201A9281DFEF7D3FFF088401CF080AA
:201120008CE700F016F904280FD100F01EF900903E4B012201A9062000F03EFA082201A922
:20114000281DFEF7BDFF052076E700F002F9052813D100F00AF9002800D06BE77F1C2878A3
:20116000012802D0F8B2322808D100228021A020C00500F097F9062070705FE704205BE71D
:201180005A5AA5A5002000080000002038B598B034210BA800F01AF91421684600F016F9E7
:2011A000182105A800F012F921480168214A0A40C10C1143016001200B90A020C0020C906B
:2011C000002414940BA8FFF7D8FC002801D000F033F80F2000900225019502940394049471
:2011E00001216846FFF71DFD002801D000F024F80595079405A800F06DFA002801D000F0E8
:201200001BF819B030BD0000807F00082C100240980000200044004000300040FF0F0000C6
:20122000D401002034010020022000000120000000700040FFE7FFFF72B6FEE710B50400B7
:20124000FA20400100F07EFA00280BD1042C09D2002221000020C04300F067FA02488460D7
:20126000002010BD012010BD840000207047FEE77FB5060000F09BFAFF2400250095019521
:2012800002962E48006880022D4901402D480818801BC009401C0390694601A800F052FB22
:2012A000002800D1002400F0A7FA200004B070BDFEB507000C0016000025009500F077FA88
:2012C0003D0002940196009C002622E00298B10047183A682900022000F050FA002802D015
:2012E00020000224044338682968884202D02000042404432D1D0BE0104800688002104935
:201300000140104808188542E0D3200008240443761C0198864201D22006EDD000F06CFA08
:20132000E0B2FEBD38B5084C656800F039F8FFF7CBFB206880F30888A84731BD7C00F81F7A
:2013400000FCFF03FFFFFF070020000808490870704707480078704706490880704705488A
:2013600000887047044908807047034800887047E4010020E0010020E201002010B5002426
:201380001048016840220A4302600020FFF756FF002801D0012401E000F02CFB200010BD0D
:2013A00080B509480021C943C1600022C26081608260416042600160026000F073FB0020CE
:2013C00002BD0000002002401C100240002200BF094202D0491E4254FCD17047FCB503004B
:2013E0000A0003201900002358E0E40755D55C006D462C706C4624780325A540EC43556845
:2014000003262E40012E02D00540022D12D18E682640D5686F463F78BD4035438D604E68C0
:20142000012501279F40BE4357683F093D409D4035434D6055680540032D25D0CE68264035
:2014400095686F463F78BD403543CD6055680540022D19D1DD08AD004D192E6A01969F00A0
:201460001C263E406F467E70019EB4460F276E467678B7406646BE43B44617696E467678D8
:20148000B740664637432F620D682C40556805406E463678B54025430D605B1C1468DC4080
:2014A000A3D1F3BD002A01D0816170478162704742690B0013401B049143194381617047E9
:2014C000F2B5040017001D00002C14D0260074367068002803D13070200000F096FA2420F5
:2014E0007060206801680122914301602000FEF7D1FF012801D10120F2BD606A002802D05F
:201500002000FFF705F8009821688A688023DB0113438B6021688A680A4B1340184388607F
:2015200020680168084A0A40790511432A040A4302602068016801220A4302602000FFF796
:201540004DF8F2BDFF7FFFFFFFFF00FC70B5050001D1012070BD28681449016014490160CB
:2015600069684160A9688160FFF764FC072406002868C16821400AD0FFF75CFC801B2B2850
:20158000F6D32868C0682040F2D0032070BDE96802698A4201D0016101E0064901600020EC
:2015A00070BD04490068016000207047CCCC000055550000AAAA000070B50E0011001C001B
:2015C000049B344D032802D0062805D070BD2200300000F06CF803E02200300000F062F899
:2015E0002C8070BD38B504002078012850D16518AD1EFE316078032802D0062830D031BDD7
:20160000C9B2200000F050FA297809026A78891888421DD11F48008880229201904207D140
:20162000E07800022179401880B2FFF795FE31BD8421890188422BD100201749174AE31CE0
:201640001B5C135403230B70401C802820D2F6E7FF200002FFF786FE0420FFF777FE31BD20
:20166000C9B2200000F020FA297809026A7889188842EDD1A07820280AD1E078012807D17A
:201680002079002804D16079012801D10449087031BD000094000020D5010020040000205F
:2016A0009800002010B504002170062003E010B50400217003206070100AA070E270180A24
:2016C000207163710621200000F0EEF9010AA171E07110BD0178890706D504490A680C237A
:2016E0009A43806810430860002070474C10024010B5C20018231340FF249C40E24389072C
:20170000090E9940030004D418489B089B00C01806E0174B0007000F0838800880001818B2
:2017200003681A401143016010BD80B5FFF7E0FF01BD010005D40121C006C00E81400D48F4
:201740000160704710B5401E80214904884201D3012010BD084C606003210020C043FFF783
:20176000C7FF0020A0600721216010BD00E400E01CED00E000E100E010E000E0F2B5170011
:201780003E4C207C012801D10220F2BD012020743B4D280000F03CF80026010005D1009839
:2017A00066610760280000F033F82674F2BD0121344802680A400BD0EFF3108272B65B4B00
:2017C00083605B4B836082F31088026811400FD10222016811400DD0EFF3108172B6554BFF
:2017E000C360554BC36081F310880068024001D001207047002070472248016802220A4389
:20180000026001680122FFE70A4302600020704770B50500FFF70EFB0600494C2068C0075B
:201820000CD50020C0438542F8D0002D04D0FFF701FB801B8542F1D2032070BD0220216802
:20184000014000D020602068C00511D4206880050ED4206840050BD42068000508D4206839
:20186000800405D42068800302D42068C00303D500F00AF8012070BD002070BDBC0100209D
:2018800050C300000420024030B500222B4880235B002B490C681C4004D042690224144317
:2018A00044611A004B0D0C681C4006D0446901252543456114001A0022430B0D0C681C400F
:2018C00006D0446908252543456114001A002243CB0C0C681C4006D0446904252543456156
:2018E00014001A0022439B000C681C4006D0446910252543456114001A0022430B689B0380
:2019000006D5202344691C43446114002022224380235B020C681C4006D04469402525431D
:20192000456110001A0002430A6030BDEFCDAB8905040302BFAE9D8C16151413BC01002078
:2019400018200240FEB507000E001A4C207C012801D10220FEBD0120207417480090FFF7D1
:2019600057FF010023D10021C94331607968134D01960E0000E08036B968C9017A68891874
:201980008E4214D20E48FFF70CFE300000F01CF80098FFF73DFF2968082291432960296894
:2019A000084A0A402A600100E5D001990E6000212174FEBDBC01002050C30000042002407C
:2019C00020010020FFFDFFFF10B50021074A5161074A1368540D1C431460136808241C43DD
:2019E00014607F229043016010BD0000BC010020042002402748016801220A43026041683B
:201A0000802252050A434260704770B586B0040014220021684600F05FF820681E498842C3
:201A200035D11E48C168802292020A43C260012102680A430260026811400591059902241C
:201A40000168214301600068204005900598E0020090019400250295032603960420049021
:201A60006946A020C005FFF7B9FCC0200090019402950396049569460948FFF7AFFC0022F6
:201A800000211C20FFF751FE1C20FFF752FE06B070BD000034100240004400402C100240B7
:201AA000000400507047FEE730B5FF23FF24094A08E005785D40401C535D634054198025F6
:201AC0006D00645D0D00691E2D06F2D11802204330BD00BFEC1A000810B504000800110035
:201AE00002002000FFF774FC200010BD00C1814001C0804101C0804100C1814001C08041E7
:201B000000C1814000C1814001C0804101C0804100C1814000C1814001C0804100C18140B5
:201B200001C0804101C0804100C1814001C0804100C1814000C1814001C0804100C1814095
:201B400001C0804101C0804100C1814000C1814001C0804101C0804100C1814001C0804175
:201B600000C1814000C1814001C0804101C0804100C1814000C1814001C0804100C1814055
:201B800001C0804101C0804100C1814000C1814001C0804101C0804100C1814001C0804135
:201BA00000C1814000C1814001C0804100C1814001C0804101C0804100C1814001C0804115
:201BC00000C1814000C1814001C0804101C0804100C1814000C1814001C0804100C18140F5
:201BE00001C0804101C0804100C1814000C0C101C30302C2C60607C705C5C404CC0C0DCD75
:201C00000FCFCE0E0ACACB0BC90908C8D81819D91BDBDA1A1EDEDF1FDD1D1CDC14D4D51534
:201C2000D71716D6D21213D311D1D010F03031F133F3F23236F6F737F53534F43CFCFD3D94
:201C4000FF3F3EFEFA3A3BFB39F9F83828E8E929EB2B2AEAEE2E2FEF2DEDEC2CE42425E574
:201C600027E7E62622E2E323E12120E0A06061A163A3A26266A6A767A56564A46CACAD6DD4
:201C8000AF6F6EAEAA6A6BAB69A9A86878B8B979BB7B7ABABE7E7FBF7DBDBC7CB47475B5B4
:201CA00077B7B67672B2B373B17170B0509091519353529296565797559594549C5C5D9D14
:201CC0005F9F9E5E5A9A9B5B99595898884849894B8B8A4A4E8E8F4F8D4D4C8C44848545F4
:201CE00087474686824243834181804070B40123002413E00168001D194202D04D46691818
:201D0000491E0C60091D121F042AFAD20D00960701D50C80AD1C1A4000D02C700268001D7D
:201D2000002AE7D170BC704710B5074979441831064C7C44163404E0081D0A68891888477C
:201D40000100A142F8D110BD08000000240000009DFFFFFF5001000098000020000000003A
:201D600097F0FFFFEE0000002A00000000000020FEE7FEE77047704780B500F009F801BD8A
:201D800080B50248FEF71AFA01BD00009C0000200248416802788918416070478400002037
:201DA00000F00DF8002801D0FFF7BEFF00BF00BF002000BF00BFFFF7BBF800F002F80120B2
:201DC000704780B500F002F801BDFEE70746384600F002F8FBE7FEE780B500BF00BF024A0F
:201DE00011001820ABBEFBE7260002000548014603B4684680F3098800BF00BF00BF00BF2E
:201E0000FFF7CEFFA5EDF5FE7047000000000000000000000102030406070809014880478B
:201E200001480047091E0008ED1D00080000000001020304FEE7FEE7FEE7FEE7FEE7FEE769
:201E4000FEE7FEE7FEE7FEE7FEE7FEE7FEE7FEE7FEE703002000088100010001F9000004CA
:071E6000FB0003200000203D
:20200000080B0020017F0008197400081B74000800000000000000000000000000000000D9
:202020000000000000000000000000001D74000800000000000000001F74000821740008CF
:20204000B7500008E7620008D3730008DF750008AB76000869740008797400088374000874
:2020600000000000937400081B780008CF7B00089D740008D37B000800000000E77B00088B
:2020800000000000000000000000000000000000C37E000800000000CF7E0008197F000802
:2020A000000000001B7F00080000000000000000A77400081D7F00080000000000000000B7
:2020C00080B58F21C90501F033F8002101F088F802D8FC21890501E0BF21090601F094F8CD
:2020E00001F022F902BD10B5894C0122210001F097F900280BD1A0882178864A1154401C60
:20210000A0800120E08000F04CF88349086010BD80B57F480021C1678049096881628049BE
:202120000968C1627F49096801630121103001F0EBFD01BD38B5764C01F061FE2081B425FC
:202140006D0002F012F801286089218906D1814201D3081A06E0281A401803E0884200D2CB
:202160004019401A81B2A94200DD401B6E49C98D82B28A4202D3691A914200DA0020A08103
:2021800031BD38B5012001F0FDFF614C0025606B8563A57001F033FE6081A581FFF7B8FFE6
:2021A00031BD80B502F02CF802BD10B5040002F027F8001B10BDF8B50024554D6C705A4E6E
:2021C0005A4F3878012811D102F034F8022803D002F030F8012809D155480068E8670320EC
:2021E00001F0D0FF0120A8703C7017E03878022811D102F01FF8042803D002F01BF8002852
:2022000009D14B480068E867032001F0BBFF0220A8703C7040E0A87801283AD101F0B8FFCA
:20222000032803D001F0B4FF05282CD101F082FDFFF780FF01F0ACFF032818D17088A96F2D
:20224000884220D2042001F09DFF686B846301F0D6FD6881AC81FFF75BFF01F086FF00288F
:2022600001D1012000E0002001F082FF0BE0F088012808D12F480068FFF797FF31898142AC
:2022800001D2FFF77EFF02F037F8686F02F05CF8A867A87802283AD101F07AFF032803D0EE
:2022A00001F076FF05282CD101F044FDFFF742FF01F06EFF032818D13088A96F884220D227
:2022C000042001F05FFF686B846301F098FD6881AC81FFF71DFF01F048FF002801D10120D0
:2022E00000E0002001F044FF0BE0F088012808D110480068FFF759FF3189814201D2FFF7F1
:2023000040FF01F0F9FF686F02F01EF8A867F1BD84040020EC030020BC060020E00600205A
:20232000E4060020E8060020FC05002097060020D8060020C0060020F8B58EB00024694605
:202340000C8202F049F800F099FE142105A802F057F8E34D286804210143296028680421AB
:2023600008400090009828680121014329602868C107C90F00910098022029680143296095
:202380002968084000900098E14E002280210902300002F000F900228021C901300002F075
:2023A000FAF80022E449A020C00502F0F4F800220421E24802F0EFF8C02000020590012097
:2023C00006900794089405A9300002F021F8062005900694079405A9A020C00502F018F822
:2023E00010200590C426B6030696079405A9A020C00502F00DF8082005900696079405A972
:20240000A020C00502F004F8C02040000590012006900794089405A9A020C00501F0F8FF8B
:20242000032005908426B6030696079405A9C34801F0EEFF0420059001200690079408940C
:2024400005A9BE4801F0E4FFE80C05900694079405A9A020C00501F0DBFF80200002059001
:20246000012006900794089005A9A020C00501F0CFFF202005900696079405A9AF4801F0DE
:20248000C7FF00220021052002F0CBF8052002F0CCF800220021062002F0C3F8062002F050
:2024A000C4F800220021072002F0BBF8072002F0BCF868680121014369606868C107C90F15
:2024C0000091009800220121092002F0AAF8092002F0ABF868460021002206C0A848A9497B
:2024E0000160C46380210906416084600621816301210161C4602022815421228454846254
:20250000FF21C231416201212C228154042141618D02056384614463C46102F0ABF8002894
:2025200001D000F003FE9848009001956946944802F044FA002801D000F0F8FD93480090CF
:2025400069468F4802F03AFA002801D000F0EEFD8F48009069468A4802F030FA002801D0FE
:2025600000F0E4FD8B4802908B4802994860E1204002029988600298C56002980461A808DB
:20258000029948610C20029988610298C4610298046202984462382002998862E8000299E8
:2025A00088630298C5636800029908647B48059000230022002102F0FBFA002801D000F071
:2025C000B5FD0AA800210022002300264EC0684606C006A84EC0724EA8047063B463F46320
:2025E000704830647464B4643000343002F026FB002801D000F09AFD0A950AA93000343092
:2026000002F014FC002801D000F090FD3000343002F037FB002801D000F088FD00940194F3
:2026200069463000343002F047FD002801D000F07DFD60200690079408940994042206A9FF
:202640003000343002F086FB002801D000F06EFD3000343002F0F3FDB6480190B648019982
:202660000860B648019948600198846001200199C8600198046101984461019884610198FF
:20268000C46101980462019802F054FE002801D000F04CFD0021019803F064F9002801D004
:2026A00000F044FD0021019803F079F9002801D000F03CFDA2480199C864032001990865CE
:2026C000681E01998865019948659E48099003F08FF9002801D000F029FD9B4802E000BF19
:2026E0002C100240039084700399CC70747003990C7103994C700198446603994C71748117
:20270000B48192490C7092490C700120914901E000080050087090490870904908709049AF
:202720000C7090490C7090490C7003990C708F490C708F4D04E000BF808100000004005033
:20274000012229008B4803F089F928888A4988422AD18A4D30222900894803F07FF92800E7
:2027600003F087F918228749874803F077F9874887490180874941807F4801F064FD1BE0E5
:20278000300000200024014020000014400000180000044834020020004400403802002078
:2027A00084040020FF0300007B4801F04CFD18227449754803F052F9784D7248408C03F042
:2027C000EDF9290003F0FAF9FFF77AFC08906D48808C03F0E3F9290003F0F0F9FFF770FC09
:2027E00007906848C08C03F0D9F9290003F0E6F9FFF766FC06900898B0620798F062069857
:2028000030636048C0890004654908605D48008A0004644908605B48008B0004624908608D
:202820005848808B0004614908605648408B000400905F4908605348408A00045D49086053
:20284000F4675048808A00045B4908604D48C08A00045A4908604B48408D03F09FF9290069
:2028600003F0ACF9FFF72CFC0A904648008D03F095F9290003F0A2F9FFF722FC0099504A6E
:20288000116006994F4A116007994F4A116008994E4A11600A9901F094FD3A48808D03997A
:2028A000887100200399C87101F06CFC01F029FBB46703F0DDFB0F2503F0D2F96D1EFBD18D
:2028C00003F004FC01F080FA706B846304213000343002F0F9F90021CF4803F09DFC00284F
:2028E00001D000F023FC03223949CB4801F0A8FF002801D000F01AFC01213000103001F024
:2029000003FA01223100059800F08AFDFFF749FC01998866FFF745FC0199C866FFF741FC5D
:2029200001990867FFF73DFCBC4908600694BC4F80E000BFBC02002000540040BB7C700015
:2029400000300040080300208C000020000000200100002002000020030000200400002086
:2029600005000020FE0600200F00002010000020EE060020F8010808A5A50000040500201F
:2029800000000808FC05002000020808A605002001560000040800005A5A00000000C84208
:2029A000C4060020C8060020AC060020D0060020B0060020D4060020D8060020DC060020A7
:2029C000CC060020E8060020E4060020E006002038030020012001F042FC0198006EFFF73F
:2029E000E4FBB9494A8909895118FA2292005143814206D201F062FC012802D1002001F0EF
:202A00005AFCE88C012815DC01F01AFC012811D10198806F009001F0F3FB0099401AFA21BB
:202A20004901884203D20198806F002802D1002001F003FC0121059803F054FC7078012807
:202A400005D101F0A5FB032801DBFFF7B4FB0398C07801287DD10399CC7001F099FB06288E
:202A600003D001F095FB07280BD101F045FC706F01F06AFCB06701F05DF901F0C0F93081D6
:202A8000708101F085FB082807D101F035FC706F01F05AFCB06701F04DF96248C08C042814
:202AA0004DDD01F075FB0A281ED101F025FC706F01F04AFCB06701F03DF901F0EDFB012802
:202AC00003D06846008A3C2809DD0B2001F05AFB706B8463FFF71CFB69460C8204E0684692
:202AE000008A401C6946088201F052FB0C2826D101F002FC706F01F027FCB06701F01AF951
:202B000001F0CAFB022803D06846008A3C2811DD022001F037FB706B8463002001F0A5FBC0
:202B2000012001F09CFB01F003FAFFF7F1FA69460C8204E06846008A401C6946088201F03E
:202B4000F7F903F08DF803F0D7F903F0CDFB03F03BFA03988078012800D0A0E003998C70C3
:202B600001F016FB02282AD1069401F0E3F80398C079012823D10399CC71CC49CC4801F0E4
:202B80006FF9069824497431820089180C804C80401C6428F6DB0690039880892149C880FD
:202BA0000398C08948810398008A08810398408A88800398808A88810398C08AC88101F080
:202BC000E7FA062803D001F0E3FA072819D1B078002816D1B7480078002812D001200399B7
:202BE000C871069864280CDA0B48743006998900401831890180B16F41800698401CC0B28D
:202C000006900398407901282FD10198406EFFF7CCFAA94908E000BF30000020BC060020D3
:202C20004003002064050020898881421DD203994C71706B8463FFF76BFA022001F0A2FAC0
:202C400001F0F8FA012806D1FF2000021E4908809A49088007E001F0EDFA002803D11A49F8
:202C60000C8096490C8001F063F901F091FA0D2803D001F08DFA0E280CD101F0E7FAC8491E
:202C8000884207D001F038FB706F01F05DFBB06701F050F803F0E2FB099802F0D4FE019829
:202CA000806EFFF782FAFB280BD303F0BDFC002803D101F0B9FA03F0D3FCFFF772FA0199A9
:202CC0008866B84802E000BF6C060020C08C042842DD0198406FFFF768FA08281ED301F08A
:202CE000C7FA01281AD105200090AF4B03223900032003F0F5FC082002990880082239003D
:202D0000059800F04DFBFFF74CFA0199486701F03FFA022802D1092001F034FA0198C06E23
:202D2000FFF743FADD2817D301F0A2FA002813D101200090CE4B03223900032003F0D0FCCE
:202D400008200299088008223900059800F028FBFFF727FA0199C8660198006FFFF725FA19
:202D6000292800D2FEE001F071FA8D4988420BD101F09EFA002807D101F088FAC82800DBB3
:202D8000F0E001F075FA002800D0EBE003F04CFC002800D1A7E000220421B64801F0FBFB59
:202DA0008021A020C00501F0FCFB082503F03CFC01280AD10090B04B03223900062003F0A7
:202DC0008FFC0298058002208AE003F02DFC02280AD101200090430301223900032003F033
:202DE0007FFC029805803CE003F01EFC032811D1029840880090C54B01223900062003F08C
:202E00006FFC0298058002984088401C02994880042065E003F008FC04280CD140200090AE
:202E200084239B0101223900032003F059FC02980580052054E003F0F7FB052815D14020B8
:202E4000009084239B0103223900102003F048FC89200299088003F0EDFB02994988814204
:202E600001D203203CE006203AE003F0DDFB06280BD101200090A64B03223900032003F015
:202E80002FFC0298058007202AE003F0CDFB072816D102200090784B03223900062003F0FA
:202EA0001FFC0298058008201AE000BF98000020A40000200F000020FC0500208006002085
:202EC00003F0B2FB08283FD103F0BAFB0090904B01223900062003F003FC0298058000204C
:202EE00003F09FFB30E0029800880399097A80231B0200290BD1012003990872092000903F
:202F000001223900032003F0EBFB08201AE001290CD103990C722720009082231B0201225A
:202F20003900102003F0DCFB57200BE0022909D103990C720920009001223900102003F0A5
:202F4000CFFB1B2002990880029802883900059800F026FA01F09AF900281BD0022001F095
:202F60008AF917E001F0A4F903281FD10C48009092231B0202223900062003F0B1FB002036
:202F800001F093F908200299088008223900059800F006FAFFF705F9019908673BE000BFA2
:202FA000A5A500006405002004810000082501F07FF9022803D118200090902306E001F0D3
:202FC00077F901280FD13020009091231B0202223900102003F084FB002001F066F90298BE
:202FE0000580082213E001F063F9052813D10B20009093231B0202223900032003F070FB65
:20300000002001F052F91B20029908801B223900059800F0C5F93F480068FFF7C6F8032867
:203020000ED3B18805290BD9F088012808D13A4803F078FBF480B4809621374801F0E0F95A
:203040000198C06DFFF7B1F8344D35490989FA2292004A4382420AD201F0E6F8082806D1C9
:20306000E88C042800DCB5E4012001F0FEF8B4E403810000000400500281000010B598B033
:2030800034210BA801F0BCF91421684601F0B8F9182105A801F0B4F922480168224A0A40F0
:2030A000C10C1143016001200B90A020C0020C9002201490C0031590C0200003169080205D
:2030C000C00317900BA803F09FFD002801D000F02DF80F2000900320019000240294039472
:2030E00004940121684603F03DFE002801D000F01DF80A2005900794099405A803F030FF76
:20310000002801D000F012F818B010BD0220000001200000BC060020EC030020640500206A
:203120006C06002000700040FFE7FFFF72B6FEE730B405004D400122D20715404B18041816
:20314000240E2ED01B0E32D0FF2C34D0FF2B3AD0E4180002090210431143000A090A94460A
:20316000C2B24A43000AC3B24B43000A4843110A5B181A43D2B2190A091801D44918641E41
:20318000080A7F3C23DBFE2C08DAE40509061143634699416041284330BC7047FF20C005F6
:2031A000F9E728001B0EFF2BF6D1D043F4E72800FF2CF1D1F9E74002F7D1FF2B01D14902B9
:2031C000F3D1E005E7E7D8054902E4D0EDE743020020641CDFD15B129B1CDCD9D805DAE7BC
:2031E0000CB4012212060318DA4207D84B18DA4204D802000A43921802D281420CBC704754
:20320000FCD088420CBC70470122D20703004B402ED4431A01D2C01AC91830B44B180418BF
:20322000240E1B0E22D0FF2C20D0E31A182B1DDC09021143C40D641E0002104394461925CE
:20324000ED1A0A00AA40D940451801D36D08A41CE405D209280A2D062A436546AA41604127
:2032600003181B0EFF2B01D3C00DC00530BC7047514006E05140CCE70122D20703004B4092
:20328000F8D4431A03D2C01AC9185040514030B44B18090211430418240E1B0E40D0FF2CFC
:2032A0003AD025009D410BD31ED8C50D4002401A0BD3ED050100400AC90591416841D5E79F
:2032C000C50D40024918401AD0D001214008491C0018FCD58C4204D36D1A000AED05401946
:2032E000C4E7E8051040C1E7182DBFDCAC1C0D00E140E5414D40012D4941C40D00021043D7
:20330000451A01D46D199543641EE405280A2D069541604130BC7047FF2BA7D1D843A5E7E8
:203320002442A3D10020A1E70122D2070118090E7F3910D449421F310FD4001805D2C001D5
:203340001043C84000D5D0437047C0011043C84005D440427047002070470042F3D5100054
:20336000704730B501684118446862088A188368E40704D54C461B1901E0641C09D19142B4
:2033800003D00C7864B2491C01E00C3030BD0D78491C1D705B1C002CEFD4641EF7D5EEE751
:2033A00070B5030074335C68202C37D100290BD0140009D0846880256D01AC4206D1066902
:2033C000002E03D1CE0701D5012070BD7426865D012E23D001261E70C164010050310A806D
:2033E0004A8000228A61DA6021265E60AC4204D10469002C01D1264C00E0264C8C611A704E
:20340000EFF31081012282F310880068026880231343036081F31088002070BD022070BD33
:2034200070B5030074339C68202C2ED100290BD0140009D0846880256D01AC4206D104694C
:20344000002C03D1CC0701D5012070BD7424045D012C1AD001241C700023036603680E4C63
:20346000A3420FD05B681B020CD5EFF31083012484F31088046825688026F6042E4326608E
:2034800083F3108800F0C2FA70BD022070BD00007B3B0008593B000800480040FEB504005D
:2034A0002368D869194609689A682500583520260E4000962026064001960026A94F07400A
:2034C0000BD1019F002F0CD0009F002F09D0E968002901D020008847F7BDD70702D4A24F2B
:2034E0000F4078D0C70706D5CF0504D501271F62AB6A1F43AF62830708D5D30706D502236D
:2035000027683B62AB6A04271F43AF620423184207D0D70705D527683B62AB6A02271F43F0
:20352000AF620823184209D0009F002F01D1D20704D522681362AA6A1343AB62802212019F
:20354000104007D0480105D520680262A86A20210143A962A86A002833D00198002807D0BE
:203560000098002804D0E968002901D020008847A86A402721688968394002D128210140B4
:2035800024D0200000F0A2FA20688068074019D0EFF31080012181F3108821688A6840236D
:2035A0009A438A6080F31088A86900280AD06F498163A86903F096FD002802D0A869816BFC
:2035C0008847F7BD200003F03AFEF7BD200003F036FEAE62F7BDAF68012F00D094E010279C
:2035E000384200D0394200D18EE01F621020C0430121C9432268926852064AD5AA6913685C
:203600005B689BB2002BE5D05827E75BBB42E1DA6B8012681268920635D4EFF310820092BB
:20362000012282F3108822681368514F1F401760009A82F31088EFF31082012383F3108892
:2036400023689F683940996082F31088EFF31081012282F31088226893684027BB439360D9
:2036600081F3108820216962AE60EFF31081012282F31088226813681840106081F31088A8
:20368000A86903F00AFD5820205A6988411A89B236E05822A25A6B88D21A6B461A806A88FE
:2036A000002A5ED06A461288002A5AD0EFF310820192012282F31088226813684B4F1F40DF
:2036C0001760019A82F31088EFF31082012383F3108823689F683940996082F310882021D3
:2036E0006962AE60EE60EFF31081012282F31088226813681840106081F3108868460188F0
:20370000200002F0EFFDF7BD80277F03384206D0520204D51F62200003F092FDF7BD8022D8
:20372000104207D00A4005D02969002919D020008847F7BD4022104013D00A4011D0EFF358
:203740001080012181F3108821680A6840239A430A6080F31088202028622E61200003F08F
:2037600070FDF7BD0F08000020010004453B0008FFFEFFFF70B50400002500262068016804
:203780009F4A0A40A168114322690A4361691143E2690A43026041689A4A0A40E168114335
:2037A0004160A169444A904202D00A00216A11438268954B13401943816003F0A6FB00282D
:2037C0000ED061684A08801803F050FD80B201001039B64A914202D22168C86000E001263D
:2037E0006566A566300070BD00000000DFFEFFFF2421415CC90706D501684A68AC4B1340C9
:20380000826A1A434A602421415C890706D501684A68A84B1340C26A1A434A602421415CF2
:20382000490706D501684A68A34B1340026B1A434A602421415C090706D501684A689F4BBB
:203840001340426B1A434A602421415CC90606D501688A689A4B1340826B1A438A602421C9
:20386000415C890606D501688A682C4B1340C26B1A438A602421415C490611D501684A6876
:20388000904B1340026C1A434A60026C80235B039A4205D14A688C4B1340426C1A434A60D3
:2038A0002421415C090606D501684A689E4B1340806C18434860704700480040F8B5040006
:2038C00000257430C56000F09BFC0700974E20680068000709D500963B0000228021890392
:2038E000200000F01DF800280DD12068006840070BD500963B0000228021C903200000F016
:203900000FF8002801D00320F2BD2100743120204860886025660D700020F2BDFFDFFFFF8C
:20392000FEB5089F802424010025060001916846027002933068C0690199014001988142FA
:2039400001D1012000E0002069460978884254D10020C0438742EDD000F052FC0299401A79
:20396000874201D3002F1FD1EFF31080012181F3108831680A686E4B13400B6080F310885E
:20398000EFF31080012181F3108831688A6801239A438A6080F31088300074302021416050
:2039A000816005700320FEBD306800684007C1D53068C0692040BDD030680462EFF31080D8
:2039C000012181F3108831680A68594B13400B6080F31088EFF31080012181F31088316808
:2039E0008A6801239A438A6080F3108830007430202141608160C160D3E70020FEBD000092
:203A0000F369FFEFFFCFFFFFFFF4FFFFF0B54165010058310A804A800022CA608668FF2419
:203A200080235B019E4204D10569002D11D1414C0FE07F25002E03D10669002E06D108E0D7
:203A40001C04A64207D10469002C01D18D8003E03F248C8000E08A808A6222244C62EFF310
:203A60001084012585F310880568AE6801273743AF6084F3108884689C4204D10369002B03
:203A800001D12D4B00E02D4BCB600A77EFF31081012282F310880068026890235B001343FF
:203AA000036081F310880020F0BD0000F0FF0000FFFFFDFFFFFFFEFFFFFFFBFFFF7FFFFF72
:203AC000FFEFFFFFFFFFEFFFFFFF9FFF10B5EFF31081012282F3108802681368184C1C4065
:203AE000146081F31088EFF31081012282F31088026893680124A343936081F31088016EC5
:203B000001290BD1EFF31081012282F31088026813681024A343136081F310882021C16715
:203B200000210166416610BDFFFFF7FFFFFFFF015FFEFFFFFF010000593C0008DF3B00087D
:203B4000DFFEFFFF80B5806A0100523100220A810A8003F074FB01BD816F212900D07047CF
:203B600010B55221415A002900D11FE0C16C097802689162C16C491C11E0816F212900D0E1
:203B8000704710B55221415A002900D10EE0C16C0988C905C90D02689162C16C891CC164FD
:203BA0005221415A491E5222815210BDEFF31081012282F31088026813688024A3431360F7
:203BC00081F31088EFF31081012282F310880068026840231343036081F3108810BD38B582
:203BE0000100583102684B6A222B30D1526A8B881340426D1370426D521C42654A88521E74
:203C00004A804A88002A26D1EFF31082012383F3108803681C682F4D25401D6082F31088E7
:203C2000EFF31082012383F3108803689C680125AC439C6082F3108820224A620022CA6017
:203C40008B68012B00D147E0FEF74DFA31BD906908210143916131BD38B5010058310268FC
:203C60004B6A222B30D1526A8B881340426D1380426D921C42654A88521E4A804A88002AD1
:203C800026D1EFF31082012383F3108803681C68104D25401D6082F31088EFF310820123B4
:203CA00083F3108803689C680125AC439C6082F3108820224A620022CA608B68012B00D13F
:203CC0000AE0FEF710FA31BD906908210143916131BD0000DFFEFFFF8A60EFF3108101226C
:203CE00082F31088026813681024A343136081F3108801681022CB69134000D00A62582162
:203D0000415A02F0EFFA31BD8269C369D218036AD2180260026A52008369D21853424360B9
:203D2000026A8260002904D00C300021002200230EC0704770B500241E48006800282DD0D5
:203D40001D4909680904401A1C490C68844200DD04001B4D2100286803F0BDFA0600E9688B
:203D6000686803F0B8FA36182969A86803F0B3FA6969301803F095FAE9682961EC606861B2
:203D800004000E484068A04201DA04006861002C04D5002401212800FFF7B6FF80200002D7
:203DA0002018C113090C0818001480B205490968886370BD00050020FC040020AC0600208E
:203DC00094040020B8040020E0B521482021017002214170302181700421C170002242606F
:203DE00082601C49C988002907D10021C94302910C2101910090012323E003200EBD1FB532
:203E00001448C088002812D1134C0020C0430290022001900094012319226A210F4801F066
:203E200099FB002803D160782178090202E0FF210902FF2001430804000DC005C00D04B0A7
:203E400010BD6A21054801F0C3FA0EBD00000000A0060020FC050020F6060020BC02002063
:203E600038B500220A809300C3185C88A12C0BDB0D88A54208D20C801C884C8014000A250F
:203E80006C438C805B88CB80521C642AEBDB05000C002088A1280EDBFF219431414321483A
:203EA0000818800A0A2103F0E1F92080E0881E494143880AE0806088B42149001B4A927806
:203EC000002A2A8806D1904201D3801A08E0891A081805E0824201D3101A01E05118081A31
:203EE000608061881A20484380090A306080AA4D2868FEF75AF920812868FEF756F960816C
:203F000031BD10B5094C012020700021A34A1278012A00D00020E1702171A070FEF741F913
:203F2000A06010BDC806FFFFAE04000094060020FEB50025954CA068FEF737F998498842EB
:203F40000BD3022060709748056097498D8297480078002838D101203AE0954800680190C5
:203F6000944800788D4909786A46117092490968924A1268012663780E2B18D801A75B0095
:203F8000FF5EBF441C002A00C0FF66006A009200B400000108014401840158017401CC0137
:203FA000D40102206070FFF72AFF85490880ACE0844D280001F0B0FD30222900824801F06C
:203FC000C6FD022060700DE080480078002801D100F02DF9E57100F03FF9022802D1032051
:203FE00000F037F9FEF7DDF8A0608EE078481FE0A0797849098C81420CD205206070FEF7B0
:20400000D0F875490860FFF7FAFE6D4908800020A0717AE0401CFBE70199704A11600128CF
:2040200005D164490D70FEF7BCF85B4908606C4800685C490860A57167E06A490968674A70
:2040400011605C4F002804D13E70FEF7AAF85249086052480078012800D10125A570574819
:20406000006850490860022000F0E1F8387800284BD049480068FEF798F85649C98B8142C5
:2040800043D2072037E00198544908603DE0002805D148490E70FEF784F83F4908603F481D
:2040A0000078012800D00125A570E079002804D1E671FFF7A4FE424908804B48006839497F
:2040C0000860042000F0B3F81FE03648016068460078012800D00125A5700A200BE03249F1
:2040E000088B002803D0FF22120290420DD1C88A00280AD10C20607007E02A480160684694
:204100000078012800D10125A570A025ED0520790122824380214900280000F03CFAA27868
:2041200080210902280000F036FAA078617981420DD060712D482E49096881612D49096802
:20414000C1612D49096801620121FFF7DDFD6078FEBDA57013480260D7E7A670FAE70B4993
:20416000087070470948007870470848807870470A490978012902D1401E8041C00F034986
:20418000887070470149487070470000940600201A48407870470000200300209200002037
:2041A000A10F0000000500206405002002000020CC06002091000020DC060020C4060020F0
:2041C0008E040020040500200000080803000020D8060020FC050020C0060020B0060020F6
:2041E000D4060020D0060020C806002094040020E0060020E4060020E80600209406002051
:2042000001484068704700BFD803002010B52D4908702D4CA084FFF7A5FF002803D1A08C2A
:2042200010210143A18410BD26480078704727490880704725480088704725490870704782
:204240002348007870472349088070472148008870472149087070471F48007870471F49DA
:20426000087070471D48007870471D49087070471B48007870471B490A78030001D1002277
:2042800002E0022800D1521C0A7070471548007870471549087070471348007870471349A3
:2042A000088070471148008870471149087070470F48007870470F49087070470D480078C4
:2042C00070470000FF06002064050020F006002000070020F20600200107002002070020D3
:2042E00003070020EA03002004070020F4060020050700200607002030B50E4801880E4ACD
:20430000116041880D4A11600D4C25888188A520400048439621490002F0A8FF401B642183
:204320004843A188491B02F08DFF1E300549086030BD00BF38030020B4060020F8040020E6
:204340007A00F81FB806002070B50400204DA869E860296AE86902F0A4FFA860696A02F0B9
:20436000A0FF010080267602300002F0D0FF0100A86802F0B0FF286020046861E96802F024
:204380009DFF0100286802F0A6FF0100E86802F088FF28612968300002F090FFA96802F0C1
:2043A0009AFF0100E9612869A861002801D4720800E0084A8018C213120C10180014696046
:2043C00070BD034A00239361D3611062516270472C0600200080FFFF10B5002407480168CB
:2043E00040220A430260002002F0F4FF002801D0012401E000F08EFE200010BD00200240DD
:20440000002200BF094202D0491E4254FCD17047F0B585B000220F23039331E0062303E03C
:204420006A4B9842FAD10523B3402B432360684B1D68019BDC4325404B68DB0302D52B002B
:20444000019D1D43624B1D605D6825404E68B60302D52E00019D35435D609D6825404E68A3
:20446000F60202D52E00019D35439D60DD682C404D68AD0202D52500019C2C43DC60521C65
:204480000B681C00D44000D17DE00124944023400193F4D0530003259D40EE4302964D68C1
:2044A000AE07B60F012E03D0AD07AD0F022D0ED18568029E2E40CD689D40354385604568EB
:2044C000A5434C68E606F60F96402E43466094006D466C7003244D682540032D25D0C568AC
:2044E000029E2E408D689D403543C5604D682540022D1AD1D508AD0045192E6A04966E463D
:2045000077781C263E406F463E70049EB446039F6E463678B7406646BE43B4460F696E461F
:204520003678B740664637432F620568029E2E404D682C409C40344304604B68C024A4028F
:204540001C409CD00123234C24681C43214D2C60214C9508AD00641925686E4677780C2685
:204560003E40039FB740BD43A027FF05B84201D1002359E7194FB842FBD0194B984200D0EF
:204580004EE7022350E705B0F0BD0069084000D00120C0B27047002A01D0816170478162E6
:2045A000704742690B0013401B04914319438161704701000B4A13680B4000D1704780B57A
:2045C000116002F075FF01BD00000000001C00500004014034100240080001400004005072
:2045E000000800501404014010B5C20018231340FF249C40E2438907090E9940030004D476
:2046000018489B089B00C01806E0174B0007000F083880088000181803681A4011430160D4
:2046200010BD80B5FFF7E0FF01BD010005D40121C006C00E81400D480160704710B5401E04
:2046400080214904884201D3012010BD084C606003210020C043FFF7C7FF0020A060072181
:20466000216010BD00E400E01CED00E000E100E010E000E0F8B5040016D025005035002647
:204680006868002804D1AE602E70200000F05BFD10206968014003D121688A68520705D575
:2046A0006968084368602E700120F2BD68685D4A02400220104368605B488A689207920FE3
:2046C000012A03D10A461268D2072AD46268574BC0273F06BA4206D05F1CBA4203D08027DF
:2046E0003F06BA4208D10A6913400B6121680A69636813430B610AE00A6913400B61016860
:204700004B4A0A400260016862680A4302602168CA6818239A43CA602168CA68A36813435D
:20472000CB600168434A0A4002600168626B52060A43026020688021490582680A4002D1F1
:204740008268114381602068C1683B4A0A40C2602069022801D1042100E000212068C2683B
:20476000E368134319432022A25C52030A432C21615C49001143226B0A43A16989031143EF
:20478000E269D2030A43C260606AFF21C231884205D02168CA681043A26A0243CA60012064
:2047A0002121615C012910D12021615C002905D12168CA6803041343CB6006E069682022B6
:2047C0000A436A60A9680143A960E16B012921680A690FD1194B13400B6121680A69236C64
:2047E0001343626C1A43A36C13430B6121680A69024303E0024002D00A6982430A61216803
:204800004A6907239A434A6121684A69A36B13434B61AE60696802229143084368600020DD
:20482000F2BD0000FFFEFFFF08270140FFFFFF3FFFFFC3FFFFFFFFFD1902FEFF03FCFFFF53
:20484000F2B505001700002600242868816849073CD45021695C012901D10220F2BD01214D
:204860005023E954C2681143C160E869012804D0280000F0FDF8040029D13B00009A280093
:20488000503047687649394080277F000F434760866006707348E96CC8627348E96C086381
:2048A0007248E96C48631C20296808602868416810260E43466029684031E86C02F0B6FBAA
:2048C0002868816804220A43826000E002242000F2BDF8B504002068012708211025042250
:2048E0000368134003D003465B68134006D103680B4037D003465B680B4033D0636D2B409F
:2049000003D1636D8E011E4366650346DB68C02636011E401DD12023E35C002B19D1006844
:20492000014016D02068806802400BD1206840680C21884321684860606D63490140394333
:20494000616506E0606D202101436165A06D3843A065200002F034FEA069012802D00C2092
:204960002168086080262068006830400CD020684068304008D0606D2903014361652000C9
:2049800002F01FFE2068066020680168294014D001464968294010D0216B002903D00146CC
:2049A000C9680F4007D0A16D02220A43A2650560200002F007FE20680560F1BDFEB55022DE
:2049C000825C012A01D10220FEBD0700503701223A70006800248268520706D578682021F9
:2049E000014379603C700120FEBD009109684903490B01918025AD02654E6900009A52681A
:204A0000644B9A42826A019B15D01343836200980068014006D03068A901014331600A200B
:204A200000F0A4F800980068054016D030688021C903014310E09A43826200980068014084
:204A400003D0306854490140316000980068054003D030685149014031603C700020FEBDD9
:204A6000FEF1FFFFDD4A0008494B0008534B0008F8B50600306881688907890F012903D17E
:204A800001460968C9071CD4102401258168444A0A4015D1816829438160012000F066F8F8
:204AA000FFF7AEFB070030680068284009D1FFF7A7FBC01B0B28F6D3306800682840F2D174
:204AC00004E00020F2BD0000FFFEFFFF706D04437465B06D0543B5650120F2BD10B5816A2C
:204AE0004A6D502313402BD1486D8022920002434A650868C268C0231B0113401CD1202245
:204B00008A5C002A18D10A681268120714D5012283685B0709D443680C24A3434360486D48
:204B2000204B03401A434A6506E0486D202303434B65886D02438A65080002F041FD10BDB9
:204B4000C96C496B884710BD80B5806A02F03BFD01BD80B5806A416D40220A434265816DB8
:204B600004220A43826502F02DFD01BD18B504000D4800680D4902F079FB4443009402E0BA
:204B80000098401E009000980028F9D111BD00000827014001100000FFFF7FFFFFFFBFFF7E
:204BA00017000080FFFEFFFFE403002040420F00F2B5040017001D00002C14D0260074360C
:204BC0007068002803D13070200000F05CFB24207060206801680122914301602000FEF788
:204BE000C9FD012801D10120F2BD606A002802D02000FEF7FDFD009821688A688023DB01BF
:204C000013438B6021688A680A4B13401843886020680168084A0A40790511432A040A4313
:204C200002602068016801220A4302602000FEF745FEF2BDFF7FFFFFFFFF00FC10B5040009
:204C400001D1012010BD3920205C002804D138216054200000F0E8FA022039216054211D55
:204C6000206800F04DF901203E2160543A2160543B2160543C2160543D216054392100F0B6
:204C800065F810B5040001D1012010BD3920205C002804D138216054200002F095FC02208A
:204CA00039216054211D206800F02AF901203E2160543A2160543B2160543C2160543D214B
:204CC0006054392100F042F810B50400002901D13A2008E0042901D13B2004E0082901D155
:204CE0003C2000E03D20205C012801D0012010BD0220002901D13A2208E0042901D13B22FA
:204D000004E0082901D13C2200E03D22A0540122206800F0C3F9216801208207914205D0E9
:204D2000084A914202D0084A914205D189684907490F062904D021680968084321680860AF
:204D4000002010BD00080140001401406054002010BD0000F1B582B000206B46187002985C
:204D60003823C05C012801D10220FEBD0120029B3824185508272C4EC5020C00002A06D0E1
:204D8000042A14D0082A24D00C2A32D043E00298006800F0DCF80298006881690F43876194
:204DA00081690422914381618169E2680EE00298006800F0E2F80298006881690D4385611D
:204DC00081690E4086618169E26812020A43826123E00298006800F0E8F802980068C1693B
:204DE0000F43C761C16904229143C161C169E2680EE00298006800F0EFF802980068C1698C
:204E00000D43C561C1690E40C661C169E26812020A43C26101E06946087000200299382268
:204E2000885468460078FEBDFFFBFFFFF8B504000026684606703820205C012801D10220D1
:204E4000F2BD2700383701253D7002203922A05420688268294B13408360086802003FD02C
:204E600010283DD020283BD0302839D0402830D0502820D0602825D0702806D02B03984276
:204E800035D05B0098420AD02FE0CB684A688968206800F0E4F820688168772208E0CB68A0
:204EA0004A688968206800F0DAF820688168AA030A4382601BE0CA684968206800F0A4F8C6
:204EC00050210EE0CA684968206800F0AEF8602107E0CA684968206800F096F8402100E0E0
:204EE0000100206800F0B3F801E068460570392025543E7068460078F2BD00008800FFFFAF
:204F000070B502685B4B5C4C8025ED05A84203D0A04201D0984208D17026B24316004A68A7
:204F20003243A84203D0A04201D0984203D1534B1340CA681A4380239A430B6913430360B1
:204F40008A68C262096881620121416170BD30B5026A01239A430262036A426885697324A4
:204F6000A5430C682C430225AB438D681D434260846149684163056230BD30B5026A102348
:204F80009A430262026A436884693D4D25400C6824022C432025AA438D682D011543436084
:204FA000846149688163056230BD30B5026A354B13400362046A4268C56973239D430B686B
:204FC0002B43314D25408C6824022C434260C3614968C163046230BD30B5026A2B4B1340EF
:204FE0000362036A4268C469254D25400C6824022C43274D1D408B681B032B434260C46111
:2050000049680164036230BD30B5036A046A0125AC4304628469F025AC43120122438261A1
:205020000A2293431943016230BD30B5036A1024A34303628469036A164D254012032A434D
:205040008261A022934309011943016230BD826870239A43114307220A438260704730B57D
:2050600084680D4D254029430A4319021143816030BD00000014014000080140FFFCFFFFF8
:20508000FF8CFFFFFFFEFFFFFFFDFFFFFFEFFFFFFFDFFFFFFF0FFFFFFF00FFFF10B5C9062D
:2050A000C90E036A01248C40A3430362036A8A401A43026210BDFEE7F0B53822825C012ABE
:2050C00001D10220F0BD020038320123137002243925445505686E68AC687027BE430F6899
:2050E00037436F6005689E07B54205D0074EB54202D0074EB54204D18026B4434968214398
:20510000A9603921435400201070F0BD0008014000140140E0B508220021684602F055FADB
:205120007B48016801220A4302604168802252050A434260002000900190684602F050FAB5
:2051400002F07EFA07BD70B586B004001422002101A802F03AFA20686E49884237D16E48D5
:205160008168420D0A438260012102680A43026000680140009100986020019003200290F5
:205180000025039501A9A020C005FFF741F9634E634830607560B560F560802030618030E7
:2051A00070618000B0612020F0613562300001F0F1FE002801D0FDF7B9FFE664B46200222E
:2051C00001210C20FFF72DFA0C20FFF72EFA06B070BD10B586B004001422002101A802F046
:2051E000F4F920684F4988421CD101204A4C2168014321602168014000910099C021C90048
:205200000191122102910021039103210491059001A9A020C005FFF7FBF8E06880218903A6
:205220000143E16006B010BD00688021C905884204D13D48016801220A430260704710B5B4
:2052400086B004001422002101A802F0BEF920688021C905884214D102202F490A68024374
:205260000A6009680140009100990821019102900021039103210491059001A92B48FFF785
:20528000C7F806B010BD70B586B0040014220021684602F09AF920682549884235D11E48B7
:2052A000C168802292020A43C260012102680A430260026811400591059902240168214303
:2052C00001600068204005900598E002009001940025029503260396042004906946A020C7
:2052E000C005FFF795F8C0200090019402950396049569460D48FFF78BF8002200211C209C
:20530000FFF78FF91C20FFF790F906B070BD000034100240002401402C100240B40500202F
:20532000080002400054004038100240000400500044004070B5040001D1012070BD2500BF
:20534000403500266878002803D12E702000FFF740FF24206870206801680122914301607E
:2053600060681849014020680161216816488A6802408A60A168C2430A4321688A6021687D
:205380004A68124B13434B602168CA681040C860206961690143A069000208432168C8602C
:2053A000E069216A0143206801602068016801220A4302606E60202068702663AE7000207C
:2053C00070BD0000FFFFFFF0FF7FFFFF00800002FEB504000F0016001D004030407820284C
:2053E00000D0B4E00898002803D06846808C002805D180208000210040314860A5E04020B7
:20540000205C012800D1A2E0012040216054FEF7F7FE0290009019230122D103200000F00F
:20542000CDF90028EAD12B003200212021004031487040202100403188700020210040313F
:205440004860089860626846808C608500206063029801900A9800903900200000F042F9DF
:20546000002803D00020402160546EE0608DFF280DD9FF2020850020009080235B04FF221D
:205480003900200000F059FA0A9E029D08E0608D20850020009080239B04228DD2B2EFE7B4
:2054A0002A003100200000F0B6F900284DD1606A007821688862606A401C60628648618D33
:2054C00009186185218D08182085618D002921D000041FD10095330000228021200000F0BB
:2054E0006DF9002831D1608DFF2807D9FF2020850020009080235B04FF2207E0608D208518
:205500000020009080239B04228DD2B23900200000F013FA608D0028C2D131002A002000ED
:2055200000F0A3F901000ED120202268D061226853686A4D1D405560220040325070002082
:20554000002393701070080002D00120FEBD0220FEBD0000FEB504000F0016001D004030A9
:205560004078202800D0B5E00898002803D06846808C002805D18020800021004031486019
:20558000A6E04020205C012800D1A3E0012040216054FEF735FE0290009019230122D10379
:2055A000200000F00BF90028EAD12B00320022202100403148704020210040318870002001
:2055C000210040314860089860626846808C608500206063029801900A98009039002000F7
:2055E00000F0AEF8002803D00020402160546FE03B48618DFF290CD9FF212185009080231F
:205600005B04FF223900200000F097F90A9E029D07E0618D2185009080239B04228DD2B26A
:20562000F0E70095330000220421200000F0C6F800284DD12068406A616A0870606A401CD5
:2056400060622549208D40182085628D51186185618D002921D000041FD10095330000224C
:205660008021200000F0AAF8002831D1608DFF2807D9FF2020850020009080235B04FF2222
:2056800007E0608D20850020009080239B04228DD2B23900200000F050F9608D0028C0D134
:2056A00031002A00200000F0E0F801000ED120202268D06122685368084D1D4055602200FE
:2056C000403250700020002393701070080002D00120FEBD0220FEBDFFFF000000E800FE5B
:2056E00000240080F8B5060015001C00079F2B48009080235B04E2B2300000F01EF93A0072
:205700000699300000F087F8002817D1012C09D0280A316888623A000699300000F07BF814
:2057200000280BD1EDB2306885620097069B00228021300000F042F8002800D00120F2BD2A
:20574000F8B5060015001C00079F144800900023E2B2300000F0F1F83A000699300000F01A
:205760005AF8002817D1012C09D0280A316888623A000699300000F04EF800280BD1EDB22A
:20578000306885620097069B00224021300000F015F8002800D00120F2BD0000002000803A
:2057A00000688169890701D500218162012182690A4002D18269114381617047F8B500245A
:2057C00005000F00684602701E00286880693840B84201D1012000E000206946097888429F
:2057E00017D10020C0438642EFD0FEF709FD0699401A864201D3002EE7D1280040302021C8
:2058000042680A43426041700021817004700120F2BD0020F2BD70B504000D001600206845
:20582000806980071FD432002900200000F044F8002801D0012070BD0020C0438542EED06F
:20584000FEF7DEFC801B854201D3002DE7D120004030202142680A43426041700021002200
:2058600082700170E6E7002070BDF8B5202504000E0017002068806928401BD13A00310060
:20588000200000F019F8002807D1FEF7B9FCC01B864204D3002EEDD101E00120F2BD200006
:2058A000403041682943416045700021002282700170F2E70020F2BDF8B5036810249D696D
:2058C000254038D05D68AD0103D45D68A6022E435E6005000F00009220262868816931409E
:2058E00011D10020C0438742F7D0FEF789FC0099401A874201D3002FEFD1280040304168D9
:205900003143416010E0C4612868C6612800FFF747FF28684168114A0A404260280040302A
:20592000416804220A434260467000210022827001700120F2BD0020F2BDF0B5059C006800
:205940004568660D064F3743BD438905890D294312040A4313431C434460F0BD00E800FE79
:20596000FF63FF0370B5020040325378202B14D14023C35C012B10D00123137024245470EE
:20598000046825689D43256004682568164E2E4026600468256829431CE0022070BD70B583
:2059A000020040325378202B12D14023C35C012B0ED00123137024245470046825689D4362
:2059C000256004682568094E2E400902314301E0022070BD2160006801680B430360202092
:2059E00050700020107070BDFFEFFFFFFFF0FFFF70B5050001D1012070BD286814490160A9
:205A00001449016069684160A9688160FEF7F8FB072406002868C16821400AD0FEF7F0FB77
:205A2000801B2B28F6D32868C0682040F2D0032070BDE96802698A4201D0016101E006499A
:205A40000160002070BD04490068016000207047CCCC000055550000AAAA000030B500230D
:205A600004E05C0005192D880D535B1C9342F8DB30BD70B50600424C4E223100200001F03C
:205A800007FE404D4E20305A288030004E3041883D4A1180C18869800189A9804189E9802D
:205AA00081892981C1896981018A384A11808088FEF7BDFBFF263602FEF7BCFB022809D19E
:205AC0006088B04206D12888B04206D101203049087002E06088B04201D1012000E00020DB
:205AE000FEF7ABFB2420205CC00601D5002000E00120FEF734FBA08CC10701D5012008E097
:205B0000810701D5022004E0400701D5042000E00820FEF77BFB70BD38B504004E2218497E
:205B200001F0B6FD4E34174D28882080164800886080FEF77FFBA0806888E080A888208115
:205B4000E88860812889A0816889E08131BDF8B507000E001500002401F0DDFD0D4801685E
:205B60000D4A0A40026006E06000325A3918012001F0F4FD641CAC42F6D301F0E3FDF1BD46
:205B8000640500206C0600208006002012000020FD06002004200240EFFDFFFF9D210200DF
:205BA0000AD002D4491E9218FCD5C905100A1206524100D3012A48417047000030B4050099
:205BC0004D400122D20715404B180418240E25D01B0E2CD0FF2C31D0FF2B34D0E41A0002C2
:205BE00009021043114343084808D10D1B1A02D2641EDB181B18DB18834200D31B1A49417F
:205C0000F9D37F3423DDFF2C05DAE40548086041284330BC7047FF20C005F9E728001B0EFE
:205C200003D0FF2BF5D14902F3D0D043F1E7FF2C01D14002F9D1FF20C005E9E74002F4D1E4
:205C4000FF2BF8D1F1E728004902E2D0EDE70B0200202442DCD15B129B1CD9D9D805D7E7CF
:205C6000F8B5A24C0821A020C005FEF78EFCA0701021A020C005FEF788FCE0709C4D0121C2
:205C80002800FEF782FC607120212800FEF77DFCE07122001E32217AA07801F0A3FDA070AA
:205CA00022002132617AE07801F09CFDE07022002732E17A607901F095FD607122002D32DE
:205CC000217BE07901F08EFDE071A0782072E07860726079E072E07920730026FF273F028A
:205CE000844DE88C052807DBFEF7DCFAB84201D100200EE001200CE080210901A020C0056E
:205D0000FEF743FC207122002432A17A01F06AFDA0722071A078002833D10120FEF787FA55
:205D2000A5480780E673FEF77FFA042803D0FEF77BFA082811D1FEF72BFA02280DD1FEF796
:205D400085FA9E49884202D00120FEF75FFA0122290024319A48FFF7FAFE6888B8420FD197
:205D6000FEF716FA02280BD1E88C022802DA0020FEF763FA6E800122A91C9248FFF7E7FEA1
:205D80002F80E078002825D1FEF751FA8A490E802E80E673FEF748FA04281BD0FEF744FAB5
:205DA000082817D0E88C022814DBFEF74FFA834988420FD0FEF738FA02280BD0FEF7E8F98A
:205DC000022807D1FEF722FA0122290024317C48FFF7BDFEA078002805D0E078002802D033
:205DE0000120E07326742079012806D1FEF72EFA724988421DD0022019E0FEF715FA08281E
:205E000017D0FEF711FA042813D0FEF70DFA20280FD0FEF71BFA694988420AD0E88C02286B
:205E200001DA012003E0FEF705FA012801D1FEF7EDF9A079002846D0607C00283CD1E07BF6
:205E4000217C014338D0A6712674FEF7FFF95B4988422ED00120FEF7F0F96F80E88C0528C0
:205E60000EDA0220FEF78EF98F4800688663FCF74FF9FEF75DF80820FEF784F98B490E7003
:205E8000E88C022807DA0420FEF7C0F9FCF789F98749086002E00820FEF7B8F90122A91C6C
:205EA0004848FFF754FE0122290024314448FFF74EFEA079002806D06069FCF776F97D4993
:205EC000884200D3A671FEF7B5F9002807D1A079002800D0A671607C012800D16674E0793A
:205EE000012800D00020FEF73AF9F1BD000000200004005064050020F8B56F4FA024E4059E
:205F000002212000FEF741FB387004212000FEF73CFB78703A001832797B387801F062FC95
:205F200038703A001B32B97B787801F05BFC787039787973B8730024604DFF2636020029BF
:205F40001ED1EE83002801D12E84F1BDE88C02280DDAFEF769F9022809D0FEF771F9002821
:205F60000FD157484088B0420BD1554806E054484188B14205D13979002902D1068000E047
:205F8000EC837878002814D12E843878002811D0FEF74AF902280DD0494FE88C022803DAD8
:205FA000FEF74EF9002805D17888B04202D13C80F1BD2C84F1BD0000800600205A5A0000C0
:205FC0002400080802000808F8B5FEF73FF93D4988424CD03C4E8025ED01374CFEF724F983
:205FE0000428608A0BD1284201D0002200E0012229003000FEF7CFFAFF20000209E02842C4
:2060000001D0012200E0002229003000FEF7C3FA00202A4FB8836D00FEF70CF900280FD13C
:20602000FEF7B6F802280BD1608A284201D0012200E0002229003000FEF7ADFA002078835D
:20604000FEF7F8F8002805D1A07801280FD1E07801280CD1608A284201D0002200E0012294
:2060600029003000FEF797FAFF2000027883F1BD10B5114C80210901A020C005FEF785FAB1
:206080002071A072012801D1022009E00B48C08C022801DA012003E0FEF7CCF8012801D1FB
:2060A000FEF7B4F810BD0000B80400209100002034030020E90300000000002064050020F9
:2060C0006C0600205A5A000000080050F8B54C4CE08C02280DDB4B480078012809D14A48BF
:2060E0000078002805D10320FEF7B3F80220FEF78DF8464D46480580464F3D806584FEF7F5
:2061000099F8022802D1FF20000260840026FEF791F8042800D16684E08C022823DAFEF7D9
:2061200083F801280DD1FEF785F8022803D0FEF781F8042805D1364806803D800120FEF727
:2061400076F8FEF771F8012859D1FEF779F8012855D12F4806803D800120FEF768F8042017
:20616000FEF754F8F1BDFEF75FF8012807D1FEF761F802280FD0FEF763F801280BD0FEF743
:2061800053F8082818D1FEF755F8022803D0FEF751F8042810D11E4806803D800120FEF752
:2061A00046F8FEF741F8082803D0FEF749F8012802D10120FEF74DF8154CFEF735F8082830
:2061C00008D1FEF737F8002804D13D8025800320FEF73FF8FEF728F8042803D1FEF72AF8E8
:2061E000022807D0FEF720F8012808D1FEF722F8042804D126803D800120FEF718F8F1BD48
:2062000064050020FD06002003000020A5A500006C06002080060020FEB5040000206946A7
:2062200008705020205C012801D10220FEBD0127502167542068032581682940012903D1CE
:2062400021680968C9073DD4210050314A68244B134002221A434A60C1680D40C16803225E
:206260009143C16020688168802212060A438260FDF7C6FF019020688026360681683140C1
:2062800015D0FDF7BDFF0199401A0B28F3D3206880680640EFD020005030416802229143C6
:2062A00010220A434260002101700120FEBDC1680D43C560200050304168022291430F431E
:2062C000476007E020005030416820220A4342606846077000205021605468460078FEBD6B
:2062E000FFFEFFFF7047FEE7F8B5554DE88C022813DB0026534FFDF7E1FF002800D13E70E9
:20630000FDF792FF042808D04F4CFDF799FF012804D002D3032861D01DD3F1BD3878401CF5
:2063200038704A4EE98C052905DBC0B2312851D200F072F803E0E188C0B281424AD3FBF7C2
:2063400030FF43490860FBF72CFF30600120FDF7B2FF02203FE0FDF785FF01285BD1002079
:20636000FDF77DFFE98C3878FF263602052926DB312824D2288B00280CD1FDF709FF0228CF
:2063800008D1FDF775FF002804D126800320FDF760FF0FE0288BB0423DD1FDF7F9FE0228EC
:2063A00039D1FDF765FF002835D13878401C387000F032F8FBF7F5FE25490860F1BD891E6F
:2063C000032907D2E188814204D326800320FDF740FFF1BD0320FDF730FFF1BDFDF724FF00
:2063E000042814D00420FDF711FF0122290024311848FFF7ACFB2680174806800020FDF728
:2064000028FF0020FDF719FF0020FDF728FF3E700020FDF750FFF1BD0A480078022801DA60
:20642000032009E001D1782006E0032802D19620400001E0E120C0000349088170470000DE
:2064400064050020FC0600206C0600201C030020180300202400080880060020F8B55A4C58
:20646000FDF7E2FE022802D0E08C022806DB5748007800285AD1E08C022857DB544DA889D1
:20648000002853D1FDF784FE02284FD10127FF2636022888B0420ED1FDF7CCFE00280AD129
:2064A000E08C02280BDBFDF7BFFE042803D0FDF7BBFE082803D1FDF7CFFE032837D128885B
:2064C00044490988884203D1FDF7C6FE03287AD1208A401C2082608A401C6082A682FDF7E6
:2064E000A3FE012802D10020FDF7E5FE0120FDF78DFE0220FDF79BFE0020FDF79EFE36488B
:20650000FFF70AFB302234493448FFF720FB2888304908800620FDF735FE31480770FDF742
:206520009BFE03284FD10020FDF793FEF1BD288800283CD1FDF77EFE012838D1E08C022807
:2065400007DBFDF771FE042831D0FDF76DFE08282DD028881F490988884234D0208A401CC0
:206560002082A6820420FDF762FE1B4E3000FFF7D3FA302231001948FFF7E9FA28881549B2
:2065800008800820FDF7FEFD15480770FDF764FE012802D10220FDF75CFEE08C022812DB43
:2065A0000220FDF733FE0020FDF785FEF1BD2888B04208D1FDF73EFE002804D1E08C022811
:2065C00001DB00202880F1BD64050020040000206C0600208006002004050020000008084B
:2065E000110000207FB50600FF240025009501F015F9019502961448006880021349014043
:2066000013480818801BC0090390694601A801F04DF8002800D1002401F025F9200004B07A
:2066200070BD0C49087070470A48007870470A490880704708480088704708490880704777
:2066400006480088704700007C00F81F00FCFF03FF1F000807070020F8060020FA0600208A
:2066600038B5A025ED051D4C012808D002280DD004281DD0082811D020281BD023E0002283
:2066800080212800FDF787FF012222E0002280212800FDF780FF0421200006E000220421C2
:2066A0002000FDF778FF80212800FDF77AFF31BD002200E0012204212000FDF76CFF01223F
:2066C0008021280007E0002280212800FDF763FF002204212000FDF75EFF31BD00040050CF
:2066E00038B50500080011001C00049B032D04D0062D0DD0102D0FD011E093221202944214
:2067000002D101F053F90AE0220000F0F2F806E0220000F0E9F802E0220000F0B3F84F4874
:20672000048031BDF8B504000F00FE31C9B201F0DFF92178012903D0032901D0022916D10F
:20674000E219921E13781B0252789A1890420ED1012902D10020FDF78EFD93263602404D9F
:206760006078032804D006284CD010280DD0F1BDFDF76CFD3B49884202D03848018800E0CF
:206780003100200000F0C8F8F1BDA0780002E1784018B04204D13900200001F063F9F1BD64
:2067A0002079000261794618FDF750FDA84254D0A0780002E17840189021090288420ED187
:2067C000182E4AD1284D3022E11D280000F060FF182229002548FFF7BAF902203BE09121B4
:2067E0000902884239D1302E37D1C04D6022E11D280000F04DFF30222900BD48FFF7A7F94D
:20680000012028E0A0780002E178401892210902884222D1FDF71AFDA84203D1FDF736FD19
:20682000C8281ADB2079000261794018A84214D10F490D8001220F48FFF789F90E490F4852
:2068400008800F4848800222C448FFF780F92800FDF7F9FC0320FDF728FDF1BDE8030020EC
:20686000A5A500005A5A0000FC05002000020808EE060020F8010808A605002001560000A8
:206880000408000038B504005D00ADB2217010206070100AA070E270180A207163719121F9
:2068A00009028A4207D10621200001F021F9010AA171E07131BDA571842189018A4204D195
:2068C0008021200000F07EF903E02900200000F047F9E91DC9B2200001F00AF9010A621919
:2068E000D1716119087231BD10B504002170062003E010B50400217003206070100AA0709A
:20690000E270180A207163710621200001F0F0F8010AA171E07110BDF8B50600A84D8022F9
:206920001202914200D0A9E00122AC49341D50003318DB781B02205C1818A94B984201D157
:2069400002200870521C062AF1DB0878022800D103E1A44CA4482100122200F099FEF079B3
:206960000002317A4018FF210902884201D0002800D1A080A088884209D1E88C022801DAEE
:20698000FDF75EFCF078000231794018208071790A02B0791318FF200002834201D0511833
:2069A00000D16380717A0902B27A89186A465180F17A0902327B89186A461180717B0902E3
:2069C000B27B8F18F17B0902327C8918A181717C0902B27C8918E181F17C0902327D89180A
:2069E0002182A189814214D1E18981420BD17F48FFF7F8FDBFF34F8F7D487E490860BFF331
:206A00004F8F00BFFDE7218A814202D10120FFF708FEE98C022912DBFF202E30874200D2F2
:206A2000678104290BDC694649880B2902D269464988E18069460988814200D221816A48C8
:206A40004188628891420FD18188A28891420BD1C188E288914207D101892289914203D1B4
:206A600040896189884278D0204C2000FFF754F8302221001E48FFF76AF8F1BDFF2424025B
:206A80005D4A914236D1F07800023179401801D0A04209D128837279082128004630FDF72B
:206AA000B1FC0020E882F1BD5449884201D0A52802D10020FDF7EDFBFDF76AFB0C2808D1B7
