S0260000626F6F746C6F616465722B6170702B7369676E65642B7075626C69634B65792E733337BF
S31500000000001000208501000081010000910400001D
S3150000001081010000810100008101000081010000D2
S3150000002081010000810100004831000081010000CB
S31500000030810100008831000081010000810100007B
S3150000004081010000810100008101000081010000A2
S315000000508101000081010000810100008101000092
S315000000608101000081010000810100008101000082
S315000000708101000081010000810100008101000072
S315000000808101000081010000810100008101000062
S315000000908101000081010000810100008101000052
S315000000A08101000081010000810100008101000042
S315000000B08101000081010000810100008101000032
S315000000C08101000081010000810100008101000022
S315000000D08101000081010000810100008101000012
S315000000E08101000081010000810100008101000002
S315000000F081010000810100008101000081010000F2
S3150000010081010000810100008101000081010000E1
S3150000011081010000810100008101000081010000D1
S3150000012081010000810100008101000081010000C1
S3150000013081010000810100008101000081010000B1
S3150000014010B5054C237833B9044B13B1044800E0CD
S3150000015000BF0123237010BD08100020000000001E
S31500000160C433000008B5034B1BB10349034800E044
S3150000017000BF08BD000000000C100020C4330000C2
S31500000180FEE7000008B500F021F800F0E9F90A4B97
S315000001900A4A0B498B4206D300210A4B0A4A93426C
S315000001A006D300F079F952F8040B43F8040BF1E793
S315000001B043F8041BF3E700BF00100020C43300001F
S315000001C0081000200810002028100020044B054AC3
S315000001D09A60D3F8882042F47002C3F888207047EA
S315000001E000ED00E000000000C0F30C032DE9F04133
S315000001F005460F4616460BB900F0E4FA05F500541D
S3150000020024F4FF5424F01F0405EB0608A04507D884
S31500000210324639462846BDE8F041022300F0E0BAEE
S31500000220204600F0CFFA04F50054EFE770B400253D
S31500000230AD6A03462E69864206D86C6913449C4211
S3150000024002D370BCFFF7D0BF70BC70471FB510F566
S31500000250004F00F50043144603931AD2039BB3F5EF
S31500000260FC2F16D2039BC3F5FC23934211D348B946
S31500000270836A5A69B2F5004F04D91869019100F0F2
S31500000280A1FA01992246039804B0BDE81040FFF791
S31500000290ABBF04B010BD00007FB50346D0B16D46BC
S315000002A00D4A02F110062C4610685168083203C444
S315000002B0B2422546F7D15A1E0DF10F010F3311F840
S315000002C0010912F8014F844204D19A42F7D1012064
S315000002D004B070BD0020FBE734310000036913F061
S315000002E0FE0F0CBF01200020704738B504460D46AE
S315000002F0FFF7D2FF48B16369012B09D12046FFF70A
S31500000300EDFF08B1A3692B6038BD01202C60FBE727
S315000003100020F9E7F0B50368054603F16043B3F53D
S31500000320004F4FF00004A1B017D8A26A43681769BE
S315000003309F4212D8B3F5002F0FD8466B07F1400342
S31500000340B3420AD8B6F5002F07D840F20463304608
S315000003500493FFF7A1FF18B90024204621B0F0BD91
S315000003603046FFF7BBFF0028F6D0646B2046FFF748
S3150000037093FF0028F0D0403FBC42EDD8304605A997
S31500000380FFF7B3FF0028E7D00022926A059B1269A7
S315000003909A42E1D89D42DFD8B3F5002FDCD806A8F3
S315000003A001F09CF8059A2946521B06A801F0AAF806
S315000003B006A801F0A9F8059C01F0AAF8039001F03F
S315000003C0ABF82146009004F12002039B06A801F039
S315000003D019F80490049CB4FA84F46409BDE700009B
S315000003E030B54FF0FF3289B005460C4600F0BAFF33
S315000003F00D4B984215D140F2022000F093F91C22D1
S31500000400002101A802F081FE084B294668460093A8
S3150000041001F0A4FE6846214601F0A0FE684601F000
S31500000420A7FE002009B030BDE320BBDE0100064375
S315000004304FF0FF3313B5044601A8019301F050FFB6
S3150000044030B9019BA3422CBF0020012002B010BD91
S315000004500020FBE710B5044688B040F2022000F009
S3150000046061F91C22002101A802F04FFE054B21462E
S315000004706846009301F072FE684601F079FE00209E
S3150000048008B010BD0000034301F0AABC01F014BD82
S315000004904FF4017000F06CB92C4B13B51B68C3F315
S315000004A00743012B0DD12A4B04205A6E4FF48023AB
S315000004B028494B6601F51041086250035CBF264A85
S315000004C053664FF04023D3F88420110606D44FF428
S315000004D000621A67D3F88420D206FBD4FFF7D4FF54
S315000004E000F014F908B900F0FFF801F0BCFA044670
S315000004F058B900F00BF908B100F002F940F20120FA
S3150000050000F036F94FF4017018E000F0FFF808B972
S3150000051000F0F0F800F011F9012802D900F0E4F833
S31500000520FEE700F014F90D4B0193019B002B0ADC4A
S3150000053040F205439C42E5D140F2032000F018F951
S31500000540002002B010BD019B013BEDE70080E00FEB
S31500000550008000400090004000A0004000350C00E4
S3150000056013B501244FF040238DF806408DF807405F
S31500000570D3F894305B0610D500F00EF9A0F20220F5
S3150000058080B2072809D804FA00F010F0C90F1EBF80
S3150000059000238DF806308DF807304FF4C0435B68B2
S315000005A0013308D14FF4027000F0BCF800238DF837
S315000005B006308DF807309DF8073063B14FF4C04020
S315000005C0FFF7A8FE8DF806009DF806301BB94FF41C
S315000005D0027000F0A7F89DF806308BB100F096F88F
S315000005E008B100F08DF84FF4C043064A93601846F0
S315000005F0016881F3088881F3098840688746FEE729
S3150000060002B010BD00ED00E0B1F5027F10B5044662
S3150000061010D34FF40272002102F077FD002304F597
S31500000620C872637004F5A47104F12C00BDE8104093
S3150000063000F044BA40F2052010BD13B504460091FF
S3150000064001462C3000F076FAC4F8040218B141F2E3
S315000006500703984209D1A3784BB140F2032040F238
S315000006600223E278002A08BF184602B010BD40F205
S315000006700120FAE72DE9F04387B00DF10809044699
S315000006800E4617460021102248461D46DDF83880E2
S3150000069002F03BFD00211C22C8F80010284602F09B
S315000006A034FD32463B462146CDF8009004F12C003D
S315000006B000F040FA23789A0744BF6268C8F8002021
S315000006C0DB0705D51C22284604F1080102F010FDBF
S315000006D0237840F20640002B18BF002007B0BDE883
S315000006E0F0834FF4027070474FF000534CF23C32E7
S315000006F05A8070474FF000534AF6C0325A8070470E
S315000007004FF000534FF20F025A8070474FF00053DC
S315000007104AF6C0305B8823F00F039BB21B1A58427F
S31500000720584170474FF0005208B51080FFF7EEFFB2
S3150000073010B94FF20F03538008BD08B5FFF7E6FF67
S3150000074020B14FF00053588800F00F0008BD08B5DF
S31500000750FFF7DCFF50B14FF00052538803F00F0152
S315000007600F2914BF013323F00F03538008BD000087
S3150000077008B5FFF7D7FFBFF34F8F0549054BCA688A
S3150000078002F4E0621343CB60BFF34F8F00BFFDE777
S3150000079000ED00E00400FA054FF000534FF20F01A0
S315000007A05A888A4201D1188870473AB91B8840F2A4
S315000007B00220012B18BF4FF4007070474FF40070F1
S315000007C0704700004FF4003208B5044B9A6601F0FA
S315000007D0F1FBB0FA80F0400908BD00BF0090004070
S315000007E0072BF8B506460F4614461D4601D90020CC
S315000007F0F8BD0121202001F067FB0121212001F035
S3150000080063FB8CB144EA06039B07F0D14FF4003238
S31500000810064B31469A66284623463A4601F030FC96
S31500000820B0FA80F04009E3E70120E1E700900040DC
S31500000830134610B562B103439B070BD14FF4003446
S31500000840054B9C6601F0E0FBB0FA80F0400910BD54
S315000008500120FCE70020FAE70090004000207047E6
S315000008600020704770B5D1E90152AA4205D290F82E
S3150000087040302B449B1A402B10D9002012E00A6806
S3150000088090F84040D65C90F841200133224402F0B3
S315000008903F02013486548B6080F840408B689D424D
S315000008A0EDD8012070BD2DE9F8431D461746D1E964
S315000008B001329B1A90F84020044613449D420E468E
S315000008C09DF820909DF8248056D9FFF7CBFF00288D
S315000008D05CD1142341F2020084F84630BDE8F88367
S315000008E094F84120A25CFA5494F841200133013275
S315000008F002F03F0284F8412094F84020013A84F83F
S31500000900402094F840200AB19D42E9D1D6E9012160
S31500000910914201D29D4231D89D42DAD129463846CC
S31500000920D4F8882000F01EFDC4F88800B9F1000F45
S3150000093004D02A463946E06C00F0E4FDB8F1000F19
S3150000094008D094F843308BB12B463A463946A06C12
S3150000095000F046FD94F8433043B1E36DA26D2B449D
S315000009609342E36524BF002384F84330636D41F26C
S3150000097003002B446365B1E70023C2E73268525C8B
S31500000980FA54B26801330132B260BFE70020A5E72E
S315000009907FB50023CDE90033082315460DEB03028E
S315000009A00446FFF780FF41F203039842064626D12C
S315000009B094F8433063B10822E06C0DEB020100F0BD
S315000009C0A1FD08230DEB03021146A06C00F008FD03
S315000009D0039A029B6A6094F843202B605AB9094A2D
S315000009E0934208D0084A934205D00822E06C0DEBEA
S315000009F0020100F087FD6B682365002363653046BE
S31500000A0004B070BDF70A0AF7FC0404FC2DE9F743AD
S31500000A10044658680D4617469846002848D011F0F7
S31500000A20030348D19B6A216E1B6902EB010C1E1D54
S31500000A3066451CD81C33994219D28E42304638BFBF
S31500000A4008469C4594BFC0EB0C02C0EB0302411A5A
S31500000A50C6F1680605EB0109304449462044019277
S31500000A6002F046FBFF214846019A02F04EFB48F28F
S31500000A700406236EB34211D848F20702F9189142D0
S31500000A800CD9F61A2E440422314604F1800002F0F5
S31500000A902FFB0422FF21304602F037FBD8E900364F
S31500000AA03A46206E2946B0470020226E3A44226616
S31500000AB003B0BDE8F08341F20200F9E7F8B503F0B0
S31500000AC02003002580F842304FF0FF3304460F46DE
S31500000AD01646C0F888301822FF21C0E91855A0F83C
S31500000AE0405080F84350A0F8445080F84650683093
S31500000AF002F00BFB0422FF2104F1800002F005FB4B
S31500000B000422FF2104F1840002F0FFFA882229461C
S31500000B10C4E9127604F1900002F0F7FA84F818514D
S31500000B202FB126B1E06C00F0D9FC2846F8BD41F2A1
S31500000B300B00FBE72DE9F04FA7B0CDE91323029395
S31500000B40002304460E46309DDFF8A0931593159AB0
S31500000B50029B9A4201D30020CEE094F84630142B33
S31500000B60F6D8DFE813F06C00B500660051003800D7
S31500000B702D004A02380042023800FC0138004202C9
S31500000B809603FA0315008D013D033D03CF02FA03D8
S31500000B904FF00008636D0F2B4FD80127102316AABC
S31500000BA02046CDF80480009713A9FFF77CFE41F29A
S31500000BB003030990099A9A4200F05481099B4AE07E
S31500000BC00127D4E91432934200F2608184F846701A
S31500000BD041F203033FE04FF0FF0BD4E914739F4249
S31500000BE02BD9FF1ADDE914329B1A94F84020032F03
S31500000BF0134440F20682032B00F20682204613A914
S31500000C00FFF730FE002326E00127636D072BDFD8B0
S31500000C10082316AA2046CDE9007713A9FFF743FE5D
S31500000C2041F203030C900C9A9A4200F0AD810C9BA2
S31500000C3011E00027636D072B1CD90123DAE116AA00
S31500000C40204613A9FFF7A4FE41F203020690069B75
S31500000C50934202D0069B059347E0179A16992265A0
S31500000C6000226265964A914240F09981022284F8F8
S31500000C704620F0E7012316AA009320460823019791
S31500000C8013A9FFF710FE41F203030790079A9A4251
S31500000C9001D0079BDFE7169B03F07F43B3F1407F4C
S31500000CA005D0142384F8463041F20903D3E7179A96
S31500000CB0D00707D594F84230D10543F0010384F8F4
S31500000CC04230B7D4142384F8463041F20A03C2E70F
S31500000CD0204616AA13A9FFF75BFE41F2030308900C
S31500000CE0089F9F420BD0089F059741F20303059A80
S31500000CF09A423FF42CAF059827B0BDE8F08F94F8E0
S31500000D004420169B3AB16F4A934240F081800D23EE
S31500000D1084F84630E8E794F84220D2073ED594F8A6
S31500000D204320002A3AD168498B4200F08E801DD8B4
S31500000D30664A934200F083800FD8614A934267D097
S31500000D404B4565D0142316A884F84630FFF786FD78
S31500000D50002860D141F20807C6E75D4A934257D0A2
S31500000D605C4A934254D05C4A9342EAE75B498B4221
S31500000D7012D009D85A498B42E4D1102384F8463060
S31500000D80236DC4E91632AFE7564A934240D0564A1D
S31500000D9093423DD04B4AE7E70F23B9E74D4A9342CA
S31500000DA045D02BD84C4A93423FD022D84B453AD017
S31500000DB0464A93423FD016A8FFF750FD002846D07A
S31500000DC01323169884F84630C4F88C00FFF748FDC4
S31500000DD094F842309B0687D5002885D04368002BBF
S31500000DE082D0204698470890089B002B3FF47CAFA2
S31500000DF011E0374A9342DED1032389E7394A934209
S31500000E0017D00BD8304A93421BD02E4A9342D2D1E8
S31500000E10142384F8463041F2010765E7324A9342CB
S31500000E20C9D1082374E70A2372E7052370E706236E
S31500000E306EE70C236CE794F84330002BE8D11123BE
S31500000E4066E794F84330002BE2D1122360E71423BF
S31500000E5084F8463094F84330002B3FF47BAF41F2E0
S31500000E60040741E7D4F848A000F05AFB802302218A
S31500000E70CDE9000317AA3B46504600F08BFA89E6F7
S31500000E80012384F8433084F8463060E616AA2046EB
S31500000E90CDE9007713A9FFF706FD41F203030A9097
S31500000EA00A9A9A4201D00A9BD5E61C2216A906F197
S31500000EB0080002F01DF9337843F00103337080E631
S31500000EC0EB17A603FC0404FCF70A0AF7F30B0BF373
S31500000ED0F50909F5F60808F6F40A0AF4FA0606FA18
S31500000EE0F90707F9FD0303FDFE0101FEEB17A65EF8
S31500000EF0337843F004033370199BB36273785F074A
S31500000F002AD5EB238DF8583017238DF85930A623B0
S31500000F108DF85A305E23042204F1500104F1840056
S31500000F208DF85B3002F0E4F8002094F845306066F6
S31500000F3043F0020384F84530EF686FB104222B6852
S31500000F4016A9B8470822606E2B68EF6818A91044E6
S31500000F50B847636E103363660B2384F84630636DBF
S31500000F60072B3FF635AE012318AACDE900332046FC
S31500000F70082313A9FFF797FC41F203030B900B9A82
S31500000F809A42B5D00B9B66E63378179A43F0020374
S31500000F903370169B7360236D083B73622AB114236A
S31500000FA084F8463041F2010355E6042384F84630BE
S31500000FB094F84530626643F0010384F8453024E630
S31500000FC0042316AA2046CDE9007713A9FFF76BFC88
S31500000FD041F203030D900D9A9A4201D00D9B3AE619
S31500000FE0236D042B02D9169B23660127636D032B01
S31500000FF0E6D9092384F84630EAE500236366072329
S3150000100041E79F423FF6FAAD402F28BF40279F4257
S3150000101028BF1F460123032F88BF27F003070DF1C2
S3150000102058084246CDE9003320463B4613A9FFF750
S315000010303AFC41F203030E900E9A9A4201D00E9B9F
S3150000104009E694F84620072A27D1D5F808A0BAF170
S31500001050000F22D02B683A464146606ED047636E39
S315000010603B446366B9E508F803B00133032BFAD9AC
S31500001070042FC7F1040A88BF4FF0000A092ABA44B0
S315000010800DD12B46524641462046FFF7BFFC0E9037
S315000010900E9B002B3FF4A1ADD1E73B46E6E7042AC1
S315000010A025D1737898077FF598ADEB68002B3FF450
S315000010B094AD636E042B10D80AEB030106290CD9F4
S315000010C017AFFF1A394604F18400039202F010F8B4
S315000010D0FF213846039A02F018F8EF685246414657
S315000010E02B68606EB847676E5744676675E50B2ACE
S315000010F07FF473AD737859077FF56FADEF68002FF6
S31500001100ECD16AE594F8427017F0200707D0D4F8BE
S315000011108C00FFF7A5FB074600283FF443AF4FF0CE
S31500001120010A42E04BB347B33B6933B320469847C5
S31500001130DDE9143294F840809B1A43448342FFF45D
S315000011405DADD4E91421A2EB0108B8F1400F28BF28
S315000011504FF04008984528BF984616AA43462046B1
S31500001160CDE900AA13A9FFF79EFB41F203030F90F6
S315000011700F9A9A4203D00F9B6DE50120D8E794F8A9
S3150000118042309A0611D5002F3FF40CAFD7F808B0BD
S31500001190BBF1000F3FF406AF2B464246204616A988
S315000011A0D8470F900F9B002BE5D1D4E9142194F872
S315000011B04230914203F02003B4D3002B3FF43DADFF
S315000011C0002F3FF43AADFB68002B3FF436AD2946BD
S315000011D0204698470F900F9B002B3FF42EADCAE791
S315000011E000218A6A496B1269403A91423FF6DAAEAB
S315000011F0112B0FD194F81831002B7FF41EAD41F25C
S3150000120006031093109A9A4202D1142384F84630AA
S31500001210109B20E594F84430002B7FF40EADCDE909
S31500001220003316AA4023204613A9FFF73CFB41F2E0
S3150000123003031090109A9A42EAD1E06C00F064F928
S3150000124094F81831A3B104F1B403E06C00931EAA1C
S3150000125004F1940316A900F0D5F81090109B9BB1E9
S315000012600023F370142384F8463041F20603F2E4B7
S31500001270E76C00F04DF9039000F04EF9039B0090E7
S315000012801EAA384616A9E6E70123F37084F844300F
S31500001290D3E4002316AACDE900332046042313A97C
S315000012A0FFF701FB41F203031190119A9A4202D013
S315000012B0119B05931FE5D4F88820294B9A4205D047
S315000012C0142384F8463041F20503F2E7F378002B45
S315000012D03CD094F845309B0707D0EF682FB1042225
S315000012E02B68104604F18401B847236E73B36B680C
S315000012F063B34FF0FF3304F18001042212A8129366
S31500001300029101F0E5FE30B1D5E90037042248F23A
S3150000131004000299B84704F168090422494612A854
S3150000132001F0D6FE90B100239B6A1422D3F81080F8
S3150000133004F16C0108F10800D5E90037B847D5E992
S3150000134000370422494608EB0200B8470123B37070
S315000013500E2384F846300023ABE741F20700CBE4C6
S31500001360E320BBDE30B50824094B00255C6601246A
S3150000137003F5FE235C6001449D601A61DC608842CF
S3150000138001D1586A30BD10F8012B1A62F7E700BF89
S3150000139000900040F8B516464FF400521D460F4B1C
S315000013A004469A660222C3F860220F4601F082FDC7
S315000013B0DDE90612204601F081FD00230C2263625E
S315000013C0314684F8387004F1390001F091FE2B0C97
S315000013D06DBA84F84530A4F84650F8BD0090004038
S315000013E030B50D4685B0194600F12803CDE9015206
S315000013F0009300F1240200F1380301F0AFFD05B0BF
S3150000140030BD00002DE9F04FB1B0884617461E46A4
S315000014100446DDF8E8B0002858D0002956D0002A46
S3150000142054D0002B52D0BBF1000F4FD040250623DD
S315000014300DF1400A0DF180092A4600215046069317
S3150000144001F063FE2A460021484601F05EFE4FF495
S315000014500052204B41469A660322C3F860220023BD
S315000014602022484609930C930F9301F041FE202257
S31500001470394628A801F03CFE20223146504601F0AC
S3150000148037FE2022594618A801F032FE2023CDE966
S315000014900A950E930AAA03AB07CACDE907A50D94D0
S315000014A083E8070007AB93E807008DE807000DAB5C
S315000014B00ECB094801F026FB0690069B40F204601D
S315000014C0002B08BF002031B0BDE8F08F40F201606C
S315000014D0F9E700BF00900040983300004FF4005237
S315000014E0074B10B59A6602220446C3F8602200F044
S315000014F0C9F82046BDE81040002100F0C7B800BF7B
S315000015000090004000F0C7B8014600F0D1B80000D6
S31500001510004870474CE30700004870476CE307003B
S315000015200048704786E207002DE9F34799460A9B73
S315000015300C46196805463F29164642D85A68002ABD
S3150000154041D0224A002E14BFB046904601F03F0714
S31500001550091928BF5A68196024BF01325A60AFB111
S31500001560C7F1400AA24521D82946524609EB070091
S3150000157001F0BEFD0123414600934A463346002052
S3150000158000F09DF8B046403C55443C443F2C0CD9F5
S31500001590A3092A46009341463346002000F08FF8FF
S315000015A024F03F031D4404F03F0400272CB12246DB
S315000015B0294609EB070001F09BFD002002B0BDE8BB
S315000015C0F0879046C2E7DFF80480BFE7C831000025
S315000015D030B40546084611461A46DDE9023425B9F7
S315000015E031B1029430BCFFF79FBF024830BC704750
S315000015F00846FBE780AFFFFF2DE9F0431546146868
S3150000160087B09946E3008DF80F30630956688DF868
S315000016100E30630B8DF80D30630D8DF80C30F30032
S3150000162003EB54738DF80B3004F03F047309372C29
S315000016308DF80A304FEA563394BFC4F13802C4F12C
S31500001640780207468846CDE900158DF809300C4921
S315000016500346760D00208DF80860FFF7B9FF0821D4
S3150000166043463A460DEB01000095FFF75DFF202249
S315000016703946484601F03CFD002007B0BDE8F0833E
S31500001680E83100006822002101F03FBD0023C0E9D7
S3150000169000331846704707B500F128030190009300
S315000016A000F108030020FFF793FF03B05DF804FB89
S315000016B002460B4600F128010830FFF79DBF2DE9D1
S315000016C0F0411D46044692B050BB189B0AAE9B01E2
S315000016D0CDE9042306902022304601F009FD099445
S315000016E0079601F0C9FC0446B0B94FF0200804ABD8
S315000016F093E807008DE80700CDF8208007AB0420AB
S315000017000ECB01F06FFB074601F0CCFC5FB94246F9
S315000017103146284601F0ECFC204612B0BDE8F081C7
S315000017206FF07104F8E76FF06F04F5E72DE9F0410B
S31500001730A0B0502204460D460CA8002101F0E5FC9D
S3150000174030220021684601F0E0FC684600F088FA85
S31500001750039B012B0ED800234FF0FF322360012399
S31500001760AB4203D3002020B0BDE8F08144F823202B
S315000017700133F5E7AB426AD300F072F9049B0C2201
S315000017800CA90646DF6800F03BFB0028EBD1DFF82A
S31500001790C8800C9B434516D10E9A0CA9304600F022
S315000017A02FFB4FF0FF320E990CA8FFF7DBFD294BFC
S315000017B0984233D04FF0FF3304EB8505A54213D092
S315000017C044F8043BFAE737440C2238460CA900F0EB
S315000017D017FB0028C7D10C9B43450BD04FF0FF33B6
S315000017E004EB8505AC4202D140F20550BBE744F854
S315000017F0043BF7E70CA938460E9A00F001FB049B60
S315000018003046D96800F034FB0028ACD130460E9A39
S315000018100CA900F00BFB0028BED0A4E70E9B2246C5
S31500001820103B9B08AB4228BF2B460FA904EB830055
S31500001830824207D14FF0FF32AB4293D244F82320C5
S315000018400133F9E751F8046B42F8046BF0E740F214
S31500001850045088E7E320BBDE39528FE1F0B5A1B032
S315000018600C464422002106460FA801F04EFC012337
S315000018702F4A0021CDE90C235023302268460E93CF
S3150000188001F043FC684600F0EBF9039BA3424CD3FE
S31500001890012B08D8336840F204500133012B98BF5E
S315000018A0002021B0F0BD00F0DBF8049B102C21468F
S315000018B028BF1021DF683346054607440FAA06EB0A
S315000018C08100984226D14FF0FF33102927D14C21B1
S315000018D04FF0FF320CA8FFF745FDC043049B1F9055
S315000018E0D968384600F0C4FA0028DAD150223846C2
S315000018F00CA900F09BFA0028D3D1049B2846D9688E
S3150000190000F0B6FA0028CCD1502228460CA900F0E7
S315000019108DFAC6E753F8044B42F8044BD1E70CAAFC
S3150000192002EB8102D3600131CFE740F20450B8E701
S3150000193039528FE130B59DB0302200210546684608
S3150000194001F0E3FB684600F08BF9039C012C1ED9DD
S3150000195021460CA8FFF7EAFE18B140F2055398425B
S315000019600ED100230CAA52F8041B481C0AD11CAA4B
S3150000197002EB8303214643F8405C0CA8FFF76EFF99
S315000019801DB030BDA94205D001339C42EBD140F2D7
S315000019900250F5E740F20350F2E7000010B5ADF54E
S315000019A00A7D4FF40272002008A900F07BF940F28C
S315000019B00124002108A800F0B0F8A042F9D040F2B6
S315000019C00323984227D19DF8203059070CD49DF85F
S315000019D020309A0730D4DB071DD50B99869800F086
S315000019E0D3F9C0B1002018E01298FEF721FD0028B7
S315000019F0EDD000F0B9FC194B0446984210D11C22D8
S31500001A00002101A801F081FB6846009400F0CAFCA1
S31500001A10B0F5403F04D140F205400DF50A7D10BDFA
S31500001A20869800F06FF90028D1D04FF40040FEF7F9
S31500001A3011FD0028CBD1EEE70022926A099992683F
S31500001A409142C8D9869800F07BF90028E3D0119915
S31500001A504FF40040FEF7C4FCDDE700BF000003437F
S31500001A604FF478307047FFF799BF000031B10A4B49
S31500001A705A68824205D80023C1E9003340F201408A
S31500001A807047013053F8302003EBC00043680A600A
S31500001A9000204B60704700BF9032000001221A7090
S31500001AA07047000070B40C4611460C4A55688542D2
S31500001AB00DD9013002EBC0067668E518B5420AD8A2
S31500001AC052F830001A46204470BC00F099B940F232
S31500001AD0014070BC704740F20240FAE790320000C5
S31500001AE030B504460D46A3B0D0F8001202AA8023F2
S31500001AF0D0F8F801FFF7D6FF80232146009502AA09
S31500001B0004F12C00FFF716F8D4F80032C4F80402EA
S31500001B108033C4F8003223B030BD1FB50023CDE9B1
S31500001B200033CDE90213D0F80432044693B9D0E964
S31500001B307F329A420ED26946FFF7D2FFD4F80402EA
S31500001B4098B141F2070240F20123904208BF1846BD
S31500001B5004B010BDA3785BB140F2022040F203232B
S31500001B60E278002A18BF1846F2E740F20120EFE7B4
S31500001B7040F20220ECE7000070B50D46002186B069
S31500001B800DF1070302931D4B0446164611602846C5
S31500001B901C22CDE903338DF80710059301F0B5FA41
S31500001BA09DF8073053B994F87230132B06D0D4F849
S31500001BB004321BB9D4E97F329A4217D323789A07A5
S31500001BC044BF62683260DB0705D51C22284604F153
S31500001BD0080101F08DFA9DF8073063B9237840F2C9
S31500001BE00640002B18BF002006B070BD204602A993
S31500001BF0FFF776FFD4E70020F6E700BF9D1A000046
S31500001C0070B40C4611460C4A556885420DD9013010
S31500001C1002EBC0067668E518B5420AD852F83000DD
S31500001C201A46204470BC00F001B940F2014070BC75
S31500001C30704740F20240FAE790320000074B5A68BC
S31500001C40824207D9013003EBC002516853F83000D5
S31500001C5000F00EB940F20140704700BF903200001C
S31500001C6070B5054688B0C0B14FF4003200236C460B
S31500001C70C0E900230A4B05F114061A785B68027264
S31500001C80C360684600F09EF80FCC0FC605F114033A
S31500001C9094E8070086E807002B6108B070BD00BF16
S31500001CA09032000037B50C46054611462046FEF731
S31500001CB0ABFC48B969462846FFF7D8FE20B9019B18
S31500001CC0C4F8F851C4F8FC3103B030BD38B500F59E
S31500001CD0C87204460D46202300F5A4712C30FEF789
S31500001CE0EDFED4F804321BB9D4E97F329A4203D30D
S31500001CF0A07800B1E07838BD29462046FFF7F0FE0F
S31500001D00EFE7000000B5ADF5077D4FF4027204A9B8
S31500001D10FFF7C8FF78B904238DF81130074BCDE9DA
S31500001D2000000290694604A80393FFF7CFFF0DF564
S31500001D30077D5DF804FB0020F9E700BF4D020000B7
S31500001D40002300B59B6AADF5077D9B688B4204D3E3
S31500001D5000200DF5077D5DF804FB4FF4027204A91F
S31500001D60FFF7A0FF0028F3D102238DF81130054BB1
S31500001D70CDE900000290694604A80393FFF7A6FF89
S31500001D80E7E700BF4D02000000B5ADF5077D4FF453
S31500001D90027204A9FFF786FF78B901238DF8113086
S31500001DA0074B0090CDE901300390694604A8FFF780
S31500001DB08DFF0DF5077D5DF804FB0020F9E700BFF8
S31500001DC02D02000070B504460646044D0FCD0FC423
S31500001DD095E8070084E80700304670BD74320000BD
S31500001DE04FF40032014B00209A6670470090004085
S31500001DF0024BD86900F00100704700BF00000340A5
S31500001E00B2F5002F10B51346044608460BD8B4F5B4
S31500001E10002F08D82344B3F5002F04D8214601F03B
S31500001E2067F9002010BD40F20240FBE7B2F5002F33
S31500001E3010B506D8B0F5002F03D88318B3F5002FD8
S31500001E400ED940F2024010BDC45801340AD1043301
S31500001E509A42F9D8FEF7ECFC0028F2D00020F2E70F
S31500001E600023F5E740F20340EDE74FF0FF307047FF
S31500001E7038B541EA0003C3F30C030446CBB9B1F508
S31500001E80002F0FD8B0F5002F0CD80D18B5F5002F80
S31500001E9008D8204604F50054FEF794FCAC4204D062
S31500001EA00028F6D140F2024038BD0028FAD00020C2
S31500001EB0FAE740F20440F7E74FF40032014B002006
S31500001EC09A66704700A00040420910B510D0012A5A
S31500001ED010D00B4B0B4C022A18BF234600F01F00F4
S31500001EE051B103F58053012202FA00F0186010BDCB
S31500001EF01346F3E7044BF1E703F50053F3E700BF9E
S31500001F00688000406082004064800040F0B5114A5D
S31500001F10114C124E00F00105E3695F0713D40DB9A9
S31500001F20334213D103EA00078F4207D10B4A1A4006
S31500001F30002A14BF6FF001000020F0BD013AEBD17A
S31500001F406FF00200F9E74FF0FF30F6E76FF001009F
S31500001F50F3E700BF809698000000034002000100EE
S31500001F6070B5134C6061E3695B071ED40E4656F8E4
S31500001F70043B8D18A361AE420BD10423002121201E
S31500001F802361FFF7C3FF58B9BDE870402120FFF772
S31500001F90BDBF08210846FFF7B9FF10B1042323612E
S31500001FA070BD56F8043BA361E5E74FF0FF30F7E755
S31500001FB0000003404FF4003238B50F4B0F4C9A66C1
S31500001FC041F671330122E569E3630D4B0021DA60C6
S31500001FD0022360612120236105F48035FFF796FF17
S31500001FE010B92120FFF792FF0122064BDA600DB1EE
S31500001FF00023E36338BD00BF0090004000000340AB
S3150000200000100340002003402DE9F84315464FF425
S315000020100032184B89469A6641F6713203F51C3335
S31500002020DF69DA630122064603F58053DFF84C8048
S3150000203007F48037DA6055B9284601220E4BDA607C
S315000020401FB10022A3F50053DA63BDE8F88306F555
S31500002050005404EA0804A41BAC4228BF2C46494697
S3150000206022463046FFF77CFF0028E6D12644A144ED
S315000020702D1BE0E7009000400020034000E0FFFF3A
S315000020802DE9F04F06464FF4402501202C4CDFF891
S31500002090BCC04FF40037CCF8040044F82650302575
S315000020A00024DFF8ACE0DFF8AC9005FB06E5EC6554
S315000020B02C662C67234CDFF8A0A0A76641F6713783
S315000020C004F51C34D4F81C80E763E76800FA06F6CA
S315000020D00743E7604BB9E26818F4803F22F001023B
S315000020E0E26000D0E363184628E001F5005000EAFC
S315000020F00900401A984228BF18466161D4F81CB0FE
S3150000210087081BF0040F17D1013F3F0147F06057C6
S315000021106F66AA66C5F86CA0CCF82460DEF8347049
S315000021203E42FBD0084F01447E630427CCF828606A
S31500002130024427611B1ACDE74FF0FF30BDE8F08F50
S31500002140004004400090004000200440001004407D
S315000021500000044000E0FFFF18000340C369032BA2
S315000021609FBF00EB83020133D160C361704700005B
S315000021702DE9F043C469042C6BD8374B374A5D6EA2
S315000021804FF4803336495366364E374AED03C1F86D
S315000021900026C1F804665CBFA1F5E4214B66334B0B
S315000021A0334D1360034653F80C1B5160C0F12042B7
S315000021B003EB840102F598428B4202EB030620D121
S315000021C026460027436803BB39463046264A41EA7D
S315000021D0046191601368516892684B405340002235
S315000021E0904231D145F82030BFF34F8F2149224B21
S315000021F0CA6802F4E0621343CB60BFF34F8F00BF9F
S31500002200FDE753F8047B3760D6E70022D3F8009049
S3150000221005EB860ED3F808C0F046CCF3990C94452E
S3150000222007EB020106EB02000EF1040E06D85A680F
S31500002230012ACBD00F4606465B68C4E759F8221040
S315000022400132C8F80010E5E755F8221001324B407C
S31500002250C6E7BDE8F08300BF008000400090004064
S3150000226000C00740004E00A0004C00A0DEC0ECE518
S315000022700C4C00A000ED00E00400FA05144B1549D3
S315000022805A6E4FF48033D20358BF134A10B54B66CB
S3150000229001F5E621D1F8041658BF53660A680F4BBC
S315000022A09A4213D10B690533B3F5007F0ED2002293
S315000022B014469A4205D351F82300031B584258414D
S315000022C010BD51F8220001324440F2E70020F7E742
S315000022D0008000400090004000A00040DEC0ECE519
S315000022E038B50F4B0F495A6E4FF48033D20358BF9F
S315000022F00D4A4B6601F5E621D1F80456044658BF4F
S31500002300536630B1FFF7BAFF30B100206B68236027
S3150000231038BD4FF4E020FBE74FF47E00F8E700BF3E
S31500002320008000400090004000A000400B4B0C498C
S315000023305A6E4FF48033D20358BF0A4A10B54B6623
S3150000234001F5E621D1F8044658BF5366FFF796FF1C
S3150000235010B1A068C0F3C05010BD00BF008000409F
S315000023600090004000A000400B4B0C495A6E4FF401
S315000023708033D20358BF0A4A10B54B6601F5E621F1
S31500002380D1F8044658BF5366FFF7D0FF08B1E0689E
S3150000239010BD4FF47E00FBE7008000400090004037
S315000023A000A00040F8B5234B23495A6E4FF4803302
S315000023B0D2034B6658BF214A01F5E621D1F80456EF
S315000023C058BF5366846805F11406FFF7AFFF48B39C
S315000023D02A6956F82230DB4346F82230A86810F402
S315000023E070201DD0A86800F47020F8BD0021D4F834
S315000023F000C0A668C6F39906B1420DD0934203D138
S315000024009CB19342F2D3F0E7013305EB83073F69B2
S315000024104CF821700131EFE7646824F00104EFE71E
S315000024200346EDE74FF47E00DFE7934238BF4FF4F3
S31500002430E020DAE7008000400090004000A0004065
S3150000244013B51AB10024009400F046F902B010BD8D
S3150000245030B501B10139084CE568ED03FCD443EA17
S315000024600121120741EA000302F08052134343F0B0
S315000024700043636030BD00BF0020024CF0B58DB054
S3150000248005AC84E807001C46A1420D4628BF254638
S31500002490129B0DB304B311462846002603F5181304
S315000024A0CDE90A468DE8030003F241135F02C5EB4E
S315000024B04323099302950CAA059B12E9070006958A
S315000024C000F0AAFCA54207D23146621B381B0DB0AC
S315000024D0BDE8F04000F09EBC0DB0F0BD30B591B047
S315000024E001AC84E807000A461C46039B0146D80057
S315000024F04ABF0332620022F0030204A8FFF7A0FFDE
S3150000250004A800F0FFF81499224601F5181101F20B
S3150000251041114D0208A8C4EB41210023FFF790FFAB
S3150000252005F5007100232246091B0CA8FFF788FF5A
S315000025300CA800F0E7F808A904A800F0BDF811B04F
S3150000254030BD10B58CB005AC84E807000E9ADDE905
S31500002550060102F5181202F5A0725202CDE909230E
S3150000256000228DE803000B9202930CAA059B12E948
S31500002570070000F051FC0CB010BD00000122054B15
S315000025809A60DA68D203FCD4D86820F00F00000401
S31500002590000C70470020024C2DE9F04B4FF000086C
S315000025A099460746164645468AB003AC84E80700B6
S315000025B002F0805B07AC049A424502D80AB0BDE837
S315000025C0F08B139B13B9AA1E012A0AD9129BCDE9D7
S315000025D00779099600955BB194E807004B46FFF72B
S315000025E04DFFBBF1000F00D14F440135C844E2E76F
S315000025F04B4694E80700FFF7A4FFF2E782B01FB549
S3150000260007930A9B04AC8B4228BF0B4604E90700DC
S315000026101048D100079948BF03330160099948BFA4
S3150000262023F0030323F0704301F0E041194341F026
S3150000263000518160002102F0E042019C134343F007
S315000026400053C16004618361416304B0BDE810407A
S3150000265002B070470000024C3F22034B1A6310225F
S31500002660DA6103229A6370470000024C024AD36B78
S315000026709B07FCD4704700BF0000024C034B986ACE
S3150000268010F0240018BF0420704700BF0000024C61
S3150000269008B5FFF7F3FF064BDB6B23F47F4323F00C
S315000026A0EF0303431EBF0122024BC3F8FC2F08BDF4
S315000026B00000024C00F0FF3F032208B5054B1860EE
S315000026C019615A63FFF7C8FFFFF7D0FFBDE808405E
S315000026D0FFF7DEBF0000024C10B522F0704200F199
S315000026E01004C0E90014826041B1826803F07043AF
S315000026F013438360029BC360204610BD836843F08A
S315000027008043F6E701234360C36843F02003C360B8
S31500002710836843F0005383607047C368DB0658BF85
S31500002720C368C36803F00F03012B02D0033B012BE0
S3150000273008D8C36801F01F0143EA0123C360836818
S31500002740194481607047000042680346182A10B594
S315000027500AD0202A1DD0102A2BD1174AD2F80424D9
S31500002760D4010AD4012013E0134AD2F804249001BC
S31500002770F8D50A6842F008020A6010481A688242D0
S315000027804FF000000ED10A6842F040020A6058601D
S3150000279010BD094AD2F804245201E3D50A6842F072
S315000027A00402E9E7064CA242F2D10A6842F080022E
S315000027B0ECE70720ECE700BF0000024C24100020E5
S315000027C0251000200B4607B50749D1F80414C907A0
S315000027D008D5002100920246084600F025F903B00C
S315000027E05DF804FB0120FAE70000024C0B4607B532
S315000027F00749D1F80414C90708D5009201210246F9
S31500002800002000F011F903B05DF804FB0120FAE79F
S315000028100000024C1FB50A4CD4F8044464070CD5DA
S31500002820CDE900120021069C0222CDE902340346BE
S31500002830084600F025F904B010BD0120FBE700BFF3
S315000028400000024C37B54D68044645B18C680093CC
S31500002850096842EA04032A46FFF73EFF044620467B
S3150000286003B030BD2DE9F04F2DED028BD1B008EE4F
S31500002870103ADDE95E7ADDE96098002301910421D2
S315000028800546CDE9031307CA01AC05AB83E807008B
S31500002890629E0294002D40F0C48021461846FFF740
S315000028A053FF0546002840F0B6805D9A08AB07CA7C
S315000028B0DAF8044083E80700D9F8043049421C449A
S315000028C0D8F8043064425B420093BB6804F00F04FE
S315000028D0DA0048BF7B6801F00F0B42BF033323F0D9
S315000028E003037B60B368DB0041BF7368033323F0E7
S315000028F0030373600023DAF80400D9F80420CDE955
S31500002900133381182144CDE90C1379680B9349429E
S3150000291001F00F01CDE90E3171681093494201F0C3
S315000029200F01CDE91131CDE9153317935D9B5B6836
S3150000293053B9D8F804301343034305D110218B460D
S31500002940CDE9091314AA089211234FF0005202A9E7
S3150000295030A8FFF777FF40F611034FF0005205A9A4
S31500002960FFF770FF42F611034FF000525C99FFF734
S3150000297069FF44F611034FF0005218EE101AFFF7E4
S3150000298061FF412300225146FFF75CFF23024FF00F
S315000029900052494643F04103FFF754FF4FEA0B2329
S315000029A04FF0005243F0010308A9FFF74BFF009BCD
S315000029B04FF000521B0203F47063414643F00103DB
S315000029C0FFF740FF1038FFF79DFE00230BA91A46BC
S315000029D018A8FFF737FF002339461A46FFF732FFDC
S315000029E000230EA91A46FFF72DFF002331461A468B
S315000029F0FFF728FF002311A91A46FFF723FF00233C
S31500002A0063991A46FFF71EFF1038FFF77BFE18A9D9
S31500002A1030A8FFF751FE284651B0BDEC028BBDE849
S31500002A20F08F0725F7E70000F0B51C465B681646F1
S31500002A308DB01A070546129F1BD1D3B17A6893420F
S31500002A4017D10D4B0D4A53F821C009AB07CA83E8CD
S31500002A50070032462846CDE90633CDE90433CDE9F1
S31500002A600273CDE900344CF48071FFF7FBFE0DB024
S31500002A70F0BD0720FBE700BFD0320000A032000007
S31500002A802DE9F0438DB00446DDE914CEDDE9167874
S31500002A90DCF804001E46030729D140B3DEF80430F3
S31500002AA0984224D17B68102B21D1D8F80430102B02
S31500002AB01DD1104B53F821500F4B53F822900F4A5B
S31500002AC009AB07CA83E8070045EA090132462046F2
S31500002AD0CDE90638CDE90433CDE902E3CDE9007C42
S31500002AE041F03001FFF7BEFE0DB0BDE8F0830720D0
S31500002AF0FAE700BFD0320000AC320000A03200007E
S31500002B000069704770B586B003AE054686E80E00CC
S31500002B10FFF7F6FF4428044639D86A6800EB8003BD
S31500002B209A4203D0062343439A4232D10B9BB3EB1E
S31500002B30440F2ED10E9A93422BD1012221463120E9
S31500002B40EB68FFF785FC95E807000123CDE9003324
S31500002B502346FFF721FD08230AAA009307CA234646
S31500002B60FFF7BCFC0C23009396E807002346FFF70B
S31500002B7085FC0A230DAA009307CA2346FFF7AEFC7D
S31500002B80FFF7FCFC002818BF032006B070BD01202B
S31500002B90FBE70720F9E700000138C0B206289ABF14
S31500002BA0014B185C00207047AC3300000138C0B2FE
S31500002BB006289ABF014B185C00207047B33300000B
S31500002BC00138C0B206289ABF014B185C0020704736
S31500002BD0BA3300002DE9F04F8046BBB003A81E466D
S31500002BE080E80E0008F1FF3317468A469DF81091DB
S31500002BF0062B00F2F280DFE803F0041F262D343B9B
S31500002C004200774BD3F80C34D80703D401203BB0ED
S31500002C10BDE8F08F012307930023B9F1010FCDE939
S31500002C20083333D0B9F1020F00F098804046FFF721
S31500002C30C7FF6324054637E0694BD3F80C34990780
S31500002C40E4D50223E7E7664BD3F80C345A07DDD503
S31500002C500423E0E7624BD3F80C341B07D6D50823D0
S31500002C60D9E75F4BD3F80C34DD06CFD51023D2E776
S31500002C705B4BD3F80C349C06C8D52023CBE7584BC6
S31500002C80D3F80C345806C1D54023C4E7544BD3F8C7
S31500002C900C34D903BAD5079B404643F4C063079367
S31500002CA0FFF77AFF0324054613230422009307A99E
S31500002CB04FF0005312A8FFF70FFD5146009446F05F
S31500002CC000533A46FFF708FD4FF0000B04465E46F8
S31500002CD0DDF814A1469B9B4564D1B9F1030F0AD1D7
S31500002CE04046FFF76DFF874277D14046FFF75EFF0C
S31500002CF00138304271D1002E67D103233246204677
S31500002D00009308A93346FFF7E7FC04260446A4F11E
S31500002D1010000290FFF7F6FC31460298FFF7FDFC23
S31500002D20489AAA4228BF2A461446002A53D00023AE
S31500002D30479900930AA8499BFFF7CEFC2A1B04D0AB
S31500002D40002319460093FFF7C7FC1038FFF7DAFC9B
S31500002D5012A80AA9FFF7B0FC002058E7204BD3F8C9
S31500002D600C2492037FF552AFD3F80C34DB037FF5C6
S31500002D704DAF97B17C423946374604F00304079BB2
S31500002D80404643F4E0630793FFF706FF24023E46FE
S31500002D9005460F4644F0A30486E704210DF1200AF8
S31500002DA00C46ECE7DAF8042016444AB103230093F4
S31500002DB02046DAF80830DAF80010FFF78DFC0446F2
S31500002DC00BF1010B0AF10C0A84E716F0030618BF93
S31500002DD0C6F104069BE70AA8B0E7072017E700BF7D
S31500002DE00000024C70B58AB007AC84E80E0003AD53
S31500002DF0064694E8070085E80B00012302930EAB14
S31500002E00019303230093304694E80E00FFF7E2FE99
S31500002E100AB070BD00F079B982B02DE9F0418AB0F0
S31500002E2005AE12F0804586E80700149C119333D155
S31500002E30139B8C4228BF0C4613F080538846129A87
S31500002E4002D1944228BF144634B30F2C13D9DDE9BE
S31500002E5012018DE803000294119B96E80700FFF724
S31500002E60CDFBFFF7F9FBFFF701FC0AB0BDE8F04127
S31500002E7002B0FFF70DBC059E119F93B1A8EB0502AA
S31500002E80042A3B6828BF0422701909A9043509934E
S31500002E9000F02EF9AC42F1D80AB0BDE8F04102B01C
S31500002EA070472246394630460AB0BDE8F04102B0C6
S31500002EB000F01EB92422002100F027B970B515468E
S31500002EC00E4624220021044600F01FF925F0400397
S31500002ED0802B02D0B5F5807F08D12046314640F8D8
S31500002EE0045BEA0800F004F9002070BD6FF01F00D3
S31500002EF0FBE730B50129016808BF012421F0400530
S31500002F0018BF0224802D8BB002D0B1F5807F22D16C
S31500002F10C90802910021CDE9031210220430CDE93F
S31500002F200521CDE907320190099100F0A5F868B9AD
S31500002F30012C07AA04A901A80AD1FFF743FC0446FD
S31500002F4000F0B0F8204318BF6FF06F000BB030BD33
S31500002F50FFF74CFCF3E76FF07100F7E72DE9F04F50
S31500002F6082460F469846164691B012B31568DAF8AF
S31500002F70003023F04002802A02D0B3F5807F73D15F
S31500002F80DB08002405931023CDE908341B9BCDE90B
S31500002F9006480AF104023B44049202930DF11C0B0D
S31500002FA0BC4208D3002E65D00020356011B0BDE8C4
S31500002FB0F08F1546DBE75DB11B9B1A9A1B5D525DD0
S31500002FC0013553401C9A05F00F0513550134E7E708
S31500002FD0A7EB0409B9F10F0F1ED91B9B29F00F09A6
S31500002FE02344CDE90A391C9B0C952344CDE90D39C0
S31500002FF00F9500F041F80028D8D15B460DAA0AA922
S31500003000CDF800B004A8FFF705FC039000F04AF8DD
S31500003010039B03432BD14C441B9B03EB04091C9BD2
S315000030201C44029B4B4501D13C46B9E78DB942464B
S31500003030012150461A9BFFF75CFF0028B6D108F124
S31500003040100212F8013D0133DBB213700BB9904543
S31500003050F7D11A9A19F8013B525D0135534004F82D
S31500003060013B05F00F05DCE76FF071009EE76FF09E
S315000030706F009BE7304699E7094B00209A6E42F4B1
S3150000308000529A66D3F8602242F00102C3F8602229
S31500003090D3F8602242F00202C3F86022704700BFF4
S315000030A000800040094B00209A6E22F400529A6676
S315000030B0D3F8602222F00102C3F86022D3F860221E
S315000030C022F00202C3F86022704700BF0080004071
S315000030D00139024410B5904201D1002005E0037881
S315000030E011F8014FA34201D0181B10BD0130F2E7C1
S315000030F00A44431E914200D1704710B511F8014BA6
S31500003100914203F8014FF9D110BD024403469342A0
S3150000311000D1704703F8011BF9E70000F8B500BFBE
S31500003120F8BC08BC9E467047F8B500BFF8BC08BCA2
S315000031309E467047B814B6F1E0CFF3ADB7DD25C9AA
S31500003140FA79B7130000000007B0CD5E0100000059
S3150000315002000002D03300000060000000000800FA
S31500003160F7000100890400008D040000150300002B
S31500003170090600003B060000283200007506000024
S31500003180E30600000000000013B779FAC925DDB791
S31500003190ADF3CFE0F1B614B8010100000000000065
S315000031A0CC330000400000000200000200000000D6
S315000031B00000000000000000000000000000000009
S315000031C000000000000000006A09E667BB67AE85E4
S315000031D03C6EF372A54FF53A510E527F9B05688CF3
S315000031E01F83D9AB5BE0CD19800000000000000012
S315000031F000000000000000000000000000000000C9
S3150000320000000000000000000000000000000000B8
S3150000321000000000000000000000000000000000A8
S31500003220000000000000000000010000611C00001A
S315000032306D1A0000A51A0000011C00003D1C0000CC
S315000032405D1800002D17000035190000A51C0000B0
S315000032501B1B0000791B0000F11D0000011E000071
S315000032602D1E0000711E00006B1E000045465233E5
S3150000327032000000010203002800000028000000C0
S3150000328000200000000008006C320000040000006E
S31500003290010000000100000000E0030000800300C0
S315000032A000000000000000000000004000010000D7
S315000032B000020000000400000008000000100000EA
S315000032C00020000000400000008000000000010017
S315000032D00000000001000000FFFFFFFF00000001EA
S315000032E0000000000000000000000000FFFFFFFFDC
S315000032F0FFFFFFFFFFFFFFFFFFFFFFFF00000000D4
S31500003300FFFFFFFFFFFFFFFFBCE6FAADA7179E8496
S31500003310F3B9CAC2FC6325516B17D1F2E12C4247BF
S31500003320F8BCE6E563A440F277037D812DEB33A07C
S31500003330F4A13945D898C2964FE342E2FE1A7F9B24
S315000033408EE7EB4A7C0F9E162BCE33576B315ECE43
S31500003350CBB6406837BF51F5FFFFFFFF0000000105
S31500003360000000000000000000000000FFFFFFFF5B
S31500003370FFFFFFFFFFFFFFFC5AC635D8AA3A93E7C7
S31500003380B3EBBD55769886BC651D06B0CC53B0F63A
S315000033903BCE3C3E27D2604BD8320000C000000036
S315000033A000000000000010002000000010141C2087
S315000033B03040204040404080804010142020404053
S311000033C020000000650100004101000033
S31500006000C00A0020616300005F6300005F63000058
S31500006010F18400005F6300005F6300005F630000BF
S315000060205F6300005F6300005F6300005F63000062
S315000060305F63000098000300296200005F630000B0
S315000060405F6300005F6300005F6300005F63000042
S315000060505F6300005F6300005F6300005F63000032
S315000060605F6300005F6300005F6300005F63000022
S31500006070F58F000059D10000A5D100005F63000034
S315000060805F6300005F6300005F63000019D70000D4
S315000060905F6300005F6300005F6300005F630000F2
S315000060A05F6300005F6300005F6300005F630000E2
S315000060B05F63000079EA02005F63000045F40200B6
S315000060C0FDF30200F9F3020051EC020041F4020074
S315000060D001F4020019F4020005F40200A5F402001E
S315000060E0F9CC0200C1CE020085F402005F63000015
S315000060F06D8300005F6300005F6300005F63000064
S315000061005F6300005F6300005F6300005F63000081
S315000061105F6300005F6300005F6300005F63000071
S315000061205F6300005F6300005F6300005F63000061
S315000061305F6300005F6300005F6300005F63000051
S3150000614010B5054C237833B9044B13B1044800E06D
S3150000615000BF0123237010BD4C0F0020000000007B
S315000061608C4A030008B5034B1BB10349034800E002
S3150000617000BF08BD00000000500F00208C4A03003D
S31500006180A3F5803A704700BF174B002B08BF134B8F
S315000061909D46FFF7F5FF00218B460F461348144A2C
S315000061A0121A29F048FC0E4B002B00D098470D4BD5
S315000061B0002B00D098470020002104000D000D4858
S315000061C0002802D00C4800E000BF29F0C9FB2000DF
S315000061D0290007F075FF29F0AFFB00BF000008009B
S315000061E00000000000000000C00A00204C0F002044
S315000061F0884D0020000000000000000008B508F0EF
S3150000620043FB0AF016F80FF06BFC0CF0AEF9BDE894
S31500006210084010F0E5B908B513F092FF1BF053FAE9
S31500006220BDE8084014F0B4BB08F0B6B908B5054897
S31500006230FFF7F1FF034807F085FFBDE80840024875
S3150000624007F0B0BF6800030040000300012070475C
S3150000625000B5C3B008F0E0F808F009F948B1FFF757
S31500006260F5FF30B101A81CF0C6F910B901A806F077
S31500006270CBFC43B05DF804FB08B50321802000F099
S315000062807BFF03214FF4806000F076FF03214FF47B
S31500006290906000F071FF09214FF4C06000F06CFFC0
S315000062A009214FF4F06000F067FF09213E2000F05D
S315000062B063FF09212D2000F05FFF002008BD0000CC
S315000062C008B5154B1B68C3F30743012B0ED1134BBF
S315000062D004205A6E4FF480231149520358BF114AC5
S315000062E04B6601F51041086258BF536601F048FE3F
S315000062F001F0D8FD01F0F8FD01F060FE01F0FCFDB3
S3150000630001F038FEFFF7B8FF01F0DCFD00F06AF996
S31500006310BDE8084002F052B90080E00F008000405E
S315000063200090004000A00040704708B502F028FC2D
S3150000633001F046FE05F0EBF9BDE8084002F02AB888
S3150000634008B501F08BFD01F095FDBDE80840FFF7AB
S315000063506DBF704770477047FFF77ABF7047FEE71B
S3150000636008B500F013F8064B064A07498B4201D3DD
S31500006370FFF70AFF52F8040B43F8040BF6E700BFD9
S31500006380C00A0020944A03004C0F0020044B054A23
S315000063909A60D3F8882042F47002C3F888207047C8
S315000063A000ED00E000600000014B1868704700BF78
S315000063B0B80B0020014B1860704700BFB80B0020D7
S315000063C0084B1B6F03F00703022B04D0032B05D0E9
S315000063D0012B05D0FEE7044B18687047034BFBE71B
S315000063E00348704700800040B80B0020BC0B00201B
S315000063F0002D310108B5FFF7E3FF054B1B6FC3F313
S3150000640003330133B0FBF3F0024B186008BD00BF45
S3150000641000800040B40B00200048704700B4C4045C
S31500006420014B1868704700BFBC0B0020054B186075
S31500006430054B1B6F03F00703032B01D1FFF7DABFF0
S31500006440704700BFBC0B0020008000400020704752
S3150000645000487047002D31014FF4004070474FF45B
S315000064607A707047014B1868704700BFC00B002058
S3150000647000239B6AB3F5C04F03D21968064A9142BE
S3150000648003D00023037083607047012202709A686C
S315000064909B694260F7E700BF07B0CD5E70B5002488
S315000064A0A36AB3F5C04F0DD201F075F80122084B6F
S315000064B01D781A7001F075F83DB9AB6ABDE87040F9
S315000064C0DB6918474FF4817070BD2046FCE700BFBA
S315000064D0680F00204FF00053074A1A60BFF34F8F32
S315000064E00649074BCA6802F4E0621343CB60BFF368
S315000064F04F8F00BFFDE700BF02020FF000ED00E086
S315000065000400FA0500239B6AB3F5C04F05D21B6B46
S31500006510B3F5C04F01D29B6818474FF4817070479E
S3150000652010B40024A46AB4F5C04F08D2246BB4F5A5
S31500006530C04F04D2E468A4465DF8044B60474FF4AC
S3150000654081705DF8044B704710B40024A46AB4F55A
S31500006550C04F08D2246BB4F5C04F04D22469A446B8
S315000065605DF8044B60474FF481705DF8044B70474B
S3150000657000239B6AB3F5C04F05D21B6BB3F5C04F22
S3150000658001D25B6918474FF481707047002307B545
S315000065909B6A0190B3F5C04F0AD21B6BB3F5C04F8F
S315000065A006D201219B6901A8984703B05DF804FB58
S315000065B04FF48170F9E700230360704703680B60AE
S315000065C00160704705490A681318054883428CBF65
S315000065D04FF0FF320B601046704700BFC40B00201F
S315000065E000800020024B1968024B186821F0C0B9E0
S315000065F0CC0B0020C80B00207047000037B5920076
S3150000660004460D46019229F043FB431C0BD060B9AA
S3150000661029462046019A29F0D7F90028044808BFE0
S31500006620002003B030BD0348FBE70348F9E700BF8D
S3150000663010E000F021E000F024E000F013B504467D
S3150000664001A801F005FA9DF80630012223804FF4D7
S31500006650807300206380054B9B680A3303F01F0399
S3150000666002FA03F3636002B010BD00BF0080E00FC2
S3150000667001F06AB908B501F057F9002008BD10B558
S31500006680044644EA010313F00303084609D1934282
S3150000669001D1002010BD54F8231040F82310013317
S315000066A0F5E72146920029F09FF9F2E710B5044676
S315000066B029F0F6FA431C15D0B0B90C4B20469B685E
S315000066C00A3303F01F020123934023F003032344FC
S315000066D0984201D1002010BD50F8042B0132F7D0AA
S315000066E00348F8E70348F6E70348F4E70080E00FBD
S315000066F00EE000F021E000F024E000F008B500F024
S3150000670043FF014B186008BD00160020014B1868B6
S3150000671000F03EBF001600200A460139014401F090
S3150000672093BE4FF04023D3F88420D206FBD4D3F88F
S315000067308400C0F3811070472E4B98424AD022D86D
S315000067402D4B984240D014D82C4B984239D00AD8B9
S315000067502B4B984232D02B4B98422FD02A4B984243
S315000067602CD000207047294B9842FAD1284B186F3D
S315000067707047284B98422AD0274B9842F1D1244B98
S31500006780D3F880007047254B98422BD009D8244B6C
S31500006790984223D0234B9842E3D11D4BD3F88C006B
S315000067A07047214B984221D003F5740303F510532B
S315000067B09842D6D1164BD3F898007047144B986D73
S315000067C07047134B586E7047114B586F7047104BFC
S315000067D0986F70470E4BD3F8840070470C4BD3F874
S315000067E0880070470A4BD3F890007047084BD3F8DF
S315000067F0940070470048E8010024F400C0CF6A0006
S3150000680080841E0000093D0040420F00405DC60026
S315000068100080E00FC0EA210180BA8C01007E560399
S3150000682080D54302006CDC020090D00338B5104BD3
S315000068300546D3F820310C4603F00303022B0BD098
S31500006840032B0DD0012B0FD1FFF7AEFD052305B1AC
S31500006850286004B1237038BDFFF7E2FD0323F6E795
S31500006860FFF7F6FD0223F2E700231846EFE700BF25
S315000068700080004073B50D4600210E4B0191D3F800
S315000068808041064604F00304012C09D0022C0CD0EA
S315000068900C460EB1019B336005B12C7002B070BD81
S315000068A001A8FFF7C3FF0F24F3E7FFF7D1FD01901F
S315000068B0EFE700BF0080004038B5174B0546D3F818
S315000068C024310C4603F00703013B052B20D8DFE8F3
S315000068D003F0030F171B0B13FFF766FD052305B126
S315000068E0286004B1237038BDFFF75EFD0623F6E786
S315000068F0FFF796FD0323F2E7FFF792FD0423EEE789
S31500006900FFF7A6FD0223EAE7FFF7A0FD0723E6E768
S3150000691000231846E3E700BF0080004038B5104B5F
S315000069200546D3F840310C4603F00303022B0BD087
S31500006930032B0DD0012B0FD1FFF78EFD092305B1D7
S31500006940286004B1237038BDFFF78CFD0823F6E7F5
S31500006950FFF785FD0B23F2E700231846EFE700BF9C
S315000069600080004038B5134B0546D3F800320C467C
S3150000697003F00703013B032B18D8DFE803F0020AF4
S315000069800E12FFF769FD092305B1286004B12370D3
S3150000699038BDFFF767FD0823F6E7FFF760FD0B2319
S315000069A0F2E7FFF727FD0E23800AEDE700231846DE
S315000069B0EAE700BF0080004038B5104B0546D3F823
S315000069C040320C4603F00303022B0BD0032B0DD0F1
S315000069D0012B0FD1FFF740FD092305B1286004B153
S315000069E0237038BDFFF73EFD0823F6E7FFF737FDB6
S315000069F00B23F2E700231846EFE700BF00800040B4
S31500006A0038B5104B0546D3F860310C4603F0030346
S31500006A10022B0BD0032B0DD0012B0FD1FFF71CFD42
S31500006A20092305B1286004B1237038BDFFF71AFDAC
S31500006A300823F6E7FFF713FD0B23F2E700231846BA
S31500006A40EFE700BF0080004010B40D4C0B46D4F8B1
S31500006A50204204F00304012C0AD0022C0CD008B109
S31500006A60002101600BB100221A705DF8044B7047DB
S31500006A705DF8044BFFF7DABE5DF8044BFFF74EBF37
S31500006A8000800040B0F5207F1FD009D8B0F5007F08
S31500006A9015D003D868B1B0F5C07F0AD000200CE04D
S31500006AA0B0F5607FFAD10B4BD3F88000C0F301102C
S31500006AB003E0084B186FC0F3033001307047054BF5
S31500006AC0D3F89000C0F30460F7E7024B186FC0F3E9
S31500006AD08020F2E7008000404FF4003238B50E4BBC
S31500006AE005469A660020FFF7CDFF41F671320B4B43
S31500006AF06843DC690A4DDA639A68A84204F4803474
S31500006B0022F4401203D9012918BF42F480129A6078
S31500006B100CB10022DA6338BD00900040000003404B
S31500006B20005A620208B5FFF777FCBDE8084000216D
S31500006B30FFF7D2BF420910B510D0012A10D00B4B77
S31500006B400B4C022A18BF234600F01F0051B103F573
S31500006B508053012202FA00F0186010BD1346F3E7D5
S31500006B60044BF1E703F50053F3E700BF68800040EC
S31500006B7060820040648000401FB5002380280446E0
S31500006B80029372D02BD8002873D0A0F12004A3B2B0
S31500006B90412B32D8412C30D8DFE804F06B6E6B6E97
S31500006BA07D7D7D7D6E6E873C9E623C6E6E6E2F2F68
S31500006BB02F2F2F2F82546E6E6EA8A36E2F2F2F2F7E
S31500006BC02F2F2F2F2F2F2F2F2F6B2F6B6B6B7D2F91
S31500006BD02F2F2F2F2F2F2F2F2F2F2F2F6B6BB0F500
S31500006BE0806F58D021D8B0F5007F4FD008D8B0F5C7
S31500006BF0807F5FD0B0F5C07F3BD0029804B010BD57
S31500006C00B0F5607F42D0F8D8B0F5207F34D0B0F52B
S31500006C10407FF2D1FFF7EEFB02464FF42070FFF7FC
S31500006C2031FFB2FBF0F0400821E0B0F5C06F53D061
S31500006C300DD8B0F5A06F33D0B0F5B06F35D0B0F544
S31500006C40906FDAD1002102A8FFF736FED5E7B0F53E
S31500006C50E06F46D0B0F5F06F48D0B0F5D06FCCD12C
S31500006C60002102A8FFF77EFEC7E7FFF7A9FB029007
S31500006C70C3E7FFF7BFFBFAE7FFF7BCFB02464FF49B
S31500006C802070FFF7FFFEB2FBF0F0F0E7FFF798FB8E
S31500006C9002462046F5E7002102A8FFF7C7FDACE74C
S31500006CA0002102A8FFF7D0FEA7E7002102A8FFF700
S31500006CB0E1FDA2E703934FF0E0231B695B0705D5CF
S31500006CC0FFF798FB0390039B029396E70DF10701EC
S31500006CD003A8FFF723FEF6E7002102A8FFF71EFE32
S31500006CE08BE7002102A8FFF767FE86E7002102A8CE
S31500006CF0FFF786FE81E7000008B58020FFF73CFF1E
S31500006D00034B98429EBF4FF48032024B1A6708BD70
S31500006D10005A620200A00040002307B5B0F5807F4C
S31500006D208DF802307FD02AD8382800F0A0800CD801
S31500006D30243883B2092B10D809280ED8DFE800F0D2
S31500006D406D6D6D6D0D0D670D3987522865D009D8AB
S31500006D503D283ED03E2800F090809DF8020003B00A
S31500006D605DF804FB8028F8D1474B1B6F03F007033F
S31500006D70013B032BF1D8DFE803F048444276B0F537
S31500006D80D06F64D01BD8B0F5A06F70D00BD8B0F51B
S31500006D90806F42D0B0F5906FDFD100200DF1020177
S31500006DA0FFF78AFDD9E7B0F5B06F30D0B0F5C06F08
S31500006DB0D3D100200DF10201FFF7B0FDCDE7B0F50C
S31500006DC0006FEAD00BD8B0F5E06F56D0B0F5F06F93
S31500006DD0C3D100200DF10201FFF712FEBDE7B0F5A9
S31500006DE0086FBAD1284BD3F8003103F00303022B06
S31500006DF033D0032B35D0012B37D1FFF711FB0323FB
S31500006E0000E005238DF80230A7E70223FAE7002009
S31500006E100DF10201FFF72EFD9FE700200DF10201A3
S31500006E20FFF704FD99E701934FF0E0231B695B0729
S31500006E3007D5FFF7DFFA0C238DF803309DF80330F2
S31500006E40E0E70DF1030101A8FFF768FDF6E7002072
S31500006E500DF10201FFF786FD7FE7FFF703FB08232D
S31500006E60D0E7FFF7F3FA0723CCE70123CAE70020B0
S31500006E700DF10201FFF7E8FD6FE700200DF10201B9
S31500006E80FFF79AFD69E700BF0080004008B5FFF7ED
S31500006E9043FF082812D00938C0B2012811D84FF490
S31500006EA00012094B4FF6FF705A6603F5D8335B6A3A
S31500006EB013F0010F18BF4FF4FA7008BD034B188882
S31500006EC0FBE74FF6FF70F8E700900040EC0B002060
S31500006ED070B504468020FFF71FFF03287CD04FF4CF
S31500006EE00022424B42495A6645F60E030222C1F879
S31500006EF08030404B9A62012203F580539A628A6D74
S31500006F0012F48032FBD1637820781B0543EA0063D4
S31500006F10A079257C0343E078667C43EA0043207928
S31500006F2043EA0033607943EA80130B618B69E07AA8
S31500006F3003F000430343E07943EA8063207A43EA9F
S31500006F400063607A43EA0043A07A43EA00238B6138
S31500006F50637B096A002B18BF0822207B21F00D01F4
S31500006F6043EA010343EA800342EA0302204B1A6222
S31500006F70A27B4FEA421230D1986AE17B20F03300BF
S31500006F8042EA0112024342F001029A621A4A996DDC
S31500006F9032EA0101FBD1022216498A621A659A6D0C
S31500006FA05200FCD41869A27820F4700040EA02501E
S31500006FB04FF0004218610F4B9A611DB9022203F58A
S31500006FC080539A6216B901220C4B9A62A37C1BB1BC
S31500006FD0074B0B4AC3F8802070BD996A21F0330134
S31500006FE031430A4342EA4502EFE700BF0090004002
S31500006FF000C0004000D000400300014000E0004017
S31500007000F1A7FFFF014B93F900007047B41600206B
S315000070104FF4001208B5184B5A660223174A5360FC
S31500007020936813F48033FBD1012822D1FFF7F8F9D6
S31500007030134B984215D003F5122303F5F8639842D3
S3150000704013D0104B00EB8002400AB3FBF0F0520A5B
S315000070500A4BDA62012218635A620022074B5A6011
S3150000706008BD45F67A10084AF2E745F61A00074ABF
S31500007070EEE75362F1E700BF009000400040024097
S3150000708000F0490264666666D8B80500BBCF050005
S315000070900029CCBF01210021FFF71EBDB0F5207FDE
S315000070A010B50C4642D008D8B0F5007F33D003D8CF
S315000070B088B1B0F5C07F0ED010BDB0F5607FFBD1B2
S315000070C01F4B013CD3F8801021F0300141EA041433
S315000070D0C3F88040F0E7FFF725FD00F035F84FF4E0
S315000070E08031184A164B1167196F013C21F4704123
S315000070F041EA04341C67FFF77DF90446FFF711FBEC
S31500007100C0F102012046FFF7C3FF00F023F8BDE8F7
S315000071101040FFF7F1BD0A4B013CD3F8901021F067
S31500007120F85141EA0464C3F89040C5E7044B013CBA
S31500007130196F21F4806141EA84241C67BCE700BF13
S31500007140008000400090004002214FF42070FFF7BD
S31500007150A5BF000008B54FF4C070FFF70DFDBDE8F0
S315000071600840044988428CBF022101214FF4207057
S31500007170FFF794BF80F0FA02B0F5807F70B50C4639
S3150000718000F0FE802AD8382800F0528111D8243821
S3150000719083B2092B16D8092814D8DFE810F0E000CE
S315000071A0E000E000E00013001300D10013004800E7
S315000071B03801522800F0D38005D83D2853D03E2808
S315000071C000F0478170BD8028FCD18B1E052B00F294
S315000071D0B480DFE803F0AF9DB26DB2ACB0F5D06F0E
S315000071E000F0158134D8B0F5A06F00F0218117D8D2
S315000071F0B0F5806F00F0B380B0F5906FE2D1023C3D
S31500007200E4B2052C8CBF00219A4B9B4A98BF195DAE
S31500007210D2F8243123F007030B43C2F82431D1E717
S31500007220B0F5B06F00F08C80B0F5C06FCAD1083CE5
S31500007230E4B2032C8CBF0021904B8F4A98BF195D96
S31500007240D2F8403123F003030B43C2F84031B9E7CB
S31500007250B0F5006FD3D017D8B0F5E06F00F0F98025
S31500007260B0F5F06FAED1083CE4B2032C8CBF002120
S31500007270834B814A98BF195DD2F8603123F003032E
S315000072800B43C2F860319DE7B0F5086F9AD1CC1E6A
S31500007290E4B2052C8CBF00217A4B774A98BF195D62
S315000072A0D2F8003123F003030B43C2F8003189E71B
S315000072B0002502260121022000F0CAF9FFF732FC60
S315000072C0FFF742FF4FF480316F4B6B4A1967136F1C
S315000072D023F0070333431367FFF78CF80646FFF7DF
S315000072E020FAC0F102013046FFF7D2FE012100204C
S315000072F000F0EEF9FFF72EFFFFF7FEFC002D7FF4FE
S3150000730061AF032C7FF45EAF0122604B9A6259E7AE
S315000073104FF400225C4B03265A66012203F54053C4
S315000073209D6A03F58053C5F340059A62C2E70025BE
S315000073300426BFE700250126BCE700252E46B9E74F
S31500007340022C03D0A4F10F00444244414A4AD2F829
S31500007350803123F003031C43C2F8804132E7023C2C
S31500007360E4B2032C8CBF0021494B434A98BF195DF8
S31500007370D2F8203123F003030B43C2F8203121E772
S31500007380A1F10804082C3FF61DAF01A353F824F021
S31500007390B5730000B5730000C5710000B573000039
S315000073A0E3730000C5710000C5710000C5710000DF
S315000073B0B57300004FF480322F4B3649586E03F5F3
S315000073C080535A660B6A43F001030B62C1035CBF2C
S315000073D0314B5A664FF0E022136923F00403136120
S315000073E0F0E64FF48032244B2A49586E03F5805359
S315000073F05A660B6A23F001030B62C3035CBF264B7C
S315000074005A664FF0E022136943F00403E7E7083CAD
S31500007410E4B2062C8CBF0021204B174A98BF195D99
S31500007420D2F8003223F007030B43C2F80032C9E654
S315000074300F2C0CD0102C14BF002102210E4AD2F8BA
S31500007440203223F003030B43C2F82032BAE60121AF
S31500007450F4E7083CE4B2032C8CBF0021104B064A2B
S3150000746098BF195DD2F8403223F003030B43C2F8EC
S315000074704032A7E60401030000800040000103003B
S3150000748000010300110103000090004000E00040ED
S31500007490FC00030000C0074000A000400A010300F2
S315000074A0000103004FF4C02270B50546FFF744F90A
S315000074B0304B04465A6603F598335A68012A04D1BC
S315000074C02D494A609A699207FCD18020FFF724FC77
S315000074D0052807D1FFF726FBFFF736FE4FF480326B
S315000074E0244B1A67254B24F040749D4237D0244B19
S315000074F09D4237D0FEF758FF8542064603D9012143
S31500007500284600F0E5F81F4BDA6812F0060FFBD1AB
S3150000751099689C609A6804F4F81402F4F81294428C
S3150000752023D12846FEF746FF8020FFF7F5FB052806
S315000075300DD1FEF75FFF0446FFF7F3F8C0F1020135
S315000075402046FFF7A5FDFFF705FEFFF7D5FBB54281
S315000075500ED8BDE870400121002000F0B9B844F013
S315000075600074C7E744F08074C4E735469960DBE7EA
S3150000757070BD00BF0090004000E0014040420F0097
S3150000758080841E0000000140EFF3108072B6704741
S3150000759000B962B67047EFF31180302383F3118888
S315000075A0704780F311887047194B10B51B6873B389
S315000075B0184A5268012A2AD0174A8020C2F8003198
S315000075C0FFF7AAFB05281FD14FF4C070FFF75AFA40
S315000075D00128044604D102214FF4C070FFF75EFD76
S315000075E007220E4B1A610122A3F580535A60094AFD
S315000075F01369DB07FCD5012C09D12146BDE81040F3
S315000076004FF4C070FFF74ABD0122054B5A6010BD0A
S31500007610B816002000C001400080004000E0014094
S3150000762000D001404FF04022536F417823F440735D
S3150000763043EA012353677047FFF7B6BF4FF0402276
S31500007640D36E017923F030030B43D366704770473E
S31500007650F8B504464FF04023D3F88420D106FBD476
S31500007660D3F88430C3F381139C422DD0FEF7A8FED5
S31500007670012C064602D12146FFF70AFDFFF784FFDB
S315000076804FF00072114B07465A662046FFF7DFFFA0
S315000076904FF480634FF04025621E93402B676B6E5C
S315000076A09A0103D4D5F884309B060AD53846FFF7ED
S315000076B06FFF022C08D13046BDE8F8400021FFF7E5
S315000076C0E7BCD5F88430EAE7F8BD00BF00600040AB
S315000076D007B518B90191FEF773FE0199064B1B78A1
S315000076E043B1064B984205D8012003B05DF804EB80
S315000076F0FFF7AEBF0220F8E7BC160020005A620270
S315000077000278034B012100201A70FFF7E1BF00BF8A
S31500007710BC1600204FF0004210B501244AF6CD31C8
S31500007720144B5A66144A03F50B2354605A6C1964B9
S31500007730224078B9996811F0010F104903D08C6086
S31500007740D86AC007FCD501234B6012B10C4B0D4A19
S315000077501A6410BDD96A0907FCD42021074B596267
S315000077600121A3F58053996005494B6A9B06FCD518
S31500007770EBE700BF00900040005009400060094060
S31500007780004009403254FFFF4FF0004238B5184B15
S31500007790184C5A66012203F50C235A604AF6CD337B
S315000077A0656C236443781540934013434FF04022A1
S315000077B0D363A368827823F0740343EA0213C27882
S315000077C0002A14BF042200221343A360027983799E
S315000077D043EA022323614279C37943EA02236361C0
S315000077E00078FFF797FF0DB1034B2364012038BDE6
S315000077F000900040004009403254FFFF70B5054636
S3150000780014460E46FFF7C0FE296881EA040202EA22
S3150000781006044C402C60BDE87040FFF7B9BE00007E
S31500007820F8B504460D461F4616464AB101238B405D
S315000078303021184A01FB0022F7B141F210015350E2
S315000078403023072D4FF00F0104FB03F317D8A800D0
S3150000785006FA00F2814010481844FFF7CFFF56B9E8
S31500007860012130230B4801FA05F503FB040077B12B
S3150000787041F21003C550F8BD42F21001DFE7A5F151
S315000078800800800006FA00F281400448E4E742F26C
S315000078901003EFE700C0034004C003400CC00340E0
S315000078A0036C0B42FCD170470A46012100F5805358
S315000078B010B55960137804463BB90369DB0704D554
S315000078C04021FFF7EDFF0223C36053789078002B29
S315000078D00CBF00214FF48051D36800B91BB141F4AD
S315000078E0007103B16362D3780BB141F480711379EF
S315000078F00BB141F0400153790BB141F08001D379CE
S3150000790090791B0143EA8003107A03430B43A3607B
S31500007910137843B12369DB0705D420212046FFF7FE
S31500007920BFFF0123E36010BD4FF40032054B9A669A
S3150000793041F6713203F51C33DA63012203F5005375
S31500007940DA6070470090004041F671320121064B23
S31500007950DA6303F50052D1600022DA634FF4003295
S31500007960A3F518339A667047000003404FF0904322
S315000079705A6812B19A6A002AFAD17047CB784A78C7
S3150000798010B55B010C7843EA82030A79234343EA84
S3150000799002130C22424302F190421363012C02BFF0
S315000079A08A78024B43F8202010BD00BFE8800340D0
S315000079B008B54FF090435A6802B960B15B680BB1E5
S315000079C0FFF7D4FF4FF0904130B10120074B5860CC
S315000079D0FFF7CCFFC86008BDFFF7C8FF0223CB60E6
S315000079E0FFF7C4FF0122024B5A60F4E7001000487B
S315000079F0002000484FF090435B6870B50BB1FFF76D
S31500007A00B5FF0121104B4578596083780679002B24
S31500007A10C37814BF02240024002B14BF04220022C2
S31500007A204379DB0043EA06132B43234313434FF00A
S31500007A3090429360054B59600378002B14BF0B46A8
S31500007A400223D36070BD00BF00200048001000482C
S31500007A504FF48032064B5A6603F5E6235B69C3F39F
S31500007A608512827003F03F021B0B42700370704751
S31500007A700090004070B5054616461C4621B94FF4E5
S31500007A802070FFF779F80146402C1BD003D8DCB1F3
S31500007A90202C1BD070BD602CFCD1042303FB06F206
S31500007AA0560806EB4113B3FBF2F3094A203B02EA00
S31500007AB0C303AA6822F06002AA60AA681443AC60F5
S31500007AC0EB61E7E70623E9E71023E7E70823E5E7A5
S31500007AD0F8FF7F00012200F580535A60CB439340A4
S31500007AE003F00A034361416111B900F50050426099
S31500007AF070470000104ACB78904214D1A2F510329C
S31500007B00C2F8903103690A7823F070030AB143F092
S31500007B1040038A780AB143F020034A780AB143F059
S31500007B20100303617047054A904204BFA2F5203254
S31500007B30C2F8A031E6E700BF00C0054000000640DD
S31500007B40012200F5805310B55A6040F6AA6341F24F
S31500007B500502436100230E498360C365C26000F5D8
S31500007B6000520361C361C36491640A498365884214
S31500007B7002D0094CA04207D18842036502D0064BC9
S31500007B80984201D1002343650123536010BD00BF15
S31500007B90FFFF010000C005400000064070B50D461D
S31500007BA0FFF7CEFF012300F580567360AB7C0446D9
S31500007BB01BB1836843F080438360EB7C5BB1354A3D
S31500007BC02B7D944245D1A2F51032C2F88C31E36D7B
S31500007BD043F08003E3652A8A6B7B20461343EA89D8
S31500007BE01343E3602B7BD5E90112FFF743FF6B7D5F
S31500007BF01BB1A36843F48033A360AB7D1BB1A368BC
S31500007C0043F40043A360EB7D2A7E1B07120502F4B2
S31500007C10E00203F0E0431343A365697E1D4A8B1E11
S31500007C20012B1D4B1FD894421BD002F58042944273
S31500007C300CBF01224FF0FF3203EB4213022041F248
S31500007C401C620329985020D10423F3652B786361C5
S31500007C5070BD124A944204BFA2F52032C2F89C318C
S31500007C60B5E70022E8E794420DD00C4A94420CBFD7
S31500007C7001224FF0FF3203EB4213022042F21C6254
S31500007C8001299850DFE70022F5E7042204F50053A6
S31500007C90DA65DBE700C0054000C00340000006408F
S31500007CA038B50446054D20F0AEFF0FCC0FC594E85D
S31500007CB0030085E80300002038BD00BFC016002081
S31500007CC047F6FF739A42F0B563D0022963D8334B67
S31500007CD0CF0003EBC10013F831108478012913D1CA
S31500007CE00025C3781B1B9D4202D3E018C0B2F0BD2D
S31500007CF0591B4668A3EB510136F911609642D4BF71
S31500007D000D4601F1FF33EEE740680028EFD0B0F9E9
S31500007D100010914204DBB0F902109142B8BF11463F
S31500007D2082883B44FF2A19BFC8222826B0F90620BC
S31500007D30B0F90860A2EB01020CBF0125002592FBF9
S31500007D40F6F25F782A447B1E934228BF13464FF40F
S31500007D507A7E00EBC305AE68EA88AC4611FB026288
S31500007D601E4622EAE272013302F5FA729F42B2FB24
S31500007D70FEF204D9BCF80CC008359445EBD200EBF2
S31500007D80C6008088904228BF1046A04238BF2046D1
S31500007D90ACE7FF20ABE70020A9E700BFC016002034
S31500007DA00229F0B553D82B4800EBC10410F8311066
S31500007DB0636801290FD1E078A478904294BFC4EBA0
S31500007DC00001C4EB0201001BCAB28242C8BF0022F6
S31500007DD033F91200F0BD002B39D0A178914202D3BD
S31500007DE0B3F90200F6E7E178B3F900009142F1D960
S31500007DF099886478A1F1FF06013C714203F10405FC
S31500007E00E4B2714103F10C071FFA82FCCEB2B44210
S31500007E1016D805EBC1014FF47A756A43B1F90240F1
S31500007E204968521A04EBD47102EB610292FBF4F238
S31500007E309042CFDBB3F902009042CBDC10B2C9E727
S31500007E4037F831E04E1CE645E3D33146DEE702481B
S31500007E50C0E700BFC01600200080FFFF08B5044839
S31500007E60FFF71EFFBDE80840012020F0CEBE00BF90
S31500007E70140903007FB50222084B0949CDE9012305
S31500007E804FF00073CDE90313052301A94FF0FF302E
S31500007E90059320F01FFF07B05DF804FB006A180089
S31500007EA00002040007B56B46054A1068516803C313
S31500007EB06846FFF769FC002003B05DF804FB00BFCD
S31500007EC0170103004FF0402213B50024536F684694
S31500007ED043F00103536700948DF80440FFF7AEFBAF
S31500007EE0204602B010BD000008B50248FFF7DAFAD6
S31500007EF0002008BD00B4C40470B586B001AA1546BA
S31500007F00184B03F11006144618685968083303C461
S31500007F10B3422246F7D119889B782180A370124B71
S31500007F20D3F84C21120314D4D3F85041E4B28DF89F
S31500007F300E40FFF767F8204480F308008DF80D0027
S31500007F400A48FEF773FA2846FEF7C2FF002006B07D
S31500007F5070BD074B1C884FF6FF739C4208BF8C24EC
S31500007F60E5E700BF1F0103000080E00F00F04902B3
S31500007F700001E00F08B50120FFF74AF8002008BD10
S31500007F806FF00402502110B50A480B4C12F0800F16
S31500007F90D3B21BBF03F00F03043BA3181B1802F157
S31500007FA001020CBF83F800131976402AEED1002097
S31500007FB010BD00BF00ED00E000E100E000F07AB87F
S31500007FC038B500F0DDFD0446E0B900F0A1FE4FF43F
S31500007FD0167343430C4803F5742303F23F23B3FBA4
S31500007FE0F0F30A4A0A4913600A220D680948013A61
S31500007FF012F0FF0240F8043BF9D103EBC3022B4415
S3150000800013440B60204638BD40420F001417002071
S31500008010E0160020E416002070470000012208B593
S31500008020034B1A7000F067FE024B186008BD00BFD4
S31500008030DC16002010170020F8B5144C237823B363
S3150000804000F059FE124B134D1B68134EC01A01283F
S3150000805038BF0120114B124F18602B7856F8232099
S3150000806046F82300111A3A680E48521A0A213A6055
S315000080700932B2FBF1F20133DBB20260B3FBF1F27B
S3150000808001FB12332B7000232370F8BDDC16002091
S31500008090101700200C170020E4160020D816002028
S315000080A0E016002014170020014B1868704700BF27
S315000080B01417002020234FF400220A4981F82C339C
S315000080C0094B5A66094A03F5A040426702674FF416
S315000080D0805003F540530344C1F8840148605A6751
S315000080E0704700BF00E100E000900040010000A0E2
S315000080F0054B064A1B78916DC90700D513B10028B8
S31500008100F9D17047012070472C17002000C00040AD
S315000081102DE9F843874B1E6F9D6A9C6AF00705F0B0
S31500008120020504F001044CD501278349834A91F8DE
