:04000005080024A922
:020000040800F2
:1000000000A00020A9240008C1040008C3040008BF
:10001000CB040008CD040008CF0400080000000055
:10002000000000000000000000000000D1040008F3
:10003000D304000800000000D5040008D90400081B
:10004000F9240008F9240008F9240008F92400081C
:10005000F9240008F9240008F9240008F92400080C
:10006000F9240008F9240008F9240008F9240008FC
:10007000F9240008F9240008F9240008F9240008EC
:10008000F9240008F9240008F92400080000000001
:10009000000000000000000000000000F92400083B
:1000A000F9240008F9240008F9240008F9240008BC
:1000B000F92400080000000000000000F9240008F6
:1000C000F9240008F9240008F9240008F92400089C
:1000D000F9240008F9240008F9240008F92400088C
:1000E000F9240008F92400080000000000000000C6
:1000F0000000000000000000000000000000000000
:1001000000000000000000000000000000000000EF
:100110000000000000000000F924000800000000BA
:10012000F9240008F9240008F9240008F92400083B
:10013000F92400080000000000000000000000009A
:10014000F9240008F9240008F9240008F92400081B
:10015000F9240008F9240008F9240008F92400080B
:10016000F9240008F9240008000000000000000045
:1001700000000000F924000800000000F924000835
:0C018000F9240008F9240008F924000804
:1001900010B5054C237833B9044B13B10448AFF3C1
:1001A00000800123237010BD6801002000000000C2
:1001B0004C34000808B5034B1BB103490348AFF3A7
:1001C000008008BD000000006C0100204C340008D5
:1001D00001F0FF01102A2BDB10F0070F08D010F8F8
:1001E000013B013A8B422DD010F0070F42B3F6D1FC
:1001F000F0B441EA012141EA014122F007047FF015
:1002000000070023F0E80256083C85EA010586EA6B
:10021000010685FA47F5A3FA87F586FA47F6A5FAA7
:1002200087F68EB9EED1F0BC01F0FF0102F00702B3
:1002300032B110F8013B013A83EA010313B1F8D15E
:100240000020704701387047002D06BF354603383F
:10025000073815F0010F07D1013015F4807F02BF78
:10026000013015F4C03F0130F0BC0138704700BFC9
:10027000094808B5094B03600023037143714361CA
:1002800083610123036200F02FFA18B1BDE8084032
:1002900000F056B808BD00BFA40B0020003002409B
:1002A0000268084B9A4282B00AD1A3F500539A6CB7
:1002B00042F480529A649B6C03F480530193019B37
:1002C00002B070470030024030B587B014220021E0
:1002D00001A802F087F9194BDA6C42F00102DA64E6
:1002E000DB6C03F001030122009348F210714FF020
:1002F000904000240125009B00F08AFC102301A9F6
:100300004FF09040019302950394049500F0B6FBE2
:10031000802301A94FF0904001930294039400F0D0
:10032000ADFB4FF4074301A94FF0904001930295B4
:100330000394049400F0A2FB07B030BD001002400B
:1003400008B500F0BEF872B6FEE710B596B04422CC
:10035000002105A802F046F914220021684602F0A7
:1003600041F94FF4007000F069FC08B1FFF7E8FFB5
:100370001023059301230C93119312932823022435
:100380000D906022139305A804230E9210941494E8
:10039000159300F019FD0028E8D10F2203230290E5
:1003A00003900490214668468DE80C0000F0DEFFC3
:1003B0000028DBD116B010BD08B500F017F9FFF723
:1003C000C4FFFFF781FF00F00BF8FFF751FF01F0CA
:1003D00075FD024801F088FCFEE700BF2C0C0020F0
:1003E000104811494FF4E06208B5C2604FF4007242
:1003F0004FF482738261102280E80A00C2610023F8
:100400000722836003614361036243628362C262C5
:100410000363436301F043F918B1BDE80840FFF7F7
:100420008FBF08BDC80B00200030014010B5044646
:1004300088B01422002103A802F0D4F82268134BDC
:100440009A4221D103F5604303A91A6E42F4805207
:100450001A661A6E02F480520192019ADA6C42F026
:100460000102DA64DB6C03F001030293029B4FF498
:10047000C153039302230493012306934FF090404A
:100480000523079300F0FAFA08B010BD00300140D0
:100490000A4B1A6E42F001021A661A6E82B002F01E
:1004A00001020092009A9A6D42F080529A659B6D0B
:1004B00003F080530193019B02B07047001002408B
:1004C000FEE708B501F08EFCFEE7FEE7FEE7FEE77B
:1004D0007047704770470000024A13680133136089
:1004E00000F094B82C0C00200120704708B502F0F1
:1004F00023F8162303604FF0FF3008BD08B502F063
:100500001BF816230360FEE770B50E4615460C4631
:10051000A31B9D4201DC284670BDAFF3008004F8A8
:10052000010BF5E770B50E4615460C46A31B9D4220
:1005300001DC284670BD14F8010BAFF30080F5E72D
:1005400008B50A4B1968024609B9094919601868C3
:10055000694602448A4206D901F0EEFF0C2303608B
:100560004FF0FF3008BD1A6008BD00BF84010020B5
:10057000380C00204FF0FF3070474FF400534B60B1
:10058000002070470120704700207047034AD2F8CE
:10059000883043F47003C2F88830704700ED00E003
:1005A00038B50F4B0546187808B9012038BD0D4AFB
:1005B0004FF47A73B3FBF0F31068B0FBF3F000F084
:1005C0007DF804460028F0D10F2DEED802462946CA
:1005D0004FF0FF3000F03EF8034B20461D6038BD61
:1005E00004000020000000200800002010B50320B7
:1005F00000F01EF80020FFF7D3FF044618B9FFF7FC
:1006000047FF204610BD0124FBE70000034A044BCE
:1006100011681B780B441360704700BF300C00203A
:1006200004000020014B1868704700BF300C002008
:10063000074AD36823F4E0631B041B0C43F0BF6339
:10064000000243F4003300F4E0600343D3607047DA
:1006500000ED00E0174B30B5DC68C4F30224C4F1B0
:100660000703251D042B28BF0423062D4FF0010589
:1006700005FA03F303F1FF338CBF033C0024194058
:10068000A14005FA04F4013C2240002842EA01029C
:100690004FEA0212ADBF00F1604000F00F00064BC0
:1006A00000F56140B5BFD2B2D2B21A5480F800232F
:1006B00030BD00BF00ED00E014ED00E00138B0F106
:1006C000807F0AD2064B074A5860F02182F8231037
:1006D0000020072298601A6070470120704700BF11
:1006E00010E000E000ED00E010B5044608B901207C
:1006F00010BD437F03F0FF0213B90277FFF7D0FD6F
:10070000022363772379E3B92368134A5A619A680D
:1007100022F018029A6062792368D2B94FF0FF3252
:100720001A619A68616922F060020A439A609A68C5
:10073000A16922F080020A439A60012363770020B6
:1007400010BDE268A168204600F008F80028E2D059
:10075000CDE72269E4E700BFB71DC10410B51F2330
:1007600013F1FF3306D321FA03F4E407F8D5082A7E
:1007700014D009D872B900684161836823F0180366
:100780001A438260002010BD102A05D0182A01D11A
:10079000062BF0D9012010BD072BFAE70F2BF8E745
:1007A000094A536943F4802310B55361EFF3108372
:1007B00072B601F58072401A0C680C5004319142F7
:1007C000FAD183F3108810BD00200240064B5A690D
:1007D000002ABFBF054A9A6002F188329A60BABF08
:1007E0005869C00F00207047002002402301674570
:1007F000034A536943F0004353610020704700BF30
:100800000020024070B50546FFF70CFF104C06466D
:100810002369DB030AD420690E4A02400FD00E4937
:100820004B6813434B600120226170BD6A1CEFD0FE
:10083000FFF7F8FE801B8542EAD8032070BD2069CF
:1008400010F00100FAD001232361104670BD00BFF3
:1008500000200240FAC302000C0000202DE9F047FE
:10086000254C9A462378012B07468846914641D06D
:1008700001234CF250302370FFF7C4FF064630BB13
:1008800060601E48056815F4806517BF036825770A
:1008900023F4806303601CBF02232377E7B9456913
:1008A00045F001054561C8F80090BFF36F8F012541
:1008B000C8F804A04CF25030FFF7A4FF064625B15B
:1008C0000E4A536923EA0505556100F03DF80023FF
:1008D00023703046BDE8F0877B1E012B01D900252F
:1008E000E8E749464046FFF75BFF022FF7D14FF498
:1008F0008025DFE70226ECE70C0000200020024004
:10090000064B10F0010F1EBF5A6942F004025A61F3
:100910005A6942F480325A61704700BF0020024099
:10092000084B5A69C00022F4FC7200F4FF601043C7
:1009300058615A6942F002025A615A6942F480329F
:100940005A6170470020024013490B7FDBB203F06D
:10095000FD02012A0CD1114A106840F400601060B9
:10096000106820F400601060106840F4007010609F
:10097000023B012B0CD8094B1A6842F480521A60D2
:100980001A6822F480521A601A6842F480621A606F
:1009900000230B77704700BF0C00002000200240AE
:1009A0002DE9F843334C2378012B064688465ED068
:1009B00001274CF250302770FFF724FF054630BB6B
:1009C0002D4B60601A6812F4007F1A6824D022F45C
:1009D00000721A601A68510506D51A6822F48062FE
:1009E0001A600323237700E027773368012B1DD19A
:1009F0007068FFF785FF4CF25030FFF703FF1E4A87
:100A0000536923F0040305465361FFF79DFF00235C
:100A100023702846BDE8F883520505D51A6822F4EC
:100A200080621A600223DDE72077DEE74FF0FF33B4
:100A3000C8F80030B768DFF84090B368F268134434
:100A40009F42E2D271683846FFF76AFF4CF250309D
:100A5000FFF7D8FED9F8143023F4FD73C9F8143029
:100A600018B1C8F800700546CFE70137E5E7022561
:100A7000CFE700BF0C000020002002402DE9F04F1E
:100A800085B00B68DFF878815B4A01934FF00F095E
:100A90000023019CDC4002D105B0BDE8F08F0124A9
:100AA00004FA03FE019C14EA0E0500F09C804C68D9
:100AB00024F0100C0CF1FF36012E4FEA430614D837
:100AC00087684FF0030A0AFA06FA27EA0A0ACF688B
:100AD000B74047EA0A078760476827EA0E0EC4F363
:100AE00000179F4047EA0E0747604FF0030EC768A4
:100AF0000EFA06FE6FEA0E0E07EA0E0A8F68B7407E
:100B000047EA0A07BCF1020FC76014D14FEAD30CC1
:100B100000EB8C0C03F0070ADCF820704FEA8A0A1D
:100B200009FA0AFB27EA0B0B0F6907FA0AF747EAEB
:100B30000B07CCF8207007680EEA070E04F00307D5
:100B400007FA06F646EA0E060660E6004BD5D8F828
:100B5000606046F00106C8F86060D8F8606023F075
:100B6000030707F1804706F0010607F58037039673
:100B700003F0030E039EBE684FEA8E0E09FA0EFCC8
:100B8000B0F1904F26EA0C0C2FD01C4EB0422ED064
:100B900006F58066B0422CD006F58066B04214BFE0
:100BA0000726032606FA0EF646EA0C06BE6016680D
:100BB000EF4314F4803F0CBF3E402E43166056684E
:100BC00014F4003F0CBF3E402E435660966814F468
:100BD000801F0CBF3E402E439660D668A40254BFCF
:100BE0003E402E43D660013353E70026DAE7012664
:100BF000D8E70226D6E700BF000401400004004801
:100C0000001002400369194214BF01200020704700
:100C10000AB18161704781627047436903EA01024A
:100C200021EA030141EA024181617047024B1868E1
:100C300000F4C060704700BF00700040174B1A6896
:100C4000B0F5007F02F4C0621CD1B2F5007F15D070
:100C50001A6822F4C06242F400721A60104A1168E5
:100C600032224A430F49B2FBF1F219460132586968
:100C7000400500D522B94B695B050DD400207047B3
:100C8000013AF4E7B2F5806F1FBF1A6822F4C06220
:100C900042F480621A60F1E7032070470070004060
:100CA0000000002040420F0037B51E4DAB6DDA004A
:100CB000044618D5FFF7BAFFB0F5007F23D1802C8A
:100CC00029D9A02C8CBF02200120174A136823F0D9
:100CD000070303431360136803F00703181A18BFD0
:100CE000012003B030BDAB6D43F08053AB65AB6DFD
:100CF00003F080530193019BFFF798FFAB6D23F046
:100D00008053AB65D8E7802C07D808D0A4F17003D6
:100D100058425841D9E70020D7E70320D5E7022001
:100D2000D3E700BF0010024000200240224B9A6827
:100D3000D96812F00C0205D00C2A15D101F003017C
:100D4000012918D119681D48090755BFD3F8941017
:100D50001968C1F30321C1F3031150F821004AB30C
:100D60000C2A09D000207047042A22D0082A1448EF
:100D700018BF002070470020DA6802F00302022A40
:100D800015D00F49032A08BF0846DA68D968DB681E
:100D9000C3F34163C1F30621C2F302120133484396
:100DA00001325B00B0FBF2F0B0FBF3F07047054896
:100DB000EBE70448704700BF00100240743400089D
:100DC00000127A000024F4002DE9F743054618B913
:100DD000012003B0BDE8F083944C0368A668E7687F
:100DE000DB0606F00C0607F003073DD51EB10C2EFE
:100DF0006AD1012F68D12368980702D5EB69002BCF
:100E0000E6D02368686A190756BFD4F8943023687F
:100E10001B0903F0F00383423FD2FFF745FF002890
:100E2000D6D1236843F00803236023686A6A23F05D
:100E3000F0031343236063682A6A23F47F4343EA81
:100E400002236360FFF772FFA368794AC3F30313B9
:100E5000D35C03F01F03D840764B1860764B1868BC
:100E6000FFF79EFB0028B4D12B68D80763D42B680A
:100E7000990700F1A2802B68180700F1DF802B682A
:100E8000590700F12F812B68990600F1A781EB6AC1
:100E9000002B40F0CD8100209BE7236843F008033E
:100EA0002360236823F0F0030343236063682A6A06
:100EB00023F47F4343EA02236360002EC2D1FFF78D
:100EC000F3FE0028BED083E7EB691BB3236843F031
:100ED00001032360FFF7A6FB804623689A0711D51C
:100EE000236843F00803236023686A6A23F0F00351
:100EF0001343236063682A6A23F47F4343EA02238F
:100F00006360B1E7FFF78EFBA0EB08000228E4D98D
:100F100003205EE7236823F001032360FFF782FBD1
:100F2000804623689B079FD5FFF77CFBA0EB08005A
:100F30000228F6D9ECE7082E03D00C2E08D1032F97
:100F400006D123689A0392D56B68002B8FD13FE7B7
:100F50006B68B3F5803F10D1236843F4803323607E
:100F6000FFF760FB804623689B0380D4FFF75AFBA2
:100F7000A0EB08006428F6D9CAE7B3F5A02F04D186
:100F8000236843F480232360E6E7226822F480325A
:100F90002260226822F480222260002BE0D1FFF739
:100FA00041FB8046236898037FF561AFFFF73AFB6A
:100FB000A0EB08006428F5D9AAE7042E03D00C2E74
:100FC00010D1022F0ED12368590503D5EB68002BF1
:100FD0003FF4FEAE63682A6923F0FE4343EA0263EE
:100FE000636048E7EB687BB1236843F48073236058
:100FF000FFF718FB074623685A05EBD4FFF712FBEF
:10100000C01B0228F7D983E7236823F48073236089
:10101000FFF708FB074623685B057FF52CAFFFF75A
:1010200001FBC01B0228F6D972E700BF0010024086
:101030006434000800000020080000206B69002BC9
:101040003CD0D4F89430A96903F0100291420ED03C
:1010500003F00302022A3FF4BBAEDA071BD4D4F834
:101060009430AA6923F010031343C4F89430D4F8E1
:10107000943043F00103C4F89430FFF7D3FA0746E5
:10108000D4F8943098073FF5FAAEFFF7CBFAC01BBF
:101090001128F5D93CE7D4F8943023F00103C4F8C3
:1010A0009430FFF7BFFA0746D4F894309B07D6D5A3
:1010B000FFF7B8FAC01B1128F6D929E7D4F8943005
:1010C00023F00103C4F89430FFF7ACFA0746D4F8D4
:1010D000943099077FF5D3AEFFF7A4FAC01B11280F
:1010E000F5D915E7A36DDA002FD4A36D43F0805333
:1010F000A365A36D03F080530193019B4FF001089A
:10110000984F3B68DB0523D5AA68D00731D4D4F8C3
:10111000903023F00103C4F89030D4F8903023F0DD
:101120000403C4F89030002A3AD1FFF77BFA41F269
:1011300088390746D4F89030980749D4D4F89030CD
:1011400023F08003C4F8903033E04FF00008D7E775
:101150003B6843F480733B60FFF764FA81463B6869
:10116000D905D1D4FFF75EFAA0EB09000228F6D921
:10117000CEE6D4F8903002F0800123F080030B43D8
:10118000C4F89030D4F89030520742BF43F00403C3
:10119000C4F89030D4F8903043F00103C4F8903094
:1011A000FFF740FA41F288390746D4F890309B07A0
:1011B00008D5B8F1000F3FF466AEA36D23F080535D
:1011C000A36560E6FFF72EFAC01B4845EDD99FE600
:1011D000FFF728FAC01B4845ACD999E6AB6A9BB12A
:1011E000D4F8983043F00103C4F89830FFF71AFAA6
:1011F0000746D4F898309A073FF549AEFFF712FA40
:10120000C01B0228F5D983E6D4F8983023F00103F7
:10121000C4F89830FFF706FA0746D4F898309B07D1
:101220007FF535AEFFF7FEF9C01B0228F5D96FE652
:10123000022B7AD1E3682A6B03F0030191421CD19F
:10124000696B03F070020139B2EB011F15D1A96B74
:1012500003F4FE42B2EB012F0FD1EA6B520803F404
:10126000C001013AB1EB425F07D12A6C520803F08A
:10127000C063013AB3EB426F3ED00C2E3FF4A8ADF1
:10128000236823F080732360FFF7CCF906462368B8
:101290009F012BD4E268344B13402A6B1343AA6B93
:1012A00043EA02236A6B013A43EA0213EA6B5208EB
:1012B000013A43EA42532A6C5208013A43EA426334
:1012C000E360236843F080732360E36843F0807336
:1012D000E360FFF7A7F90546236898013FF5DBAD0A
:1012E000FFF7A0F9401B0228F6D911E6FFF79AF99B
:1012F000801B0228CBD90BE6236899013FF5CBADC3
:10130000236843F080732360E36843F08073E360F5
:10131000FFF788F9054623689A013FF5BCADFFF752
:1013200081F9401B0228F6D9F2E50C2E3FF450ADAE
:10133000236823F080732360E36823F00303E360F2
:10134000E36823F08873E360FFF76CF905462368D0
:101350009B017FF5A0ADFFF765F9401B0228F6D988
:10136000D6E500BF007000408C809FF92DE9F04168
:101370000E46044610B90120BDE8F081414A1368C9
:1013800003F007038B422AD32368D90732D421689C
:101390008A075CD43B4A136803F007039E425ED37E
:1013A00011F0040F384D65D10B0706D5AB682269E3
:1013B00023F4605343EAC203AB60FFF7B7FCAB68AA
:1013C000324AC3F30313BDE8F041D35C03F01F03BB
:1013D000D8402F4B18602F4B1868FFF7E1B81368FF
:1013E00023F007030B431360136803F007039942CC
:1013F000C1D1C9E76268244D032A2B681BD113F0C1
:10140000007FB8D0AB6823F003031343AB60FFF752
:1014100009F941F288380746AB68626803F00C03AB
:10142000B3EB820FB3D0FFF7FDF8C01B4045F3D9F3
:101430000320BDE8F081022A02D113F4003FE0E767
:1014400012B913F0020FDCE713F4806FD9E70E4AEC
:10145000A068936823F0F003034393609AE713684E
:1014600023F0070333431360136803F007039E421E
:1014700081D195E7AB68E26823F4E0631343AB6086
:1014800092E700BF002002400010024064340008D0
:101490000000002008000020F7B50E46144605465F
:1014A000FFF7C0F83444241AFFF7BCF8214B1B683F
:1014B000C3F3CB330746634301932B68986810F05E
:1014C00080002DD0721CF9D0FFF7ACF8C01BA042F1
:1014D00028D32B685A6822F0E0025A606A68B2F595
:1014E000827F0AD1AA68B2F5004F02D0B2F5806FB0
:1014F00003D11A6822F040021A60AA6AB2F5005FAE
:1015000007D11A6822F400521A601A6842F4005295
:101510001A60012385F85D30002385F85C300320D4
:1015200003B0F0BD019B002B019B08BF0024013BD1
:10153000C2E700BF000000202DE9F34117461C461A
:101540000E460546FFF76EF83C44241AFFF76AF88A
:10155000254B1A68232353431B0D804663432A6897
:1015600001939068304035D0B6F5C06F01BF137B52
:10157000DBB20093009B7B1CF3D0FFF753F8A0EB8A
:101580000800A04229D32B685A6822F0E0025A6072
:101590006A68B2F5827F0AD1AA68B2F5004F02D01C
:1015A000B2F5806F03D11A6822F040021A60AA6A6D
:1015B000B2F5005F07D11A6822F400521A601A6867
:1015C00042F400521A60012385F85D30002385F84B
:1015D0005C30032002B0BDE8F081019B002B019B31
:1015E00008BF0024013BBAE70000002070B5134695
:1015F0000D4616460A464FF4C0510446FFF79CFFBD
:1016000028B1236E43F02003236603200FE0324607
:1016100029462046FFF740FF0028F2D133462A46EC
:101620004FF4C0612046FFF787FF0028E9D170BD65
:10163000F8B54368B3F5827F04460E4617460BD1D2
:101640008368B3F5004F02D0B3F5806F04D12368EF
:101650001A6822F040021A603A4631462046FFF7E7
:101660001BFF054628B1236E43F0200323660325A4
:1016700013E06368B3F5827F0FD1A368B3F5004F21
:1016800002D0B3F5806F08D13B4632464FF4C061BB
:101690002046FFF751FF0028E5D12846F8BD70B578
:1016A0000446002863D0436A002B59D14268B2F542
:1016B000827F00D0C3610023A36294F85D3003F001
:1016C000FF0223B984F85C202046FEF7AFFE022318
:1016D000206884F85D300368E16823F04003B1F5C9
:1016E000E06F03604FF000033ED91D46B1F5706F07
:1016F00018BFA362A6686368A26906F4044603F4EF
:1017000082733343266906F002063343666906F0A6
:101710000106334302F400763343E66906F03806E7
:101720003343266A06F080063343A66A06F4005661
:1017300033430360666B636A06F0080603F0100328
:10174000334301F47061120C194302F004020A439E
:101750001543456001230020206684F85D3070BD8C
:10176000002303614361A6E74FF48055C0E70120E1
:1017700070BD2DE9F3411E4690F85C30012B044604
:101780000D46904600F0B480012380F85C30FEF7EF
:1017900049FF074694F85D00C0B2012840F0A680DA
:1017A000002D62D0B8F1000F5FD0032384F85D30C4
:1017B000A368A5630020B3F5004F20662064A4F859
:1017C0003E80A4F84400A4F846002065E064A4F834
:1017D0003C80206807D1036823F04003036003685E
:1017E00043F48043036003685B065EBF036843F015
:1017F00040030360E368B3F5E06F63683ED913B15B
:10180000B8F1010F07D135F8023BC360A563E38F40
:10181000013B9BB2E387E38F9BB2A3B93A463146C3
:101820002046FFF7E3FE00285DD1A36833B901939A
:101830002368DA6801929B680193019B206E003057
:1018400018BF012011E022689368980705D5A36BA3
:1018500033F8021BD160A363D9E7FEF7E3FEC01B98
:10186000B042D8D3711CD6D00320012384F85D3058
:10187000002384F85C3002B0BDE8F08113B1B8F108
:10188000010F13D1E38F9BB2012B06D935F8023B30
:10189000C360A563E38F023B06E02B780373A36B61
:1018A0000133A363E38F013B9BB2E387E38F9BB2DA
:1018B000002BB3D023689A6892070CD5E28FA06BF7
:1018C00092B2012A04D930F8022BDA60A063E1E772
:1018D00002781A73E3E7FEF7A5FEC01B8642E5D83F
:1018E000731CE3D0C0E7202323669EE70220BCE7F9
:1018F0000220C0E72DE9F8431E4690F85C30089FAF
:10190000012B04460D46914600F01581012380F815
:101910005C30FEF787FE94F85D306168DBB2012B26
:1019200080460AD0B1F5827F40F00381A06800288C
:1019300040F0FF80042B40F0FC80002D49D0B9F12D
:10194000000F46D0002E44D094F85D30E268206845
:10195000C4F84090042B1CBF052384F85D3000239D
:101960002366B2F5E06FA4F84660E687E36423657A
:10197000A4F84460A563A687436801D8012E2AD93C
:1019800023F48053436003685B065EBF036843F043
:1019900040030360B2F5E06F56D909B1012E07D1BB
:1019A00035F8023BC360E38FA563013B9BB2E3873D
:1019B0000125E38F9BB28BB9B4F846309BB26BB96B
:1019C000424639462046FFF711FE002834D0202336
:1019D0002366012030E043F48053D3E72268936804
:1019E00099070DD5E38F9BB253B14DB1A36B33F87B
:1019F000021BD160A363E38F013B9BB2E387002509
:101A00009368DB070FD5B4F846309BB25BB1236C0B
:101A1000D26823F8022B2364B4F84630013B9BB212
:101A2000A4F846300125FEF7FDFDA0EB0800874233
:101A3000BFD87E1CBDD00320012384F85D30002375
:101A400084F85C30BDE8F88309B1012E0BD1E38F37
:101A50009BB2012B51D935F8023BC360E38FA563DC
:101A6000023B9BB2E3870125E38F9BB223B9B4F815
:101A700046309BB2002BA3D022689368980711D5FB
:101A8000E38F9BB273B16DB1E38F9BB2012BA36B5C
:101A90003BD933F8021BD160A363E38F023B9BB2B7
:101AA000E387002522689368D9071DD5B4F846302E
:101AB0009BB2CBB1B4F846309BB2012B236C2CD92E
:101AC000D16823F8021B2364B4F84630023B9BB272
:101AD000A4F84630B4F846309BB2012B03D85368C3
:101AE00043F4805353600125FEF79CFDA0EB0800F2
:101AF0008742B9D87B1CB7D09DE72B780373A36BC3
:101B00000133A363E38F013BABE71B781373A36B34
:101B10000133A363E38F013BC1E7127B1A70236C8F
:101B200001332364B4F84630013B9BB2A4F846303D
:101B3000D9E7022080E70220BDE8F8832DE9F341D0
:101B40001D464368B3F5827F0446884617460CD18C
:101B5000836853B9042380F85D30134600950A4624
:101B6000FFF7C8FE02B0BDE8F08194F85C30012BAD
:101B700000F09280012384F85C30FEF753FD0646A6
:101B800094F85D00C0B2012840F08480B8F1000FE5
:101B90006ED0002F6CD0042384F85D302168E26899
:101BA000C4F8408000232366A4F84670E387A3634B
:101BB000A387E36423654B68A4F84470B2F5E06F33
:101BC0008CBF23F4805343F480534B60A368B3F578
:101BD000004F07D10B6823F040030B600B6823F420
:101BE00080430B600B685F065EBF0B6843F04003E9
:101BF0000B60B2F5E06F23D9B4F846309BB223B343
:101C000023689A68D2073AD5DA68236C23F8022B46
:101C10002364B4F84630013B9BB2A4F84630EBE7AE
:101C200023689A68D0071BD5226C1B7B1370236C2A
:101C300001332364B4F84630013B9BB2A4F846302C
:101C4000B4F846309BB2002BEAD1324629462046F2
:101C5000FFF7EEFCD8B9206E003018BF012007E076
:101C6000FEF7E0FC801B8542EAD8691CE8D003201F
:101C7000012384F85D30002384F85C3072E7FEF7BE
:101C8000D1FC801B8542B7D86B1CB5D0EFE7202371
:101C90002366E0E70220EBE7022063E7114B07B57C
:101CA0001A691388ADF80630DBB2A3F141010129AE
:101CB00001D9562B0DD19DF80730313B082B08D8A0
:101CC000D2F8040202F5007103B05DF804EB00F0F5
:101CD000A5B8002000F0B6FB012003B05DF804EBCE
:101CE00000F0BCBB3000002073B50568044641F22B
:101CF0008736002000F0C8FB05280BD001A800F0B3
:101D000057F99DF80430012B0CD0022B0ED0FFF7B1
:101D1000C5FF09E023685B1BB342EAD9204600F007
:101D200009F8E6E700F07EF802B070BD204600F04A
:101D300001F8F9E72DE9F347284C8046002000F030
:101D400081FB022201A9206C00F0F2F89DF804301A
:101D5000A3F14102012A01D9562B04D19DF8053087
:101D6000313B082B2FD9002301A88DF805308DF8C1
:101D7000043000F02FF900F0F3F8FFF78FFF02B006
:101D8000BDE8F0870020D8F8006000F073FB012068
:101D900000F070FB4FF48062394609EB050000F05B
:101DA000C7F84FF4806239460AEB050000F0B4F83A
:101DB0002836D8F800309E42FBD805F58065A36927
:101DC0009D42DFD3CFE7A1692069054F00F0BCF841
:101DD0000025D4F810A0D4F84090F0E7300000209F
:101DE0008801002007B501A800F0E2F89DF8053051
:101DF0000133DBB2022B8DF8053001A884BF02232A
:101E00008DF8043000F0E6F8034B1968486800F0DC
:101E100005F803B05DF804FB3000002081F308886A
:101E2000004770472DE9F341224C002000F00AFBE7
:101E3000022201A9206F00F07BF89DF80430A3F185
:101E40004102012A01D9562B04D19DF80530313BBE
:101E5000082B25D9002301A88DF805308DF8043012
:101E600000F0B8F8FFF71AFF02B0BDE8F0810020DB
:101E700000F000FB012000F0FDFA4FF480623146D3
:101E8000781900F055F808EB05004FF480623146F0
:101E900000F042F805F58065A3699D42E7D3D9E7D4
:101EA000A1692069044E00F04FF80025D4F8108095
:101EB000276FF1E73000002088050020134AF8B5AD
:101EC000134C144E02F1D007157BD5B933684FF48B
:101ED0008051B3FBF1F001FB103EBEF1000F18BFC3
:101EE00001304143116091680B4453603DB1236060
:101EF00010329742E8D100F0DDF80120F8BD3360E0
:101F0000F6E723684FF40061E3E700BF30000020EC
:101F1000000100202C00002008B5031E05DA03F1A3
:101F2000004000F04BF9012008BD00F023FAFAE769
:101F300008B5031E05DA03F1004000F087F901201F
:101F400008BD00F0F9F9FAE708B5031E05DA03F158
:101F5000004000F0B9F9012008BD00F045FAFAE7A9
:101F600030B5124D8FB04FF0FF34282204A9286AF3
:101F7000019402940394FFF7DBFF0C2208A901A847
:101F800000F016FB78B1A96A286A089409940A94AB
:101F9000FFF7DAFF282204A9286AFFF7BDFF10F136
:101FA000FF3018BF01200FB030BD00BF300000204F
:101FB00010B5074B8AB0044628226946186AFFF715
:101FC000B7FFBDF81C30238000200AB010BD00BF51
:101FD00030000020F0B5154E95B00746282269461E
:101FE000306AFFF7A5FF022207A9384600F0E0FAA1
:101FF000D0B16C460FCC0AAD0FC50FCC0FC594E81D
:1020000003003B88ADF8443085E80300B16A306ACC
:10201000FFF79AFF28220DEB0201306AFFF77CFFE1
:1020200010F1FF3018BF012015B0F0BD30000020C6
:102030002DE9F843144D8046894617461C462E4626
:10204000FEF7F0FA2B68C01A0A28F9D900221021ED
:102050004FF09040FEF7DCFD0A234A4641460B480C
:10206000FFF787FB2CB10A23224639460748FFF7C2
:1020700065FD012210214FF09040FEF7C9FDFEF7EB
:10208000D1FA3060BDE8F883880B0020C80B00202F
:1020900038B5064C064D054A012319462846FFF778
:1020A000C7FF2378DB07F6D438BD00BF9B0B0020A9
:1020B000FC3400082DE9F0410423374A3748364DF7
:1020C000374C0121FFF7B4FF08223349344800F0B0
:1020D0006FFA40B10822294604F1140000F068FAB2
:1020E000002855D10120142303FB00402D4B2E4A1C
:1020F0001860012319462D48DFF8BC802C4E264F6E
:10210000FFF796FF00231A4601212A48FFF790FFA8
:10211000002401232B702246234602211E486C70A6
:10212000FFF786FFFFF7B4FF3C232B7058F82430ED
:10213000EB701A0C6A701A0AAA7001233219042172
:102140003846FFF775FFFFF7A3FFA35D7BB1392387
:102150002B7000231A4601211648FFF769FF002360
:102160001A4604213846FFF763FFFFF791FF013459
:102170000B2CD9D1002301241A46022106486B708A
:102180002C70FFF755FFFFF783FF2046BDE8F08175
:102190000020BDE8F08100BF88090020CC34000891
:1021A000A43400088C0B00209B0B0020FC3400089A
:1021B000900B0020FD340008D03400082DE9F84FC2
:1021C0008A461F490B688846BBB31E4F1646054614
:1021D0004FF0000907F1040B002E02DC0120BDE8DE
:1021E000F88FD8F8003018489C89B5FBF4F303FB4E
:1021F0000444641B0023B4421A464FF0010128BF77
:102200003446FFF715FF02233B702B0C0AEB090144
:102210007B7022462B0A5846BB70FD7000F0D7F940
:102220000023211D1A4689B20648FFF701FF361B1D
:10223000FFF72EFF2544A144CEE71846BDE8F88FEE
:102240008C0B002088090020FD3400081C4B1B6803
:102250002DE9F34789468BB3DFF8688015460446BD
:1022600000274FF0030A002D03DC012002B0BDE877
:10227000F087B5F5007F4FEA14432E464FF0040176
:1022800028BF4FF400768DF80530230A0DEB0100CE
:1022900042468DF80630B3B28DF807408DF804A0A1
:1022A000FFF7C6FEFFF7F4FE09EB07003246414692
:1022B00000F08DF9AD1B34443744D4E71846D5E718
:1022C0008C0B0020880900202DE9F341184F3B6852
:1022D00063B3DFF860800D460446002D03DC012067
:1022E00002B0BDE8F0813B689E680023AE421A460A
:1022F0004FF00101404628BF2E46FFF799FE2023EC
:102300008DF80430230C8DF80530230A04218DF854
:10231000063000231A460DEB01008DF80740AD1B77
:10232000FFF786FE3444FFF7B3FED6E71846D7E73B
:102330008C0B0020FD34000803460846094910B5FF
:1023400003F178448C4294BF0124002405D9064B44
:10235000064A0748142100F0D1F8194600F037F971
:10236000204610BDFFFF010012350008FE340008B2
:10237000173500082DE9F74F002315460022CDE957
:102380000023EE086B070C46824618BF0136FEF7A5
:102390001DFA0027AAEB040A25444FF0FF384FF03E
:1023A000FF39BBB22A1B9E4204EB0A0B92B206D83D
:1023B0000124FEF71DFA204603B0BDE8F08F082A7D
:1023C00002A828BF0822214660E9028900F0FFF830
:1023D000DDE9002359460020FEF740FA013708B92D
:1023E0000834DEE70024E4E7F0B5CD0AC1F30A01C2
:1023F00087B001B101350123C00A0024039305937E
:1024000004900294FEF7E2F90D4EB327A54207D1DE
:10241000FEF7EEF90198431C5842584107B0F0BD51
:10242000376101A902A8FEF7BBFA012303930593C4
:10243000049B01330493002302930134E6E700BFB9
:102440000020024000284FF000020CBF4FF48071C2
:102450004FF400714FF09040FEF7DABB00284FF0C8
:1024600001020CBF4FF480714FF400714FF09040A7
:10247000FEF7CEBB00280CBF4FF480714FF4007103
:102480004FF09040FEF7C9BB08B5064B03EBC00206
:1024900053F830009188FEF7B5FB00280CBF0520EB
:1024A000042008BD54350008DFF834D0FEF76EF87C
:1024B0000C480D490D4A002302E0D458C45004339F
:1024C000C4188C42F9D30A4A0A4C002301E0136075
:1024D0000432A242FBD300F047F8FDF76DFFFEE7A0
:1024E00000A000200000002068010020383600080D
:1024F00068010020380C0020FEE700001FB51C46D4
:10250000094B1B680546D86852B1084B02928DE80A
:102510000A0022462B46064900F014F800F000FCA1
:10252000044B1A46F2E700BF040100205C350008A6
:102530006935000897350008014B1868704700BFDF
:10254000040100200EB403B5014603AB054853F85F
:10255000042B0068019300F077F802B05DF804EBFB
:1025600003B070470401002070B50D4E0D4CA41B44
:10257000A4100025A54209D10B4E0C4C00F066FFBB
:10258000A41BA4100025A54205D170BD56F8253026
:1025900098470135EEE756F8253098470135F2E7C0
:1025A000303600083036000830360008343600086F
:1025B00010B501390244904201D1002010BD10F83D
:1025C000013B11F8014FA342F5D0181B10BD10B507
:1025D000431E0A44914200D110BD11F8014B03F88B
:1025E000014FF7E702440346934200D1704703F8D6
:1025F000011BF9E79368013B002B10B4936009DAE3
:102600009469A34202DBCBB20A2B03D15DF8044BE1
:1026100000F0C6BA1368581C10601970C8B25DF893
:10262000044B7047F8B506460F461446D518AC4221
:1026300001D1002007E03A4614F8011B3046FFF7AD
:10264000D9FF431CF3D1F8BD2DE9F04F9DB00C46E6
:1026500017460393064618B183690BB900F05AFC7C
:102660007C4B9C4257D17468A38918075DD52369B8
:10267000002B5AD00023099320238DF829303023D2
:102680008DF82A304FF0010BB846454615F8013B4E
:10269000002B55D1B8EB070A0BD053463A462146DA
:1026A0003046FFF7BFFF013000F0C480099B534460
:1026B000099398F80030002B00F0BC8000234FF005
:1026C000FF3204930793059206938DF853301A93C3
:1026D000052229786048FDF77BFD05F10108049B80
:1026E000002831D1D90644BF20228DF853201A0783
:1026F00044BF2B228DF853202A782A2A2CD0079AFF
:1027000000210A20A846013598F80030303B092BFB
:102710006DD971B326E0514B9C4201D1B468A3E757
:102720004F4B9C4208BFF4689EE72146304600F0BC
:1027300089FA00289ED04FF0FF301DB0BDE8F08F21
:10274000252BA7D0A846A0E7434A801A0BFA00F031
:10275000184304904546BBE7039A111D1268039184
:10276000002A01DB079204E0524243F00203079281
:10277000049398F800302E2B10D198F801302A2BB2
:1027800008F1010137D1039B1A1D1B680392002B2E
:10279000B8BF4FF0FF3308F102080593314D98F8A8
:1027A000001003222846FDF713FD40B14023401BD3
:1027B00003FA00F0049B0343049308F1010898F81E
:1027C000001029488DF82810062208F10107FDF7AE
:1027D000FFFC002834D0254B03BB039B073323F0B9
:1027E000070308330393099B4B4409934CE700FB11
:1027F0000232012186E70023059318460A25884600
:10280000013198F80020303A092A03D9002BC5D0AD
:102810000590C3E705FB00200123F0E703AB00931D
:102820002246134B04A93046AFF30080B0F1FF3FBE
:102830008146D8D1A3895B063FF57DAF09987CE737
:1028400003AB009322460A4B04A9304600F088F8F7
:10285000ECE700BFF03500089C3500081036000892
:10286000D0350008A2350008A63500080000000099
:10287000252600082DE9F04791461F468A680B6916
:10288000DDF820809342B8BF1346C9F8003091F8B4
:10289000432006460C4612B10133C9F800302368C4
:1028A000990642BFD9F800300233C9F800302568D4
:1028B00015F0060507D104F1190AE368D9F80020DC
:1028C0009B1A9D4229DB94F843302268003318BFDD
:1028D000012392062ED404F1430239463046C04704
:1028E000013021D02368E568D9F8002003F0060301
:1028F000042B08BFAD1AA36822690CBF25EAE57551
:1029000000259342C4BF9B1AED184FF000091A34FA
:102910004D451BD10020BDE8F087012352463946C2
:102920003046C047013003D14FF0FF30BDE8F0879B
:102930000135C2E7E1185A1C302081F843002244D7
:1029400094F8451082F843100233C4E7012322466D
:1029500039463046C0470130E6D009F10109D7E7D2
:102960002DE9F04317460A7E85B06E2A9846064642
:102970000C460C9B01F1430E00F0BC801AD8632A70
:102980002ED00AD8002A00F0C880582A00F08A8089
:1029900004F1420584F842202AE0642A01D0692A21
:1029A000F6D121681A6811F0800F23D0111D19602B
:1029B000136827E0732A00F0B48008D86F2A2AD061
:1029C000702AE5D10A6842F020020A6003E0752A05
:1029D00021D0782ADCD1782284F845206E4964E041
:1029E0001A6801F14205111D1960136884F842301C
:1029F0000123A3E011F0400F02F104011960D7D0C8
:102A0000B2F90030002B03DA2D225B4284F8432018
:102A100062490A2217E02068196810F0800F03D07D
:102A2000081D18600B6806E010F0400F01F104006B
:102A30001860F7D00B8859496F2A14BF0A22082260
:102A4000002084F843006568A560002DC0F29C80DA
:102A5000206820F004002060002B3FD1002D40F0C2
:102A600095807546082A0BD12368DA0708D52369B3
:102A700062689A42DEBF302305F8013C05F1FF355C
:102A8000AEEB05032361CDF800803B4603AA214647
:102A90003046FFF7EFFE013055D14FF0FF3005B063
:102AA000BDE8F08381F845203C492268186812F09F
:102AB000800F00F104051D6001D0036802E0550697
:102AC000FBD50388D00744BF42F0200222601BB927
:102AD000226822F0200222601022B1E77546B3FB83
:102AE000F2F002FB1033CB5C05F8013D03460028F1
:102AF000F5D1B7E708681A68496910F0800F04D06B
:102B0000101D18601368196007E010F0400F02F103
:102B1000040018601368F6D01980002323617546FD
:102B2000B1E71A68111D196015686268002128460E
:102B3000FDF74EFB08B1401B606063682361002312
:102B400084F843309FE723692A4639463046C04718
:102B50000130A2D023689B0707D5002504F119098D
:102B6000E368039A9B1A9D4205DBE068039B984249
:102B7000B8BF184693E701234A4639463046C04756
:102B800001308AD00135EBE7002BA7D10B7884F810
:102B9000423004F1420565E7BE350008AD35000856
:102BA000F8B50E461446054618B183690BB900F016
:102BB000B1F9214B9C422AD16C68A369A360A38917
:102BC0001A072ED5236963B323692068C01A636985
:102BD000F6B29842374604DB2146284600F030F929
:102BE00028BBA368013BA36023685A1C22601E70A7
:102BF00063690130984204D0A389DB0719D50A2EF6
:102C000017D12146284600F01BF990B10FE00B4B7D
:102C10009C4201D1AC68D0E7094B9C4208BFEC68EC
:102C2000CBE72146284600F00DF80028CCD04FF025
:102C3000FF373846F8BD00BFF035000810360008F1
:102C4000D0350008324B70B51D6806460C4625B1DC
:102C5000AB6913B9284600F05DF92E4B9C420FD1A9
:102C60006C68B4F90C309AB215072CD4D00611D484
:102C70000922326043F04003A3814FF0FF3070BD62
:102C8000254B9C4201D1AC68EBE7244B9C4208BF2A
:102C9000EC68E6E7510712D5616B41B104F14403DA
:102CA000994202D0304600F023FA00236363A389DF
:102CB00023F02403A3810023636023692360A38995
:102CC00043F00803A38123694BB9A38903F420735C
:102CD000B3F5007F03D02146304600F0C9F9A28940
:102CE00012F001030CD00023A36063695B42A3616F
:102CF000236953B9B4F90C3013F08000BAD170BD18
:102D0000920758BF6369A360F2E70020F7E700BFAE
:102D100004010020F035000810360008D035000806
:102D200008B5062000F0C8FA0120FDF7E7FB000017
:102D30008A892DE9F041054610070C465AD44B68A4
:102D4000002B05DC0B6C002B02DC0020BDE8F081C1
:102D5000E66A002EF9D0002312F480522F682B600F
:102D600033D0606DA3895A0705D56368C01A636BB9
:102D70000BB1236CC01A00230246E66A216A28467A
:102D8000B047431CA38906D129681D294BD82B4A7B
:102D9000CA40D60747D500226260D9042269226062
:102DA00004D5421C01D12B6803B96065616B2F60AB
:102DB0000029CAD004F14403994202D0284600F009
:102DC00097F900206063BDE8F081216A012328465D
:102DD000B047411CC6D12B68002BC3D01D2B01D09E
:102DE000162B01D12F60B0E7A38943F04003A381E4
:102DF000BDE8F0810F69002FA7D093070E6808BFC8
:102E00004B690F6018BF0023A6EB07088B60B8F171
:102E1000000F9ADD43463A46216AA66A2846B04723
:102E2000002807DCA38943F04003A3814FF0FF3063
:102E3000BDE8F0810744A8EB0008E8E70100402066
:102E400038B50B6905460C46DBB118B183690BB97F
:102E500000F060F80C4B9C4209D16C68B4F90C305E
:102E60007BB121462846BDE83840FFF761BF074BDC
:102E70009C4201D1AC68F1E7054B9C4208BFEC686D
:102E8000ECE7002038BD00BFF03500081036000820
:102E9000D0350008014900F0A9B800BF412E000854
:102EA000002310B50446036043608360818143665C
:102EB000C281036143618361194608225C30FFF7D8
:102EC00091FB054B6362054BA362054BE362054B27
:102ED0002462236310BD00BFF132000813330008E1
:102EE0004B3300086F33000870B54A1E6825554300
:102EF0000E4605F1740100F049F9044640B1002185
:102F000080E842000C30A06005F16802FFF76AFB20
:102F1000204670BD836910B5044633BB8364C36427
:102F20000365124B124A1B688262984204BF012358
:102F3000836100F01FF86060204600F01BF8A0607D
:102F4000204600F017F80022E06004216068FFF7D7
:102F5000A7FF01220921A068FFF7A2FF0222122188
:102F6000E068FFF79DFF0123A36110BD98350008BD
:102F7000952E0008F8B51C4B1E68B369074613B9B7
:102F80003046FFF7C7FF4836B4687368013B03D586
:102F9000336833B13668F7E7B4F90C506DB1683473
:102FA000F4E704213846FFF79FFF30600028F1D195
:102FB0000C233B6004462046F8BD4FF6FF73E381C7
:102FC0000123A38165662560A56065602561656153
:102FD000A5610822294604F15C00FFF703FB656345
:102FE000A563A564E564E6E7983500082DE9F84394
:102FF0008046894600F14804002614B93046BDE8F1
:10300000F883A5686768013F01D52468F5E7AB89B7
:10301000012B07D9B5F90E30013303D029464046BC
:10302000C84706436835EEE770B50E46B1F90E1095
:10303000002990B014461D4607DA00232B60B3899F
:103040001A0610D44FF480630EE001AA00F0B6F91E
:103050000028F2DB029A02F47042A2F500535A42B1
:103060005A412A60EEE740230020236010B070BD73
:103070008B8973B59D0706460C4607D504F14703B7
:10308000236023610123636102B070BD01AB6A4616
:10309000FFF7CAFF00990546304600F077F848B9B7
:1030A000B4F90C309A05EFD423F0030343F0020384
:1030B000A381E3E70D4BB362A389206043F0800353
:1030C000A381009B6361019B20615BB1B4F90E1089
:1030D000304600F085F928B1A38923F0030343F0BB
:1030E0000103A381A3891D43A581CDE7952E000887
:1030F00038B50546002945D051F8043C0C1F002B7B
:10310000B8BFE41800F08EF91F4A1368104633B9AF
:10311000636014602846BDE8384000F084B9A342DB
:103120000CD921686218934204BF1A685B68636017
:1031300004BF521822600460ECE713465A680AB1D3
:10314000A242FAD919685818A0420BD1206801444C
:10315000581882421960DDD1106852685A600144E3
:103160001960D7E702D90C232B60D3E72068211818
:103170008A4204BF11685268626004BF0918216066
:103180005C60C7E738BD00BF9C0B002070B5CD1C4C
:1031900025F0030508350C2D38BF0C25002D0646FB
:1031A00001DBA94203D90C233360002070BD00F07D
:1031B00039F9234A1468214691B9224C23681BB976
:1031C000304600F041F820602946304600F03CF8D7
:1031D000431C26D10C233360304600F024F9E4E789
:1031E0000B685B1B1AD40B2B0FD90B60CD50CC187E
:1031F000304600F018F904F10B00231D20F0070001
:10320000C31A1BD05A42E25070BD8C420DBF636896
:103210004B686360136018BF0C46E9E70C464968C9
:10322000CAE7C41C24F00304A04205D0211A30468A
:1032300000F00AF80130CDD02560D9E770BD00BF9D
:103240009C0B0020A00B002038B5064C002305463F
:1032500008462360FDF774F9431C02D1236803B1CB
:103260002B6038BD340C00201F2938B504460D46AC
:1032700004D9162303604FF0FF3038BD426C12B101
:1032800052F821304BB9204600F030F82A4601466A
:103290002046BDE8384000F017B8012B0AD0591C71
:1032A00003D116230360012038BD002442F82540D5
:1032B00028469847002038BD024B01461868FFF7A2
:1032C000D3BF00BF0401002038B5074C00230546DA
:1032D000084611462360FDF709F9431C02D1236813
:1032E00003B12B6038BD00BF340C0020FDF7FCB8E3
:1032F00010B50C46B1F90E1000F096F80028ABBFDF
:10330000636DA3891B1823F48053ACBF6365A3814D
:1033100010BD2DE9F0411F468B89DB0505460C46A3
:10332000164605D502230022B1F90E1000F068F808
:10333000A389B4F90E1023F48053A38132463B468F
:103340002846BDE8F04100F017B810B50C46B1F9B9
:103350000E1000F055F8431CA38915BF606523F4D7
:10336000805343F48053A38118BFA38110BDB1F9EA
:103370000E1000F013B8000038B5074C054608469B
:103380001146002222601A46FDF7CCF8431C02D1F8
:10339000236803B12B6038BD340C002038B5064CCF
:1033A0000023054608462360FDF7E4F8431C02D1DC
:1033B000236803B12B6038BD340C002038B5074CAE
:1033C00000230546084611462360FDF7D6F8431C46
:1033D00002D1236803B12B6038BD00BF340C00203C
:1033E00038B5064C0023054608462360FDF7CAF8A9
:1033F000431C02D1236803B12B6038BD340C00207C
:1034000038B5074C054608461146002222601A4688
:10341000FDF7BAF8431C02D1236803B12B6038BD15
:10342000340C00207047704738B5074C05460846F5
:103430001146002222601A46FDF766F8431C02D1AD
:10344000236803B12B6038BD340C0020F8B500BFF1
:10345000F8BC08BC9E467047F8B500BFF8BC08BC75
:103460009E467047000000000000000001020304B7
:1034700006070809A0860100400D0300801A060017
:1034800000350C0040420F0080841E0000093D0002
:1034900000127A000024F40000366E010048E801B2
:1034A000006CDC021F44020000000000001000005D
:1034B00000010000000000009D60159D000000005C
:1034C0000010000000010000000000009F0000004C
:1034D00000000000000001000000020000000300E6
:1034E00000000400000005000000060000000700C6
:1034F0000080060000A0060000C006000506696EF8
:1035000074466C6173684472697665725F72656156
:1035100064007256616C002E2E5C2E2E5C2E2E5C8A
:103520004D4F445F46575C6170706C6963617469AC
:103530006F6E5C706C6174666F726D5F706F7274C9
:103540005C696E74466C6173684472697665722E4C
:103550006300000000000048800007002C20667512
:103560006E6374696F6E3A2000617373657274697B
:103570006F6E2022257322206661696C65643A2093
:1035800066696C6520222573222C206C696E65208B
:103590002564257325730A0008010020232D302B94
:1035A0002000686C4C006566674546470030313244
:1035B000333435363738394142434445460030319B
:1035C00032333435363738396162636465660000FA
:1035D00000000000000000000000000000000000EB
:1035E00000000000000000000000000000000000DB
:1035F00000000000000000000000000000000000CB
:1036000000000000000000000000000000000000BA
:1036100000000000000000000000000000000000AA
:10362000000000000000000000000000000000009A
:10363000B50100089101000800093D0001000000EB
:10364000100000000000000000000000000000006A
:103650000000000001000000000000000000000069
:1036600000000000000000800000000000000000DA
:103670000040000001000000000000000000000009
:1036800000C0000001000000000000000000000079
:103690000008000001000000000000000000000021
:1036A0000008000001000000000000000000000011
:1036B00000C0000001000000000000000000000049
:1036C000008000000000000000000000000000007A
:1036D000008000000000000000000000000000006A
:1036E00000C000000000000000000000000000001A
:1036F000008000000000000000000000000000004A
:103700000080000000000000000000000000000039
:1037100000C00100000000000000000000000000E8
:103720000010000000000000000000000000000089
:103730000010000000000000000000080801002048
:1037400000000000F035000810360008D0350008F1
:103750000000000000000000000000000000000069
:103760000000000000000000000000000000000059
:103770000000000000000000000000000000000049
:103780000000000000000000000000000000000039
:103790000000000000000000000000000000000029
:1040000042322E302E31000000000000000000007F
:1040100000000000000000000000000000000000A0
:104020000000000000000000000000000000000090
:104030000000000000000000000000000000000080
:104040000000000000000000000000000000000070
:104050000000000000000000000000000000000060
:104060000000000000000000000000000000000050
:104070000000000000000000000000000000000040
:104080000000000000000000000000000000000030
:104090000000000000000000000000000000000020
:1040A0000000000000000000000000000000000010
:1040B0000000000000000000000000000000000000
:1040C00000000000000000000000000000000000F0
:1040D00000000000000000000000000000000000E0
:1040E00000000000000000000000000000000000D0
:1040F00000000000000000000000000000000000C0
:1041000000000000000000000000000000000000AF
:10411000000000000000000000000000000000009F
:10412000000000000000000000000000000000008F
:10413000000000000000000000000000000000007F
:10414000000000000000000000000000000000006F
:10415000000000000000000000000000000000005F
:10416000000000000000000000000000000000004F
:10417000000000000000000000000000000000003F
:10418000000000000000000000000000000000002F
:10419000000000000000000000000000000000001F
:1041A000000000000000000000000000000000000F
:1041B00000000000000000000000000000000000FF
:1041C00000000000000000000000000000000000EF
:1041D00000000000000000000000000000000000DF
:1041E00000000000000000000000000000000000CF
:1041F00000000000000000000000000000000000BF
:1042000000A00020D1DD00083D4C00083F4C000814
:10421000414C0008434C0008454C000800000000D9
:10422000000000000000000000000000474C0008F3
:10423000494C0008000000004B4C00084D4C0008A1
:1042400021DE0008614C000821DE000821DE0008A4
:1042500021DE000821DE000821DE000821DE000842
:1042600021DE000821DE000821DE000821DE000832
:1042700021DE000821DE00086D4C000821DE000868
:1042800021DE00087D4C000821DE0008000000004F
:1042900000000000000000000000000021DE000817
:1042A00021DE00088D4C000821DE000821DE000818
:1042B00021DE0008000000000000000021DE0008F0
:1042C00021DE000821DE000821DE000821DE0008D2
:1042D00021DE00089D4C0008AD4C0008BD4C0008D4
:1042E00021DE000821DE00080000000000000000C0
:1042F00000000000000000000000000000000000BE
:1043000000000000000000000000000000000000AD
:104310000000000000000000CD4C0008000000007C
:1043200021DE000821DE000821DE000821DE000871
:1043300021DE000800000000000000000000000076
:1043400021DE000821DE000821DE000821DE000851
:1043500021DE000821DE000821DE000821DE000841
:1043600021DE000821DE000800000000000000003F
:104370000000000021DE00080000000021DE00082F
:0C43800021DE000821DE000821DE00081C
:1043900010B5054C237833B9044B13B10448AFF37F
:1043A00000800123237010BD98030020000000004E
:1043B00004F0000808B5034B1BB103490348AFF3F1
:1043C000008008BD000000009C03002004F00008ED
:1043D000034613F8012B002AFBD1181A0138704745
:1043E00001F0FF01102A2BDB10F0070F08D010F8A6
:1043F000013B013A8B422DD010F0070F42B3F6D1AA
:10440000F0B441EA012141EA014122F007047FF0C2
:1044100000070023F0E80256083C85EA010586EA19
:10442000010685FA47F5A3FA87F586FA47F6A5FA55
:1044300087F68EB9EED1F0BC01F0FF0102F0070261
:1044400032B110F8013B013A83EA010313B1F8D10C
:104450000020704701387047002D06BF35460338ED
:10446000073815F0010F07D1013015F4807F02BF26
:10447000013015F4C03F0130F0BC0138704700BF77
:1044800053B94AB9002908BF00281CBF4FF0FF31BB
:104490004FF0FF3000F07AB9ADF1080C6DE904CEB1
:1044A00000F006F8DDF804E0DDE9022304B070470F
:1044B0002DE9F0478C460D460446089E002B51D14D
:1044C0008A4217466DD9B2FA82FEBEF1000F0BD0B8
:1044D000CEF1200C01FA0EF520FA0CFC02FA0EF7D0
:1044E0004CEA050C00FA0EF44FEA174A250CBCFB07
:1044F000FAF81FFA87F90AFB18CC45EA0C4508FBC5
:1045000009F3AB420AD9ED1908F1FF3280F023819B
:10451000AB4240F22081A8F102083D44ED1AA4B25A
:10452000B5FBFAF00AFB105544EA054400FB09F913
:10453000A14509D9E41900F1FF3380F00A81A145B2
:1045400040F2078102383C44A4EB090440EA0840E9
:104550000021002E61D024FA0EF400233460736031
:10456000BDE8F0878B4207D9002E54D0002186E8A1
:1045700021000846BDE8F087B3FA83F1002940F036
:104580008E80AB4202D3824200F2FA80841A65EB3D
:1045900003050120AC46002E3FD086E81010BDE890
:1045A000F08712B90127B7FBF2F7B7FA87FEBEF121
:1045B000000F34D1EB1B3A0C1FFA87FC0121B3FB2F
:1045C000F2F8250C02FB183345EA03450CFB08F30F
:1045D000AB4207D9ED1908F1FF3002D2AB4200F22D
:1045E000D1808046ED1AA3B2B5FBF2F002FB105564
:1045F00043EA05440CFB00FCA44507D9E41900F18B
:10460000FF3302D2A44500F2B8801846A4EB0C0494
:1046100040EA08409DE731463046BDE8F087CEF1DC
:10462000200405FA0EF307FA0EF720FA04F83A0C04
:1046300025FA04F448EA0308B4FBF2F14FEA1845FE
:1046400002FB11441FFA87FC45EA044501FB0CF309
:10465000AB4200FA0EF409D9ED1901F1FF3080F0F8
:104660008A80AB4240F2878002393D44EB1A1FFA40
:1046700088F5B3FBF2F002FB103345EA034500FB7B
:104680000CF3AB4207D9ED1900F1FF386FD2AB4202
:104690006DD902383D44EB1A40EA01418FE7C1F180
:1046A000200722FA07F88B4005FA01F448EA0303D1
:1046B00020FA07FE4FEA134CFD404EEA040EB5FB0C
:1046C000FCF94FEA1E440CFB19551FFA83F844EA23
:1046D000054509FB08F4AC4202FA01F200FA01FABE
:1046E00008D9ED1809F1FF3043D2AC4241D9A9F104
:1046F00002091D442D1B1FFA8EFEB5FBFCF00CFBBE
:1047000010554EEA054400FB08F8A04507D9E41807
:1047100000F1FF3529D2A04527D902381C4440EAD0
:104720000940A4EB0804A0FB02894C45C6464D464F
:1047300015D312D056B1BAEB0E0364EB050404FA9C
:1047400007F7CB401F43CC40376074600021BDE8C1
:10475000F0871846F8E69046E0E6C245EAD2B8EBA4
:10476000020E69EB03050138E4E72846D7E7404627
:1047700091E78146BEE7014678E702383C4445E7C9
:10478000084608E7A8F102083D442BE7704700BF40
:1047900008B50848084B0360002303714371436167
:1047A00083610123036200F02DFE00B908BD00F013
:1047B000A7F8FBE74C270020003002400268094BB5
:1047C0009A4200D0704782B0A3F500539A6C42F42D
:1047D00080529A649B6C03F480530193019B02B056
:1047E000F0E700BF0030024000B583B00E4B9A6C7A
:1047F00042F001029A649B6C03F001030193019B58
:10480000002211460E2000F01BFD0E2000F04AFD94
:1048100000221146112000F013FD112000F042FD8E
:1048200003B05DF804FB00BF0010024070B588B013
:104830000024039404940594069407942C4BDA6C9A
:1048400042F00102DA64DA6C02F001020192019A8C
:10485000DA6C42F00202DA64DB6C03F002030293CA
:10486000029B012248F210614FF0904001F041FD9F
:1048700022464FF480714FF0904001F03AFD1D4EFA
:1048800022460821304601F034FD10230393012510
:1048900004950594069503A94FF0904001F0DAFBCA
:1048A000C02303930494059403A94FF0904001F0B2
:1048B000D1FB4FF2070303930494059403A93046F8
:1048C00001F0C8FB4FF40743039304950594069445
:1048D00003A94FF0904001F0BDFB0823039304951A
:1048E0000594069403A9304601F0B4FB08B070BDEE
:1048F000001002400004004808B508F0FFF908BDA8
:1049000072B6FEE700B5A5B04422002113A809F055
:1049100095FD00210E910F91109111911291342269
:1049200001A809F08BFD4FF4007001F045FD00284F
:1049300035D118231393012318931A9300221B9245
:1049400060221C9202221E921F93209328232193FF
:1049500022920423239313A801F04EFE08BB0F23D9
:104960000E9303230F9300231093119312930221AC
:104970000EA802F0B5F9B0B90D4B019300230293D4
:10498000039304934FF400730D934FF040630C9323
:1049900001A802F07BFA40B925B05DF804FBFFF7EF
:1049A000AFFFFFF7ADFFFFF7ABFFFFF7A9FF00BFBA
:1049B0000700060000B583B000F00EFC164807F0B3
:1049C00099FFFFF79FFFFFF731FFFFF70DFF00F0A3
:1049D000AFF800F05BFA00F07BFA00F09DFA00F00F
:1049E0004BF800F0A3F900F0C9F9FFF7D1FE00F091
:1049F0001BF807F0F3FA0023019302A80C2340F8F8
:104A0000083D01F085FC054A0549064806F064F8B2
:104A100006F076F8FCE700BF004200086CF00008E2
:104A200054F000081028002008B50548054B036025
:104A300002F04AFB00B908BDFFF762FFFBE700BFC9
:104A4000702700200008065002680A4B9A4200D0E6
:104A5000704782B003F17043A3F57E33DA6C42F401
:104A60008022DA64DB6C03F480230193019B02B0A3
:104A7000EEE700BF0008065000B587B000230193A1
:104A8000029303930493059300931E481E4A026009
:104A900083607F22C260FF22026143618361C36140
:104AA0004FF080420262436202F0D6FB00BB00235B
:104AB0008DF804308DF805308DF806300493059399
:104AC000012201A90F4802F027FCA0B901228DF8AC
:104AD00000208DF801208DF8022000238DF803308E
:104AE0006946084802F081FC40B907B05DF804FB54
:104AF000FFF706FFDBE7FFF703FFE7E7FFF700FF3E
:104B0000F3E700BF80270020002800400268064B22
:104B10009A4200D07047054AD2F8903043F40043DF
:104B2000C2F89030F6E700BF0028004000100240B5
:104B300008B51048104B03604FF4827343600023A4
:104B400083604FF4E062C260036143614FF400721E
:104B500082611022C2610362436283620722C262E1
:104B60000363436302F03DFE00B908BDFFF7C8FED2
:104B7000FBE700BFAC2700200030014000B589B042
:104B80000023039304930593069307930268144B41
:104B90009A4202D009B05DF804FB03F560431A6E37
:104BA00042F480521A661A6E02F480520192019AFF
:104BB000DA6C42F00102DA64DB6C03F00103029369
:104BC000029B4FF4C15303930223049301230693E2
:104BD0000523079303A94FF0904001F03BFAD9E772
:104BE0000030014010B584B0002402940394124BAD
:104BF0001A6E42F001021A661A6E02F00102009269
:104C0000009A9A6D42F080529A659B6D03F0805332
:104C10000193019B22462146012000F011FB012057
:104C200000F040FB0294039402A801F071FB01F034
:104C3000B1FB04B010BD00BF00100240FEE7FEE76C
:104C4000FEE7FEE7FEE770477047704708B5034A86
:104C500013680133136000F0CFFA08BD102800205C
:104C600008B501F0F5FB04F0A9FD08BD08B5024840
:104C700000F0EEFD08BD00BF3029002008B5024855
:104C800000F0E6FD08BD00BF7829002008B5024805
:104C900003F08FFA08BD00BF6028002008B5024865
:104CA00003F0D6FD08BD00BFC029002008B50248AA
:104CB00003F0CEFD08BD00BF442A002008B502481D
:104CC00003F0C6FD08BD00BFAC28002008B50248AF
:104CD00003F06FFA08BD00BF1428002008B5034692
:104CE0000B4A126842B10A4A106803446A4693426A
:104CF00006D8074A136008BD0649054A1160F2E765
:104D000009F058FB0C2303604FF0FF3008BD00BFD3
:104D1000B4030020A4370020034AD2F8883043F4BB
:104D20007003C2F88830704700ED00E000B585B030
:104D300000230193029303930E480F4A026050220E
:104D40004260836040F2D662C260836103F03AFB46
:104D500050B900230193039301A9064803F002FC14
:104D600028B905B05DF804FBFFF7CAFDF1E7FFF7CE
:104D7000C7FDF6E7142800200010004010B592B0DF
:104D800000240B940C940D940E940F941094119491
:104D90002C222146684609F051FB1E481E4B036039
:104DA00028234360846040F2D663C3600461446199
:104DB000846103F007FB08BB164803F032FB00BB1D
:104DC00000220B920C920D920E920F921092119261
:104DD0000BA9104803F090FBB0B900230093019396
:104DE0000293039304934FF4005205920A93694689
:104DF000084803F0F1FB50B912B010BDFFF780FD79
:104E0000DAE7FFF77DFDDBE7FFF77AFDE5E7FFF780
:104E100077FDF1E7602800200044014000B583B031
:104E20000368174A934205D0164A934215D003B03F
:104E30005DF804FB144B9A6D42F010029A659B6D6D
:104E400003F010030093009B00221146362000F06F
:104E5000F7F9362000F026FAE9E70B4B1A6E42F418
:104E600000321A661B6E03F400330193019B00228B
:104E70001146192000F0E4F9192000F013FAD6E7E2
:104E800000100040004401400010024008B50E48E8
:104E90000E4B03604FF4964343604FF480528260A0
:104EA0000023C3604FF4806101610C214161836183
:104EB000C361036210234362826304F065F900B9A1
:104EC00008BDFFF71DFDFBE7C029002000380140A9
:104ED00008B50F480F4B03604FF4E13343604FF4C4
:104EE000805383600021C1604FF4806202610C2214
:104EF00042618161C16101621022426283630B469B
:104F00000A4604F0F1F900B908BDFFF7F9FCFBE728
:104F1000442A00200044004008B51048104B0360AC
:104F20004FF4964343604FF4805282600023C36085
:104F30004FF480610161042141618361C3610362B7
:104F4000122343624FF48033C362826304F01CF97E
:104F500000B908BDFFF7D4FCFBE700BFAC28002078
:104F60000048004030B58DB00446002307930893F5
:104F700009930A930B930368564A934207D0564A03
:104F8000934241D0554A93427CD00DB030BD544B32
:104F90001A6E42F480421A661A6E02F4804201923E
:104FA000019ADA6C42F00202DA64DB6C03F002036D
:104FB0000293029BC02307930225089507230B93B6
:104FC00007A9484801F046F84748484B0360456048
:104FD000102383600023C3608022026143618361E8
:104FE000C361036200F0CCFA58B93F4BE3669C62A0
:104FF00000221146252000F023F9252000F052F967
:10500000C3E7FFF77DFCF0E7354B9A6D42F40032C1
:105010009A659A6D02F400320392039ADA6C42F0B8
:105020000102DA64DB6C03F001030493049B0E239A
:1050300007930225089507230B9307A94FF090408B
:1050400001F008F82A482B4B036045601023836069
:105050000023C3608022026143618361C3610362F4
:1050600000F08EFA58B9224BE3669C62002211468A
:10507000262000F0E5F8262000F014F985E7FFF778
:105080003FFCF0E7164B9A6D42F480229A659A6DC8
:1050900002F480220592059ADA6C42F00202DA6488
:1050A000DB6C03F002030693069B4FF44063079307
:1050B0000223089307230B9307A90A4800F0CAFFAD
:1050C00000221146272000F0BBF8272000F0EAF864
:1050D0005BE700BF0038014000440040004800404A
:1050E0000010024000040048302900204400024023
:1050F000782900208000024010B5044603681E4A4B
:10510000934206D01D4A934214D01D4A934223D0A5
:1051100010BD02F55842136E23F480431366C0217C
:10512000184801F063F8E06E00F0A6FA252000F0C0
:10513000C7F810BD02F5E632936D23F40033936592
:105140000E214FF0904001F051F8E06E00F094FA1B
:10515000262000F0B5F810BD02F5E432936D23F47B
:10516000802393654FF44061064801F03FF8272003
:1051700000F0A6F8CCE700BF003801400044004032
:105180000048004000040048104B1B780BB9012078
:10519000704710B504464FF47A70B0FBF3F30C4A35
:1051A0001068B0FBF3F000F0B1F868B90F2C01D92A
:1051B000012010BD002221464FF0FF3000F040F8E2
:1051C000044B1C60002010BD012010BD0400002015
:1051D000000000200800002010B5032000F01EF899
:1051E0000020FFF7D1FF10B10124204610BD044676
:1051F000FFF7F8FCF9E70000034B1B78034A11683E
:105200000B441360704700BF04000020C82A002030
:10521000014B1868704700BFC82A0020074AD368AE
:1052200023F4E0631B041B0C000200F4E06018434D
:1052300040F0BF6040F40030D060704700ED00E007
:1052400030B4164BDB68C3F30223C3F10704042C0C
:1052500028BF04241D1D062D17D9033B012505FA7F
:1052600004F4013C2140994005FA03F3013B13404B
:10527000194300280BDB0901C9B200F1604000F5B9
:10528000614080F8001330BC70470023E6E700F06F
:105290000F000901C9B2024B1954F4E700ED00E018
:1052A00014ED00E0002808DB420900F01F00012394
:1052B00003FA00F0014B43F82200704700E100E0E0
:1052C00000280DDB430900F01F00012202FA00F064
:1052D0002033044A42F82300BFF34F8FBFF36F8F90
:1052E000704700BF00E100E0BFF34F8F0549CA6877
:1052F00002F4E062044B1343CB60BFF34F8F00BF57
:10530000FDE700BF00ED00E00400FA050138B0F150
:10531000807F0AD2064B5860F021064A82F823109B
:105320000020986007221A6070470120704700BF74
:1053300010E000E000ED00E0F0B400240FE00668AB
:1053400011F8247001EB84056B781B0443EA0763B2
:10535000AF7843EA0723ED782B4333600134B4EB95
:10536000920FECD312F0030205D0012A07D0022AD3
:105370000AD0032A12D003681868F0BC704703688B
:1053800011F824501D70F2E711F8245001EB84034A
:105390005B7843EA052305682B80EAE711F82420AF
:1053A00001EB84014B7843EA02230268138003680F
:1053B0008A781A70DFE70023B3EB520F18D270B46B
:1053C000056831F8236001EB8304648844EA0644ED
:1053D0002C600133B3EB520FF2D312F0010F03D064
:1053E000026831F8233013800368186870BC704776
:1053F00012F0010F03D0026831F8233013800368E4
:1054000018687047002838D010B50446437F1BB396
:105410000223637723791BBB2368194A5A612268E8
:10542000936823F018039360637913BB23684FF0EC
:10543000FF321A612268936823F0600361690B43AD
:1054400093602268936823F08003A1690B43936003
:1054500001236377002010BD0377FFF7AFF9D7E78B
:10546000E268A168204600F035F80028DCD0012071
:1054700010BD236822691A61DCE70120704700BF74
:10548000B71DC10438B5044602234377006883681A
:1054900043F001038360236A022B17D0032B0FD044
:1054A000012B0FD0002008E0206851F82350056040
:1054B00001339342F8D3236818680123637738BD1A
:1054C0000023F6E72046FFF737FFF6E72046FFF711
:1054D00072FFF2E730B41F24651E3CB105F01F03D4
:1054E00021FA03F32C4613F0010FF5D0182A27D820
:1054F000DFE802F00D262626262626262226262648
:10550000262626261E262626262626261A0000239E
:105510003BB9046861610068816821F018010A43A1
:105520008260184630BC7047062D0BD80023EFE789
:10553000072D09D80023EBE70F2D07D80023E7E755
:105540000123E5E70123E3E70123E1E70123DFE7A7
:1055500070B4066C446C04F01C050124AC4074600B
:10556000046863608368102B05D003689960036842
:10557000DA6070BC704703689A600368D960F8E726
:10558000002869D010B403460168344A914245D8D6
:10559000334A0A443349A1FB0212120992004264C1
:1055A000314A0264022283F825201868016821F438
:1055B000FF4121F070019A68DC6822431C69224394
:1055C0005C6922439C692243DC6922431C6A2243B2
:1055D0000A4302609A68B2F5804F15D0196C224ACE
:1055E000914226D0214A1168586C00F01C040F200B
:1055F000A04021EA00011160116858685C6C04F059
:105600001C04A040014311600020D863012283F8EC
:10561000252083F824005DF8044B7047144A0A449F
:105620001049A1FB0212120992004264114A02645D
:10563000B8E7A8321168586C00F01C040F20A04095
:1056400021EA00011160116858685C6C04F01C04C8
:10565000A04001431160D7E70120704707040240D2
:10566000F8FFFDBFCDCCCCCC00000240A804024026
:10567000F8FBFDBF0004024000284FD010B40346E1
:1056800001680A6822F001020A600168244A914216
:105690002ED8244A0A442449A1FB0212120992007E
:1056A0004264224A02641A6800211160186C5A6C24
:1056B00002F01C0101228A404260196C1B4A91428F
:1056C00021D01B4C2268596C01F01C000F21814035
:1056D00022EA010222600020D862186358639863AE
:1056E000D86383F8250083F824005DF8044B7047E5
:1056F000104A0A440C49A1FB0212120992004264AA
:105700000D4A0264CFE70D4C2268596C01F01C0071
:105710000F21814022EA01022260DCE7012070476C
:1057200007040240F8FFFDBFCDCCCCCC0000024006
:10573000A8040240F8FBFDBF00040240A80002409C
:1057400038B590F82440012C33D0012480F824404F
:1057500090F82540E4B2012C04D0002380F82430D6
:10576000022038BD0446022084F825000020E063B2
:105770002568286820F0010028602046FFF7E8FE31
:10578000236B5BB12268136843F00E031360226839
:10579000136843F001031360002038BD22681368CA
:1057A00023F0040313602268136843F00A031360B4
:1057B000EDE7022038BD90F82530DBB2022B06D091
:1057C0000423C363002380F824300120704702685B
:1057D000136823F00E0313600268136823F00103BB
:1057E0001360016C436C03F01C03012202FA03F303
:1057F0004B6080F82520002380F82430184670473D
:1058000008B590F82530DBB2022B03D00423C36324
:10581000012008BD0268136823F00E0313600268BC
:10582000136823F001031360016C436C03F01C0345
:10583000012202FA03F34B6080F82520002380F850
:105840002430836B13B19847002008BD002008BDA9
:1058500038B5036C196804682568436C03F01C03B1
:1058600004229A40114216D015F0040F13D0236879
:1058700013F0200F03D1236823F004032360016C8D
:10588000436C03F01C02042393404B60036B002B1A
:105890003ED0984738BD02229A4011421BD015F0E5
:1058A000020F18D0236813F0200F06D1236823F0CD
:1058B0000A032360012380F82530016C436C03F058
:1058C0001C02022393404B60002380F82430C36AFB
:1058D000F3B1984738BD082202FA03F3194217D0F2
:1058E00015F0080F14D0236823F00E032360016C19
:1058F000436C03F01C03012202FA03F34B60C26302
:1059000080F82520002380F82430436B03B19847AA
:1059100038BD000010B4064C616941F001016161BD
:105920000260BFF36F8F43605DF8044B704700BFA8
:105930000020024010B40B4A536943F480235361A2
:10594000EFF3108472B6402351F8042B40F8042B77
:10595000013B13F0FF03F7D184F310885DF8044B8B
:10596000704700BF00200240094B5B69002B01DB40
:1059700000207047064B074A9A6002F188329A600D
:105980005B69002B01DB002070470120704700BFDE
:105990000020024023016745034A536943F0004356
:1059A00053610020704700BF00200240074B5B6935
:1059B00013F0804F07D0054B054ADA6002F14432FC
:1059C000DA60002070470120704700BF00200240CD
:1059D0003B2A1908034A536943F08043536100206E
:1059E000704700BF0020024038B50446FFF710FCA6
:1059F0000546144B1B6913F4803F09D0B4F1FF3FF7
:105A0000F7D0FFF705FC401B8442F2D8032038BDD5
:105A10000C4B1B690C4A134009D10A4B1B6913F04C
:105A2000010F0CD00122074B1A61002038BD074935
:105A30004A681A434A60034A1361012038BD0020B6
:105A400038BD00BF00200240FAC302000C00002055
:105A50002DE9F041284C2478012C03D10224204662
:105A6000BDE8F081984617460E4605460122224BB6
:105A70001A704CF25030FFF7B7FF044608BB002203
:105A80001D4B5A601D4B1B6813F4806F1DD01B4AC1
:105A9000136823F4806313600222174B1A77C5B191
:105AA0006B1E012B1CD900254CF25030FFF79CFFD8
:105AB000044625B1114A536923EA0505556100F0F2
:105AC0001FFA00220C4B1A70C9E700220A4B1A7702
:105AD000E5E73A4643463046FFF71CFF0125E3E77A
:105AE00039463046FFF726FF022D01D00025DBE7BF
:105AF0004FF48025D8E700BF0C00002000200240B2
:105B000010F0010F04D0054A536943F004035361B8
:105B1000024A536943F480335361704700200240C6
:105B200010B101280AD070470948C36A03F03F0347
:105B30000B60C36AC3F30543136070470448036BEB
:105B400003F03F030B60036BC3F305431360EAE705
:105B500000200240064B1B6ADBB2AA2B03D0CC2BE1
:105B600001D0BB207047024B186AC0B2704700BF1B
:105B700000200240024B186A20F0FF00704700BF6F
:105B80000020024030B4036813F0010F0ED00C4D1A
:105B90006C6A0C4B03EAC40404F100640C60A96A4B
:105BA00003EAC10303F1006307331360044B9A6AED
:105BB00002F0004203681343036030BC704700BF2B
:105BC00000200240F8FF010070B505460C4616465D
:105BD0004CF25030FFF708FF0346B0B9BDB9114988
:105BE000CB6A23F03F1344EA06441C43CC620D4CBD
:105BF000636943F4003363614CF25030FFF7F4FE05
:105C00000346626922F400326261184670BD012DBC
:105C1000EDD1044A136B23F03F1344EA06441C43BE
:105C20001463E4E70020024038B505464CF25030DA
:105C3000FFF7DAFE034608B1184638BD094C206A62
:105C400020F0FF0028432062636943F4003363615E
:105C50004CF25030FFF7C8FE0346626922F400326E
:105C60006261E9E70020024038B504460D464CF277
:105C70005030FFF7B9FE0346002879D114F0010F28
:105C800078D005F4E0634FF4E06214F0020F04D022
:105C900005F480510B4342F4805214F0040F04D0F9
:105CA00005F400510B4342F4005214F4805F04D019
:105CB00005F480410B4342F4804214F0080F04D0F5
:105CC00005F480310B4342F4803214F0100F04D0FD
:105CD00005F400310B4342F4003214F0200F04D0DD
:105CE00005F480210B4342F4802214F0400F04D0CD
:105CF00005F400210B4342F4002214F4007F04D089
:105D000005F400010B4342F4000214F4806F04D048
:105D100005F080710B4342F0807214F4006F04D0E0
:105D200005F000710B4342F0007214F4005F04D0E0
:105D300005F080610B4342F0806214F4804F04D080
:105D400005F000652B4342F000620C4C216A21EA09
:105D5000020213432362636943F4003363614CF22C
:105D60005030FFF741FE0346626922F4003262615F
:105D7000184638BD0022134687E700BF00200240C6
:105D800070B505460E4614464CF25030FFF72CFE17
:105D9000034660BB15F0010F14D006F17846154A92
:105DA000536A23F47F5323F03F0343EAD60353623D
:105DB00004F17844936A23F47F5323F03F0343EACA
:105DC000D40393620B4CA06A20F0004005F000451C
:105DD0002843A062636943F4003363614CF250309E
:105DE000FFF702FE0346626922F400326261184640
:105DF00070BD00BF0020024038B5224B1B78012B3C
:105E00003DD004461F4B01221A7000225A600368DD
:105E100013F0010F1AD10025236813F0020F1FD1D0
:105E2000236813F0040F22D1236813F0080F08D061
:105E3000216A626A914204D0E069FFF7A1FF00B1D4
:105E4000012500220F4B1A70284638BDC2688168B0
:105E50004068FFF7B9FE05460028DDD00125DBE7E5
:105E60002069FFF7E1FE0028DAD00125D8E7A16913
:105E70006069FFF7F9FE0028D6D00125D4E7022596
:105E8000E2E700BF0C00002010B5044606230360C3
:105E90004068012809D9FFF75DFE2061FFF76AFE1F
:105EA000A061E369012B09D010BD2246072342F807
:105EB0000C3B04F10801FFF733FEECE7236843F0E5
:105EC0000803224642F8243B04F1200104F11C009F
:105ED000FFF758FEE8E70000084B5A6922F4FC720D
:105EE000C00000F4FF6002435A615A6942F00202A6
:105EF0005A615A6942F480325A6170470020024068
:105F0000154B1B7FDBB2012B09D0032B07D0023BC3
:105F1000DBB2012B11D900220F4B1A7770470F4AC1
:105F2000116841F400611160116821F40061116091
:105F3000116841F400711160E9E7084B1A6842F4F6
:105F400080521A601A6822F480521A601A6842F469
:105F500080621A60DFE700BF0C00002000200240D2
:105F6000F8B53A4B1B78012B02D102273846F8BD11
:105F70000E4604460122354B1A704CF25030FFF7A2
:105F800033FD074600285CD10022304B5A60304B6D
:105F90001B6813F4007F31D02D4B1A6822F4007275
:105FA0001A601B6813F4806F24D0294A136823F405
:105FB000806313600322254B1A772368012B2FD0AF
:105FC0004FF0FF333360A568A368E26813449D4235
:105FD00035D261682846FFF77FFF4CF25030FFF75B
:105FE00003FD1B4A536923F4FD735361074628BB25
:105FF0000135E9E70122154B1A77DEE7144B1B68E0
:1060000013F4806F08D0124A136823F4806313607E
:1060100002220E4B1A77D0E700220C4B1A77CCE7FE
:106020006068FFF76DFD4CF25030FFF7DDFC07466E
:10603000074A536923F00403536100E03560FFF71A
:106040005FFF0022014B1A7090E700BF0C00002098
:1060500000200240F0B583B000238AE085684FEA53
:10606000430E032707FA0EF725EA0705CE6806FA5E
:106070000EF635438560456825EA04044D68C5F38E
:1060800000159D402C434460C6685F000324BC405B
:10609000E44326408D68BD402E43C6604D68022D06
:1060A0007BD0122D79D005682C404D6805F0030592
:1060B000BD402C4304604C6814F0805F58D0474CBE
:1060C000256E45F001052566246E04F00104019457
:1060D000019C9D08AE1C424C54F8264003F0030678
:1060E000B6000F27B74024EA0704B0F1904F6CD0F8
:1060F0003C4FB8426BD007F58067B84269D007F5CE
:106100008067B8425FD0072707FA06F634430235A6
:10611000334E46F82540344C2568D44305EA04063E
:106120004F6817F4803F01D042EA05062E4D2E60DD
:106130006D6804EA05064F6817F4003F01D042EA93
:106140000506294D6E60AD6804EA05064F6817F430
:10615000801F01D042EA0506234DAE60ED682C4059
:106160004E6816F4001F01D042EA05041E4AD460AE
:1061700001330A6832FA03F42DD001249C402240F6
:10618000F6D04D686E1E012E7FF668AF112D3FF4DC
:1061900065AF122D7FF478AF60E74FEAD30E0EF1B2
:1061A000080E50F82E5003F0070C4FEA8C0C0F2607
:1061B00006FA0CF625EA06050E6906FA0CF63543D2
:1061C00040F82E506FE703279EE700279CE7012742
:1061D0009AE7022798E703B0F0BD00BF0010024025
:1061E000000001400004004800040140002331FA8F
:1061F00003F270D0F0B52CE0032600E0002606FA8A
:1062000004F4A5424DD005685C00032606FA04F4A8
:106210002543056023FA06F5083550F8256003F09C
:1062200007074FEA870E0F2707FA0EF726EA070639
:1062300040F825608568E44325408560456825EA87
:1062400002024260C2681440C460013331FA03F2B2
:1062500040D001229A4011EA0207F6D04FEA930E8D
:106260000EF102051C4C54F8255003F00304A40061
:106270000F2606FA04FC05EA0C05B0F1904FBDD0DC
:10628000164EB04209D006F58066B04207D006F53A
:106290008066B042B0D00726B1E70126AFE70226FC
:1062A000ADE70F4D2C68FF433C402C606C683C40D0
:1062B0006C60AC683C40AC60EC682740EF60A5F5D2
:1062C00080650EF1020455F8246026EA0C0645F8B4
:1062D000246098E7F0BD70470000014000040048CA
:1062E000000401400369194201D1002070470120D8
:1062F00070470AB98162704781617047436903EA58
:10630000010221EA030141EA024181617047000074
:106310001E4A536823F00E0301680B4353601C4B65
:106320005A6822F480325A601A6822F480321A6065
:10633000DA6822F48032DA609A6822F480329A6055
