:020000040800F2
:10200000100B0020417E0008617300086373000814
:1020100000000000000000000000000000000000C0
:1020200000000000000000000000000065730008D0
:1020300000000000000000006773000869730008DA
:102040009B500008436200081B7300081F750008BE
:10205000EB750008B1730008C1730008CB7300086A
:1020600000000000DB7300085B7700080F7B0008AE
:10207000E5730008137B000800000000277B0008C0
:102080000000000000000000000000000000000050
:10209000037E0008000000000F7E0008597E000843
:1020A000000000005B7E000800000000000000004F
:1020B000EF7300085D7E00080000000000000000D3
:1020C00080B501008F20C00501F020F8002101F04B
:1020D00075F802D8FC21890501E0BF21090601F04D
:1020E00081F801F00FF902BD10B57E4C01222100EC
:1020F00001F084F900280BD1A08821787A4A115484
:10210000401CA0800120E08000F04EF87749086074
:1021100010BD80B573480021C167754909688162A7
:1021200074490968C162744909680163012110306A
:1021300001F0D8FD01BD38B56A4C01F04EFE20819A
:10214000B4256D0002F003F801286089218906D1C9
:10215000814201D3081A06E0281A401803E0884299
:1021600000D24019401A81B2A94200DD401B6349E8
:10217000C98D82B28A4202D3691A914200DA0020E4
:10218000A08131BD38B5012001F0EEFF554C00258E
:10219000606B8563A57001F020FE6081A5815848C1
:1021A0000570FFF7B6FF31BD80B502F01BF802BD28
:1021B00010B5040002F016F8001B10BDF8B500249D
:1021C000484D6C704D4E4F4F3878012811D102F0B8
:1021D00023F8022803D002F01FF8012809D14A4849
:1021E0000068E867032001F0BFFF0120A8703C7081
:1021F00002E0A87801283FD101F0BCFF032803D0FA
:1022000001F0B8FF052831D101F082FDFFF793FFFF
:1022100001F0B0FF032818D17088A96F884225D239
:10222000042001F0A1FF686B846301F0D6FD688192
:10223000AC81FFF76EFF01F08AFF002801D1012079
:1022400000E0002001F086FF10E0F088012807D1AF
:102250002E480068FFF7ACFF3189814206D203E0C7
:10226000A8897189884201D3FFF78CFF02F036F804
:10227000686F02F05BF8A867A878022831D120487F
:10228000007802282DD101F075FF032803D001F05A
:1022900071FF05281FD101F03BFDFFF74CFF01F056
:1022A00069FF032802D1052001F05EFF01F062FF03
:1022B000052810D1F088012807D114480068FFF7DD
:1022C00077FF3189814206D203E0A889B18988422B
:1022D00001D3FFF757FF02F001F8686F02F026F80C
:1022E000A867F1BD84040020EC030020C006002094
:1022F000E4060020E8060020EC060020FC05002093
:102300009906002097060020D8060020C406002069
:10231000F8B58EB0002469460C8202F04FF800F048
:102320009BFE142105A802F05DF8E34D2868042106
:10233000014329602868042108400090009828681B
:102340000121014329602868C107C90F0091009845
:102350002868022101432960286802210840009072
:102360000098E34E00228903300002F006F90022B3
:102370008021C901300002F000F90022E449A020C8
:10238000C00502F0FAF800220421E24802F0F5F854
:10239000C02000020590012006900794089405A92A
:1023A000300002F027F8062005900694079405A94E
:1023B000A020C00502F01EF810200590C426B60328
:1023C0000696079405A9A020C00502F013F808207E
:1023D00005900696079405A9A020C00502F00AF80A
:1023E000C02040000590012006900794089405A99C
:1023F000A020C00501F0FEFF032005908426B6034F
:102400000696079405A9C34801F0F4FF042005903F
:10241000012006900794089405A9BE4801F0EAFF40
:10242000E80C05900694079405A9A020C00501F0CA
:10243000E1FF80200002059001200690079408909B
:1024400005A9A020C00501F0D5FF20200590069623
:10245000079405A9AF4801F0CDFF00220021052017
:1024600002F0D1F8052002F0D2F800220021062067
:1024700002F0C9F8062002F0CAF800220021072065
:1024800002F0C1F8072002F0C2F868680121014398
:1024900069606868C107C90F009100980022012196
:1024A000092002F0B0F8092002F0B1F868460021D6
:1024B000002206C0A948AA490160C4638021090618
:1024C000416084600621816301210161C460202292
:1024D0008154212284548462FF21C231416201214E
:1024E0002C228154042141618D020563846144637F
:1024F000C46102F0B1F8002801D000F005FE99484F
:10250000009001956946954802F04AFA002801D0EA
:1025100000F0FAFD944800906946904802F040FAB5
:10252000002801D000F0F0FD9048009069468B48EB
:1025300002F036FA002801D000F0E6FD8C48029047
:102540008C4802994860E120400202998860029814
:10255000C56002980461A808029948610C2002999C
:1025600088610298C461029804620298446238202B
:1025700002998862E800029988630298C56368003E
:10258000029908647C48059000230022002102F093
:1025900001FB002801D000F0B7FD0AA800210022AD
:1025A000002300264EC0684606C006A84EC0D64E80
:1025B000A8047063B463F463D44830647464B4648E
:1025C0003000343002F02CFB002801D000F09CFDDC
:1025D0000A950AA93000343002F01AFC002801D014
:1025E00000F092FD3000343002F03DFB002801D0B5
:1025F00000F08AFD0094019469463000343002F006
:102600004DFD002801D000F07FFD6020069007946A
:1026100008940994042206A93000343002F08CFB9F
:10262000002801D000F070FD3000343002F0F9FDD8
:10263000B7480190B74801990860B74801994860C8
:102640000198846001200199C86001980461019893
:102650004461019884610198C46101980462019801
:1026600002F05AFE002801D000F04EFD0021019832
:1026700003F066F9002801D000F046FD0021019822
:1026800003F07BF9002801D000F03EFDA34801993A
:10269000C864032001990865681E0199886501993D
:1026A00048659F48099003F091F9002801D000F097
:1026B0002BFD9C4802E000BF2C1002400390847068
:1026C0000399CC70747003990C7103994C70019844
:1026D000446603994C717481B48193490C70934999
:1026E0000C700120D2490870D2490870D24901E02B
:1026F000000800500870D1490C70D1490C70D149C4
:102700000C7003990C70D0490C70D04D04E000BFE0
:10271000808100000004005001222900CC4803F011
:102720008BF92888CB49884228D1CB4D302229000B
:10273000CA4803F081F9280003F089F91822C84932
:10274000C84803F079F9C848C8490180E121C900A7
:102750004180C04801F069FD18E000BF3000002052
:10276000002401402000001440000018000004482C
:10277000340200200044004038020020BC4801F030
:1027800054FD1822B649B74803F056F9CC4DB44869
:10279000408C03F0E1F9290003F0EEF9FFF790FC1B
:1027A0000890AF48808C03F0D7F9290003F0E4F9D2
:1027B000FFF786FC0790AA48C08C03F0CDF92900EA
:1027C00003F0DAF9FFF77CFC06900898B0620798EE
:1027D000F06206983063A248C0890004B9490860D5
:1027E0009F48008A0004B84908609D48008B000497
:1027F000B64908609A48808B0004B549086098483B
:10280000408B00040090B34908609548408A00045A
:10281000B1490860F4679248808A0004AF490860B3
:102820008F48C08A0004AE4908608D48408D03F08F
:1028300093F9290003F0A0F9FFF742FC0A908848B9
:10284000008D03F089F9290003F096F9FFF738FCB1
:102850000099A44A11600699A34A11600799A34AF6
:1028600011600899A24A11600A9901F09CFD7C4808
:10287000808D0399887100200399C87101F074FC60
:1028800001F02DFBB46703F0CDFB0F2503F0C6F973
:102890006D1EFBD103F0F2FB01F084FA706B8463D0
:1028A00004213000343002F001FA0021D54803F051
:1028B00061FC002801D000F027FC03228D49D1489B
:1028C00001F0B0FF002801D000F01EFC0121300013
:1028D000103001F007FA01223100059800F08EFD5A
:1028E000FFF762FC01998866FFF75EFC0199C866F4
:1028F000FFF75AFC01990867FFF756FC7E4908600C
:1029000006947E4F44E000BF84040020FF030000D3
:10291000BC02002000540040BB7C7000003000402E
:10292000080300208C00002000000020010000208F
:10293000012001F086FC0198006EFFF739FC704918
:102940004A8909895118FA2292005143814206D2DC
:1029500001F0A6FC012802D1002001F09EFCE88CC9
:10296000012815DC01F05EFC012811D10198806F6F
:10297000009001F037FC0099401AFA214901884281
:1029800003D20198806F002802D1002001F047FC9B
:102990000121059803F054FC7078012805D101F05D
:1029A000E9FB032801DBFFF709FC0398C078012845
:1029B00000D0E3E00399CC7001F0DCFB062803D0E3
:1029C00001F0D8FB07280BD101F088FC706F01F0F3
:1029D000ADFCB06701F09CF901F0FFF93081708126
:1029E00001F0C8FB082848D101F078FC706F01F0B5
:1029F0009DFCB06701F08CF919480088B16F8842DE
:102A00003BD2042001F0B0FB706B846301F0E5F968
:102A10007081B4810220B07001203A490870FFF73C
:102A200078FB01F094FB002824D1012023E000BFB3
:102A30000200002003000020040000200500002008
:102A4000FF0600200F00002010000020F0060020EC
:102A5000F8010808A5A500000405002000000808EA
:102A6000FC05002000020808A60500200156000011
:102A70005A5A0000002001F06DFB2348C08C042846
:102A800072DD01F077FB0A2845D101F027FC706F59
:102A900001F04CFCB06701F03BF901F0EFFB0128BD
:102AA00003D06846008A3C2830DD0B2001F05CFB37
:102AB000706B8463FFF72DFB69460C822BE000BF2F
:102AC0000000C842C8060020CC060020B006002046
:102AD000D4060020B4060020D8060020DC06002022
:102AE000E0060020D0060020EC060020E8060020CA
:102AF000E406002038030020C00600204003002028
:102B00006C06002099060020640500206846008AB3
:102B1000401C6946088201F02DFB0C2824D101F0ED
:102B2000DDFB706F01F002FCB06701F0F1F801F01D
:102B3000A5FB022803D06846008A3C280FDD02204E
:102B400001F012FB706B8463002001F080FB012018
:102B500001F077FBFFF7DDFA69460C8204E0684676
:102B6000008A401C6946088201F0D2F903F056F849
:102B700003F09CF903F066FB03F000FA03988078F9
:102B8000012800D081E01F4D03998C7001F0F2FA0A
:102B900002282AD1069401F0BBF80398C0790128D5
:102BA00023D10399CC71C349C34801F047F9069872
:102BB00029007431820089180C804C80401C6428E4
:102BC000F6DB069003988089BC49C8800398C089C9
:102BD00048810398008A08810398408A8880039876
:102BE000808A88810398C08AC88101F0C3FA0628C8
:102BF00003D001F0BFFA07281CD1B078002819D102
:102C0000AF4801E0300000200078002812D00120F9
:102C10000399C871069864280CDA28007430069964
:102C20008900401831890180B16F41800698401CAD
:102C3000C0B2069003984079012821D10198406ED6
:102C4000FFF7B6FA9F498988814219D25C20285C37
:102C5000401C0399087003994C71022001F084FA1A
:102C6000706B846301F054F9082001F07DFA5C2058
:102C7000285C042804DB202001F0BAFA03990C70C8
:102C800003F09AFB099802F0CCFE0198806EFFF7E2
:102C90008FFAFB280BD303F075FC002803D101F059
:102CA000B5FA03F08BFCFFF77FFA01998866834839
:102CB000C08C042842DD0198406FFFF779FA06289E
:102CC0001ED301F0C7FA01281AD1052000907E4BCF
:102CD00003223900032003F0B1FC08200299088088
:102CE00008223900059800F049FBFFF75DFA0199C9
:102CF000486701F03FFA022802D1092001F034FAB6
:102D00000198C06EFFF754FADD2817D301F0A2FA3C
:102D1000002813D101200090CB4B0322390003205F
:102D200003F08CFC082002990880082239000598DD
:102D300000F024FBFFF738FA0199C8660198006F8C
:102D4000FFF736FA292800D2FFE001F071FABF49F7
:102D500088420BD101F09EFA002807D101F088FAD1
:102D6000C82800DBF1E001F075FA002800D0ECE0A3
:102D700003F008FC002800D1A8E000220421B44898
:102D800001F0FBFB8021A020C00501F0FCFB082521
:102D900003F0F8FB01280AD10090AE4B0322390062
:102DA000062003F04BFC0298058002207FE003F030
:102DB000E9FB02280AD101200090430301223900D7
:102DC000032003F03BFC029805803CE003F0DAFBB3
:102DD000032811D1029840880090C34B012239008A
:102DE000062003F02BFC0298058002984088401CC6
:102DF0000299488004205AE003F0C4FB04280CD157
:102E00004020009084239B0101223900032003F01D
:102E100015FC02980580052049E003F0B3FB052866
:102E200015D14020009084239B01032239001020FB
:102E300003F004FC89200299088003F0A9FB0299A1
:102E40004988814201D2032031E006202FE003F0BF
:102E500099FB06280BD101200090A44B03223900D6
:102E6000032003F0EBFB0298058007201FE003F02E
:102E700089FB07280BD102200090764B03223900F2
:102E8000062003F0DBFB0298058008200FE003F02A
:102E900079FB08284BD103F081FB0090934B012272
:102EA0003900062003F0CAFB02980580002003F0D9
:102EB00066FB3CE098000020A40000206405002090
:102EC0000F000020FC05002004810000029800880B
:102ED0000399097A80231B0200290BD10120039951
:102EE00008720920009001223900032003F0A6FB9C
:102EF00008201AE001290CD103990C7227200090B8
:102F000082231B0201223900102003F097FB572077
:102F10000BE0022909D103990C72092000900122CB
:102F20003900102003F08AFB1B20029908800298C8
:102F300002883900059800F021FA01F099F900287B
:102F40001BD0022001F089F917E001F0A3F9032852
:102F500018D13E48009092231B020222390006201D
:102F600003F06CFB002001F092F908200299088020
:102F700008223900059800F001FAFFF715F90199C8
:102F8000086734E0082501F085F9022803D11820EC
:102F90000090902306E001F07DF901280FD1302048
:102FA000009091231B0202223900102003F046FBFF
:102FB000002001F06CF902980580082213E001F06E
:102FC00069F9052813D10B20009093231B020222DC
:102FD0003900032003F032FB002001F058F91B20D8
:102FE000029908801B223900059800F0C7F9404873
:102FF0000068FFF7DDF803280ED3B18805290BD947
:10300000F088012808D13B4803F03AFBF480B480F3
:103010009621384801F0E6F90198C06DFFF7C8F82D
:10302000354D36490989FA2292004A4382420AD232
:1030300001F0ECF8082806D1E88C042800DC77E4DD
:10304000012001F004F976E403810000A5A5000049
:10305000000400500281000010B598B034210BA884
:1030600001F0C0F91421684601F0BCF9182105A847
:1030700001F0B8F922480168224A0A40C10C114304
:10308000016001200B90A020C0020C90022014903F
:10309000C0031590C020000316908020C003179035
:1030A0000BA803F055FD002801D000F02DF80F20EB
:1030B00000900320019000240294039404940121C1
:1030C000684603F0F3FD002801D000F01DF80A2047
:1030D00005900794099405A803F0E6FE002801D0A6
:1030E00000F012F818B010BD02200000012000000E
:1030F000C0060020EC030020640500206C060020C0
:1031000000700040FFE7FFFF72B6FEE730B4050035
:103110004D400122D20715404B180418240E2ED022
:103120001B0E32D0FF2C34D0FF2B3AD0E418000213
:10313000090210431143000A090A9446C2B24A43E5
:10314000000AC3B24B43000A4843110A5B181A43F2
:10315000D2B2190A091801D44918641E080A7F3C22
:1031600023DBFE2C08DAE405090611436346994186
:103170006041284330BC7047FF20C005F9E72800B4
:103180001B0EFF2BF6D1D043F4E72800FF2CF1D122
:10319000F9E74002F7D1FF2B01D14902F3D1E00555
:1031A000E7E7D8054902E4D0EDE743020020641CBC
:1031B000DFD15B129B1CDCD9D805DAE70CB4012205
:1031C00012060318DA4207D84B18DA4204D8020074
:1031D0000A43921802D281420CBC7047FCD088424C
:1031E0000CBC70470122D20703004B402ED4431A77
:1031F00001D2C01AC91830B44B180418240E1B0E83
:1032000022D0FF2C20D0E31A182B1DDC0902114319
:10321000C40D641E0002104394461925ED1A0A00DD
:10322000AA40D940451801D36D08A41CE405D20971
:10323000280A2D062A436546AA41604103181B0E41
:10324000FF2B01D3C00DC00530BC7047514006E0D4
:103250005140CCE70122D20703004B40F8D4431A77
:1032600003D2C01AC9185040514030B44B1809025B
:1032700011430418240E1B0E40D0FF2C3AD0250019
:103280009D410BD31ED8C50D4002401A0BD3ED054E
:103290000100400AC90591416841D5E7C50D4002CA
:1032A0004918401AD0D001214008491C0018FCD50B
:1032B0008C4204D36D1A000AED054019C4E7E805F5
:1032C0001040C1E7182DBFDCAC1C0D00E140E5410A
:1032D0004D40012D4941C40D00021043451A01D44F
:1032E0006D199543641EE405280A2D069541604139
:1032F00030BC7047FF2BA7D1D843A5E72442A3D108
:103300000020A1E70122D2070118090E7F3910D44D
:1033100049421F310FD4001805D2C0011043C840E4
:1033200000D5D0437047C0011043C84005D4404287
:103330007047002070470042F3D51000704730B549
:1033400001684118446862088A188368E40704D554
:103350004C461B1901E0641C09D1914203D00C7842
:1033600064B2491C01E00C3030BD0D78491C1D7061
:103370005B1C002CEFD4641EF7D5EEE770B503009C
:1033800074335C68202C37D100290BD0140009D08D
:10339000846880256D01AC4206D10669002E03D1F8
:1033A000CE0701D5012070BD7426865D012E23D085
:1033B00001261E70C164010050310A804A8000223B
:1033C0008A61DA6021265E60AC4204D10469002C77
:1033D00001D1264C00E0264C8C611A70EFF310816D
:1033E000012282F31088006802688023134303607F
:1033F00081F31088002070BD022070BD70B50300FD
:1034000074339C68202C2ED100290BD0140009D0D5
:10341000846880256D01AC4206D10469002C03D17B
:10342000CC0701D5012070BD7424045D012C1AD095
:1034300001241C700023036603680E4CA3420FD0C6
:103440005B681B020CD5EFF31083012484F3108812
:10345000046825688026F6042E43266083F31088CE
:1034600000F0C2FA70BD022070BD0000573B00089A
:10347000353B000800480040FEB504002368D869C9
:10348000194609689A682500583520260E4000968E
:103490002026064001960026A94F07400BD1019F28
:1034A000002F0CD0009F002F09D0E968002901D01F
:1034B00020008847F7BDD70702D4A24F0F4078D02D
:1034C000C70706D5CF0504D501271F62AB6A1F4386
:1034D000AF62830708D5D30706D5022327683B626E
:1034E000AB6A04271F43AF620423184207D0D707F3
:1034F00005D527683B62AB6A02271F43AF620823EA
:10350000184209D0009F002F01D1D20704D52268AC
:103510001362AA6A1343AB6280221201104007D0E3
:10352000480105D520680262A86A20210143A962EA
:10353000A86A002833D00198002807D000980028F6
:1035400004D0E968002901D020008847A86A4027F4
:1035500021688968394002D12821014024D0200007
:1035600000F0A2FA20688068074019D0EFF31080BD
:10357000012181F3108821688A6840239A438A6078
:1035800080F31088A86900280AD06F498163A86970
:1035900003F04CFD002802D0A869816B8847F7BD75
:1035A000200003F0F0FDF7BD200003F0ECFDAE625B
:1035B000F7BDAF68012F00D094E01027384200D04B
:1035C000394200D18EE01F621020C0430121C9435F
:1035D0002268926852064AD5AA6913685B689BB252
:1035E000002BE5D05827E75BBB42E1DA6B8012681D
:1035F0001268920635D4EFF310820092012282F312
:10360000108822681368514F1F401760009A82F398
:103610001088EFF31082012383F3108823689F68DA
:103620003940996082F31088EFF31081012282F310
:103630001088226893684027BB43936081F3108809
:1036400020216962AE60EFF31081012282F31088BD
:10365000226813681840106081F31088A86903F08D
:10366000C0FC5820205A6988411A89B236E0582295
:10367000A25A6B88D21A6B461A806A88002A5ED0DA
:103680006A461288002A5AD0EFF310820192012272
:1036900082F31088226813684B4F1F401760019A0D
:1036A00082F31088EFF31082012383F310882368DC
:1036B0009F683940996082F3108820216962AE606A
:1036C000EE60EFF31081012282F310882268136804
:1036D0001840106081F3108868460188200002F0CD
:1036E000AFFDF7BD80277F03384206D0520204D5D4
:1036F0001F62200003F048FDF7BD8022104207D072
:103700000A4005D02969002919D020008847F7BD53
:103710004022104013D00A4011D0EFF31080012155
:1037200081F3108821680A6840239A430A6080F375
:103730001088202028622E61200003F026FDF7BDAE
:103740000F08000020010004213B0008FFFEFFFFDE
:1037500070B5040000250026206801689F4A0A40D1
:10376000A168114322690A4361691143E2690A436E
:10377000026041689A4A0A40E16811434160A169C8
:10378000444A904202D00A00216A11438268954B54
:1037900013401943816003F05CFB00280ED0616880
:1037A0004A08801803F006FD80B201001039B64ABD
:1037B000914202D22168C86000E001266566A566D4
:1037C000300070BD00000000DFFEFFFF2421415CDF
:1037D000C90706D501684A68AC4B1340826A1A4390
:1037E0004A602421415C890706D501684A68A84BD4
:1037F0001340C26A1A434A602421415C490706D536
:1038000001684A68A34B1340026B1A434A602421A3
:10381000415C090706D501684A689F4B1340426B1B
:103820001A434A602421415CC90606D501688A68AA
:103830009A4B1340826B1A438A602421415C8906AB
:1038400006D501688A682C4B1340C26B1A438A6004
:103850002421415C490611D501684A68904B134008
:10386000026C1A434A60026C80235B039A4205D1C2
:103870004A688C4B1340426C1A434A602421415CD5
:10388000090606D501684A689E4B1340806C1843B0
:103890004860704700480040F8B5040000257430C7
:1038A000C56000F09FFC0700974E20680068000785
:1038B00009D500963B00002280218903200000F0FA
:1038C0001DF800280DD12068006840070BD5009630
:1038D0003B0000228021C903200000F00FF80028DF
:1038E00001D00320F2BD210074312020486088609F
:1038F00025660D700020F2BDFFDFFFFFFEB5089FBB
:10390000802424010025060001916846027002937C
:103910003068C069019901400198814201D10120BC
:1039200000E0002069460978884254D10020C04355
:103930008742EDD000F056FC0299401A874201D32D
:10394000002F1FD1EFF31080012181F3108831681F
:103950000A686E4B13400B6080F31088EFF3108001
:10396000012181F3108831688A6801239A438A60B3
:1039700080F3108830007430202141608160057030
:103980000320FEBD306800684007C1D53068C069BB
:103990002040BDD030680462EFF31080012181F334
:1039A000108831680A68594B13400B6080F3108807
:1039B000EFF31080012181F3108831688A680123B8
:1039C0009A438A6080F3108830007430202141606F
:1039D0008160C160D3E70020FEBD0000F369FFEF06
:1039E000FFCFFFFFFFF4FFFFF0B541650100583145
:1039F0000A804A800022CA608668FF2480235B0117
:103A00009E4204D10569002D11D1414C0FE07F2564
:103A1000002E03D10669002E06D108E01C04A64240
:103A200007D10469002C01D18D8003E03F248C80F4
:103A300000E08A808A6222244C62EFF31084012520
:103A400085F310880568AE6801273743AF6084F3BB
:103A5000108884689C4204D10369002B01D12D4B4E
:103A600000E02D4BCB600A77EFF31081012282F347
:103A700010880068026890235B001343036081F3A1
:103A800010880020F0BD0000F0FF0000FFFFFDFFE8
:103A9000FFFFFEFFFFFFFBFFFF7FFFFFFFEFFFFFCB
:103AA000FFFFEFFFFFFF9FFF10B5EFF31081012233
:103AB00082F3108802681368184C1C40146081F36C
:103AC0001088EFF31081012282F310880268936856
:103AD0000124A343936081F31088016E01290BD167
:103AE000EFF31081012282F310880268136810241A
:103AF000A343136081F310882021C1670021016670
:103B0000416610BDFFFFF7FFFFFFFF015FFEFFFFF4
:103B1000FF010000353C0008BB3B0008DFFEFFFF53
:103B200080B5806A0100523100220A810A8003F0C8
:103B30002AFB01BD816F212900D0704710B55221A9
:103B4000415A002900D11FE0C16C097802689162D6
:103B5000C16C491C11E0816F212900D0704710B55C
:103B60005221415A002900D10EE0C16C0988C905D3
:103B7000C90D02689162C16C891CC1645221415A0D
:103B8000491E5222815210BDEFF31081012282F3AF
:103B90001088026813688024A343136081F310889F
:103BA000EFF31081012282F310880068026840233D
:103BB0001343036081F3108810BD38B501005831FC
:103BC00002684B6A222B30D1526A8B881340426DB7
:103BD0001370426D521C42654A88521E4A804A88C0
:103BE000002A26D1EFF31082012383F310880368A3
:103BF0001C682F4D25401D6082F31088EFF3108262
:103C0000012383F3108803689C680125AC439C6002
:103C100082F3108820224A620022CA608B68012B3E
:103C200000D147E0FEF760FA31BD906908210143F9
:103C3000916131BD38B50100583102684B6A222BC1
:103C400030D1526A8B881340426D1380426D921CB2
:103C500042654A88521E4A804A88002A26D1EFF3DC
:103C60001082012383F3108803681C68104D2540DF
:103C70001D6082F31088EFF31082012383F3108814
:103C800003689C680125AC439C6082F31088202265
:103C90004A620022CA608B68012B00D10AE0FEF75D
:103CA00023FA31BD906908210143916131BD0000C3
:103CB000DFFEFFFF8A60EFF31081012282F310889C
:103CC000026813681024A343136081F3108801680D
:103CD0001022CB69134000D00A625821415A02F0E9
:103CE000AFFA31BD8269C369D218036AD218026083
:103CF000026A52008369D21853424360026A8260AA
:103D0000002904D00C300021002200230EC070478F
:103D100070B500241E48006800282DD01D49096890
:103D20000904401A1C490C68844200DD04001B4D44
:103D30002100286803F073FA0600E968686803F058
:103D40006EFA36182969A86803F069FA69693018AB
:103D500003F04BFAE9682961EC60686104000E48E1
:103D60004068A04201DA04006861002C04D50024F8
:103D700001212800FFF7B6FF802000022018C113A0
:103D8000090C0818001480B205490968886370BDE1
:103D900000050020FC040020B00600209404002050
:103DA000B8040020E0B521482021017002214170B3
:103DB000302181700421C1700022426082601C4960
:103DC000C988002907D10021C94302910C21019122
:103DD0000090012323E003200EBD1FB51448C088C6
:103DE000002812D1134C0020C04302900220019001
:103DF0000094012319226A210F4801F09BFB00283F
:103E000003D160782178090202E0FF210902FF2036
:103E100001430804000DC005C00D04B010BD6A21A7
:103E2000054801F0C7FA0EBD00000000A4060020FE
:103E3000FC050020F8060020BC02002038B5002256
:103E40000A809300C3185C88A12C0BDB0D88A54267
:103E500008D20C801C884C8014000A256C438C808E
:103E60005B88CB80521C642AEBDB05000C002088A9
:103E7000A1280EDBFF219431414322480818800A13
:103E80000A2103F097F92080E0881F494143880AFE
:103E9000E0806088B42149001C4A9278002A2A8870
:103EA00006D1904201D3801A08E0891A081805E06B
:103EB000824201D3101A01E05118081A608061880B
:103EC0001A20484380090A306080AC4D2868FEF70C
:103ED0006FF920812868FEF76BF9608131BD10B55C
:103EE0000A4C012020700021A54A1278012A00D036
:103EF0000020E17021716171A070FEF755F9E0605A
:103F000010BD0000C806FFFFAE04000094060020AC
:103F1000FEB500250227964CE068FEF749F999495D
:103F200088420AD367709848056098498D829848FE
:103F30000078002838D101203AE0964800680290C5
:103F4000954800788E4909786A4611709349096846
:103F5000019193490968012662780E2A18D802A3B4
:103F600052009B5E9F4400BF1E002A00BEFF6400FB
:103F700068009000B200FE0006014201860158016F
:103F80007401CE01D6016770FFF727FF85490880CD
:103F9000ADE0854D280001F09FFD302229008348C7
:103FA00001F0B5FD6770A2E081480078002801D1DA
:103FB00000F02FF9257200F041F9022802D1032008
:103FC00000F039F9FEF7F0F8E06090E079481FE082
:103FD000E0797949098C81420BD205206070FFF7A6
:103FE000FCFE70490880E5716771FEF7DDF87349E2
:103FF0003BE0401CE0717AE00299714A11600128AF
:1040000005D165490D70FEF7CFF85C4908606D4831
:1040100000685D490860E57169E06B490968684AB4
:1040200011605D4F002804D13E70FEF7BDF8534982
:10403000086053480078012800D10125A570584830
:10404000006851490860022000F0E3F83878002841
:104050004DD04A480068FEF7ABF85749C98B8142FA
:1040600045D2072038E00298554908603FE0002813
:1040700005D149490E70FEF797F84049086040485D
:104080000078012800D00125A570207A002804D1ED
:104090002672FFF7A2FE434908804C4800683A495F
:1040A0000860042000F0B5F821E001983649086066
:1040B00068460078012800D00125A5700A200BE091
:1040C0003249088B002803D0FF22120290420ED101
:1040D000C88A00280BD10C20607008E001982A499A
:1040E000086068460078012800D10125A570A02548
:1040F000ED0520790122824380214900280000F04B
:104100003CFAA27880210902280000F036FAA07853
:10411000A17981420DD0A0712D482E490968816195
:104120002D490968C1612D49096801620121FFF724
:10413000D9FD6078FEBDA57013480160D7E7A67071
:10414000FAE70B490870704709480078704708483B
:10415000807870470A490978012902D1401E8041C0
:10416000C00F0349887070470149487070470000CC
:10417000940600201A484078704700002003002071
:1041800092000020A10F000000050020640500201F
:1041900002000020D006002091000020E006002050
:1041A000C80600208E040020040500200000080836
:1041B00003000020DC060020FC050020C4060020CF
:1041C000B4060020D8060020D4060020CC0600202B
:1041D00094040020E4060020E8060020EC060020FD
:1041E0009406002001484068704700BFD8030020B3
:1041F00010B52D4908702D4CA084FFF7A5FF0028AD
:1042000003D1A08C10210143A18410BD2648007861
:10421000704727490880704725480088704725491E
:10422000087070472348007870472349088070471A
:104230002148008870472149087070471F4800785E
:1042400070471F49087070471D48007870471D4926
:10425000087070471B48007870471B490A780300B4
:1042600001D1002202E0022800D1521C0A707047DE
:104270001548007870471549087070471348007852
:1042800070471349088070471148008870471149EA
:10429000087070470F48007870470F4908707047E2
:1042A0000D480078704700000007002064050020DA
:1042B000F206002001070020F4060020020700207B
:1042C0000307002004070020EA0300200507002060
:1042D000F6060020060700200707002030B50E482C
:1042E00001880E4A116041880D4A11600D4C2588E5
:1042F0008188A520400048439621490002F05AFFDA
:10430000401B64214843A188491B02F03FFF1E3037
:104310000549086030BD00BF38030020B806002002
:10432000F80400207A00F81FBC06002070B50400D5
:10433000204DA869E860296AE86902F056FFA86084
:10434000696A02F052FF010080267602300002F016
:1043500082FF0100A86802F062FF28602004686103
:10436000E96802F04FFF0100286802F058FF0100E1
:10437000E86802F03AFF28612968300002F042FF45
:10438000A96802F04CFF0100E9612869A8610028D2
:1043900001D4720800E0084A8018C213120C1018E9
:1043A0000014696070BD034A00239361D3611062F9
:1043B000516270472C0600200080FFFF10B50024DA
:1043C0000748016840220A430260002002F0A6FF6D
:1043D000002801D0012401E000F08EFE200010BD75
:1043E00000200240002200BF094202D0491E425470
:1043F000FCD17047F0B585B000220F23039331E064
:10440000062303E06A4B9842FAD10523B3402B43BD
:104410002360684B1D68019BDC4325404B68DB0330
:1044200002D52B00019D1D43624B1D605D68254038
:104430004E68B60302D52E00019D35435D609D6830
:1044400025404E68F60202D52E00019D35439D6041
:10445000DD682C404D68AD0202D52500019C2C433F
:10446000DC60521C0B681C00D44000D17DE00124AC
:10447000944023400193F4D0530003259D40EE4324
:1044800002964D68AE07B60F012E03D0AD07AD0FF3
:10449000022D0ED18568029E2E40CD689D40354389
:1044A00085604568A5434C68E606F60F96402E43A6
:1044B000466094006D466C7003244D682540032DC2
:1044C00025D0C568029E2E408D689D403543C5604D
:1044D0004D682540022D1AD1D508AD0045192E6A28
:1044E00004966E4677781C263E406F463E70049ECA
:1044F000B446039F6E463678B7406646BE43B44620
:104500000F696E463678B740664637432F620568B6
:10451000029E2E404D682C409C40344304604B6802
:10452000C024A4021C409CD00123234C24681C43BB
:10453000214D2C60214C9508AD00641925686E460C
:1045400077780C263E40039FB740BD43A027FF0568
:10455000B84201D1002359E7194FB842FBD0194B9B
:10456000984200D04EE7022350E705B0F0BD006945
:10457000084000D00120C0B27047002A01D08161FC
:1045800070478162704742690B0013401B049143DE
:1045900019438161704701000B4A13680B4000D139
:1045A000704780B5116002F027FF01BD00000000D8
:1045B000001C00500004014034100240080001407B
:1045C00000040050000800501404014010B5C2005F
:1045D00018231340FF249C40E2438907090E9940A9
:1045E000030004D418489B089B00C01806E0174B32
:1045F0000007000F083880088000181803681A4068
:104600001143016010BD80B5FFF7E0FF01BD01005F
:1046100005D40121C006C00E81400D4801607047DD
:1046200010B5401E80214904884201D3012010BDED
:10463000084C606003210020C043FFF7C7FF002043
:10464000A0600721216010BD00E400E01CED00E047
:1046500000E100E010E000E0F8B5040016D025000D
:10466000503500266868002804D1AE602E70200006
:1046700000F05BFD10206968014003D121688A6861
:10468000520705D56968084368602E700120F2BDA5
:1046900068685D4A02400220104368605B488A688F
:1046A0009207920F012A03D10A461268D2072AD430
:1046B0006268574BC0273F06BA4206D05F1CBA4219
:1046C00003D080273F06BA4208D10A6913400B6124
:1046D00021680A69636813430B610AE00A691340A1
:1046E0000B6101684B4A0A400260016862680A4334
:1046F00002602168CA6818239A43CA602168CA68A0
:10470000A3681343CB600168434A0A400260016812
:10471000626B52060A430260206880214905826864
:104720000A4002D18268114381602068C1683B4A17
:104730000A40C2602069022801D1042100E0002162
:104740002068C268E368134319432022A25C520325
:104750000A432C21615C49001143226B0A43A16981
:1047600089031143E269D2030A43C260606AFF21F0
:10477000C231884205D02168CA681043A26A024348
:10478000CA6001202121615C012910D12021615CD6
:10479000002905D12168CA6803041343CB6006E0F1
:1047A000696820220A436A60A9680143A960E16B35
:1047B000012921680A690FD1194B13400B61216847
:1047C0000A69236C1343626C1A43A36C13430B6195
:1047D00021680A69024303E0024002D00A69824369
:1047E0000A6121684A6907239A434A6121684A6934
:1047F000A36B13434B61AE60696802229143084387
:1048000068600020F2BD0000FFFEFFFF08270140A6
:10481000FFFFFF3FFFFFC3FFFFFFFFFD1902FEFF8A
:1048200003FCFFFFF2B505001700002600242868EE
:10483000816849073CD45021695C012901D10220DB
:10484000F2BD01215023E954C2681143C160E869F7
:10485000012804D0280000F0FDF8040029D13B0015
:10486000009A2800503047687649394080277F00F9
:104870000F434760866006707348E96CC8627348EE
:10488000E96C08637248E96C48631C202968086079
:104890002868416810260E43466029684031E86C5C
:1048A00002F068FB2868816804220A43826000E005
:1048B00002242000F2BDF8B5040020680127082179
:1048C000102504220368134003D003465B6813409D
:1048D00006D103680B4037D003465B680B4033D0EA
:1048E000636D2B4003D1636D8E011E4366650346E5
:1048F000DB68C02636011E401DD12023E35C002B5F
:1049000019D10068014016D02068806802400BD1A0
:10491000206840680C21884321684860606D6349C5
:1049200001403943616506E0606D20210143616506
:10493000A06D3843A065200002F0E2FDA0690128C7
:1049400002D00C2021680860802620680068304072
:104950000CD020684068304008D0606D29030143C6
:104960006165200002F0CDFD2068066020680168C6
:10497000294014D001464968294010D0216B0029F4
:1049800003D00146C9680F4007D0A16D02220A4337
:10499000A2650560200002F0B5FD20680560F1BD4C
:1049A000FEB55022825C012A01D10220FEBD070023
:1049B000503701223A70006800248268520706D5F9
:1049C00078682021014379603C700120FEBD009190
:1049D00009684903490B01918025AD02654E6900C4
:1049E000009A5268644B9A42826A019B15D0134325
:1049F000836200980068014006D03068A901014335
:104A000031600A2000F0A4F800980068054016D034
:104A100030688021C903014310E09A438262009804
:104A20000068014003D0306854490140316000986B
:104A30000068054003D030685149014031603C7046
:104A40000020FEBDFEF1FFFFC14A00082D4B00080B
:104A5000374B0008F8B50600306881688907890F70
:104A6000012903D101460968C9071CD41024012576
:104A70008168444A0A4015D1816829438160012038
:104A800000F066F8FFF7AEFB0700306800682840CA
:104A900009D1FFF7A7FBC01B0B28F6D330680068CD
:104AA0002840F2D104E00020F2BD0000FFFEFFFF2D
:104AB000706D04437465B06D0543B5650120F2BDAA
:104AC00010B5816A4A6D502313402BD1486D802266
:104AD000920002434A650868C268C0231B01134064
:104AE0001CD120228A5C002A18D10A681268120799
:104AF00014D5012283685B0709D443680C24A343BF
:104B00004360486D204B03401A434A6506E0486DF8
:104B1000202303434B65886D02438A65080002F039
:104B2000EFFC10BDC96C496B884710BD80B5806A29
:104B300002F0E9FC01BD80B5806A416D40220A4364
:104B40004265816D04220A43826502F0DBFC01BDEF
:104B500018B504000D4800680D4902F02BFB4443D2
:104B6000009402E00098401E009000980028F9D1BF
:104B700011BD00000827014001100000FFFF7FFF6A
:104B8000FFFFBFFF17000080FFFEFFFFE4030020D0
:104B900040420F00F2B5040017001D00002C14D095
:104BA000260074367068002803D13070200000F0B1
:104BB0005CFB242070602068016801229143016041
:104BC0002000FEF7C5FD012801D10120F2BD606A79
:104BD000002802D02000FEF7F9FD009821688A68BD
:104BE0008023DB0113438B6021688A680A4B1340E2
:104BF0001843886020680168084A0A407905114313
:104C00002A040A4302602068016801220A43026004
:104C10002000FEF741FEF2BDFF7FFFFFFFFF00FC1B
:104C200010B5040001D1012010BD3920205C0028FE
:104C300004D138216054200000F0E8FA0220392124
:104C40006054211D206800F04DF901203E21605480
:104C50003A2160543B2160543C2160543D21605412
:104C6000392100F065F810B5040001D1012010BD14
:104C70003920205C002804D138216054200002F043
:104C800043FC022039216054211D206800F02AF9DC
:104C900001203E2160543A2160543B2160543C2164
:104CA00060543D216054392100F042F810B50400F1
:104CB000002901D13A2008E0042901D13B2004E079
:104CC000082901D13C2000E03D20205C012801D0D2
:104CD000012010BD0220002901D13A2208E0042958
:104CE00001D13B2204E0082901D13C2200E03D2211
:104CF000A0540122206800F0C3F921680120820736
:104D0000914205D0084A914202D0084A914205D109
:104D100089684907490F062904D0216809680843B2
:104D200021680860002010BD000801400014014007
:104D30006054002010BD0000F1B582B000206B4629
:104D4000187002983823C05C012801D10220FEBDF2
:104D50000120029B3824185508272C4EC5020C0050
:104D6000002A06D0042A14D0082A24D00C2A32D0D3
:104D700043E00298006800F0DCF80298006881695E
:104D80000F43876181690422914381618169E268EF
:104D90000EE00298006800F0E2F80298006881696D
:104DA0000D43856181690E4086618169E268120266
:104DB0000A43826123E00298006800F0E8F8029854
:104DC0000068C1690F43C761C16904229143C16191
:104DD000C169E2680EE00298006800F0EFF80298FE
:104DE0000068C1690D43C561C1690E40C661C169F2
:104DF000E26812020A43C26101E0694608700020BD
:104E000002993822885468460078FEBDFFFBFFFFF8
:104E1000F8B504000026684606703820205C01289A
:104E200001D10220F2BD2700383701253D70022054
:104E30003922A05420688268294B13408360086897
:104E400002003FD010283DD020283BD0302839D058
:104E5000402830D0502820D0602825D0702806D097
:104E60002B03984235D05B0098420AD02FE0CB68E4
:104E70004A688968206800F0E4F820688168772231
:104E800008E0CB684A688968206800F0DAF8206892
:104E90008168AA030A4382601BE0CA6849682068E7
:104EA00000F0A4F850210EE0CA684968206800F0BC
:104EB000AEF8602107E0CA684968206800F096F8FB
:104EC000402100E00100206800F0B3F801E06846EE
:104ED0000570392025543E7068460078F2BD000008
:104EE0008800FFFF70B502685B4B5C4C8025ED05C8
:104EF000A84203D0A04201D0984208D17026B24304
:104F000016004A683243A84203D0A04201D098421A
:104F100003D1534B1340CA681A4380239A430B6949
:104F2000134303608A68C26209688162012141619A
:104F300070BD30B5026A01239A430262036A426877
:104F400085697324A5430C682C430225AB438D6807
:104F50001D434260846149684163056230BD30B5DC
:104F6000026A10239A430262026A436884693D4DD3
:104F700025400C6824022C432025AA438D682D016E
:104F800015434360846149688163056230BD30B573
:104F9000026A354B13400362046A4268C569732391
:104FA0009D430B682B43314D25408C6824022C43D4
:104FB0004260C3614968C163046230BD30B5026AB2
:104FC0002B4B13400362036A4268C469254D254098
:104FD0000C6824022C43274D1D408B681B032B4378
:104FE0004260C46149680164036230BD30B5036A40
:104FF000046A0125AC4304628469F025AC431201C4
:10500000224382610A2293431943016230BD30B5C5
:10501000036A1024A34303628469036A164D254082
:1050200012032A438261A0229343090119430162BA
:1050300030BD826870239A43114307220A4382607D
:10504000704730B584680D4D254029430A43190245
:105050001143816030BD0000001401400008014090
:10506000FFFCFFFFFF8CFFFFFFFEFFFFFFFDFFFFC9
:10507000FFEFFFFFFFDFFFFFFF0FFFFFFF00FFFF5F
:1050800010B5C906C90E036A01248C40A34303620C
:10509000036A8A401A43026210BDFEE7F0B5382267
:1050A000825C012A01D10220F0BD020038320123C6
:1050B000137002243925445505686E68AC68702762
:1050C000BE430F6837436F6005689E07B54205D041
:1050D000074EB54202D0074EB54204D18026B443F4
:1050E00049682143A9603921435400201070F0BD64
:1050F0000008014000140140E0B508220021684684
:1051000002F003FA7B48016801220A430260416809
:10511000802252050A4342600020009001906846B8
:1051200002F0FEF902F02CFA07BD70B586B004005B
:105130001422002101A802F0E8F920686E49884293
:1051400037D16E488168420D0A43826001210268AE
:105150000A430260006801400091009860200190BD
:10516000032002900025039501A9A020C005FFF7A8
:1051700041F9634E634830607560B560F56080202A
:105180003061803070618000B0612020F061356254
:10519000300001F0A3FE002801D0FDF7B5FFE66462
:1051A000B462002201210C20FFF72DFA0C20FFF73A
:1051B0002EFA06B070BD10B586B00400142200218E
:1051C00001A802F0A2F920684F4988421CD10120B1
:1051D0004A4C2168014321602168014000910099F7
:1051E000C021C900019112210291002103910321E4
:1051F0000491059001A9A020C005FFF7FBF8E06825
:10520000802189030143E16006B010BD0068802160
:10521000C905884204D13D48016801220A43026061
:10522000704710B586B004001422002101A802F0D6
:105230006CF920688021C905884214D102202F49C9
:105240000A6802430A600968014000910099082138
:10525000019102900021039103210491059001A97D
:105260002B48FFF7C7F806B010BD70B586B0040034
:1052700014220021684602F048F920682549884236
:1052800035D11E48C168802292020A43C2600121C2
:1052900002680A43026002681140059105990224E0
:1052A0000168214301600068204005900598E002F4
:1052B0000090019400250295032603960420049093
:1052C0006946A020C005FFF795F8C0200090019422
:1052D00002950396049569460D48FFF78BF8002266
:1052E00000211C20FFF78FF91C20FFF790F906B072
:1052F00070BD000034100240002401402C10024018
:10530000B40500200800024000540040381002405C
:10531000000400500044004070B5040001D1012099
:1053200070BD2500403500266878002803D12E7016
:105330002000FFF740FF24206870206801680122E8
:10534000914301606068184901402068016121684B
:1053500016488A6802408A60A168C2430A432168ED
:105360008A6021684A68124B13434B602168CA68FF
:105370001040C860206961690143A06900020843C8
:105380002168C860E069216A0143206801602068E3
:10539000016801220A4302606E6020206870266363
:1053A000AE70002070BD0000FFFFFFF0FF7FFFFF29
:1053B00000800002FEB504000F0016001D00403002
:1053C0004078202800D0B2E00898002803D0684632
:1053D000808C002805D18020800021004031486069
:1053E000A3E04020205C012800D1A0E00120402162
:1053F0006054FEF7F7FE0290009019230122D103BA
:10540000200000F0C9F90028EAD12B003200212049
:105410002100403148704020210040318870002038
:10542000210040314860089860626846808C608541
:1054300000206063029801900A98009039002000D3
:1054400000F03EF9002803D00020402160546CE0B9
:10545000608DFF280DD9FF2020850020009080233B
:105460005B04FF223900200000F055FA0A9E029DDD
:1054700007E0628D22850020009080239B04D2B239
:10548000F0E72A003100200000F0B3F900284CD1E9
:10549000606A007821688862606A401C60628548A2
:1054A000618D09186185218D08182085618D00297D
:1054B00020D000041ED1009533000022802120005E
:1054C00000F06AF9002830D1608DFF2807D9FF204D
:1054D00020850020009080235B04FF2206E0628D7F
:1054E00022850020009080239B04D2B23900200046
:1054F00000F011FA608D0028C3D131002A0020008D
:1055000000F0A1F901000ED120202268D0612268AC
:105510005368694D1D405560220040325070002094
:10552000002393701070080002D00120FEBD0220FD
:10553000FEBD0000FEB504000F0016001D00403047
:105540004078202800D0B3E00898002803D06846AF
:10555000808C002805D180208000210040314860E7
:10556000A4E04020205C012800D1A1E001204021DE
:105570006054FEF737FE0290009019230122D103F8
:10558000200000F009F90028EAD12B003200222087
:1055900021004031487040202100403188700020B7
:1055A000210040314860089860626846808C6085C0
:1055B00000206063029801900A9800903900200052
:1055C00000F0ACF8002803D00020402160546DE0CA
:1055D0003A48618DFF290CD9FF2121850090802355
:1055E0005B04FF223900200000F095F90A9E029D1D
:1055F00006E0628D2285009080239B04D2B2F1E701
:105600000095330000220421200000F0C5F8002896
:105610004CD12068406A616A0870606A401C606210
:105620002449208D40182085628D51186185618D37
:10563000002920D000041ED10095330000228021D3
:10564000200000F0A9F8002830D1608DFF2807D98C
:10565000FF2020850020009080235B04FF2206E0CD
:10566000628D22850020009080239B04D2B23900F5
:10567000200000F050F9608D0028C1D131002A00CF
:10568000200000F0E0F801000ED120202268D06157
:1056900022685368084D1D4055602200403250700A
:1056A0000020002393701070080002D00120FEBD7E
:1056B0000220FEBDFFFF000000E800FE0024008085
:1056C000F8B5060015001C00079F2B4800908023AA
:1056D0005B04E2B2300000F01EF93A000699300097
:1056E00000F087F8002817D1012C09D0280A31686A
:1056F00088623A000699300000F07BF800280BD150
:10570000EDB2306885620097069B00228021300050
:1057100000F042F8002800D00120F2BDF8B50600E4
:1057200015001C00079F144800900023E2B23000CF
:1057300000F0F1F83A000699300000F05AF800281D
:1057400017D1012C09D0280A316888623A000699DD
:10575000300000F04EF800280BD1EDB230688562C1
:105760000097069B00224021300000F015F8002829
:1057700000D00120F2BD0000002000800068816997
:10578000890701D500218162012182690A4002D185
:105790008269114381617047F8B5002405000F004C
:1057A000684602701E00286880693840B84201D1FE
:1057B000012000E0002069460978884217D10020C6
:1057C000C0438642EFD0FEF70DFD0699401A86428F
:1057D00001D3002EE7D128004030202142680A433F
:1057E000426041700021817004700120F2BD0020F0
:1057F000F2BD70B504000D001600206880698007B6
:105800001FD432002900200000F044F8002801D005
:10581000012070BD0020C0438542EED0FEF7E2FCBF
:10582000801B854201D3002DE7D12000403020218C
:1058300042680A4342604170002100228270017078
:10584000E6E7002070BDF8B5202504000E00170023
:105850002068806928401BD13A003100200000F008
:1058600019F8002807D1FEF7BDFCC01B864204D3FF
:10587000002EEDD101E00120F2BD20004030416852
:105880002943416045700021002282700170F2E7D7
:105890000020F2BDF8B5036810249D69254038D07A
:1058A0005D68AD0103D45D68A6022E435E6005000D
:1058B0000F000092202628688169314011D1002014
:1058C000C0438742F7D0FEF78DFC0099401A87420B
:1058D00001D3002FEFD128004030416831434160AF
:1058E00010E0C4612868C6612800FFF747FF2868F8
:1058F0004168114A0A404260280040304168042251
:105900000A4342604670002100228270017001202B
:10591000F2BD0020F2BDF0B5059C00684568660D3B
:10592000064F3743BD438905890D294312040A43B5
:1059300013431C434460F0BD00E800FEFF63FF0317
:1059400070B5020040325378202B14D14023C35C41
:10595000012B10D00123137024245470046825688F
:105960009D43256004682568164E2E402660046815
:10597000256829431CE0022070BD70B5020040324A
:105980005378202B12D14023C35C012B0ED001236E
:10599000137024245470046825689D4325600468AE
:1059A0002568094E2E400902314301E0022070BDF6
:1059B0002160006801680B430360202050700020C4
:1059C000107070BDFFEFFFFFFFF0FFFF70B5050027
:1059D00001D1012070BD286814490160144901609B
:1059E00069684160A9688160FEF7FCFB0724060036
:1059F0002868C16821400AD0FEF7F4FB801B2B28E1
:105A0000F6D32868C0682040F2D0032070BDE96852
:105A100002698A4201D0016101E00649016000206B
:105A200070BD04490068016000207047CCCC0000C4
:105A300055550000AAAA000030B5002304E05C0020
:105A400005192D880D535B1C9342F8DB30BD38B52A
:105A500005003B4C4E222900200001F0B9FD3948D9
:105A60004E21695A018029004E314A88364B1A80EE
:105A7000CA8842800A8982804A89C2808A890281D2
:105A8000CA894281088A314A10808888FEF7C1FBA2
:105A90006088FF210902884201D1012000E0002036
:105AA000FEF7BDFB2420205CC00601D5002000E0ED
:105AB0000120FEF746FBA08CC10701D5012008E0BC
:105AC000810701D5022004E0400701D5042000E051
:105AD0000820FEF78DFB31BD38B504004E22184971
:105AE00001F076FD4E34174D288820801648008836
:105AF0006080FEF791FBA0806888E080A888208104
:105B0000E88860812889A0816889E08131BDF8B585
:105B100007000E001500002401F09DFD0C480168EF
:105B20000C4A0A40026006E06000325A391801202F
:105B300001F0B4FD641CAC42F6D301F0A3FDF1BD4D
:105B4000640500206C060020800600201200002062
:105B500004200240EFFDFFFF9D2102000AD002D485
:105B6000491E9218FCD5C905100A1206524100D3ED
:105B7000012A48417047000030B405004D40012221
:105B8000D20715404B180418240E25D01B0E2CD01C
:105B9000FF2C31D0FF2B34D0E41A0002090210434D
:105BA000114343084808D10D1B1A02D2641EDB18AA
:105BB0001B18DB18834200D31B1A4941F9D37F34E9
:105BC00023DDFF2C05DAE40548086041284330BC9A
:105BD0007047FF20C005F9E728001B0E03D0FF2BFC
:105BE000F5D14902F3D0D043F1E7FF2C01D14002B7
:105BF000F9D1FF20C005E9E74002F4D1FF2BF8D12D
:105C0000F1E728004902E2D0EDE70B020020244230
:105C1000DCD15B129B1CD9D9D805D7E7F8B5A04CCD
:105C20000821A020C005FEF7A2FCA0701021A02032
:105C3000C005FEF79CFCE0709A4D01212800FEF79C
:105C400096FC607120212800FEF791FCE071220093
:105C50001E32217AA07801F065FDA0702200213269
:105C6000617AE07801F05EFDE07022002732E17A8F
:105C7000607901F057FD607122002D32217BE079BF
:105C800001F050FDE071A0782072E07860726079D8
:105C9000E072E07920730026FF273F02824DE88CF6
:105CA000052807DBFEF7F0FAB84201D100200EE02C
:105CB00001200CE080210901A020C005FEF757FC5F
:105CC000207122002432A17A01F02CFDA0722071F3
:105CD000A078002833D10120FEF79BFAA348078063
:105CE000E673FEF793FA042803D0FEF78FFA08282C
:105CF00011D1FEF73FFA02280DD1FEF799FA9C491F
:105D0000884202D00120FEF773FA012229002431D3
:105D10009848FFF7FCFE6888B8420FD1FEF72AFAD0
:105D200002280BD1E88C022802DA0020FEF777FA6D
:105D30006E800122A91C9048FFF7E9FE2F80E078D1
:105D4000002825D1FEF765FA88490E802E80E6737B
:105D5000FEF75CFA04281BD0FEF758FA082817D083
:105D6000E88C022814DBFEF763FA814988420FD0E1
:105D7000FEF74CFA02280BD0FEF7FCF9022807D1F7
:105D8000FEF736FA0122290024317A48FFF7BFFED8
:105D9000A078002805D0E078002802D00120E07328
:105DA00026742079012806D1FEF742FA704988420C
:105DB0001DD0022019E0FEF729FA082817D0FEF7B7
:105DC00025FA042813D0FEF721FA20280FD0FEF779
:105DD0002FFA674988420AD0E88C022801DA0120AC
:105DE00003E0FEF719FA012801D1FEF701FAA079C4
:105DF000002842D0607C002838D1E07B217C014320
:105E000034D0A6712674FEF713FA594988422AD075
:105E10000120FEF704FA6F80E88C05280ADA0220D8
:105E2000FEF7A2F98D4800688663FEF771F8082036
:105E3000FEF79AF9E88C022807DA0420FEF7D8F971
:105E4000FCF7B2F98649086002E00820FEF7D0F9B5
:105E50000122A91C4848FFF75AFE012229002431DB
:105E60004448FFF754FEA079002806D06069FCF78B
:105E70009FF97C49884200D3A671FEF7CDF900282E
:105E800007D1A079002800D0A671607C012800D13C
:105E90006674E079012800D00020FEF752F9F1BDC8
:105EA000000000200004005064050020F8B56E4F8B
:105EB000A024E40502212000FEF759FB38700421DC
:105EC0002000FEF754FB78703A001832797B38785E
:105ED00001F028FC38703A001B32B97B787801F069
:105EE00021FC787039787973B87300245F4DFF26F0
:105EF000360200291ED1EE83002801D12E84F1BD87
:105F0000E88C02280DDAFEF781F9022809D0FEF7A5
:105F100089F900280FD156484088B0420BD1544827
:105F200006E053484188B14205D13979002902D1B0
:105F3000068000E0EC837878002814D12E8438782D
:105F4000002811D0FEF762F902280DD0484FE88CE6
:105F5000022803DAFEF766F9002805D17888B042F6
:105F600002D13C80F1BD2C84F1BD000080060020F0
:105F70005A5A00002400080802000808F8B5FEF785
:105F800057F93C4988424CD03B4E8025ED01364CB8
:105F9000FEF73CF90428608A0BD1284201D0002288
:105FA00000E0012229003000FEF7E7FAFF2000029E
:105FB00009E0284201D0012200E00022290030003F
:105FC000FEF7DBFA0020294FB8836D00FEF724F9B5
:105FD00000280FD1FEF7CEF802280BD1608A2842A4
:105FE00001D0012200E0002229003000FEF7C5FAAE
:105FF00000207883FEF710F9002805D1A078012849
:106000000FD1E07801280CD1608A284201D000220B
:1060100000E0012229003000FEF7AFFAFF20000265
:106020007883F1BD10B5104C80210901A020C00576
:10603000FEF79DFA2071A072012801D1022009E02B
:106040000A48C08C022801DA012003E0FEF7E4F8D8
:10605000012801D1FEF7CCF810BD0000B8040020E3
:1060600034030020E9030000000000206405002044
:106070006C0600205A5A000000080050F8B5394C50
:1060800039480480394F3C80394D6C84FEF7C4F8A0
:10609000022802D1FF20000268840026FEF7BCF827
:1060A000042800D16E84E88C022823DAFEF7AEF8CB
:1060B00001280DD1FEF7B0F8022803D0FEF7ACF8A6
:1060C000042805D1284806803C800120FEF7A1F86D
:1060D000FEF79CF8012844D1FEF7A4F8012840D12E
:1060E000214806803C800120FEF793F80420FEF74B
:1060F0007FF8F1BDFEF78AF8012807D1FEF78CF88A
:10610000022807D0FEF78EF8012803D0FEF77EF8AC
:10611000082810D1144806803C800120FEF779F849
:10612000FEF774F8082803D0FEF77CF8012802D1A6
:106130000120FEF780F8FEF769F8042803D1FEF786
:106140006BF8022807D0FEF761F8012809D1FEF7A5
:1061500063F8042805D1044806803C800120FEF73E
:1061600058F8F1BDA5A500006C06002080060020AF
:1061700064050020FEB50400002069460870502028
:10618000205C012801D10220FEBD01275021675467
:106190002068032581682940012903D12168096805
:1061A000C9073DD4210050314A68244B13400222D4
:1061B0001A434A60C1680D40C16803229143C1601F
:1061C00020688168802212060A438260FEF70AF87E
:1061D00001902068802636068168314015D0FEF790
:1061E00001F80199401A0B28F3D320688068064013
:1061F000EFD02000503041680222914310220A4320
:106200004260002101700120FEBDC1680D43C560E0
:10621000200050304168022291430F43476007E05D
:1062200020005030416820220A43426068460770CF
:1062300000205021605468460078FEBDFFFEFFFF3D
:106240007047FEE7F8B5554DE88C022813DB0026B1
:10625000534FFEF725F8002800D13E70FDF7D6FF1A
:10626000042808D04F4CFDF7DDFF012804D002D3ED
:10627000032861D01DD3F1BD3878401C38704A4ED8
:10628000E98C052905DBC0B2312851D200F072F843
:1062900003E0E188C0B281424AD3FBF785FF43495E
:1062A0000860FBF781FF30600120FDF7F6FF022058
:1062B0003FE0FDF7C9FF01285BD10020FDF7C1FFDA
:1062C000E98C3878FF263602052926DB312824D2CE
:1062D000288B00280CD1FDF74DFF022808D1FDF7CF
:1062E000B9FF002804D126800320FDF7A4FF0FE0AA
:1062F000288BB0423DD1FDF73DFF022839D1FDF793
:10630000A9FF002835D13878401C387000F032F8E9
:10631000FBF74AFF25490860F1BD891E032907D212
:10632000E188814204D326800320FDF784FFF1BD7C
:106330000320FDF774FFF1BDFDF768FF042814D0BA
:106340000420FDF755FF0122290024311848FFF7EA
:10635000DEFB2680174806800020FDF76CFF00203A
:10636000FDF75DFF0020FDF76CFF3E700020FDF79C
:1063700094FFF1BD0A480078022801DA032009E001
:1063800001D1782006E0032802D19620400001E0E8
:10639000E120C00003490881704700006405002027
:1063A000FE0600206C0600201C03002018030020BD
:1063B0002400080880060020F8B55A4CFDF726FF97
:1063C000022802D0E08C022806DB5748007800281B
:1063D0005AD1E08C022857DB544DA889002853D1AC
:1063E000FDF7C8FE02284FD10127FF263602288874
:1063F000B0420ED1FDF710FF00280AD1E08C022830
:106400000BDBFDF703FF042803D0FDF7FFFE082890
:1064100003D1FDF713FF032837D1288844490988A1
:10642000884203D1FDF70AFF03287AD1208A401C55
:106430002082608A401C6082A682FDF7E7FE012868
:1064400002D10020FDF729FF0120FDF7D1FE022037
:10645000FDF7DFFE0020FDF7E2FE3648FFF73CFBCC
:10646000302234493448FFF752FB288830490880ED
:106470000620FDF779FE31480770FDF7DFFE03289F
:106480004FD10020FDF7D7FEF1BD288800283CD170
:10649000FDF7C2FE012838D1E08C022807DBFDF7AA
:1064A000B5FE042831D0FDF7B1FE08282DD028888C
:1064B0001F490988884234D0208A401C2082A68245
:1064C0000420FDF7A6FE1B4E3000FFF705FB30222F
:1064D00031001948FFF71BFB288815490880082060
:1064E000FDF742FE15480770FDF7A8FE012802D10E
:1064F0000220FDF7A0FEE08C022812DB0220FDF74F
:1065000077FE0020FDF7C9FEF1BD2888B04208D112
:10651000FDF782FE002804D1E08C022801DB002078
:106520002880F1BD64050020040000206C060020D6
:10653000800600200405002000000808110000204B
:106540007FB50600FF240025009501F007F90195AD
:106550000296144800688002134901401348081845
:10656000801BC0090390694601A801F03FF800288C
:1065700000D1002401F017F9200004B070BD0C49CF
:10658000087070470A48007870470A4908807047C9
:106590000848008870470849088070470648008806
:1065A000704700007C00F81F00FCFF03FF1F00087D
:1065B00008070020FA060020FC06002038B5A025B8
:1065C000ED051D4C012808D002280DD004281DD04F
:1065D000082811D020281BD023E000228021280089
:1065E000FDF7CBFF012222E0002280212800FDF7E9
:1065F000C4FF0421200006E0002204212000FDF752
:10660000BCFF80212800FDF7BEFF31BD002200E065
:10661000012204212000FDF7B0FF01228021280083
:1066200007E0002280212800FDF7A7FF00220421B7
:106630002000FDF7A2FF31BD0004005038B5050071
:10664000080011001C00049B032D04D0062D0DD062
:10665000102D0FD011E093221202944202D101F0CA
:1066600045F90AE0220000F0F2F806E0220000F00E
:10667000E9F802E0220000F0B3F85048048031BD90
:10668000F8B504000F00FE31C9B201F0D1F921784C
:10669000012903D0032901D0022916D1E219921E43
:1066A00013781B0252789A1890420ED1012902D118
:1066B0000020FDF7D2FD93263602414D6078032875
:1066C00004D006284CD010280DD0F1BDFDF7B0FD48
:1066D0003C49884202D03948018800E0310020005E
:1066E00000F0C8F8F1BDA0780002E1784018B0428F
:1066F00004D13900200001F055F9F1BD20790002E4
:1067000061794618FDF794FDA84255D0A0780002A3
:10671000E17840189021090288420ED1182E4BD101
:10672000294D3022E11D280000F052FF18222900D7
:106730002648FFF7ECF902203CE09121090288424B
:106740003AD1302E38D1AF4D6022E11D280000F043
:106750003FFF30222900AC48FFF7D9F9012029E09A
:10676000A0780002E178401892210902884223D1E2
:10677000FDF75EFDA84203D1FDF77AFDC8281BDBBB
:106780002079000261794018A84215D110490D8086
:1067900001221048FFF7BBF90F4910480880E1209B
:1067A000C00048800222C048FFF7B1F92800FDF779
:1067B0003CFD0320FDF76BFDF1BD0000E803002068
:1067C000A5A500005A5A0000FC0500200002080898
:1067D000F0060020F8010808A60500200156000078
:1067E00038B504005D00ADB2217010206070100A51
:1067F000A070E270180A20716371912109028A4227
:1068000007D10621200001F013F9010AA171E071FE
:1068100031BDA571842189018A4204D180212000E3
:1068200000F073F903E02900200000F03FF9E91DB2
:10683000C9B2200001F0FCF8010A6219D171611996
:10684000087231BD10B504002170062003E010B5B8
:106850000400217003206070100AA070E270180A12
:10686000207163710621200001F0E2F8010AA17194
:10687000E07110BDF8B50600AA4D802212029142C7
:1068800000D0A9E00122A849341D50003318DB785C
:106890001B02205C1818A54B984201D102200870F9
:1068A000521C062AF1DB0878022800D1FBE0A04C3C
:1068B000A0482100122200F08BFEF0790002317A0C
:1068C0004018FF210902884201D0002800D1A08091
:1068D000A088884209D1E88C022801DAFDF7A2FCE1
:1068E000F078000231794018208071790A02B0797D
:1068F0001318FF200002834201D0511800D1638099
:10690000717A0902B27A89186A465180F17A0902CD
:10691000327B89186A461180717B0902B27B8F181D
:10692000F17B0902327C8918A181717C0902B27C59
:106930008918E181F17C0902327D89182182A189BF
:10694000814214D1E18981420BD17B48FFF7F8FDE8
:10695000BFF34F8F79487A490860BFF34F8F00BF6C
:10696000FDE7218A814202D10120FFF708FEE98C70
:10697000022912DBFF202E30874200D267810429D2
:106980000BDC694649880B2902D269464988E180B7
:1069900069460988814200D221816648418862881F
:1069A00091420FD18188A28891420BD1C188E2889F
:1069B000914207D101892289914203D1408961899D
:1069C000884270D00F4C2000FFF786F8302221005B
:1069D0000D48FFF79CF8F1BDFF242402594A91426B
:1069E00036D1F07800023179401801D0A0420DD1A3
:1069F00028837279082128004630FDF7F5FC002035
:106A0000E882F1BD04050020000008084E498842D4
:106A100001D0A52802D10020FDF72DFCFDF7AAFB2F
:106A20000C2808D1F078000231794018A52802D14D
:106A30000220FDF720FCF078000231794018A521F2
:106A4000090288422FD10120FDF715FCEC82F1BD2F
:106A5000521E91420BD1F078000231794018A042C9
:106A600001D1200000E00020FDF70BFCF1BD8022E9
:106A70009201914206D1F078000231794018FFF777
:106A800084FDF1BD521C914206D1F07800023179AB
:106A90004018FFF780FDF1BD93200002814202D132
:106AA0000520FDF7F4FBF1BD42000808F8B5A8B0D9
:106AB00004000E0082200002824202D14E221949B7
:106AC00001E012221A49684600F082FD350004D028
:106AD0003200694614A800F061FD0020002314AACA
:106AE000694607E0D6187678CE54D65CCF187E700B
:106AF0009B1CDBB2AB42F5DB03E00A5C2318DA71C6
:106B0000401CA842F9DB29B0F0BD30B500220F4B84
:106B100004E09C18E4788518EC71521C8A42F8DB7A
:106B200030BD00006405002094000020FFFF00003D
:106B30006C06002080060020807F00080400FA0513
:106B40000CED00E004810000A5A50000EC0300208E
:106B5000FEB5070000D1A2E0534CE0680C210140D3
:106B6000009180256D02E06828403978C9070CD56E
:106B70000099082903D00C2921D1A8421FD12068EF
:106B8000800302D57868002877D0786A00286CD016
:106B900000990C2970D06E028F49022820685DD1BF
:106BA00001402160FDF71EFB0500206830403BD00E
:106BB000FDF718FB401B0228F7D90320FEBD7868BB
:106BC000A84207D0A021C9028842206806D1A900A6
:106BD000014321602068284320600AE07F4901408A
:106BE000216020682840019001982068794901407F
:106BF0002160786800280BD0FDF7F4FA06002068C1
:106C00008003C2D4FDF7EEFA801B6528F7D3D4E7E2
:106C1000FDF7E8FA060020688003B6D5FDF7E2FA32
:106C2000801B6528F7D3C8E7E06890490140B86A3F
:106C30000843F96A0143386B0843E0602068710833
:106C400001432160FDF7CEFA05002068304028D1CD
:106C5000FDF7C8FA401B0228F7D9AEE701402160D2
:106C6000FDF7C0FA0500206830401AD0FDF7BAFAE7
:106C7000401B0228F7D9A0E7012810D0E0680540A2
:106C8000B96A8D420BD1F02189030140FA6A914221
:106C900005D1C02109040140386B814201D0012097
:106CA000FEBD0020FEBD000000100240F8B5070048
:106CB00036D000910126F6436D480068C107C90F20
:106CC0000098814219D26A48006830400099014317
:106CD00067480160FDF786FA009C0500644800687B
:106CE000C107C90FA14207D0FDF77CFA401B6149DB
:106CF0008842F3D30320F2BD00945F4C38788007BC
:106D000005D5E068F0218843B9680143E16038782F
:106D1000C0071ED57868032804D12168890101D4F1
:106D20000120F2BDE168032291430843E060FDF7D2
:106D300059FA796803290CD10500E0680C2101405B
:106D40000C2906D0FDF74EFA401B4A498842F4D37D
:106D5000D0E7009846490968CA07D20F904217D277
:106D60004348006806400098304341490860FDF7F9
:106D700039FA009D06003E480068C107C90FA942C4
:106D800006D0FDF72FFA801B3A498842F3D3B1E7CA
:106D90003878400705D5E06838490140F86808436D
:106DA000E0603878000706D5E06835490140386969
:106DB000C0000843E06000F013F83249E2681206B0
:106DC000120F895CC840304908603048006800F004
:106DD000A5FAF2BDFFFFFBFFFFFFFFFEFFFFFEFF77
:106DE00050B5254AD16810230C200840042804D04F
:106DF000082809D00C2809D023E01068034001D0EE
:106E0000244850BD244850BD244850BD24488C021D
:106E1000240F005D09028C0F641C0021D668F60364
:106E200001D51E4A03E01268134002D0194A00231C
:106E300000E0194A00F014FE2200002300F029FEB1
:106E400050BD506801210004400F401C8140C80320
:106E500050BD0D48006813490D4A12685205FFE7FE
:106E6000520F895CC840704700000000FFFF02FF1E
:106E7000002002408913000000100240FFF8FFFFCD
:106E8000FFC7FFFF747D0008E4030020E00300203B
:106E90000C10024000093D000024F40000127A00AA
:106EA000847D0008507E00080A490278920705D5C3
:106EB0000A680C239A43836813430B600278120715
:106EC00005D50A68044B1340006918430860002088
:106ED000704700004C100240FFCFFFFF70B5040068
:106EE00001D1012070BD20681E494018142100F016
:106EF00061F9800060641C482064022025216054F0
:106F00002068006819490140A0680843E16801430E
:106F10002069084361690143A0690843E1690143AD
:106F2000206A084321680860A0688021C90188425E
:106F300010D00F481C2102680F23656C1C262E40C0
:106F4000B3409A43026002686368656C29408B40D5
:106F5000134303600020E06301212522A154242172
:106F6000605470BDF8FFFDBF000002400F80FFFFBE
:106F7000A8000240F8B50400002000252426A65DE4
:106F8000012E01D10220F2BD01262427E65502265A
:106F90002527E75D012F1FD12527E655E0632068EF
:106FA00006680127BE430660200000F0D8F820687C
:106FB000216B0029016801D00E2205E004229143D3
:106FC0000160206801680A220A43026020680168A3
:106FD00001220A43026002E02421605402252800B5
:106FE000F2BD30B50100243100222523C35C022B01
:106FF00004D00423C3630A70012030BD03681C68F9
:107000000E25AC431C6003681C680125AC431C6062
:1070100001234424045D1C2525400124AC40056C5B
:107020006C60252403550A70002030BD70B5002225
:10703000002401212523C35C022B03D00422C26358
:10704000012418E003681D680E26B5431D6003681F
:107050001D688D431D604423C35C1C251D40012316
:10706000AB40056C6B602523C15424214254816BD5
:10707000002900D08847200070BDFEB5016C09686A
:10708000029101680A6801924422825C1C23134029
:107090006A46137004232022029C6D462D78042634
:1070A000AE40264014D0019C1C4011D00C682240F8
:1070B00002D10A689A430A604421415C1C220A40BA
:1070C0009340016C4B60016B002947D08847F7BDA6
:1070D000012302240025029EB4466E46367802271C
:1070E000B7406646374019D0019E264016D00E683C
:1070F000324005D10A680A26B2430A60252143546A
:107100004421415C1C220A409440016C4C602421C3
:107110004554C16A002921D08847F7BD082264463A
:107120006E4636780827B740274017D0019C22408A
:1071300014D00A680E24A2430A604421415C1C2238
:107140000A4001219140026C5160C36325214354E0
:1071500024214554416B002900D08847F7BD70B504
:1071600001244425455D1C262E40B440056C6C600E
:10717000046863608068102802D1A260E16070BD7D
:10718000A160E26070BD704770477047CA0F00D0C1
:10719000494203105A400DD004B500D3404200F0DC
:1071A00009F8009AD20701D34942124200D5404261
:1071B00004BD0000094214D088420FD30122030C01
:1071C00001D100041204002300185B418B4200D35C
:1071D0005B1A5241F8D319001000704701000020DB
:1071E000704708B500F094FC08BD03000A00981829
:1071F000802109065A400A4003D143400B4000D089
:107200000800704703000A00981A802109065A40B6
:107210000A4003D043400B4000D00800704710B52F
:107220000A00C117D31700F01BFCCA1300290DDA9E
:10723000D3430DD10022401E9141020C0C04224385
:107240000004C017C107C90F501810BD002AF4D0A0
:107250008020000610BDF2B584B080252D060029DF
:1072600059D003900746002F00D57F420E46002ECE
:1072700000D57642002411200290300D000510D078
:107280003800710C491CFFF795FF0400002100979E
:1072900001913200002300F0E3FB400CCA031043CD
:1072A0003F1A112001E03609001F310701D10428DF
:1072B000F9DA002F24D0002822D400212A0001E08E
:1072C000491C52081742FBD0C9B2884200DC0100B9
:1072D0008F40401A029038003100FFF76BFF010029
:1072E000029A904024180020C043D040814312D11C
:1072F00038003100FFF75EFF4F000298401ED8E7CC
:10730000641C60080399049A4A40154001D0414228
:10731000080005B0F0BD2800FBE7FEE738B5050022
:107320000D4CFA2080002178FFF744FF01000B4844
:107330000068FFF73FFFFDF773F900280AD1042D1D
:1073400008D2002229000020C043FDF75CF9A560A7
:10735000002032BD012032BDD8030020E40300200C
:10736000FEE7FEE77047704738B54D480178491C85
:1073700001224C4B1A704C4B4C4CCDB2022D0CD010
:10738000042D0AD0052D06D0062D06D0082D04D0D8
:107390000A2D04D008E01A7006E0227004E0227082
:1073A0001A7043490A700021017000F0B3FB31BD2F
:1073B00080B50120FDF7EFF80220FDF7ECF801BDE4
:1073C00080B50820FDF7E7F801BD80B51020FDF776
:1073D000E2F82020FDF7DFF801BD80B53548FFF762
:1073E0004CFE01BD80B53448FDF765FA01BD80B59E
:1073F0003248FCF741F801BDF8B50100304F314E7D
:10740000A022D2050124304801293BD002292CD0EA
:10741000082904D0102919D0202939D0F1BD2B4DCD
:107420001000FDF7A4F8287000280AD1FF20000200
:10743000388027490880FCF79DFE022803D034706D
:1074400001E0244804702878234926E01000FDF765
:107450008EF8010005D102213170002139801C4ACB
:1074600011801E4908701E4917E01E4DFDF77FF878
:107470002870002812D11C480470FAF795FE1B49A9
:107480000860F1BD1A4CFDF772F82070194904E04C
:10749000194CFDF76CF8207018490870F1BD000018
:1074A0008D000020900000208F0000208504002027
:1074B0008E000020B405002030000020380200209B
:1074C00080060020970600200004005002000020E3
:1074D0006C0600201000002008000020030000209F
:1074E00009000020FF0600200600002014000020F4
:1074F000050000200B000020070000200C000020E9
:107500007047704770477047704710B50400080017
:10751000110002002000FCF767FF200010BDFEE70D
:107520001B490A68E0239A43036813430B60194917
:10753000194A4B6813404B600B6813400B60CB68D3
:107540001340CB608B681A408A60802252024368E5
:10755000134002D00B6813430B6043689B0302D5B2
:107560004B6813434B600379DB0702D58B681343E9
:107570008B600079800702D5C8680243CA607047F3
:107580000348FFE7016810220A43026070470000C9
:107590000070004000040140FFFFFEFF70B4103A8D
:1075A00003D378C9103A78C0FBD2530701D318C966
:1075B00018C001D508C908C0D20704D30B880380BE
:1075C000891C801C002A01D50B78037070BC7047A1
:1075D0008B0701D18307E1D0124205D00B78491CFB
:1075E0000370401C521EF9D17047FEE7FEB507003C
:1075F0000E00234C207C012801D10220FEBD012079
:1076000020742448009000F0DAF8010020D1002115
:10761000C94331607968204D01960E0000E0803644
:10762000B968C9017A6889188E4211D2300000F019
:107630005DF8009800F0C3F829680822914329609A
:107640002968294A0A402A600100E8D001990E60A1
:1076500000212174FEBD01200F490A6802400DD0AF
:10766000EFF3108272B62C4B8B602C4B8B6082F345
:1076700010880968084001D0012070470020704739
:10768000540600202648016801220A4302600020B7
:107690007047000050C3000004200240F7B504000A
:1076A0001C4D287C012801D10220FEBD0120287438
:1076B000174F380000F083F80026010011D101991E
:1076C0006E61029A022C01D10A600AE0012C01D1FC
:1076D0000A8006E0002C01D10A7002E0380000F0B8
:1076E0006EF82E74FEBD0000FFFDFFFF10B50021F7
:1076F000084A51610A4A1368540D1C431460136808
:1077000008241C4314607F229043016010BD0000D8
:1077100050C3000054060020EFCDAB8905040302DE
:107720000420024020B5030015786D1C0120012BB8
:1077300008D1002904D115709378E9B2994209D192
:10774000002508E0012904D115705378E9B2994267
:1077500001D100250020157020BDFEE7012133482E
:1077600002680A400BD0EFF3108272B6594B836067
:10777000594B836082F31088026811400FD10222B6
:10778000016811400DD0EFF3108172B6534BC36006
:10779000534BC36081F310880068024001D0012080
:1077A0007047002070472148016802220A430260A6
:1077B00001680122FFE70A4302600020704770B5AC
:1077C0000500FCF70FFD0600474C2068C0070CD5EC
:1077D0000020C0438542F8D0002D04D0FCF702FD04
:1077E000801B8542F1D2032070BD02202168014038
:1077F00000D020602068C00511D4206880050ED418
:10780000206840050BD42068000508D42068800457
:1078100005D42068800302D42068C00303D500F09B
:1078200007F8012070BD002070BD00000420024058
:1078300030B500222B4880235B002B490C681C408C
:1078400004D042690224144344611A004B0D0C68B1
:107850001C4006D0446901252543456114001A00E7
:1078600022430B0D0C681C4006D0446908252543B3
:10787000456114001A002243CB0C0C681C4006D052
:10788000446904252543456114001A0022439B00E6
:107890000C681C4006D0446910252543456114003E
:1078A0001A0022430B689B0306D5202344691C431E
:1078B000446114002022224380235B020C681C4098
:1078C00006D0446940252543456110001A00024353
:1078D0000A6030BDEFCDAB8905040302BFAE9D8CBD
:1078E00016151413540600201820024070B5040029
:1078F0000D005E000421FCF775FD2570032060700B
:10790000A670FCF783FC002808D0FCF77FFC012858
:1079100004D0FCF77BFC042801D1022020713F4DEC
:10792000802109022800FCF722FEA0718021C901F4
:107930002800FCF71CFE2072A025ED05022128007E
:10794000FCF715FEA07204212800FCF710FE20733E
:1079500008212800FCF70BFEA07310212800FCF77B
:1079600006FE2074802109012800FCF700FEA074A7
:1079700002212B48FCF7FBFD2075FCF72EFA010ACB
:107980006175A075274801680904090EE175006852
:107990002076F61CF1B2200000F04AF8010A617668
:1079A000A07670BD38B50400FCF742FC1E49884241
:1079B00032D0E0790002217A401804D0012802D0A8
:1079C000022802D10420FCF713FC144D8021090287
:1079D000607A0002A27A801801D1002200E0012220
:1079E0002800FCF7CAFD8021C901E07A0002227B51
:1079F000801801D1002200E001222800FCF7BDFD23
:107A0000E07E0002217F401801D10D2000E00E2011
:107A100006490870FCF77CFA31BD000000080050F0
:107A200000040050FC040020A5A5000095060020DD
:107A300030B5FF23FF24094A08E005785D40401C6B
:107A4000535D6340541980256D00645D0D00691E0F
:107A50002D06F2D11802204380B230BD287B0008E9
:107A600030B4434351435D18010C0C00130C5C43CC
:107A70002D1980B2434392B251430024C918644186
:107A800024040B04090C09195043C018694130BC87
:107A9000704712422DD0994231D970B500251B4252
:107AA00009D00C00002112E01100FFF783FB0A004F
:107AB0000021002370BD0942F6D000240126491898
:107AC0006441944200D3A41A7641F8D331000126D0
:107AD00001E0764109D2001864416D41A41A9D412C
