:020000040800F2
:10000000000B002099710008016B0008056B0008C7
:1000100000000000000000000000000000000000E0
:10002000000000000000000000000000096B000854
:1000300000000000000000000B6B00080D6B0008C2
:10004000EF7F0008F17F0008F77F0008FB7F0008C2
:10005000FF7F00086D6B00087D6B0008876B000850
:1000600000000000976B000857710008E17100085C
:10007000A16B0008E371000800000000E5710008B2
:100080000000000000000000000000000000000070
:10009000E771000800000000E9710008EB7100083A
:1000A00000000000ED7100080000000000000000EA
:1000B000AB6B0008EF7100080000000000000000BA
:1000C000524909684843704710B504004F4800681A
:1000D00001F0ECF9210001F0F4F9002101F04AFAF5
:1000E00002D8FC21890501E0BF21090601F056FA7A
:1000F00001F0E4FA10BD10B5454C0122210001F0D9
:1001000046FB00280ED143482178434A0388D15446
:100110000188491C018001204049088000F0DAF97B
:100120003F49086010BD80B500203E4908603E4848
:100130003E49096881613E490968C161C049096851
:100140000162012102F06BF801BD10B5394C02F0DB
:10015000FDF8208002F023FB012813D136482188C6
:100160000288914205D321880088081A3349088003
:100170001BE0B42149000088081A218840182F4943
:10018000088012E02C4801882288914205D300881B
:100190002188401A2949088007E00088B4214900D5
:1001A00040182188401A2549088024480188FF22E8
:1001B0006A32914204DB0188B4225200891A01801C
:1001C000A04902888B8D9A4206D3B4225200898DB1
:1001D000511A0288914201DA0021018010BD10B548
:1001E000012002F0F9FA0024154800688463200019
:1001F0001449087002F0AAF80F49088020000F493E
:10020000088091480470FFF78EFF10BDD871000878
:10021000DB060020B6060020C0010020B806002042
:10022000700600205006002084050020A40600204F
:10023000A8060020BA060020BC060020BE0600204A
:1002400014050020E5060020F8B584B00024200045
:1002500020000120694608807C4E039630216A46C2
:1002600051807B4902911727764D01952100794AEB
:1002700011702100784A11702100D74A11702100B5
:10028000764A11702100764A117076490C6021007F
:10029000754A117075490C602100754A1170210072
:1002A000744A11802100744A11802100734A117030
:1002B0002100734A11700100724A11700100724AE4
:1002C00011700100714A11702100714A11702100F2
:1002D000704A11702100704A117021006F4A11702C
:1002E00002F061FB6846028803996D4802F0AAFAA1
:1002F00030886C49884219D16846428802996A4818
:1003000002F0A0FA029802F0B2FA3A0092B2019911
:10031000664802F097FA6648664942228152664969
:10032000442281525F4802F084FB08E0634802F0F7
:1003300080FB3A0092B201995C4802F083FA604E69
:10034000288C01F0A3F8310002F0D2FBFFF7BCFECD
:100350005C490860688C01F099F8310002F0C8FB34
:10036000FFF7B2FE58490860354FA88C01F08EF8AF
:10037000310002F0BDFBFFF7A7FE3860534851493A
:100380000968816150490968C16139680162288A38
:10039000FFF796FE4E490860688AFFF791FEAB4969
:1003A0000860688BFFF78CFEA9490860A88BFFF7EF
:1003B00087FEA8490860E88BFFF782FEA64908601F
:1003C000A88AFFF77DFEA5490860A5480460E88A71
:1003D000FFF776FEA3490860288BFFF771FEA2495C
:1003E0000860288D01F052F8310002F081FBFFF720
:1003F0006BFE0700E88C01F049F8310002F078FB51
:10040000FFF762FE390002F020FC688D9749087002
:10041000200097490870002002F0DEF902F036F85B
:100420009448046002F092FE02E002F031FC641C89
:100430002000C0B20F28F8DB02F0C8FE05B0F0BD06
:10044000AC06002054050020EC060020B406002075
:1004500074030020DD060020DE060020E0060020F8
:10046000DC0600205C060020E1060020600600207B
:10047000E2060020BC060020BE060020CF060020B9
:10048000D0060020D1060020D2060020D30600208E
:10049000D4060020D5060020D8060020DA06002069
:1004A000F8010808A5A500000000080800020808D7
:1004B0003004002001560000040700005A5A0000D2
:1004C0000000C842A4060020A806002084050020E1
:1004D0008406002080B502F045FF02BD10B504007F
:1004E00002F040FF001B10BD38B5002528003A4936
:1004F0000870614C2078012813D102F091FA02288B
:1005000003D002F08DFA01280BD1544800685449F9
:100510000860032002F060F90120584908702800A3
:100520002070564C2078012850D102F058F9032849
:1005300003D002F054F9052840D101F089FEFFF7FD
:1005400004FE02F04CF9032823D14D484088494964
:100550000968884232D2042002F03EF94948006816
:10056000856301F0F3FE4849088048480580FFF79D
:10057000B1FF47490860FFF7D6FD02F010F90028E7
:1005800003D1012002F01AF918E0002002F016F958
:1005900014E03B4D2889012809D13D480068FFF748
:1005A0009DFF6989814209D2FFF719FE06E03748AD
:1005B0000088A989884201D3FFF711FE02F0EEFE00
:1005C0003448006802F0FDFA2A49086020780228C1
:1005D0003BD1314802E000BFDF060020007802284E
:1005E00033D102F0FCF8032803D002F0F8F8052814
:1005F00023D101F02DFEFFF7A8FD02F0F0F803284B
:1006000002D1052002F0E8F802F0E9F8052814D13B
:100610001B4C2089012809D11D480068FFF75EFFA7
:100620006189814209D2FFF7DAFD06E017480088A8
:10063000E189884201D3FFF7D2FD02F0AFFE1548F1
:10064000006802F0BEFA0B49086031BD8806002040
:100650008C060020900600209406002098060020BA
:10066000500600209C060020A0060020E306002083
:10067000E40600204C060020EA060020E5060020E3
:100680005405002014050020BC060020BE060020F2
:100690007806002040060020EC060020F8B5002572
:1006A00002F09CFE00F08CFC00F016FE00F0F3FD62
:1006B00000F0D8FC00F0C8FD00F068FD00F028FD57
:1006C00000F04DFDFFF7C0FD01F018FE0020B94914
:1006D000096888630421B74802F0E2FEB64C0021A5
:1006E000200003F023F9002801D000F0CBFE032204
:1006F000B249200003F096FA002801D000F0C2FEB3
:100700000121AF4801F08BFD0122AE49AE4801F056
:100710003EF8FFF7DFFEAD490860FFF7DBFEAC49AE
:100720000860FFF7D7FEAB490860FFF7D3FEAA4980
:100730000860002427E0012002F087F9A74800683C
:10074000FFF7CCFE79894E43864206D202F0B2F919
:10075000012802D1002002F0AAF9A148C08C022889
:1007600011DA02F063F901280DD19E4E3068FFF7CF
:10077000B5FEFA214901884202D23068002802D130
:10078000002002F050F901218F4807F0FBFB96484A
:100790000078012805D102F022F8032801DBFFF7D9
:1007A000A3FE92480178012900D0E7E0002631003D
:1007B000017002F014F8062810D102F0EFFD8C4809
:1007C000006802F0FEF9CE49086001F041FDCD4F0E
:1007D00001F0BCFD388038888649088001F0FFFFB1
:1007E000072832D102F0DAFDC54F8148006802F0D7
:1007F000E8F9386001F02CFDCF480088396888425C
:1008000023D2042001F0E8FF6A480068866301F003
:100810009DFD784908803000774908800220C7494B
:100820000870012075490870FFF754FE744908608C
:10083000FFF779FC01F0B3FF002803D1012001F09C
:10084000BDFF02E0002001F0B9FF654FF88C0528DC
:100850004DDB01F0C4FF092822D102F09FFD64485E
:10086000006802F0AEF9A649086001F0F1FC02F060
:100870000FF9012803D0280080B233280FDB0A20AB
:1008800001F0AAFF4B4800688663FFF74CFCADB24D
:10089000332D02DBFF2000023883350000E06D1CA1
:1008A00001F09DFF0B2822D102F078FD504800682E
:1008B00002F087F99249086001F0CAFC02F0E8F8FA
:1008C000022803D0280080B233280FDB022001F079
:1008D00083FF384800688663002002F0BCF80120DE
:1008E00002F0B3F8FFF71FFC350000E06D1C01F0CB
:1008F00076FF0C2838D102F051FD3D48006802F027
:1009000060F97F49086001F0A3FCC1480078012824
:100910002AD1C04F3868FFF7E1FD8749C988814275
:1009200022D23000BA4908703E60042001F054FF22
:1009300020480068866301F009FD2E4908802E4892
:10094000068002207D49087001202C490870FFF7BD
:10095000EAFB01F024FF002803D1012001F02EFF63
:1009600002E0002001F02AFF01F0BCFD02F090F946
:1009700002F00AFB03F048FB02F07AFB2148017801
:10098000012900D0BAE000263100017001F027FFF4
:1009900002285BD1340001F05BFC9F4801780129FB
:1009A00054D131000170184F3900184801F0F4FC9F
:1009B00034003AE014050020D40300201006002083
:1009C00084050020DB060020F002002064060020E1
:1009D000680600206C0600207006002058060020E3
:1009E000300400207C060020DF060020DE06002008
:1009F00040060020BC060020BE060020EC060020B9
:100A000078060020DD060020F805002030000020D8
:100A1000BC4831002200D2B2920081523100220043
:100A2000D2B2920080184180641C2000C0B26428B9
:100A3000EEDBB5483988C18079884181B988018168
:100A4000F9888180398981817989C18101F0C7FE66
:100A50000D2803D001F0C3FE0E2801D101F0F8FBF0
:100A600001F0BDFE06281DD134480078002819D1B8
:100A7000CF480078002815D0012067490870A148A8
:100A8000204909882200D2B2920081521C4909688B
:100A90002200D2B29200801841802000C0B26428A7
:100AA00000DA641CC3480078012822D1C2480068DB
:100AB000FFF714FD2049898881421AD2C84F38783F
:100AC000401C38703000BB4908705148017800293B
:100AD00005D101210170FFF7FDFC4E4908600C2093
:100AE00001F07AFE3878042803DB202001F07CFF37
:100AF0003E7003F083FBBB4803F089FCBA4E03E071
:100B00004C060020BA0600203068FFF7E7FCFB28FF
:100B10000BD303F0AAFC002804D101F07BFFC0B284
:100B200003F0BEFCFFF7D6FC30607748C08C052888
:100B300048DBAE4F04E000BF54050020E50600206E
:100B40003868FFF7CBFC06281ED301F087FF012889
:100B50001AD1A74E05200090A64B03223100032096
:100B600003F0FEFCA4480821018002883100A3485C
:100B700000F0C2FDFFF7AEFC386001F030FE022845
:100B800002D1082001F028FE9D4E3068FFF7A6FC38
:100B9000DD2817D301F062FF002813D1944F012004
:100BA0000090D24B03223900032003F0D9FC924875
:100BB0000821018002883900904800F09DFDFFF770
:100BC00089FC3060CA4E3068FFF788FC292800D2C3
:100BD0003AE101F031FFC749884200D034E101F029
:100BE00063FF002800D02FE101F04CFFC82800DB94
:100BF0002AE101F033FF002800D025E103F035FCA5
:100C0000002800D1C1E000220421BB4806E000BF5B
:100C1000E206002060060020E406002004F047F908
:100C20008021A020C00504F04CF903F01EFC01282F
:100C30000ED101200090B14B03226D49062003F034
:100C40008FFC08206C490880022003F00BFCEAE0CE
:100C500003F00BFC02280FD10120009080239B01A0
:100C600001226349032003F07BFC082062490880CD
:100C7000032003F0F7FBD6E003F0F7FB032812D1C3
:100C8000CC4F38880090CC4B01225949062003F004
:100C900067FC0820584908803888401C38800420A8
:100CA00003F0E0FBBFE003F0E0FB04280FD140209D
:100CB000009084239B0101224D49032003F050FC46
:100CC00008204D490880052003F0CCFBABE003F081
:100CD000CCFB05281ED14020009084239B010322D9
:100CE0004349102003F03CFC89204349088003F06D
:100CF000C2FBB0490988814208D2032003F0B2FB4D
:100D000091E000BF3000002030040020062003F0F6
:100D1000A9FB88E003F0A9FB06280ED10120009072
:100D2000A64B03223249032003F01AFC0820324963
:100D30000880072003F096FB75E003F096FB072878
:100D40000ED1022000906D4B03222949062003F0AA
:100D500007FC082028490880082003F083FB62E094
:100D600003F083FB08285ED103F08BFB80B2009078
:100D7000924B01221E49062003F0F2FB08201E4977
:100D80000880002003F06EFB4DE0B5480178002993
:100D900014D1012101700920009080231B0201223F
:100DA0001349032003F0DCFB0820134908803AE0D4
:100DB000D8060020E10600205C0600200178012909
:100DC00020D1002101702720009082231B020122E4
:100DD0000749102003F0C4FB57200749088022E090
:100DE000DA060020E80500206406002074060020D2
:100DF000580200200481000024000020F00200209E
:100E000068060020017802290DD100210170092017
:100E1000009080231B020122BA49102003F0A0FB9E
:100E20001B20B9490880B8480288B649B74800F085
:100E300063FC01F027FE002802D0022001F011FE21
:100E4000FFF748FB306074E001F02EFE032818D154
:100E5000AC4F2848009092231B0202223900062042
:100E600003F07EFB002001F01CFEA7480821018052
:100E700002883900A54800F03FFCFFF72BFB3060EB
:100E800057E001F011FE022815D19E4E1720009068
:100E900090231B0202223100102003F061FB00208E
:100EA00001F0FFFD98480821018002883100974831
:100EB00000F022FC3DE001F0F7FD012820D1914E29
:100EC0003020009091231B0202223100102003F0F9
:100ED00047FB002001F0E5FD8B48082101800288D6
:100EE00031008A4800F008FC23E000BF03810000C5
:100EF0006C060020A5A5000000040050028100003F
:100F000001F0D2FD052814D17E4E0B2000909323D2
:100F10001B0202223100032003F022FB002001F01B
:100F2000C0FD79481B21018002883100774800F01C
:100F3000E3FB93480068FFF7D1FA03281BD3914FD6
:100F400091480078398880B2884214D2BA48008823
:100F5000012810D1B94E3988300003F034FB00204D
:100F60000100B54A11800100398096210090009A55
:100F7000300007F009F8B2480068FFF7AFFAFA2628
:100F8000B600B04F39897143814201D3FFF7D6FBD8
:100F900001F040FD082801D0FFF7D0FBC748C08C06
:100FA000052801DAFFF7C7FB012001F054FDFFF728
:100FB000C5FB0000C0060020022000000120000048
:100FC00038B598B03421002422000BAD280006F07B
:100FD000DBFF142122006D46280006F0D5FF182102
:100FE000220005AD280006F0CFFFB5480168B54ADC
:100FF0000A40802109011143016001200B90A020CB
:10100000C0020C9002201490802040021590C02055
:10101000000316908020C00317900BA803F076FF02
:10102000002801D000F02EFA0F200090032001903C
:101030000294039404940121684604F039F80028CE
:1010400001D000F01FFA0A2005900794099405A822
:1010500004F050F9002801D000F014FA19B030BDA6
:10106000E60600207CB5082100252A006C462000F9
:1010700006F08AFF944C95482060E56380200006C6
:101080006060A5600620A06301202061E56001008A
:101090002022A15429002122A154A562FF21C2319E
:1010A00061622C21605404206061802676012663F1
:1010B000A5616563E561200002F0A2FC002801D073
:1010C00000F0E0F98248009001966946200002F0A5
:1010D00080FE002801D000F0D5F97E4800906946D6
:1010E000200002F076FE002801D000F0CBF9D548B0
:1010F00000906946200002F06CFE002801D000F04C
:10110000C1F973BD5802002024000020F002002025
:1011100010B5CD4CCD482060CD4860600020A06067
:101120000121E16020616061A061E0612062200036
:1011300004F0FCF8002801D000F0A4F90021200000
:1011400004F084FC002801D000F09CF9002120006C
:1011500004F0AEFC002801D000F094F910BD80B579
:10116000BC48BD49016003214160BC49C160816048
:1011700003F018F9002801D000F084F901BD000047
:1011800070060020B6060020F071000870B58AB025
:10119000102529000024220006AE300006F0F4FEDF
:1011A000082122006E46300006F0EEFE29002200E3
:1011B00002AD280006F0E8FEA94D8020C005286099
:1011C0006C60AC60A748E8602C616C61280002F09C
:1011D0001BF9002801D000F055F98020400106904D
:1011E00006A9280002F036FA002801D000F04AF9DA
:1011F000280002F02FF9002801D000F043F90094F4
:1012000001946946280004F087FC002801D000F012
:1012100039F960200290039404940594042202A9F1
:10122000280002F097F9002801D000F02BF92800DF
:1012300004F044FD0AB070BDB8060020C0010020D3
:1012400054060020C005002080B58748874901600A
:10125000E121490241608021490181600022C26090
:101260008023DB0003610C2343618261C26102625F
:101270003822426280221202426381638021890106
:10128000C16300230022002104F094FD002801D056
:1012900000F0F8F801BD80B5012075490A680243E5
:1012A0000A60096808400090009800220121092086
:1012B00004F02BFE092004F02DFE01BD30040020B7
:1012C00000700040FFE7FFFFD4030020002401402E
:1012D0002000001440000018F8B586B01421002446
:1012E00022006D46280006F04FFE04276148016881
:1012F000394301600168394005910599012501686C
:10130000294301600168294005910599022102687D
:101310000A4302600068014005910598564E00227C
:1013200080210902300003F0C2FD01228021C901A1
:10133000300003F0BCFD00225049A020C00503F09E
:10134000B6FD002204214E4803F0B1FDC02000028A
:1013500000900195029403946946300003F0BAFCB2
:1013600006200090019402946946A020C00503F075
:10137000B1FC10200090C426B60301960294694681
:10138000A020C00503F0A6FC08200090019602945E
:101390006946A020C00503F09DFCC02040000090DD
:1013A0000195029403946946A020C00503F092FCC5
:1013B000032000908426B6030196029469463048C3
:1013C00003F088FC009701950294039469462C4829
:1013D00003F080FC80200001009001940294694693
:1013E000A020C00503F076FC80200002009001954B
:1013F000029403956946A020C00503F06BFC2020F1
:1014000000900196029469461D4803F063FC002297
:101410000021052004F079FD052004F07BFD002269
:101420000021062004F071FD062004F073FD002267
:101430000021072004F069FD072004F06BFD07B0D0
:10144000F0BD00000000044880040020005400406B
:10145000BB7C7000E805002000300040FF0F00005A
:1014600014050020FF030000F002002000440040AB
:10147000301002402C100240000800508081000013
:101480000004005000B572B6FEE708009D2102007E
:101490000AD002D4491E9218FCD5C905100A1206BA
:1014A000524100D3012A4841704700009D210200AB
:1014B000EED55242F446FFF7EBFF0122D20710436C
:1014C000604730B405004D400122D20715404B184B
:1014D0000418240E2ED01B0E32D0FF2C34D0FF2B3C
:1014E0003AD0E4180002090210431143000A090A25
:1014F0009446C2B24A43000AC3B24B43000A48436F
:10150000110A5B181A43D2B2190A091801D44918F2
:10151000641E080A7F3C23DBFE2C08DAE40509067A
:101520001143634699416041284330BC7047FF2016
:10153000C005F9E728001B0EFF2BF6D1D043F4E7D6
:101540002800FF2CF1D1F9E74002F7D1FF2B01D1A0
:101550004902F3D1E005E7E7D8054902E4D0EDE719
:1015600043020020641CDFD15B129B1CDCD9D80530
:10157000DAE708000CB4012212060318DA4207D891
:101580004B18DA4204D802000A43921802D2814270
:101590000CBC7047FCD088420CBC70470122D207BB
:1015A00003004B402ED4431A01D2C01AC91830B4DC
:1015B0004B180418240E1B0E22D0FF2C20D0E31A47
:1015C000182B1DDC09021143C40D641E00021043D8
:1015D00094461925ED1A0A00AA40D940451801D3AE
:1015E0006D08A41CE405D209280A2D062A43654685
:1015F000AA41604103181B0EFF2B01D3C00DC0058B
:1016000030BC7047514006E05140CCE70122D20780
:1016100003004B40F8D4431A03D2C01AC9185040F3
:10162000514030B44B18090211430418240E1B0E0C
:1016300040D0FF2C3AD025009D410BD31ED8C50DBC
:101640004002401A0BD3ED050100400AC905914143
:101650006841D5E7C50D40024918401AD0D0012194
:101660004008491C0018FCD58C4204D36D1A000AAE
:10167000ED054019C4E7E8051040C1E7182DBFDCAF
:10168000AC1C0D00E140E5414D40012D4941C40D28
:1016900000021043451A01D46D199543641EE405F8
:1016A000280A2D069541604130BC7047FF2BA7D119
:1016B000D843A5E72442A3D10020A1E70122D20705
:1016C0000118090E7F3910D449421F310FD4001878
:1016D00005D2C0011043C84000D5D0437047C001B7
:1016E0001043C84005D44042704700207047004274
:1016F000F3D510007047080030B5836F202B44D11C
:10170000002903D013009BB2002B01D101203DE042
:1017100080235B0184689C4207D10469002C04D1BA
:101720000C00E40701D5012030E07424045D012C95
:1017300001D102202AE0012474254455C1645021BE
:101740004252522142520021816680228150212240
:10175000826782689A4205D10269002A02D12C4A26
:10176000826601E02B4A826674228154EFF3108175
:10177000012282F3108802681268802313430068F4
:10178000036081F31088002000E0022030BD38B5EE
:10179000C36F202B39D1002903D013009BB2002B3B
:1017A00001D1012032E0836880246401A34207D183
:1017B0000369002B04D10B00DB0701D5012025E0D4
:1017C0007423C35C012B01D102201FE00123742488
:1017D00003550023036603680F4CA34211D003682E
:1017E0005B681B020DD5EFF31083012484F310888E
:1017F000046824688025ED0425430468256083F38C
:10180000108892B200F002FB00E0022032BD00001E
:10181000E91F0008891F00080048004070B5040057
:101820002068C0692168096822689268BE4B03403D
:10183000002B0CD12025284209D00D40002D06D0C8
:10184000606E002802D02000616E88476BE1002B9B
:1018500000D19BE001231A4204D1B44D0D40002D6C
:1018600000D193E00500ED0708D5CD0506D5256824
:101870002B62802565592B43802563510223184232
:101880000AD01500ED0707D525682B62802565591C
:1018900004262E43802566510425284209D01600CF
:1018A000F60706D526683562802565592B438025C5
:1018B0006351082318420AD08D0601D4D20706D5F9
:1018C000226813628022A25813438022A3508022F0
:1018D0001201104209D04B0107D523681A628022F9
:1018E000A258202313438022A3508022A258002A0A
:1018F0004BD020221040002808D00A40002A05D0F2
:10190000606E002802D02000616E88478020205839
:101910004025216889682940002903D128210140F8
:1019200000292CD0200000F0E9FA206880680540EA
:10193000002D20D0EFF31080012181F31088216861
:101940008968402291432268916080F31088206F5B
:1019500000280CD07648216F8863206F04F0A8FB24
:10196000002812D0206F216F896B88470DE020007E
:1019700006F032FB09E0200006F02EFB05E0200017
:1019800006F02AFB002080216050CCE0236E012B62
:1019900000D0A4E01023184200D1A0E0194200D1E9
:1019A0009DE02068036220688068400659D5206F5A
:1019B00000684068010089B2002951D00100582216
:1019C000A25A89B291424BD25A2160522020216FF3
:1019D000096809680140002939D1EFF3108101221B
:1019E00082F3108822681268524B134022681360F9
:1019F00081F31088EFF31081012282F310882268AE
:101A0000926801239A4323689A6081F31088EFF368
:101A10001081012282F310882268926840239A4341
:101A200023689A6081F31088E06700202066EFF356
:101A30001080012181F310882168096810229143E8
:101A40002268116080F31088206F04F008FB582092
:101A5000205A5A21615A411A89B2200006F092FA9E
:101A600061E05820205A5A21615A411A5A20205ABE
:101A7000002833D0080080B200282FD0EFF3108068
:101A8000012282F31088226812682B4B13402268CF
:101A9000136080F31088EFF31080012282F3108826
:101AA0002268926801239A4323689A6080F3108821
:101AB0002020E067002020666066EFF3108001229E
:101AC00082F310882268126810239A4323681A60F0
:101AD00080F3108889B2200006F054FA23E08023B6
:101AE0005B03184207D0520205D52068036220002C
:101AF00006F073FA17E08022104209D00A40002A4B
:101B000006D0A06E002802D02000A16E88470AE00F
:101B100040221040002806D00A40002A03D02000AE
:101B200000F094FAFFE770BD0F08000020010004E8
:101B3000751F0008FFFEFFFFDFFEFFFF70B504000A
:101B400000252E00204821688142FFD0A16822692B
:101B50000A4363691343E169194322681268A64B7B
:101B6000134019432268116021684968A34A0A405A
:101B7000E168114322685160A1692268824202D063
:101B80000800216A0143206880689D4A0240114391
:101B90002068816003F081FB00280FD0616849084C
:101BA0004018616804F04FFB80B201001039954A7B
:101BB000914202D22168C86000E001266566A566F0
:101BC0003000C0B270BD00000048004000B52421C4
:101BD000415CC90707D5016849688B4A0A40816A98
:101BE0001143026851602421415C890707D50168CF
:101BF0004968BA4A0A40C16A114302685160242107
:101C0000415C490707D501684968B54A0A40016B3C
:101C10001143026851602421415C090707D501681E
:101C20004968B04A0A40416B11430268516024215F
:101C3000415CC90607D501688968AB4A0A40816BD7
:101C40001143026891602421415C890607D501682F
:101C500089682F4A0A40C16B1143026891602421B0
:101C6000415C490614D501684968A04A0A40016CE4
:101C7000114302685160016C80225203914207D1E6
:101C8000016849689A4A0A40416C114302685160F0
:101C90002421415C090607D501684968954A0A4034
:101CA000816C11430068416000BD00007CB50400F8
:101CB00000258020255001F055FB060020680068B3
:101CC00000070CD58C480090330000228021890346
:101CD000200000F01FF8002801D0032017E0206842
:101CE000006840070CD58448009033000022802112
:101CF000C903200000F00EF8002801D0032006E000
:101D00002020A067E067256674202554002076BD5A
:101D1000FFDFFFFFF4B504000D001F00069E2068E2
:101D2000C0692840A84201D1012000E00020694696
:101D3000097888425DD10020C0438642EFD001F08F
:101D400011FBC01B864201D3002E21D1EFF310807E
:101D5000012181F3108821680968814A0A402168BD
:101D60000A6080F31088EFF31080012181F310885E
:101D700021688968012291432268916080F310886C
:101D80002020A067E067002074216054032031E028
:101D9000206800684007C2D5802000012168C96919
:101DA00001400029BBD021680862EFF310800121B7
:101DB00081F3108821680968694A0A4021680A602D
:101DC00080F31088EFF31080012181F310882168DF
:101DD0008968012291432268916080F31088202055
:101DE000A067E067802160500020742160540320C8
:101DF00000E00020F2BD0000F369FFEFFFCFFFFF1E
:101E0000FFF4FFFFF0FF0000FFFFFDFF30B541656D
:101E1000582142525A2142520021416680225201E9
:101E2000836893420AD10369002B03D14D4B5C2494
:101E3000035324E0FF235C24035320E08368002B3A
:101E40000AD10369002B03D1FF235C24035316E05E
:101E50007F235C24035312E0836880246405A3423B
:101E60000AD10369002B03D17F235C24035306E0CE
:101E70003F235C24035302E00B005C2403538023C4
:101E8000C1502223C367EFF31083012484F3108829
:101E90000468A468012525430468A56083F31088BD
:101EA0008368934205D10269002A02D12E4A426614
:101EB00001E02E4A426674228154EFF31081012220
:101EC00082F310880268126890235B001343006855
:101ED000036081F31088002030BD0000FFFFFEFF8B
:101EE000FFFFFBFFFF7FFFFFFFEFFFFFFFFFEFFFA6
:101EF000FFFF9FFFFFFFF7FFFFFFFF0100B5EFF3BD
:101F00001081012282F3108802681268184B134076
:101F10000268136081F31088EFF31081012282F3CD
:101F200010880268926801239A4303689A6081F3DB
:101F30001088016E01290CD1EFF31081012282F388
:101F400010880268126810239A4303681A6081F3AC
:101F500010882021C16700210166416600BD000094
:101F60005FFEFFFFFF01000031210008772000081D
:101F7000DFFEFFFF80B5806A00215A228152522283
:101F8000815206F029F801BD00B5816F21292AD1BF
:101F90005221415A00291AD1EFF31081012282F314
:101FA00010880268126880239A4303681A6081F3DC
:101FB0001088EFF31081012282F310880268126802
:101FC000402313430068036081F310880BE0C16C69
:101FD000097802689162C16C491CC1645221415A5E
:101FE000491E5222815200BD00B5816F21292CD19A
:101FF0005221415A00291AD1EFF31081012282F3B4
:1020000010880268126880239A4303681A6081F37B
:102010001088EFF31081012282F3108802681268A1
:10202000402313430068036081F310880DE0C16C06
:102030000988C905C90D02689162C16C891CC16417
:102040005221415A491E5222815200BD80B5EFF300
:102050001081012282F310880268126840239A439B
:1020600003681A6081F3108820218167002181664E
:1020700005F0B4FF01BD80B55C21415AC26F222A30
:102080004FD10268526A1140426D1170416D491C76
:1020900041655A21415A491E5A2281525A21415AB8
:1020A000002944D1EFF31081012282F310880268E5
:1020B00012684E4B13400268136081F31088EFF3EF
:1020C0001081012282F310880268926801239A43EA
:1020D00003689A6081F310882021C167002141665E
:1020E000026E012A1AD10166EFF31081012282F3F8
:1020F00010880268126810239A4303681A6081F3FB
:10210000108810210268D2690A40002A01D00268B2
:1021100011625821415A05F035FF08E0FDF7EBFF49
:1021200005E00168896908220A430068826101BDEF
:1021300080B55C21425AC16F22294FD101684B6A98
:10214000416D1A400A80416D891C41655A21415AEE
:10215000491E5A2281525A21415A002944D1EFF393
:102160001081012282F31088026812681F4B13400D
:102170000268136081F31088EFF31081012282F36B
:1021800010880268926801239A4303689A6081F379
:1021900010882021C16700214166026E012A1AD1F0
:1021A0000166EFF31081012282F310880268126841
:1021B00010239A4303681A6081F310881021026883
:1021C000D2690A40002A01D0026811625821415A9E
:1021D00005F0D8FE08E0FDF78EFF05E0016889698B
:1021E00008220A430068826101BD0000DFFEFFFF94
:1021F0003B4909684843704700B5002807D438496F
:102200000A6852108018096804F01AF806E0344988
:102210000A685210801A096804F012F800BD10B55F
:102220008269C369D218036AD2180260026A520036
:102230008369D21853424360026A8260002906D043
:102240000C21002204000C34200005F09DFE10BD7E
:10225000F8B50020FFF7CCFF0020FFF7C9FF2148A9
:102260000168002901D1002531E004681E4800689A
:10227000FFF7BEFF261A1D480168B14200DA066862
:102280001B4C25003100286804F05EF80700E9685F
:10229000686804F059F83F182969A86804F054F8F0
:1022A0003818696904F036F8E9682961EE606861F8
:1022B000050010480168A94202DA056800686061FB
:1022C000002D04D5002501212000FFF7A8FF2800DC
:1022D000FFF792FF80B2084909688863F1BD0000EA
:1022E000DC710008500600204C0600208C060020FF
:1022F000840500209006002014050020E0B5234846
:102300002021017002214170302181700421C170AF
:1023100000210A0002710A0042710A0082710A005B
:10232000C2710A0002720A0042720A008272C1720D
:102330000021C94302910C21019100900123002248
:102340006A21134803F04AF8C0B20EBD1FB5114C04
:102350000020C04302900220019000940123192222
:102360006A210B4803F012F9C0B2002802D120788C
:10237000617801E0FF210800C0B20002C9B2084341
:1023800080B20009C005C00D04B010BD04060020D5
:1023900080040020C806002038B505000C0000208D
:1023A000208025E00100C9B2890069184988A12967
:1023B0001DDB21880200D2B29200AA1852889142F5
:1023C00015D20100C9B2890069184988218001002D
:1023D000C9B28900695A61800100C9B20A224A4320
:1023E000A2800100C9B2890069184988E180401CB7
:1023F0000100C9B26429D5DB2088A1280FDB208821
:10240000FF21943141432E480818800A0A2103F025
:102410001AFF2080E0882B494143880AE08000F0C1
:10242000BEF9002810D160882988884204D36088CA
:102430002988401A608017E0B42040002988401A9B
:102440006188401860800FE028886188884204D342
:1024500028886188401A608006E02888B4214900F5
:1024600040186188401A608061881A2048434021E2
:1024700003F0E6FE0A306080134D2868FEF72EF860
:1024800020812868FEF72AF8608131BD80B50120DF
:102490000E4908700E490978012902D10D490870CA
:1024A00002E000200B49087000200B4908700B491E
:1024B00008700B490870FEF70DF8BA49086001BDB5
:1024C000C806FFFFAE0400005C060020E7060020FF
:1024D000E3060020E9060020EA060020EB060020C3
:1024E000EC06002070B5AF4D2868FDF7F7FFAE4948
:1024F000884202D30220AD490870AC4C20780028F5
:102500001DD0022830D021D3042857D04ED306281E
:102510007AD067D3082800D1BAE000D291E00A2827
:1025200000D1C8E000D2C5E00C2800D1E2E000D222
:10253000D0E00E2800D1F8E000D2EEE0FDE002206D
:102540002070FFF703FF9A490880F6E03026994D86
:10255000280000F0E7F9320092B22900964800F016
:1025600005FA02202070E8E000269E480660300050
:102570009D4988829D480078002803D1012000F001
:102580004CFA06E09A480078002802D1002000F0BA
:1025900044FA9848067000F055FA022802D1032048
:1025A00000F04DFAFDF796FF2860C6E092480068FB
:1025B0008C490860002091490870BEE08F4D287852
:1025C00015280BDB05202070FFF7C0FE7849088036
:1025D0000020287002208A49087002E02878401CF8
:1025E0002870AAE087480178012905D100210170EF
:1025F000FDF770FF844908608448006879490860E5
:1026000000207E49087098E07E480178002905D1B5
:1026100001210170FDF75EFF7B4908607C4800786E
:10262000012803D101207B49087002E0002079498C
:102630000870794800686B490860022000F0EDF9E5
:102640007BE070480178002905D101210170FDF778
:1026500041FF6D4908606E480078012803D10020D1
:102660006C49087002E001206A49087061480178ED
:10267000002905D101210170FFF768FE4C4908804F
:102680006648006857490860042000F0C6F954E025
:1026900063480068534908605D480078012803D109
:1026A00000205C49087002E001205A4908700920A6
:1026B000207042E041E04C48018B002904D0018B9E
:1026C000FF221202914204D1C08A002801D10B20BE
:1026D000207032E052480068424908604C48007857
:1026E000012803D101204B49087002E0002049492C
:1026F000087022E046480078012803D100204549AF
:10270000087002E0012043490870404800683549DC
:102710000860042000F081F90FE000203D490870B6
:102720003D4800682F49086007E0012039490870DA
:10273000394800682B490860FFE7A025ED053948B6
:1027400000780122824380214900280002F0AFFB7B
:1027500000F025F80200D2B280210902280002F020
:10276000A6FB314D2E7800F01AF886420FD000F00B
:1027700016F828702D482E49096881612D4909688D
:10278000C1612D49096801620121FFF748FD2078E8
:1027900070BD2A49087070472848007870471D4866
:1027A0000078704780060020411F0000E8060020E6
:1027B000BC060020740300200000080800B514497E
:1027C0000978012905D1C0B2002801D1012000E01B
:1027D00000201049087000BD19490870704718485A
:1027E000007870475006002030040020D1060020F9
:1027F000D2060020EF0600209C060020EE060020F6
:10280000EC060020E10600205C060020980600206F
:10281000E3060020E9060020840600208806002048
:10282000A0060020EB060020ED0600208405002015
:10283000A4060020A8060020AC060020E706002021
:10284000E806002030B500231C0009E01C00A4B2FB
:102850006400041924881D00ADB26D004C535B1C4C
:102860001C001500A4B2ADB2AC42EFD330BD70B5C0
:1028700005004E222900544C2600300003F02AFEA9
:1028800052484E21695A01805021695A504A11809C
:102890005421695A41805621695A81805821695AC8
:1028A000C1805A21695A01815C21695A41815E20A7
:1028B000285A484908805220285A00F0AEF860880B
:1028C000FF210902884203D1012000F0ACF802E0A8
:1028D000002000F0A8F82420205CC00603D50020CA
:1028E000FFF757FF02E00120FFF753FF2420205C91
:1028F000C00703D5012000F077F812E02420205C07
:10290000800703D5022000F06FF80AE02420205C45
:10291000400703D5042000F067F802E0082000F02B
:1029200063F870BD38B504004E2227492500280001
:1029300003F0D0FD254D28884E21605224480088A0
:102940005021605200F06CF8522160526888542186
:102950006052A88856216052E88858216052288920
:102960005A21605268895C21605231BDF8B5060079
:102970001500002420000F0003F0FBFD164801683D
:10298000164A0A40026007E060003A5A60003118B7
:10299000012003F02BFE641C280080B28442F3D394
:1029A00003F000FEF1BD10B5002003F0E2FD0C4C79
:1029B00003E0200003F004FE241D0A488442F8D3FB
:1029C00003F0F0FD10BD000030040020C005002021
:1029D000D40500202200002004200240EFFDFFFF6C
:1029E000000008080004080838B5344C25002435D8
:1029F0000021298032490870A18CC0B2014329808E
:102A0000FFF7CAFEC0B2002803D1A08C10210143F9
:102A1000298031BD2A48007870472A4908807047CC
:102A20002848008870472849087070472648007871
:102A30007047264908807047244800887047244919
:102A40000870704722480078704722490870704724
:102A50002048007870472049087070471E48007869
:102A6000704700B50100C9B2002903D100201B49FD
:102A7000087006E0C0B2022803D118480178491C4A
:102A8000017000BD154800787047154908707047FF
:102A90001348007870471349088070471148008830
:102AA00070471149087070470F48007870470F4908
:102AB000087070470D48007870470000300400200F
:102AC000F0060020C2060020F1060020C406002007
:102AD000F2060020F3060020F40600202D0000205E
:102AE000F5060020C6060020F6060020F7060020A6
:102AF00030B405004D400122D20715404B18041890
:102B0000240E25D01B0E2CD0FF2C31D0FF2B34D01F
:102B1000E41A000209021043114343084808D10D8A
:102B20001B1A02D2641EDB181B18DB18834200D369
:102B30001B1A4941F9D37F3423DDFF2C05DAE40564
:102B400048086041284330BC7047FF20C005F9E7C2
:102B500028001B0E03D0FF2BF5D14902F3D0D04340
:102B6000F1E7FF2C01D14002F9D1FF20C005E9E7D0
:102B70004002F4D1FF2BF8D1F1E728004902E2D05E
:102B8000EDE70B0200202442DCD15B129B1CD9D95B
:102B9000D805D7E7334909684843704700B500288E
:102BA00007D430490A6852108018096803F048FBBE
:102BB00006E02C490A685210801A096803F040FBAD
:102BC00000BDF1B5284E294800683060284F2948DB
:102BD00001682948006803F09DFB386027480168B8
:102BE000386803F097FB01001E48006803F0DAFB29
:102BF000234C0100386803F0A7FB2060214D0098AA
:102C0000FFF7C8FF28603168286803F090FB0100D7
:102C1000206803F099FB1C4D0100306803F07AFB3B
:102C2000286021680F48006803F081FB174C396861
:102C300003F08AFB206020680F49086028680B4970
:102C400008602868FFF7AAFFF2BD10B4074A002306
:102C50001360094C2360074C206008480160136032
:102C600010BC7047D47100082406002030060020F4
:102C70002006002038060020340600203C060020F4
:102C8000180600202C060020280600201C06002024
:102C9000F8B50821A020C00502F0FEF8AB49087085
:102CA0001021A020C00502F0F7F8A9490870A94C2E
:102CB000A94D0121280002F0EFF820702021280002
:102CC00002F0EAF8A5490870A54DAA1DA5480178AB
:102CD0009E48007803F0DEFC9C4908702A00093207
:102CE000A14801789A48007803F0D4FC984908700C
:102CF0009E4F2A000F323978207803F0CBFC2070E9
:102D00009B4E2A00153231789448007803F0C2FCBB
:102D1000924908708D480078924908708C48007874
:102D200091490870207838708C4800783070914C48
:102D3000E08C05280DDBFFF7B1FEFF210902884278
:102D400003D100208C49087015E001208A490870E1
:102D500011E0894E80210901A020C00502F09CF8F5
:102D60003070864F2A000C323978307803F092FCAC
:102D7000307030783870754F3878002832D10120A3
:102D8000FFF74BFE002630007D490870FFF742FE3A
:102D9000042803D0FFF73EFE082811D1FFF71FFDDE
:102DA00002280DD1FFF748FE7649884202D0012063
:102DB000FFF71AFE012221002431AA48FFF7D6FDB1
:102DC000FF252D026088A8420BD1E08C022802DA90
:102DD0000020FFF728FEA11C0E800122A248FFF769
:102DE000C5FD25805A4D2878002827D10020FFF7FF
:102DF00014FE0020208062490870FFF70BFE0428B3
:102E00001CD0FFF707FE082818D0E08C022815DB3D
:102E1000FFF712FE5B49884210D0FFF7FBFD022846
:102E20000CD0FFF7DCFC022808D10220FFF7DCFD04
:102E30000122210024318B48FFF798FD38780028C3
:102E400005D02878002802D001204D4908704A4852
:102E50000078012808D1FFF7EFFD4A49884222D0C7
:102E60000220FFF7C1FD1EE0FFF7D4FD08281AD0AD
:102E7000FFF7D0FD042816D0FFF7CCFD202812D094
:102E8000FFF7DAFD3F4988420DD0E08C022803DAD3
:102E90000120FFF7A9FD06E0FFF7C2FD012802D1DE
:102EA0000120FFF7A1FD714D2878002833D0A548F7
:102EB000007800282FD1387801282CD100202870E4
:102EC000FFF7BAFD2F49884225D00120FFF7ABFD5F
:102ED000A61CFF2000023080E08C052802DA0720C3
:102EE000FFF77AFCE08C022807DA0420FFF77CFD6C
:102EF000FDF7F0FA9449086002E00820FFF774FD3E
:102F0000012231005848FFF731FD01222100243110
:102F10005448FFF72BFDFFF783FD00280AD18949AC
:102F20000878012806D1002002000A7029780029BB
:102F300000D0287009480078012803D10120FFF74C
:102F400028FC02E00020FFF724FCF1BDD1060020A0
:102F5000D2060020D406002000040050D70600202E
:102F6000000000202600002027000020290000206B
:102F70002A00002030040020D30600202800002072
:102F8000D80600205A5A000070B5824EA024E405ED
:102F90000221200001F080FF30707F4D04212000CD
:102FA00001F07AFF28707D4C22007D48017830784E
:102FB00003F070FB3070E21C7A480178287803F047
:102FC00069FB28703078002821D17748FF2424023B
:102FD000C483297800291DD0C08C02280DDAFFF7A0
:102FE00019FD022809D0FFF721FD002812D16F48F2
:102FF0004188A1420ED104800CE06C484188A14276
:1030000008D16B490978002904D1048002E000202E
:103010006549C883287800281FD1634DFF24240206
:103020002C84307800281BD0FFF7F4FC022817D03E
:10303000E88C02280ADAFFF7F9FC002810D15B4877
:103040004188A1420CD10021018009E05748418804
:10305000A14205D10021018002E0002052490884EC
:1030600070BD00002400080802000808D6060020F1
:1030700080B5FFF7E1FC4F49884262D0FFF7CAFCF8
:10308000042813D18021C9014B480088084204D08C
:1030900000224A4801F00BFF03E00122474801F0FB
:1030A00006FFFF2000024049888311E08021C9010A
:1030B00041480088084204D00122404801F0F7FE50
:1030C00003E000223D4801F0F2FE002036498883EB
:1030D000FFF7A6FC002815D1FFF781FB022811D1CC
:1030E0008021090234480088084204D00122334874
:1030F00001F0DDFE03E00022304801F0D8FE0020A0
:1031000029494883FFF78CFC002807D12C48007818
:10311000012816D12B480078012812D180210902FC
:1031200025480088084204D00022244801F0BFFE50
:1031300003E00122214801F0BAFEFF2000021A49F3
:10314000488301BDD90600207C06002010B5184C2C
:1031500080210901A020C00501F09EFE207020788A
:10316000194908702078012803D10220FFF73CFCA0
:103170000EE00D48C08C022803DA0120FFF734FC72
:1031800006E0FFF74DFC012802D10120FFF72CFCDF
:1031900010BD0000CF060020D00600200000002057
:1031A0002B0000202C00002030040020C00500204F
:1031B000D30600205A5A00002200002000080050C8
:1031C000D1060020D20600202800002010B5614C56
:1031D0006148048061480480FFF722FC022804D182
:1031E000FF2000025E49488409E0FFF719FC04282B
:1031F00003D100205A49488401E059484484584882
:10320000C18C022902DA00F00BF808E0C08C801EA5
:10321000032802D200F02FF801E000F06BF810BD97
:1032200080B5FFF7F7FB012810D1FFF7F9FB022863
:1032300003D0FFF7F5FB042808D100204649088099
:103240004448464908800120FFF7E7FBFFF7E2FB0F
:1032500001280FD1FFF7EAFB01280BD100203E49DE
:1032600008803C483D4908800120FFF7D6FB042038
:10327000FFF7BAFB01BD80B5FFF7CCFB012807D1F2
:10328000FFF7CEFB022807D0FFF7D0FB012803D0C1
:10329000FFF7C0FB082813D100202F4908802D48D4
:1032A0002E4908800120FFF7B8FBFFF7B3FB082881
:1032B00003D0FFF7BBFB012802D10120FFF7BFFBC2
:1032C000FFF7A8FB042803D1FFF7AAFB022807D0C9
:1032D000FFF7A0FB01280CD1FFF7A2FB042808D1BF
:1032E00000201D4908801B481C4908800120FFF769
:1032F00094FB01BD80B5FFF78DFB082812D101209A
:10330000FFF772FB0120FFF78EFBFFF789FB022816
:1033100008D10020104908800E481049088001207B
:10332000FFF77BFBFFF776FB012812D1FFF77EFB4F
:1033300001280ED100200849088006480749088066
:103340000120FFF76AFB0120FFF74EFB0120FFF78A
:103350006AFB01BDA5A50000C0050020D405002022
:103360003004002001480068704700BFB00600200C
:1033700010B5144CA521490048439621490002F09C
:1033800062FF2188401A642148430F49098889B2A5
:103390002288891A02F054FF1E3010BD10B50B4868
:1033A000002101600A4A11600A4C21600A490B8819
:1033B00013604A880260888820602068FFF7D8FF81
:1033C000206010BD7A00F81F7E00F81F4006002024
:1033D00044060020480600201006002010B50024F6
:1033E0000848016840220A430260002003F07EF989
:1033F000002801D0012401E002F0C4FB2000C0B28B
:1034000010BD00000020024010B50400002C01D1C6
:1034100001201EE03920205C002805D10020382141
:103420006054200002F03EFC022039216054211D2E
:10343000206800F08BF901203E2160543A2160544D
:103440003B2160543C2160543D216054392160543B
:10345000002010BD10B50400002C01D101201EE099
:103460003920205C002805D100203821605420003C
:1034700004F0B8FD022039216054211D206800F0BD
:1034800065F901203E2160543A2160543B2160548B
:103490003C2160543D21605439216054002010BD0E
:1034A00010B50400002902D13A20205C0BE0042969
:1034B00002D13B20205C06E0082902D13C20205CA0
:1034C00001E03D20205C012801D001203DE00029E1
:1034D00004D102203A22A054C0B211E0042904D140
:1034E00002203B22A054C0B20AE0082904D10220E5
:1034F0003C22A054C0B203E002203D22A054C0B23E
:103500000122206800F002FA20688021C905884263
:1035100007D020680D49884203D020680C498842B2
:103520000CD1206880684007400F06280CD0206826
:103530000068012101432068016005E020680068FF
:103540000121014320680160002010BD00080140F6
:1035500000140140F8B50400002637003820205C34
:10356000012801D1022071E001203823E0540D0030
:10357000002A06D0042A1BD0082A32D00C2A47D0B1
:103580005FE02900206800F00AF9206880690821BE
:103590000143206881612068806904218843216893
:1035A000886120688069E96801432068816149E099
:1035B0002900206800F00CF9206880698021090149
:1035C00001432068816120688069214901402068A9
:1035D000816120688069E96809020143206881618E
:1035E00030E02900206800F00EF92068C069082149
:1035F00001432068C1612068C069042188432168B3
:10360000C8612068C069E96801432068C16119E0A8
:103610002900206800F011F92068C06980210901A3
:1036200001432068C1612068C069094901402068E0
:10363000C1612068C069E968090201432068C1616D
:1036400000E00700382026543800C0B2F2BD000068
:10365000FFFBFFFFF8B50400002637003820205C90
:10366000012801D102206DE00125382025540220D7
:103670003922A0542068806877229043324A024061
:10368000206882600868002850D010284ED020287A
:103690004CD030284AD040283ED0502828D060282E
:1036A00030D0702809D080225201904204D080226C
:1036B000920190420ED03EE03EE0CB684A688968B5
:1036C000206800F007F920688068772101432068AE
:1036D000816031E0CB684A688968206800F0FAF8B8
:1036E000206880688021C90101432068816023E04F
:1036F000CA684968206800F0BBF85021206800F0D3
:10370000E1F819E0CA684968206800F0C3F8602150
:10371000206800F0D7F80FE0CA684968206800F018
:10372000A7F84021206800F0CDF805E0096820687E
:1037300000F0C8F800E02F00392025543820265426
:103740003800C0B2F2BD0000FF00FFFF10B50268F4
:103750008023DB05984205D0584CA04202D0584C3B
:10376000A04204D17024A24314004A682243984224
:1037700005D0524B984202D0514B984203D15B4B3B
:103780001340CA681A4380239A430B6913430360AA
:103790008A68C262096881620121416110BD30B44A
:1037A000026A01239A430262026A436884697025AF
:1037B000AC430325AC430D6825430224A2438C6827
:1037C00014434360856149684163046230BC7047BB
:1037D00070B4026A10239A430262036A42688469E1
:1037E000434D2540414E2E400C6824023443202591
:1037F000AB438D682D011D4342608461496881633C
:10380000056270BC704730B4026A3A4B13400362E1
:10381000036A4268C5697024A5430324A5430C6864
:103820002C43354D1D408B681B022B434260C46105
:103830004968C163036230BC704770B4026A2F4BA1
:1038400013400362036A4268C469294D2540274E2C
:103850002E400C6824023443294D1D408B681B0305
:103860002B434260C46149680164036270BC7047C5
:1038700030B4036A046A0125AC4304628469F0250C
:10388000AC43120122430A24A3431943826101621B
:1038900030BC704730B4036A1024A34303628469C8
:1038A000036A184D254012032A43A024A3430901AB
:1038B00019438261016230BC70470000000801407A
:1038C00000140140826870239A43114307220A437F
:1038D0008260704730B484680B4D254029430A4309
:1038E00019021143816030BC70470000FFFCFFFFEC
:1038F000FF8FFFFFFFFEFFFFFFFDFFFFFFEFFFFF5B
:10390000FFDFFFFFFF0FFFFFFF00FFFF30B41F24AB
:1039100001230D002540AB40056A9D430562036A03
:103920000C40A2401A43026230BC7047FEB504004E
:1039300000252F00280028005020205C012801D1FC
:10394000022059E0012630005021605403202168F4
:1039500089680140012905D121680A681100C90759
:10396000C90F00E0290000293DD1616D234A0A40BA
:103970000221114361652168C968084000902068F0
:10398000C068032188432168C8602068806880215E
:103990000906014320688160FFF7E4FC019020687C
:1039A0008068002813D5FFF7DDFC0199401A0B2829
:1039B000F5D3206880680028F1D5606D0221884326
:1039C00010210143616550202554012014E0206836
:1039D000C068009901432068C160606D022188437E
:1039E0000643666504E0606D202101436165370090
:1039F000502025543800C0B2FEBD0000FFFEFFFF7E
:103A000010B50400002C01D10120FDE0606D0028FC
:103A100006D10020A06550216054200002F0CCF8AF
:103A20001021606D0840002805D1042022689268AA
:103A30000240002A07D0606D0143616500205021DB
:103A400060540120E0E0616D704A0A400221114398
:103A50006165216889688907890F012905D1216875
:103A60000A681100C907C90F00E00021002936D1FA
:103A70006168C0221206914209D061688022D20595
:103A8000914204D061688022120691420CD12168D3
:103A900009698900890822681161216809696268D9
:103AA0000A4321680A610EE02168096989008908D2
:103AB0002268116156490A68564B13400B600A6828
:103AC000636813430B602168C96818229143226818
:103AD000D1602168C968A2680A432168CA604C495C
:103AE0000A684D4B13400B600A68636B5B06134317
:103AF0000B6080214905226892680A40002A04D19F
:103B0000226892681143226891602168C968434A1B
:103B10000A402168CA602169022900D0002021687A
:103B2000C968E2680A4310432021615C49030143EC
:103B30002C20205C40000843216B0143A0698003D6
:103B40000843E169C90301432068C160606AFF213D
:103B5000C231884207D02068C068616A0143A06A08
:103B600008432168C8602120205C012813D120204F
:103B7000205C002807D12068C068802149020143E9
:103B80002068C16007E0606D202101436165A06D80
:103B900001210143A165E06B012816D1206800696D
:103BA0001F4901402068016120680069216C0143C0
:103BB000606C0843A16C01432068016120680069C2
:103BC000012101432068016109E020680069C00704
:103BD00005D52068006901218843216808612068B3
:103BE0004069072188432168486120684069A16BCA
:103BF0000143206841610020A065606D0221884377
:103C0000012101436165002010BD0000FFFEFFFFA0
:103C100008270140FFFFC3FFFFFFFFFD1902FEFF62
:103C200003FCFFFFF2B504001700002635002068F2
:103C30008068400744D45020205C012801D1022034
:103C400041E0012001005022A1542168C9680843C5
:103C50002168C860E069012803D0200000F01CF949
:103C600005002800C0B200282BD13B00009A606DEF
:103C7000844901408020400008436065A6655020CB
:103C800026548148E16CC8628048E16C0863804832
:103C9000E16C48631C20216808602068406810219E
:103CA000014320684160206801004031E06C02F06F
:103CB00095F920688068042101432068816000E054
:103CC00002252800C0B2F2BD38B5040004202168E6
:103CD00009680140002904D0216849680140002991
:103CE0000AD10821226812680A40002A3ED02268C0
:103CF00052681140002939D0616DC90604D4616D44
:103D0000802292000A4362652168C968C0221201BC
:103D10000A40002A21D12021615C00291DD121689F
:103D20000968090719D521688968084000280CD15D
:103D3000206840680C21884321684860606D5549BF
:103D4000014001200843606507E0606D20210143C8
:103D50006165A06D01210143A165200004F043F9D4
:103D6000A069012802D00C20216808608025206805
:103D70000068284000280ED02068406828400028AD
:103D800009D0606D8021490201436165200004F083
:103D90002BF920680560102520680068284000285D
:103DA00016D0206840682840002811D0206B0028D9
:103DB00003D02068C068C00708D5A06D0221014368
:103DC000A16520680560200004F00FF920680560F7
:103DD00031BD38B505000C005020285C012801D108
:103DE00002204DE001205021685428688068400777
:103DF00008D5686D20210143696500205021685471
:103E000001203DE06068484988421DD02868806AEA
:103E100021684903490B01432868816220684003F7
:103E200008D542480168802212040A4302600A2031
:103E300000F0D0F8206880031ED53C48016880223D
:103E4000D2030A43026017E02868806A21684903A8
:103E5000490B8843296888622068400304D53348A9
:103E60000168514A0A4002602068800304D52F4847
:103E700001684E4A0A400260002050216854002028
:103E800032BD0000FEF1FFFF313F0008B13F0008E6
:103E9000BB3F0008FFFEFFFF70B5040000210800D3
:103EA000206880688007800F012805D1206800689D
:103EB0000100C907C90FFFE7002933D120688068D6
:103EC0004D490140002909D0606D10210143616511
:103ED000A06D01210143A165012024E00125206896
:103EE0008068284321688860012000F073F8FFF79C
:103EF00039FA0600206800682840002812D1FFF730
:103F000031FA801B0B28F5D3206800682840002870
:103F1000F0D1606D102101436165A06D0543A56579
:103F2000012000E0002070BD0110000008270140C2
:103F300080B5816A4A6D50231340002B30D1486D03
:103F40008022920002434A650868C068C0221201BC
:103F50000240002A20D12020085C00281CD10868DB
:103F60000068000718D50868806840070CD4086806
:103F700040680C2290430A685060486D1F4A024016
:103F800001201043486507E0486D202202434A653E
:103F9000886D012202438A65080004F024F802E0DB
:103FA000C96C496B884701BDFFFF7FFFFFFFBFFF63
:103FB00080B5806A04F01AF801BD80B5806A416D51
:103FC00040220A434265816D04220A43826504F05F
:103FD0000CF801BD18B5040009480068094902F051
:103FE00032F94443009402E00098401E009000988B
:103FF0000028F9D111BD000017000080FFFEFFFF6F
:104000001C00002040420F0038B5744CE08C0228A0
:1040100000DAC4E0FEF74EFD002802D1002070490E
:104020000870FEF7F7FC042800D1B8E0FEF7FEFCAC
:10403000002800D1B2E0022841D003D3032800D1E8
:104040008AE0ACE0664D2878401C2870E08C05289A
:1040500019DB644800782978884203D20320FEF7F0
:10406000E2FC2BE000F09CF8FCF734FA5E490860B3
:10407000FCF730FA5D4908600120FEF718FD0220C8
:10408000FEF7D1FC1AE05A48C088297889B28842E4
:1040900003D20320FEF7C7FC10E0FCF71BFA5249DD
:1040A00008602878012806D1FCF714FA4F49086007
:1040B0000120FEF7FCFC0220FEF7B5FC6FE0FEF7E6
:1040C000C7FC012847D10020FEF7BFFCE08C052883
:1040D0002CDB4448007842490978884226D3208B5B
:1040E00000280FD1FEF77BFB02280BD1FEF7B6FCB0
:1040F000002807D1FF2000023D4908800320FEF779
:104100009EFC28E0208BFF210902884223D1FEF784
:1041100066FB02281FD1FEF7A1FC00281BD100F08E
:104120003FF8FCF7D7F93049086014E0E08C801EB6
:1041300003280DD22E48C188294A127892B29142A2
:1041400006D3FF21090201800320FEF778FC02E07C
:104150000320FEF768FC22E0FEF75CFC042816D082
:104160000420FEF741FC0122210024312148FEF702
:10417000FDFB00201E4908801F4908800020FEF733
:104180005EFC0020FEF74FFC0020FEF75EFC0020E6
:10419000134908700020FEF78AFC00E0FFE731BDFC
:1041A00000B50F480178022903DA0320104908817D
:1041B00012E00178022903D178200D4908810BE033
:1041C0000078032804D1962040000949088103E0C3
:1041D000E120C0000649088100BD00003004002035
:1041E000CE060020FC7F0008540600205806002060
:1041F000C005002024000808D4050020F8B53020B0
:1042000069460880604FFEF705FC022803D05F482E
:10421000C08C022809DB5E480078002800D0B2E09C
:104220005A48C08C022800DAADE05A4CA089002818
:1042300000D0A8E0FF2636022088B04212D1FEF757
:10424000EFFB00280ED15148C18C02290EDBC08C37
:10425000022807DBFEF7DEFB042803D0FEF7DAFBBB
:10426000082803D1FEF7EEFB03283AD14A4D2088F7
:104270002988884204D1FEF7E5FB032800D082E0BC
:104280004248018A491C0182418A491C4182868236
:10429000FEF7C0FB012802D10020FEF708FC012038
:1042A000FEF7A2FB0220FEF7B8FB0020FEF7BBFBE7
:1042B0003800FEF737FB6846028839003748FEF7BA
:1042C00055FB208828800620FEF786FA0120344915
:1042D0000870FEF7B7FB032855D10020FEF7AFFBAF
:1042E00051E02088002841D1FEF79AFB01283DD1FA
:1042F000264DE88C02280ADBE88C022836DBFEF724
:1043000089FB042832D0FEF785FB08282ED02088B0
:1043100021490988884236D0288A401C2882AE82EA
:104320000420FEF77AFB3800FEF7FCFA68460288A4
:1043300039001A48FEF71AFB208817490880072021
:10434000FEF74AFA012016490870FEF77BFB0128A8
:1043500002D10220FEF773FBE88C022813DB022057
:10436000FEF742FB0020FEF7A2FB0CE02088B042E3
:1043700009D1FEF755FB002805D10448C08C02285E
:1043800001DB00202080F1BD7403002030040020F8
:10439000D3060020C0050020D40500200000080836
:1043A000D906002070B50400002C01D101202DE0B9
:1043B0001948216808601948216808606068216808
:1043C0004860A06821688860FEF7CCFF05000726DA
:1043D0002068C068304000280BD0FEF7C3FF401BA8
:1043E0002B28F4D32068C0680640002EEFD00320AD
:1043F0000CE020680069E168884203D0E068216829
:10440000086102E0064821680860002070BD044988
:104410000068016000207047CCCC000055550000BA
:10442000AAAA00007FB50600FF240025009502F02F
:1044300085F90195029614480068800213490140ED
:1044400013480818801BC0090390694601A802F0B0
:104450004FF8002800D12C0002F09EF92000C0B2D5
:1044600004B070BD0B49087070470A480078704767
:104470000949088070470848008870470749088044
:1044800070470648008870477C00F81F00FCFF0357
:10449000FFFFFF07F8060020CA060020CC06002018
:1044A00080B5C0B2012808D0022812D0042826D036
:1044B000082819D020282ED039E000228021A02001
:1044C000C00500F0F4FC012204211F4800F0EFFCBD
:1044D00038E000228021A020C00500F0E8FC042183
:1044E000194800F0EEFC2DE000220421164800F0EF
:1044F000DEFC8021A020C00500F0E3FC22E00022C9
:104500000421114800F0D3FC01228021A020C00525
:1045100000F0CDFC16E0012204210B4800F0C7FC9E
:1045200001228021A020C00500F0C1FC0AE0002289
:104530008021A020C00500F0BAFC0022042102481E
:1045400000F0B5FC01BD00BF0004005000B5BFF392
:104550004F8FBB48BB490860BFF34F8F00BFFDE7DB
:1045600038B50500080011001C00049BEDB2032DB6
:1045700004D0062D16D0102D1BD021E0220093254B
:104580002D0292B2AA4206D19BB2220092B2C9B2C7
:1045900002F0BEF905E09BB2220092B2C9B200F06F
:1045A000D4F80DE09BB2220092B2C9B200F0AEF88E
:1045B00006E09BB2220092B2C9B200F058F8FFE7C1
:1045C000BD48048031BD38B504000D00002108004D
:1045D0002800BA490988411AC9B2200002F072FACB
:1045E0002178012905D02178032902D021780229D8
:1045F0003CD180B2290089B26118891E097809026C
:104600002A0092B2A218521E1278891888422DD11F
:104610002078012802D10020FEF723FA60780328D1
:1046200004D006281CD0102806D01FE0290089B22B
:10463000200000F0A9F819E0A0780002E178401805
:1046400093210902884205D1290089B2200002F095
:10465000D3F904E0290089B2200000F0A8F805E0B1
:10466000290089B2200000F0EFF8FFE731BD38B52E
:104670000400002528005D002170102060701000EB
:1046800080B2000AA0701000E070180080B2000A2A
:104690002071637110009121090280B288420ED10D
:1046A0008748008885490988411AC9B2200002F06C
:1046B00009FA010089B2090AA171E07125E0280018
:1046C000A07110008421890180B2884204D1802128
:1046D000200000F0D2FA05E092B2290089B2200051
:1046E00000F09CFA2800093074490988411AC9B2BF
:1046F000200002F0E7F9010089B2090A2A0092B20B
:10470000A218D171ADB26119087231BD10B50400A3
:104710000020217006206070100080B2000AA07096
:10472000E270180080B2000A207163716548008849
:1047300062490988411AC9B2200002F0C3F9010098
:1047400089B2090AA171E07110BD10B50400002002
:10475000217003206070100080B2000AA070E27027
:10476000180080B2000A20716371574800885349CD
:104770000988411AC9B2200002F0A4F9010089B2E7
:10478000090AA171E07110BD10B50400FEF754F9DB
:104790004E49884205D048480188200000F0A8F81A
:1047A00004E093210902200000F0A2F810BDFEB53C
:1047B0000400172069464880454F0297302069461B
:1047C0000880B44D01952079000261794618FEF702
:1047D00033F94049884232D0A0780002E17840188D
:1047E00090210902884211D1B6B2172E27D12E226C
:1047F000E11D380001F06EFE684642880299364895
:10480000FEF7B4F80220FEF74CF918E0A078000299
:10481000E178401891210902884210D1B6B2302EB9
:104820000DD16022E11D280001F054FE6846028887
:1048300001992A48FEF79AF80120FEF732F9F7BDF0
:104840000400FA050CED00E0F8B505000127244E40
:104850000096A8780002E97840189221090288425F
:1048600029D11C4CFEF7E8F82100884203D1FEF75D
:1048700009F9C8281FDB2879000269794018A0428D
:1048800019D1200030803A0092B200991548FEF705
:104890006DF8C54801004231134A0A80134A442387
:1048A000C2520222C148FEF761F82000FEF7C1F8AB
:1048B0000320FEF7F6F8F1BD20000020867F0008F7
:1048C000F6160008721500088A1400085A5A0000EB
:1048D00054050020A5A500000002080800000808F3
:1048E000B4060020F8010808015600000407000083
:1048F000F8B504000025280028002800280008003A
:104900008022120280B2904200D0C5E0012012E065
:104910000100C9B249006118C97809020200D2B287
:104920005200A21812798918A14A914202D102219B
:10493000A04A1170401C0100C9B20629E8DB9D485D
:104940000078022800D12EE19B4D9C4829001222BC
:1049500001F0C0FDFF200002E1790902227A8918E6
:10496000814205D0E1790902227A8918002904D10F
:10497000E1790902227A8918A980A9880200914266
:1049800004D1E17809022279891829806179090224
:10499000A2798918814205D0617909026279891862
:1049A000002904D161790902A27989186980617AA4
:1049B0000902A27A8F18E17A0902227B8E18617BA4
:1049C0000902A27B891889196A461180E17B0902D4
:1049D000227C8918A981617C0902A27C8918E9815D
:1049E000E17C0902227D89182982A989020091426D
:1049F0000FD1E9890200914205D1AA48FFF712FDC3
:104A0000FFF7A4FD05E0298A814202D10120FFF7CA
:104A100029FD6548C18C022919DBA34909886A462A
:104A20001288914202D3694609886981C08C0528A1
:104A30000DDA9E480088390089B2884200D3EF80A1
:104A40009B480088310089B2884200D32E815B48A0
:104A500041886A88914210D18188AA8891420CD1FC
:104A6000C188EA88914208D101892A89914204D1FA
:104A700040896989884200D195E03024054D28009D
:104A8000FDF750FF220092B229008A48FDF76EFF21
:104A900089E000BF740300200800874A80B290427A
:104AA00047D1E078000221794018002807D0FF267E
:104AB0003602E078000221794018B0420ED13A4E19
:104AC000E0780002217940183083082162793400AF
:104AD0004634200003F058FAF58264E0E0780002E2
:104AE000217940187549884205D0E0780002217983
:104AF0004018A52802D10020FDF7C7FFFDF76FFE83
:104B00000B2808D1E078000221794018A52802D1AD
:104B10000220FDF7BAFFE078000221794018A521B4
:104B2000090288423FD10120FDF7AFFF1E48C6822F
:104B300039E00800624A80B2904211D1E078000268
:104B400021794018FF2109020A0080B2904203D166
:104B50000800FDF7A0FF26E00020FDF79CFF22E003
:104B600008008022920180B2904207D1E0780002D2
:104B70002179401880B2FFF77BFC14E00800514A0D
:104B800080B2904207D1E07800022179401880B2CB
:104B9000FFF774FC07E09320000289B2814202D142
:104BA0000520FDF77EFFF1BD30040020420008081B
:104BB000FFFF0000E6060020C0050020D40500200D
:104BC00070B594B00022130007E01C00E4B2045D4D
:104BD0006D461E00F6B2AC555B1C1C00E4B20D0025
:104BE000A4B2ADB2AC42F0D30FE06C461300DBB21E
:104BF000E35C1500EDB2641964781500EDB244551C
:104C00001400E4B204196370921C1300DBB20C00B0
:104C10009BB2A4B2A342E8D314B070BD70B594B0F7
:104C200004000D008220000292B2824206D14E2280
:104C300025496E46300001F04DFC05E01222234963
:104C40006E46300001F046FC290089B26846FFF745
:104C5000B7FF002008E069460200D2B2895C02007A
:104C6000D2B2A218D171401C0100C9B22A0089B287
:104C700092B29142EFD314B070BD10B5002209E09A
:104C8000134B1400E4B21B19DB781400E4B20419CE
:104C9000E371521C1300DBB20C009BB2A4B2A3421E
:104CA000EED310BD807F0008E07F0008D67F0008AB
:104CB000DE7F00080000080804810000A5A50000B0
:104CC000038100000120000030040020C005002006
:104CD000C0010020FCB500220023002332E006239F
:104CE00003E0684B9842FAD105239C4613009B00D1
:104CF0000C271F406346BB4033439608B600AB51B8
:104D0000614D2B68A3434E68F60300D523432B6007
:104D10005E4D2B68A3434E68B60300D523432B603A
:104D20005B4D2B68A3434E68F60200D523432B60EE
:104D3000584D2B68A3434E68B60201D51C4323008F
:104D40002B60521C0B68D340002B00D199E001234B
:104D50000D681C0094402C40002CF2D003254E68B6
:104D60002E40012E03D04E682E40022E19D18768A6
:104D7000BC46160077002E00BE406746B743BC46CF
:104D8000CF6816007600B7406646374387604768AD
:104D90001E009640B7434E6836091E4096403E437B
:104DA00046604E682E40032E0FD0C768BC461600E2
:104DB00077002E00BE406746B743BC468F6816009A
:104DC0007600B74066463743C7604E682E40022ED5
:104DD0001FD1D608B6008619366A0196019E009644
:104DE0000F27BC461600B7001C263E406746B7405A
:104DF000009EBE4300960F69BC461600B7001C26F5
:104E00003E406746B740009E3743D608B600861935
:104E100037620768BC46160077002E00BE40674622
:104E2000B7434E68354016007600B5403D430560F7
:104E30004D68C026B6022E40002E82D02E4D2E6820
:104E40001E432E602D4D9608B600AE5900960F27D2
:104E5000BC461600B7000C263E406746B740009E91
:104E6000BE43A027FF05B84201D100233DE7244FF0
:104E7000B84200D139E7234B984200D031E70223F2
:104E800033E7F3BD001C005000040140040401405E
:104E9000080401400C04014000B5006989B20840D3
:104EA000002801D0012000E00020C0B200BD00B504
:104EB000D2B2002A02D089B2816101E089B2816256
:104EC00000BD42690B009BB213401B0489B29143A1
:104ED00019438161704780B50B490A6803009BB292
:104EE0001A40002A05D0020092B20A6080B201F096
:104EF00061FE01BD000000003410024008000140C6
:104F0000000400500008005014040140F8B50400EB
:104F1000002C01D10120C4E0634800680C25054045
:104F2000802676026048006830402178C90751D554
:104F3000082D03D00C2D0AD1B04208D15948006881
:104F4000800347D56068002844D10120A9E060684B
:104F5000B04204D153480168314301601BE06068EE
:104F6000A021C902884209D14E4801688022D2029C
:104F70000A4302600168314301600CE0494801685E
:104F80009A4A0A4002600168314000910099016824
:104F9000464A0A400260606800280DD0FEF7E2F938
:104FA000070040480068800314D4FEF7DBF9C01BFB
:104FB0006528F6D3032074E0FEF7D4F907003948DA
:104FC0000068800306D5FEF7CDF9C01B6528F6D32F
:104FD000032066E0606A002862D00C2D47D0606A2A
:104FE000022832D12F4D2868814901402960FEF7FF
:104FF000B9F907008026B60428683040002806D09A
:10500000FEF7B0F9C01B0328F4D3032049E026487B
:105010000168784A0A40A16A1143E26A0A43216B97
:105020001143016028688021490401432960FEF78B
:1050300099F9040028683040002831D1FEF792F930
:10504000001B0328F6D303202BE0164C2068684988
:1050500001402160FEF786F90500206880011FD518
:10506000FEF780F9401B0328F7D3032019E0606A9C
:10507000012801D1012014E00B4800680640A16A14
:105080008E420BD1F02189030140E26A914205D1A1
:10509000C02109040140206B814201D0012000E0C1
:1050A0000020F2BD001002400C100240FFFFFBFF89
:1050B000FEB50400002C01D1012096E000910125ED
:1050C0007C4E306828400099884215D23068012112
:1050D0008843009901433160FEF744F907003068C6
:1050E00028400099884207D0FEF73CF9C01B72495E
:1050F0008842F4D3032078E02078800706D56F48F3
:105100000168F0229143A2680A43026020682840A7
:10511000002823D06068032805D169480068800111
:1051200001D4012061E0654F38680321884361683C
:1051300001433960FEF716F90190606803280DD12C
:1051400038680C2101400C2908D0FEF70BF90199B1
:10515000401A59498842F3D3032046E00098316849
:105160002940884215D230680121884300990143C3
:105170003160FEF7F7F80700306828400099884250
:1051800007D0FEF7EFF8C01B4B498842F4D3032049
:105190002BE02078400706D548480168494A0A4074
:1051A000E168114301602078000707D54348016892
:1051B000454A0A402169C9001143016000F01CF80A
:1051C00042493E4A126812091207120F895CC84010
:1051D0003F4908603F48006801F088FA0100C9B201
:1051E000002901D0C0B200E00020FEBDFFFFFEFF9D
:1051F000FFFFFFFEFFFF02FF10B530490A680C20D9
:105200001040042804D008280AD00C280AD037E01F
:105210002B480068C00601D52F4800E02F4838E031
:105220002F4836E02F48930C1B071B0FC05C920DD4
:105230009407A40F641C0968C90309D50021284AF2
:10524000002301F043FD2200002301F058FD16E089
:105250001B490968C90609D500211F4A002301F02E
:1052600035FD2200002301F04AFD08E000211B4A21
:10527000002301F02BFD2200002301F040FD08E097
:1052800019480068400B4007400F0121401C814035
:10529000C80310BD0E480068704780B5FFF7FAFFDD
:1052A0001249134A1268120A5207520F895CC84009
:1052B00002BD000000200240891300000C100240D3
:1052C00000100240FFF8FFFFFFC7FFFF88710008D2
:1052D0001C0000201800002000093D000024F400FC
:1052E00000127A00B871000804100240C47100086E
:1052F0000C10024000B50178890706D509490A68F3
:105300000C239A43836813430B600178090706D581
:1053100004490A68044B13400069184308600020E0
:1053200000BD00004C100240FFCFFFFF10B504008D
:10533000002C01D101204AE04120205C002805D149
:10534000002040216054200000F080FC24204121F6
:105350006054206800680121884321680860606803
:105360001B490140206801611A4821688968014091
:1053700022689160A168802212020A4321688A6033
:1053800021684968144A0A4321684A602168C9684B
:1053900008402168C860206961690143A069000272
:1053A00008432168C860E069216A01432068016000
:1053B00020680068012101432068016000206064CA
:1053C00020214122A154206342216054002010BDBD
:1053D000FFFFFFF0FF7FFFFF00800002FEB504002B
:1053E0000F0016001D004120205C202800D0CAE0DC
:1053F0000898002803D06846808C002804D18020BB
:10540000800060640120BFE04020205C012801D1C1
:105410000220B9E0012040216054FDF7A3FF029073
:10542000029800901923012280210902200000F037
:105430001FFA002801D00120A6E02B003200212015
:105440004121605440204221605400256564089841
:1054500060626846808C60856563029801900A9856
:1054600000909BB292B2390089B2200000F06EF930
:10547000002803D040202554012085E080267600B6
:10548000608DB0420DD3FF20208500200090802346
:105490005B04228DD2B2390089B2200000F0BCFA40
:1054A0000CE0608D20850020009080239B04228DDD
:1054B000D2B2390089B2200000F0AEFA029A0A99FD
:1054C000200000F001FA00282ED1606A00782168DF
:1054D0008862606A401C60629948618D0918618524
:1054E000218D08182085608D00282ED0208D002861
:1054F0002BD1029800900A9B00228021200000F00E
:10550000B7F9002812D1608DB04211D3FF20208559
:105510000020009080235B04228DD2B2390089B232
:10552000200000F079FA10E001202DE001202BE0AE
:10553000608D20850020009080239B04228DD2B2B4
:10554000390089B2200000F067FA608D0028B5D1DB
:10555000029A0A99200000F0E3F9002801D0012006
:1055600012E020202168C86121684968754A0A4014
:1055700021684A6041216054280042216054402043
:105580002554002000E00220FEBD0000FEB504000E
:105590000F0016001D004120205C202800D0CDE027
:1055A0000898002803D06846808C002804D1802009
:1055B000800060640120C2E04020205C012801D10D
:1055C0000220BCE0012040216054FDF7CBFE029098
:1055D000029800901923012280210902200000F086
:1055E00047F9002801D00120A9E02B003200222039
:1055F0004121605440204221605400256564089890
:1056000060626846808C60856563029801900A98A4
:1056100000909BB292B2390089B2200000F0D4F819
:10562000002803D040202554012088E08026760001
:10563000608DB0420DD3FF20208543480090802329
:105640005B04228DD2B2390089B2200000F0E4F967
:105650000CE0608D20853C48009080239B04228DC7
:10566000D2B2390089B2200000F0D6F90298009039
:105670000A9B00220421200000F0FAF800282ED115
:105680002068406A616A0870606A401C60622C4849
:10569000218D09182185618D08186085608D00288D
:1056A0002ED0208D00282BD1029800900A9B00223A
:1056B0008021200000F0DCF8002812D1608DB0427B
:1056C00011D3FF2020850020009080235B04228DD1
:1056D000D2B2390089B2200000F09EF910E001201A
:1056E0002DE001202BE0608D20850020009080239C
:1056F0009B04228DD2B2390089B2200000F08CF9CF
:10570000608D0028B2D1029A0A99200000F008F9B1
:10571000002801D0012012E020202168C861216802
:105720004968084A0A4021684A60412160542800BB
:105730004221605440202554002000E00220FEBD9C
:10574000FFFF000000E800FE00240080F8B506001E
:1057500014001D00079F3B48009080235B042A0033
:10576000D2B289B2300000F057F93A000699300001
:1057700000F0AAF8002801D0012024E0ADB2012DEC
:1057800003D1E4B23068846211E0200080B2000AE4
:10579000C0B2316888623A000699300000F094F88F
:1057A000002801D001200EE0E4B230688462009746
:1057B000069B00228021300000F05AF8002801D01A
:1057C000012000E00020F2BDF8B5060014001D0025
:1057D000079F1C48009000232A00D2B289B23000F3
:1057E00000F01AF93A000699300000F06DF8002830
:1057F00001D0012024E0ADB2012D03D1E4B2306824
:10580000846211E0200080B2000AC0B23168886270
:105810003A000699300000F057F8002801D0012026
:105820000EE0E4B2306884620097069B00224021BB
:10583000300000F01DF8002801D0012000E0002019
:10584000F2BD00000020008000B501688969890769
:1058500002D50021026891620121026892690A4022
:10586000002A04D10268926911430068816100BD79
:10587000F4B504000F001D00069E206880693840C2
:10588000B84201D1012000E0002069460978884231
:1058900018D10020C0438542EFD0FDF763FD801B87
:1058A000854201D3002DE8D12020616C0143616461
:1058B00041216054002001004222A1544021605443
:1058C000012000E00020F2BD70B504000D001600BC
:1058D00020688069800721D432002900200000F070
:1058E00049F8002801D0012019E00020C04385427A
:1058F000EED0FDF737FD801B854201D3002DE7D1A7
:105900002020616C0143616441216054002001004A
:105910004222A15440216054012000E0002070BDCB
:10592000F8B505000E001700202428688069204083
:1059300000281DD13A003100280000F01BF8002893
:1059400007D1FDF70FFDC01B864204D3002EEBD11B
:1059500001E001200DE0686C2043686441202C5474
:10596000002001004222A95440216854012000E097
:105970000020F2BDF8B50400102520688069284099
:10598000002846D00F00009220684068800106D4AD
:10599000206840688021C9010143206841602026B9
:1059A000206880693040002818D10020C043874219
:1059B000F5D0FDF7D7FC0099401A874201D3002F9C
:1059C000EDD1606C3043606441202654002001001A
:1059D0004222A1544021605401201BE02068C5618F
:1059E0002068C6612000FFF72FFF20684068154936
:1059F000014020684160606C0421014361644120E2
:105A00002654002001004222A1544021605401206C
:105A100000E00020F2BD0000F0B4049C05686D6851
:105A2000660D094F3743BD4389B28905890D294366
:105A3000D2B212040A4313431C4300684460F0BC12
:105A40007047000000E800FEFF63FF0310B541222D
:105A5000825C202A2AD14022825C012A01D10220C4
:105A600025E001221300402403552423412403553B
:105A700003681B680124A3430468236003681B6850
:105A8000234C1C4003681C6003681B6819430368AF
:105A90001960016809680A4301680A6020214122EF
:105AA0008154002140228154002000E0022010BDDA
:105AB00010B54122825C202A27D14022825C012A33
:105AC00001D1022022E001221300402403552423A7
:105AD0004124035503681B680124A3430468236021
