:020000040800F2
:10000000000B00209D710008056B0008096B0008BB
:1000100000000000000000000000000000000000E0
:100020000000000000000000000000000D6B000850
:1000300000000000000000000F6B0008116B0008BA
:10004000EF7F0008F17F0008F77F0008FB7F0008C2
:10005000FF7F0008716B0008816B00088B6B000844
:10006000000000009B6B00085B710008E571000850
:10007000A56B0008E771000800000000E9710008A6
:100080000000000000000000000000000000000070
:10009000EB71000800000000ED710008EF7100082E
:1000A00000000000F17100080000000000000000E6
:1000B000AF6B0008F37100080000000000000000B2
:1000C000524909684843704710B504004F4800681A
:1000D00001F0F4F9210001F0FCF9002101F052FADD
:1000E00002D8FC21890501E0BF21090601F05EFA72
:1000F00001F0ECFA10BD10B5454C0122210001F0D1
:100100004EFB00280ED143482178434A0388D1543E
:100110000188491C018001204049088000F0D4F981
:100120003F49086010BD80B500203E4908603E4848
:100130003E49096881613E490968C161BD49096854
:100140000162012102F073F801BD10B5394C02F0D3
:1001500005F9208002F02BFB012813D136482188B5
:100160000288914205D321880088081A3349088003
:100170001BE0B42149000088081A218840182F4943
:10018000088012E02C4801882288914205D300881B
:100190002188401A2949088007E00088B4214900D5
:1001A00040182188401A2549088024480188FF22E8
:1001B0006A32914204DB0188B4225200891A01801C
:1001C0009D4902888B8D9A4206D3B4225200898DB4
:1001D000511A0288914201DA0021018010BD10B548
:1001E000012002F001FB0024154800688463200010
:1001F0001449087002F0B2F80F49088020000F4936
:1002000008808E480470FFF78EFF10BDDC71000877
:10021000DB060020B6060020C0010020B806002042
:10022000700600205006002084050020A40600204F
:10023000A8060020BA060020BC060020BE0600204A
:1002400014050020E5060020F8B584B00024200045
:10025000012002007A4E039630216B4619807949BD
:1002600002911727744D01952100774B19702100D9
:10027000764B19702100D54B19702100744B197001
:100280002100744B197074490C602100734B197074
:1002900073490C602100734B19702100724B198057
:1002A0002100724B19802100714B19702100714B94
:1002B00019700100704B19700100704B1970704972
:1002C000087020006F49087020006F4908702000F6
:1002D0006E49087020006E49087092B203996D480B
:1002E00002F0B8FA30886C49884219D16846028811
:1002F00002996A4802F0AEFA029802F0C0FA3A0097
:1003000092B20199664802F0A5FA6648664942220F
:1003100081526649442281525F4802F07EFB08E028
:10032000634802F07AFB3A0092B201995C4802F00D
:1003300091FA604E288C01F0B1F8310002F0CCFB4C
:10034000FFF7C2FE5C490860688C01F0A7F8310035
:1003500002F0C2FBFFF7B8FE58490860354FA88C81
:1003600001F09CF8310002F0B7FBFFF7ADFE3860FA
:10037000534851490968816150490968C161396828
:100380000162288AFFF79CFE4E490860688AFFF7E1
:1003900097FEAB490860688BFFF792FEA949086099
:1003A000A88BFFF78DFEA8490860E88BFFF788FE51
:1003B000A6490860A88AFFF783FEA5490860A548FA
:1003C0000460E88AFFF77CFEA3490860288BFFF7EA
:1003D00077FEA2490860288D01F060F8310002F034
:1003E0007BFBFFF771FE0700E88C01F057F8310046
:1003F00002F072FBFFF768FE390002F01AFC688D0C
:1004000097490870200097490870002002F0ECF925
:1004100002F044F89448046002F096FE02E002F014
:100420002BFC641C2000C0B20F28F8DB02F0CCFECD
:1004300005B0F0BDAC06002054050020EC060020FD
:10044000B406002074030020DD060020DE06002034
:10045000E0060020DC0600205C060020E10600200B
:1004600060060020E2060020BC060020BE06002038
:10047000CF060020D0060020D1060020D2060020A2
:10048000D3060020D4060020D5060020D806002080
:10049000DA060020F8010808A5A5000000000808F9
:1004A0000002080830040020015600000507000083
:1004B0005A5A00000000C842A4060020A8060020E6
:1004C000840500208406002080B502F049FF02BDAB
:1004D00010B5040002F044FF001B10BD38B5002524
:1004E00028003A490870614C2078012813D102F0A5
:1004F0008BFA022803D002F087FA01280BD1544866
:10050000006854490860032002F06EF90120584940
:10051000087028002070564C2078012850D102F035
:1005200066F9032803D002F062F9052840D101F0F2
:1005300097FEFFF70AFE02F05AF9032823D14D482F
:10054000408849490968884232D2042002F04CF9B7
:1005500049480068856301F001FF48490880484820
:100560000580FFF7B1FF47490860FFF7DCFD02F0A7
:100570001EF9002803D1012002F028F918E000201C
:1005800002F024F914E03B4D2889012809D13D48A7
:100590000068FFF79DFF6989814209D2FFF71FFEBE
:1005A00006E037480088A989884201D3FFF717FE83
:1005B00002F0F2FE3448006802F0F7FA2A490860B7
:1005C000207802283BD1314802E000BFDF0600203E
:1005D0000078022833D102F00AF9032803D002F090
:1005E00006F9052823D101F03BFEFFF7AEFD02F02E
:1005F000FEF8032802D1052002F0F6F802F0F7F821
:10060000052814D11B4C2089012809D11D480068F8
:10061000FFF75EFF6189814209D2FFF7E0FD06E046
:1006200017480088E189884201D3FFF7D8FD02F01E
:10063000B3FE1548006802F0B8FA0B49086031BDF6
:10064000880600208C0600209006002094060020DA
:1006500098060020500600209C060020A0060020DE
:10066000E3060020E40600204C060020EA060020F5
:10067000E50600205405002014050020BC060020DB
:10068000BE0600207806002040060020EC06002070
:10069000FEB500206946888002F09EFE00F098FCBE
:1006A00000F022FE00F0FFFD00F0E4FC00F0D4FDBD
:1006B00000F074FD00F034FD00F059FDFFF7C4FDBB
:1006C00001F024FE0020BD49096888630421BB486D
:1006D00002F0E4FEBA4C0021200003F025F90028C6
:1006E00001D000F0D7FE0322B649200003F098FAAB
:1006F000002801D000F0CEFE0121B34801F097FDA3
:100700000122B249B24801F04AF8FFF7DDFEB149D3
:100710000860FFF7D9FEB0490860FFF7D5FEAF4982
:100720000860FFF7D1FEAE490860002429E00120EF
:1007300002F07FF9AB480068FFF7CAFE7189328981
:1007400089186943814206D202F0A8F9012802D132
:10075000002002F0A0F9A448C08C022811DA02F0AF
:1007600059F901280DD1A14D2868FFF7B1FEFA21F2
:100770004901884202D22868002802D1002002F0F4
:1007800046F90121924807F0FDFB994800780128BD
:1007900005D102F02CF8032801DBFFF79FFE9548F6
:1007A0000178012900D0ECE000252900017002F059
:1007B0001EF8062810D102F0EFFDD348006802F0C1
:1007C000F4F9D249086001F04BFDD14E01F0C6FDAD
:1007D000308030888849088002F009F8072832D133
:1007E00002F0DAFDC94EC848006802F0DEF9306058
:1007F00001F036FDC74800883168884223D20420C2
:1008000001F0F2FF6D480068856301F0A7FD7A49A9
:1008100008802800794908800220CC49087001200E
:1008200077490870FFF750FE76490860FFF77BFCB8
:1008300001F0BDFF002803D1012001F0C7FF02E055
:10084000002001F0C3FF6848C08C052853DB01F08D
:10085000CEFF092822D102F09FFDAB48006802F0CC
:10086000A4F9AA49086001F0FBFC02F005F901288F
:1008700003D0684680883D280BDB0A2001F0B4FFD6
:100880004E4800688563FFF74EFC28006946888063
:1008900004E068468088401C6946888001F0A7FF14
:1008A0000B2828D102F078FD9748006802F07DF906
:1008B0009649086001F0D4FC02F0DEF8022803D06B
:1008C000684680883D2811DB022001F08DFF3B48FF
:1008D00000688563002002F0B2F8012002F0A9F858
:1008E000FFF721FC28006946888004E0684680887C
:1008F000401C6946888001F07AFF0C2837D102F04D
:100900004BFD8148006802F050F98049086001F011
:10091000A7FCC34F3878012829D1C24E3068FFF7B1
:10092000D7FD7C49C988814221D2280038703560C2
:10093000042001F059FF21480068856301F00EFD95
:100940002D4908802D48058002208049087001202B
:100950002B490870FFF7E7FB01F029FF002803D1BE
:10096000012001F033FF02E0002001F02FFF01F031
:10097000C1FD02F081F902F001FB03F043FB02F03C
:1009800075FB21480178012900D0C7E00025290026
:10099000017001F02CFF022857D12C0001F060FCFF
:1009A000A1480178012950D1290001709F4F174EAD
:1009B0003100380001F0F8FC2C0035E0140500206F
:1009C000D40300201006002084050020DB06002050
:1009D000F002002064060020680600206C0600205B
:1009E0007006002058060020300400207C060020FD
:1009F000DF060020DE060020BC060020BE06002028
:100A0000EC06002078060020DD060020F805002016
:100A100028002100C9B28900785228002100C9B2FB
:100A2000890079184880641C2000C0B26428EFDB7C
:100A3000B9483188C18071884181B1880181F188CC
:100A40008180318981817189C18101F0D0FE0D28B9
:100A500003D001F0CCFE0E2809D102F09DFC2A48FB
:100A6000006802F0A2F82949086001F0F9FB01F0E2
:100A7000BEFE06281DD135480078002819D1A748A8
:100A80000078002815D00120674908706748204980
:100A900009882200D2B2920081521C4909682200C2
:100AA000D2B29200801841802000C0B2642800DADF
:100AB000641CC44F3878012821D1C3480068FFF76F
:100AC00007FD14498988814219D2C94E3078401CEB
:100AD00030702800387052480178002905D1012172
:100AE0000170FFF7F1FC4F4908600C2001F07CFE1B
:100AF0003078042803DB202001F06AFF357003F012
:100B00007BFBBC4808E000BF400600204C060020EC
:100B1000BA0600205405002003F07DFCB64D28687D
:100B2000FFF7D6FCFB280BD303F0A3FC002804D16D
:100B300001F064FFC0B203F0B7FCFFF7C5FC28600A
:100B40007548C08C052845DBAC4E01E0E506002069
:100B50003068FFF7BDFC06281ED301F073FF0128A3
:100B60001AD1A74D05200090A64B0322290003208F
:100B700003F0FAFCA4480821018002882900A34858
:100B800000F0C2FDFFF7A0FC306001F030FE02284B
:100B900002D1082001F028FE9D4D2868FFF798FC3F
:100BA000DD2817D301F04EFF002813D1944E012009
:100BB0000090D24B03223100032003F0D5FC924871
:100BC0000821018002883100904800F09DFDFFF768
:100BD0007BFC2860CA4D2868FFF77AFC292800D2E0
:100BE0003AE101F01DFFC749884200D034E101F02D
:100BF0004FFF002800D02FE101F038FFC82800DBAC
:100C00002AE101F01FFF002800D025E103F031FCAC
:100C1000002800D1C3E000220421BB4808E000BF47
:100C2000E206002060060020E406002030000020DC
:100C300004F053F98021A020C00504F058F903F016
:100C400018FC01280ED101200090B04B03226C4902
:100C5000062003F089FC08206B490880022003F07D
:100C600005FCE8E003F005FC02280FD1012000900C
:100C700080239B0101226249032003F075FC0820B8
:100C800061490880032003F0F1FBD4E003F0F1FB9D
:100C9000032812D1CB4E30880090CB4B012258490B
:100CA000062003F061FC0820574908803088401C6A
:100CB0003080042003F0DAFBBDE003F0DAFB042807
:100CC0000FD14020009084239B0101224C49032036
:100CD00003F04AFC08204C490880052003F0C6FBBD
:100CE000A9E003F0C6FB05281ED140200090842314
:100CF0009B0103224249102003F036FC892042491F
:100D0000088003F0BCFBAF490988814208D2032068
:100D100003F0ACFB8FE000BF30040020D8060020B9
:100D2000062003F0A3FB86E003F0A3FB06280ED108
:100D300001200090A54B03223149032003F014FC4D
:100D4000082031490880072003F090FB73E003F08E
:100D500090FB07280ED1022000906C4B03222849FB
:100D6000062003F001FC082027490880082003F032
:100D70007DFB60E003F07DFB08285CD103F085FB80
:100D800080B20090914B01221D49062003F0ECFB3C
:100D900008201D490880002003F068FB4BE0B448A0
:100DA0000178002912D101210170092000908023CF
:100DB0001B0201221249032003F0D6FB082012492E
:100DC000088038E0E10600205C0600200178012957
:100DD00020D1002101702720009082231B020122D4
:100DE0000749102003F0C0FB57200749088022E084
:100DF000DA060020E80500206406002074060020C2
:100E0000580200200481000024000020F00200208D
:100E100068060020017802290DD100210170092007
:100E2000009080231B020122BA49102003F09CFB92
:100E30001B20B9490880B8480288B649B74800F075
:100E400063FC01F013FE002802D0022001F0FDFD3A
:100E5000FFF73AFB286074E001F01AFE032818D16E
:100E6000AC4E2848009092231B020222310006203B
:100E700003F07AFB002001F008FEA748082101805A
:100E800002883100A54800F03FFCFFF71DFB2860F9
:100E900057E001F0FDFD022815D19E4D172000906E
:100EA00090231B0202222900102003F05DFB00208A
:100EB00001F0EBFD9848082101800288290097483D
:100EC00000F022FC3DE001F0E3FD012820D1914D2E
:100ED0003020009091231B0202222900102003F0F1
:100EE00043FB002001F0D1FD8B48082101800288DE
:100EF00029008A4800F008FC23E000BF03810000BD
:100F00006C060020A5A5000000040050028100002E
:100F100001F0BEFD052814D17E4D0B2000909323D7
:100F20001B0202222900032003F01EFB002001F017
:100F3000ACFD79481B21018002882900774800F028
:100F4000E3FB93480068FFF7C3FA03281BD3914ED5
:100F500091480078318880B2884214D2BA4800881B
:100F6000012810D1B94D3188280003F030FB002052
:100F70000100B54A11800100318096210090009A4D
:100F8000280007F001F8B2480068FFF7A1FAFA2537
:100F9000AD00B04E31896943814201D3FFF7CAFBEE
:100FA00001F02CFD082801D0FFF7C4FBC748C08C16
:100FB000052801DAFFF7BBFB012001F040FDFFF738
:100FC000B9FB0000C0060020022000000120000044
:100FD00038B598B03421002422000BAD280006F06B
:100FE000D3FF142122006D46280006F0CDFF182102
:100FF000220005AD280006F0C7FFB5480168B54AD4
:101000000A40802109011143016001200B90A020BA
:10101000C0020C9002201490802040021590C02045
:10102000000316908020C00317900BA803F084FFE4
:10103000002801D000F02EFA0F200090032001902C
:101040000294039404940121684604F047F80028B0
:1010500001D000F01FFA0A2005900794099405A812
:1010600004F05EF9002801D000F014FA19B030BD88
:10107000E60600207CB5082100252A006C462000E9
:1010800006F082FF944C95482060E56380200006BE
:101090006060A5600620A06301202061E56001007A
:1010A0002022A15429002122A154A562FF21C2318E
:1010B00061622C21605404206061802676012663E1
:1010C000A5616563E561200002F098FC002801D06D
:1010D00000F0E0F98248009001966946200002F095
:1010E00076FE002801D000F0D5F97E4800906946D0
:1010F000200002F06CFE002801D000F0CBF9D548AA
:1011000000906946200002F062FE002801D000F045
:10111000C1F973BD5802002024000020F002002015
:1011200010B5CD4CCD482060CD4860600020A06057
:101130000121E16020616061A061E0612062200026
:1011400004F00AF9002801D000F0A4F900212000E1
:1011500004F092FC002801D000F09CF9002120004E
:1011600004F0BCFC002801D000F094F910BD80B55B
:10117000BC48BD49016003214160BC49C160816038
:1011800003F014F9002801D000F084F901BD00003B
:1011900070060020B6060020F471000870B58AB011
:1011A000102529000024220006AE300006F0ECFED7
:1011B000082122006E46300006F0E6FE29002200DB
:1011C00002AD280006F0E0FEA94D8020C005286091
:1011D0006C60AC60A748E8602C616C61280002F08C
:1011E00011F9002801D000F055F980204001069047
:1011F00006A9280002F02CFA002801D000F04AF9D4
:10120000280002F025F9002801D000F043F90094ED
:1012100001946946280004F095FC002801D000F0F4
:1012200039F960200290039404940594042202A9E1
:10123000280002F08DF9002801D000F02BF92800D9
:1012400004F052FD0AB070BDB8060020C0010020B5
:1012500054060020C005002080B5874887490160FA
:10126000E121490241608021490181600022C26080
:101270008023DB0003610C2343618261C26102624F
:1012800038224262802212024263816380218901F6
:10129000C16300230022002104F0A2FD002801D038
:1012A00000F0F8F801BD80B5012075490A680243D5
:1012B0000A60096808400090009800220121092076
:1012C00004F039FE092004F03BFE01BD300400208B
:1012D00000700040FFE7FFFFD4030020002401401E
:1012E0002000001440000018F8B586B01421002436
:1012F00022006D46280006F047FE04276148016879
:10130000394301600168394005910599012501685B
:10131000294301600168294005910599022102686D
:101320000A4302600068014005910598564E00226C
:1013300080210902300003F0D0FD01228021C90183
:10134000300003F0CAFD00225049A020C00503F080
:10135000C4FD002204214E4803F0BFFDC02000025E
:1013600000900195029403946946300003F0C8FC94
:1013700006200090019402946946A020C00503F065
:10138000BFFC10200090C426B60301960294694663
:10139000A020C00503F0B4FC082000900196029440
:1013A0006946A020C00503F0ABFCC02040000090BF
:1013B0000195029403946946A020C00503F0A0FCA7
:1013C000032000908426B6030196029469463048B3
:1013D00003F096FC009701950294039469462C480B
:1013E00003F08EFC80200001009001940294694675
:1013F000A020C00503F084FC80200002009001952D
:10140000029403956946A020C00503F079FC2020D2
:1014100000900196029469461D4803F071FC002279
:101420000021052004F087FD052004F089FD00223D
:101430000021062004F07FFD062004F081FD00223B
:101440000021072004F077FD072004F079FD07B0A4
:10145000F0BD00000000044880040020005400405B
:10146000BB7C7000E805002000300040FF0F00004A
:1014700014050020FF030000F0020020004400409B
:10148000301002402C100240000800508081000003
:101490000004005000B572B6FEE708009D2102006E
:1014A0000AD002D4491E9218FCD5C905100A1206AA
:1014B000524100D3012A4841704700009D2102009B
:1014C000EED55242F446FFF7EBFF0122D20710435C
:1014D000604730B405004D400122D20715404B183B
:1014E0000418240E2ED01B0E32D0FF2C34D0FF2B2C
:1014F0003AD0E4180002090210431143000A090A15
:101500009446C2B24A43000AC3B24B43000A48435E
:10151000110A5B181A43D2B2190A091801D44918E2
:10152000641E080A7F3C23DBFE2C08DAE40509066A
:101530001143634699416041284330BC7047FF2006
:10154000C005F9E728001B0EFF2BF6D1D043F4E7C6
:101550002800FF2CF1D1F9E74002F7D1FF2B01D190
:101560004902F3D1E005E7E7D8054902E4D0EDE709
:1015700043020020641CDFD15B129B1CDCD9D80520
:10158000DAE708000CB4012212060318DA4207D881
:101590004B18DA4204D802000A43921802D2814260
:1015A0000CBC7047FCD088420CBC70470122D207AB
:1015B00003004B402ED4431A01D2C01AC91830B4CC
:1015C0004B180418240E1B0E22D0FF2C20D0E31A37
:1015D000182B1DDC09021143C40D641E00021043C8
:1015E00094461925ED1A0A00AA40D940451801D39E
:1015F0006D08A41CE405D209280A2D062A43654675
:10160000AA41604103181B0EFF2B01D3C00DC0057A
:1016100030BC7047514006E05140CCE70122D20770
:1016200003004B40F8D4431A03D2C01AC9185040E3
:10163000514030B44B18090211430418240E1B0EFC
:1016400040D0FF2C3AD025009D410BD31ED8C50DAC
:101650004002401A0BD3ED050100400AC905914133
:101660006841D5E7C50D40024918401AD0D0012184
:101670004008491C0018FCD58C4204D36D1A000A9E
:10168000ED054019C4E7E8051040C1E7182DBFDC9F
:10169000AC1C0D00E140E5414D40012D4941C40D18
:1016A00000021043451A01D46D199543641EE405E8
:1016B000280A2D069541604130BC7047FF2BA7D109
:1016C000D843A5E72442A3D10020A1E70122D207F5
:1016D0000118090E7F3910D449421F310FD4001868
:1016E00005D2C0011043C84000D5D0437047C001A7
:1016F0001043C84005D44042704700207047004264
:10170000F3D510007047080030B5836F202B44D10B
:10171000002903D013009BB2002B01D101203DE032
:1017200080235B0184689C4207D10469002C04D1AA
:101730000C00E40701D5012030E07424045D012C85
:1017400001D102202AE0012474254455C1645021AE
:101750004252522142520021816680228150212230
:10176000826782689A4205D10269002A02D12C4A16
:10177000826601E02B4A826674228154EFF3108165
:10178000012282F3108802681268802313430068E4
:10179000036081F31088002000E0022030BD38B5DE
:1017A000C36F202B39D1002903D013009BB2002B2B
:1017B00001D1012032E0836880246401A34207D173
:1017C0000369002B04D10B00DB0701D5012025E0C4
:1017D0007423C35C012B01D102201FE00123742478
:1017E00003550023036603680F4CA34211D003681E
:1017F0005B681B020DD5EFF31083012484F310887E
:10180000046824688025ED0425430468256083F37B
:10181000108892B200F002FB00E0022032BD00000E
:10182000F91F0008991F00080048004070B5040027
:101830002068C0692168096822689268BE4B03402D
:10184000002B0CD12025284209D00D40002D06D0B8
:10185000606E002802D02000616E88476BE1002B8B
:1018600000D19BE001231A4204D1B44D0D40002D5C
:1018700000D193E00500ED0708D5CD0506D5256814
:101880002B62802565592B43802563510223184222
:101890000AD01500ED0707D525682B62802565590C
:1018A00004262E43802566510425284209D01600BF
:1018B000F60706D526683562802565592B438025B5
:1018C0006351082318420AD08D0601D4D20706D5E9
:1018D000226813628022A25813438022A3508022E0
:1018E0001201104209D04B0107D523681A628022E9
:1018F000A258202313438022A3508022A258002AFA
:101900004BD020221040002808D00A40002A05D0E1
:10191000606E002802D02000616E88478020205829
:101920004025216889682940002903D128210140E8
:1019300000292CD0200000F0E9FA206880680540DA
:10194000002D20D0EFF31080012181F31088216851
:101950008968402291432268916080F31088206F4B
:1019600000280CD07648216F8863206F04F0B6FB06
:10197000002812D0206F216F896B88470DE020006E
:1019800006F02AFB09E0200006F026FB05E0200017
:1019900006F022FB002080216050CCE0236E012B5A
:1019A00000D0A4E01023184200D1A0E0194200D1D9
:1019B0009DE02068036220688068400659D5206F4A
:1019C00000684068010089B2002951D00100582206
:1019D000A25A89B291424BD25A2160522020216FE3
:1019E000096809680140002939D1EFF3108101220B
:1019F00082F3108822681268524B134022681360E9
:101A000081F31088EFF31081012282F3108822689D
:101A1000926801239A4323689A6081F31088EFF358
:101A20001081012282F310882268926840239A4331
:101A300023689A6081F31088E06700202066EFF346
:101A40001080012181F310882168096810229143D8
:101A50002268116080F31088206F04F016FB582074
:101A6000205A5A21615A411A89B2200006F08AFA96
:101A700061E05820205A5A21615A411A5A20205AAE
:101A8000002833D0080080B200282FD0EFF3108058
:101A9000012282F31088226812682B4B13402268BF
:101AA000136080F31088EFF31080012282F3108816
:101AB0002268926801239A4323689A6080F3108811
:101AC0002020E067002020666066EFF3108001228E
:101AD00082F310882268126810239A4323681A60E0
:101AE00080F3108889B2200006F04CFA23E08023AE
:101AF0005B03184207D0520205D52068036220001C
:101B000006F06BFA17E08022104209D00A40002A42
:101B100006D0A06E002802D02000A16E88470AE0FF
:101B200040221040002806D00A40002A03D020009E
:101B300000F094FAFFE770BD0F08000020010004D8
:101B4000851F0008FFFEFFFFDFFEFFFF70B50400EA
:101B500000252E00204821688142FFD0A16822691B
:101B60000A4363691343E169194322681268A64B6B
:101B7000134019432268116021684968A34A0A404A
:101B8000E168114322685160A1692268824202D053
:101B90000800216A0143206880689D4A0240114381
:101BA0002068816003F08FFB00280FD0616849082E
:101BB0004018616804F05DFB80B201001039954A5D
:101BC000914202D22168C86000E001266566A566E0
:101BD0003000C0B270BD00000048004000B52421B4
:101BE000415CC90707D5016849688B4A0A40816A88
:101BF0001143026851602421415C890707D50168BF
:101C00004968BA4A0A40C16A1143026851602421F6
:101C1000415C490707D501684968B54A0A40016B2C
:101C20001143026851602421415C090707D501680E
:101C30004968B04A0A40416B11430268516024214F
:101C4000415CC90607D501688968AB4A0A40816BC7
:101C50001143026891602421415C890607D501681F
:101C600089682F4A0A40C16B1143026891602421A0
:101C7000415C490614D501684968A04A0A40016CD4
:101C8000114302685160016C80225203914207D1D6
:101C9000016849689A4A0A40416C114302685160E0
:101CA0002421415C090607D501684968954A0A4024
:101CB000816C11430068416000BD00007CB50400E8
:101CC00000258020255001F04BFB060020680068AD
:101CD00000070CD58C480090330000228021890336
:101CE000200000F01FF8002801D0032017E0206832
:101CF000006840070CD58448009033000022802102
:101D0000C903200000F00EF8002801D0032006E0EF
:101D10002020A067E067256674202554002076BD4A
:101D2000FFDFFFFFF4B504000D001F00069E2068D2
:101D3000C0692840A84201D1012000E00020694686
:101D4000097888425DD10020C0438642EFD001F07F
:101D500007FBC01B864201D3002E21D1EFF3108078
:101D6000012181F3108821680968814A0A402168AD
:101D70000A6080F31088EFF31080012181F310884E
:101D800021688968012291432268916080F310885C
:101D90002020A067E067002074216054032031E018
:101DA000206800684007C2D5802000012168C96909
:101DB00001400029BBD021680862EFF310800121A7
:101DC00081F3108821680968694A0A4021680A601D
:101DD00080F31088EFF31080012181F310882168CF
:101DE0008968012291432268916080F31088202045
:101DF000A067E067802160500020742160540320B8
:101E000000E00020F2BD0000F369FFEFFFCFFFFF0D
:101E1000FFF4FFFFF0FF0000FFFFFDFF30B541655D
:101E2000582142525A2142520021416680225201D9
:101E3000836893420AD10369002B03D14D4B5C2484
:101E4000035324E0FF235C24035320E08368002B2A
:101E50000AD10369002B03D1FF235C24035316E04E
:101E60007F235C24035312E0836880246405A3422B
:101E70000AD10369002B03D17F235C24035306E0BE
:101E80003F235C24035302E00B005C2403538023B4
:101E9000C1502223C367EFF31083012484F3108819
:101EA0000468A468012525430468A56083F31088AD
:101EB0008368934205D10269002A02D12E4A426604
:101EC00001E02E4A426674228154EFF31081012210
:101ED00082F310880268126890235B001343006845
:101EE000036081F31088002030BD0000FFFFFEFF7B
:101EF000FFFFFBFFFF7FFFFFFFEFFFFFFFFFEFFF96
:101F0000FFFF9FFFFFFFF7FFFFFFFF0100B5EFF3AC
:101F10001081012282F3108802681268184B134066
:101F20000268136081F31088EFF31081012282F3BD
:101F300010880268926801239A4303689A6081F3CB
:101F40001088016E01290CD1EFF31081012282F378
:101F500010880268126810239A4303681A6081F39C
:101F600010882021C16700210166416600BD000084
:101F70005FFEFFFFFF0100004121000887200008ED
:101F8000DFFEFFFF80B5806A00215A228152522273
:101F9000815206F021F801BD00B5816F21292AD1B7
:101FA0005221415A00291AD1EFF31081012282F304
:101FB00010880268126880239A4303681A6081F3CC
:101FC0001088EFF31081012282F3108802681268F2
:101FD000402313430068036081F310880BE0C16C59
:101FE000097802689162C16C491CC1645221415A4E
:101FF000491E5222815200BD00B5816F21292CD18A
:102000005221415A00291AD1EFF31081012282F3A3
:1020100010880268126880239A4303681A6081F36B
:102020001088EFF31081012282F310880268126891
:10203000402313430068036081F310880DE0C16CF6
:102040000988C905C90D02689162C16C891CC16407
:102050005221415A491E5222815200BD80B5EFF3F0
:102060001081012282F310880268126840239A438B
:1020700003681A6081F3108820218167002181663E
:1020800005F0ACFF01BD80B55C21415AC26F222A28
:102090004FD10268526A1140426D1170416D491C66
:1020A00041655A21415A491E5A2281525A21415AA8
:1020B000002944D1EFF31081012282F310880268D5
:1020C00012684E4B13400268136081F31088EFF3DF
:1020D0001081012282F310880268926801239A43DA
:1020E00003689A6081F310882021C167002141664E
:1020F000026E012A1AD10166EFF31081012282F3E8
:1021000010880268126810239A4303681A6081F3EA
:10211000108810210268D2690A40002A01D00268A2
:1021200011625821415A05F02DFF08E0FDF7E3FF49
:1021300005E00168896908220A430068826101BDDF
:1021400080B55C21425AC16F22294FD101684B6A88
:10215000416D1A400A80416D891C41655A21415ADE
:10216000491E5A2281525A21415A002944D1EFF383
:102170001081012282F31088026812681F4B1340FD
:102180000268136081F31088EFF31081012282F35B
:1021900010880268926801239A4303689A6081F369
:1021A00010882021C16700214166026E012A1AD1E0
:1021B0000166EFF31081012282F310880268126831
:1021C00010239A4303681A6081F310881021026873
:1021D000D2690A40002A01D0026811625821415A8E
:1021E00005F0D0FE08E0FDF786FF05E0016889698B
:1021F00008220A430068826101BD0000DFFEFFFF84
:102200003B4909684843704700B5002807D438495E
:102210000A6852108018096804F028F806E034496A
:102220000A685210801A096804F020F800BD10B541
:102230008269C369D218036AD2180260026A520026
:102240008369D21853424360026A8260002906D033
:102250000C21002204000C34200005F095FE10BD76
:10226000F8B50020FFF7CCFF0020FFF7C9FF214899
:102270000168002901D1002531E004681E4800688A
:10228000FFF7BEFF261A1D480168B14200DA066852
:102290001B4C25003100286804F06CF80700E96841
:1022A000686804F067F83F182969A86804F062F8C4
:1022B0003818696904F044F8E9682961EE606861DA
:1022C000050010480168A94202DA056800686061EB
:1022D000002D04D5002501212000FFF7A8FF2800CC
:1022E000FFF792FF80B2084909688863F1BD0000DA
:1022F000E0710008500600204C0600208C060020EB
:10230000840500209006002014050020E0B5234835
:102310002021017002214170302181700421C1709F
:1023200000210A0002710A0042710A0082710A004B
:10233000C2710A0002720A0042720A008272C172FD
:102340000021C94302910C21019100900123002238
:102350006A21134803F058F8C0B20EBD1FB5114CE6
:102360000020C04302900220019000940123192212
:102370006A210B4803F020F9C0B2002802D120786E
:10238000617801E0FF210800C0B20002C9B2084331
:1023900080B20009C005C00D04B010BD04060020C5
:1023A00080040020C806002038B505000C0000207D
:1023B000208025E00100C9B2890069184988A12957
:1023C0001DDB21880200D2B29200AA1852889142E5
:1023D00015D20100C9B2890069184988218001001D
:1023E000C9B28900695A61800100C9B20A224A4310
:1023F000A2800100C9B2890069184988E180401CA7
:102400000100C9B26429D5DB2088A1280FDB208810
:10241000FF21943141432E480818800A0A2103F015
:1024200028FF2080E0882B494143880AE08000F0A3
:10243000BEF9002810D160882988884204D36088BA
:102440002988401A608017E0B42040002988401A8B
:102450006188401860800FE028886188884204D332
:1024600028886188401A608006E02888B4214900E5
:1024700040186188401A608061881A2048434021D2
:1024800003F0F4FE0A306080134D2868FEF720F850
:1024900020812868FEF71CF8608131BD80B50120DD
:1024A0000E4908700E490978012902D10D490870BA
:1024B00002E000200B49087000200B4908700B490E
:1024C00008700B490870FDF7FFFFBA49086001BDAD
:1024D000C806FFFFAE0400005C060020E7060020EF
:1024E000E3060020E9060020EA060020EB060020B3
:1024F000EC06002070B5AF4D2868FDF7E9FFAE4946
:10250000884202D30220AD490870AC4C20780028E4
:102510001DD0022830D021D3042857D04ED306280E
:102520007AD067D3082800D1BAE000D291E00A2817
:1025300000D1C8E000D2C5E00C2800D1E2E000D212
:10254000D0E00E2800D1F8E000D2EEE0FDE002205D
:102550002070FFF703FF9A490880F6E03026994D76
:10256000280000F0E7F9320092B22900964800F006
:1025700005FA02202070E8E000269E480660300040
:102580009D4988829D480078002803D1012000F0F1
:1025900038FA06E09A480078002802D1002000F0BE
:1025A00030FA9848067000F041FA022802D1032060
:1025B00000F039FAFDF788FF2860C6E0924800680D
:1025C0008C490860002091490870BEE08F4D287842
:1025D00015280BDB05202070FFF7C0FE7849088026
:1025E0000020287002208A49087002E02878401CE8
:1025F0002870AAE087480178012905D100210170DF
:10260000FDF762FF844908608448006879490860E2
:1026100000207E49087098E07E480178002905D1A5
:1026200001210170FDF750FF7B4908607C4800786C
:10263000012803D101207B49087002E0002079497C
:102640000870794800686B490860022000F0D9F9E9
:102650007BE070480178002905D101210170FDF768
:1026600033FF6D4908606E480078012803D10020CF
:102670006C49087002E001206A49087061480178DD
:10268000002905D101210170FFF768FE4C4908803F
:102690006648006857490860042000F0B2F954E029
:1026A00063480068534908605D480078012803D1F9
:1026B00000205C49087002E001205A490870092096
:1026C000207042E041E04C48018B002904D0018B8E
:1026D000FF221202914204D1C08A002801D10B20AE
:1026E000207032E052480068424908604C48007847
:1026F000012803D101204B49087002E0002049491C
:10270000087022E046480078012803D1002045499E
:10271000087002E0012043490870404800683549CC
:102720000860042000F06DF90FE000203D490870BA
:102730003D4800682F49086007E0012039490870CA
:10274000394800682B490860FFE7A025ED053948A6
:1027500000780122824380214900280002F0BDFB5D
:1027600000F025F80200D2B280210902280002F010
:10277000B4FB314D2E7800F01AF886420FD000F0ED
:1027800016F828702D482E49096881612D4909687D
:10279000C1612D49096801620121FFF748FD2078D8
:1027A00070BD2A49087070472848007870471D4856
:1027B0000078704780060020411F0000E8060020D6
:1027C000BC060020740300200000080800B514496E
:1027D0000978012905D1C0B2002801D1012000E00B
:1027E00000201049087000BD19490870704718484A
:1027F000007870475006002030040020D1060020E9
:10280000D2060020EF0600209C060020EE060020E5
:10281000EC060020E10600205C060020980600205F
:10282000E3060020E9060020840600208806002038
:10283000A0060020EB060020ED0600208405002005
:10284000A4060020A8060020AC060020E706002011
:10285000E806002030B500231C0009E01C00A4B2EB
:102860006400041924881D00ADB26D004C535B1C3C
:102870001C001500A4B2ADB2AC42EFD330BD70B5B0
:1028800005004E2229004C4C2600300003F038FE93
:102890004A484E21695A01805021695A484A11809C
:1028A0005421695A41805621695A81805821695AB8
:1028B000C1805A21695A01815C21695A41815E2097
:1028C000285A404908805220285A00F09AF8608817
:1028D000FF210902884203D1012000F098F802E0AC
:1028E000002000F094F82420205CC00603D50020CE
:1028F000FFF757FF02E00120FFF753FF2420205C81
:10290000C00703D5012000F063F812E02420205C0A
:10291000800703D5022000F05BF80AE02420205C49
:10292000400703D5042000F053F802E0082000F02F
:102930004FF870BD38B504004E221F49250028000D
:1029400003F0DEFD1D4D28884E2160521C48008892
:102950005021605200F058F852216052688854218A
:102960006052A88856216052E88858216052288910
:102970005A21605268895C21605231BDF8B5060069
:102980001500002420000F0003F009FE0E48016826
:102990000E4A0A40026007E060003A5A60003118AF
:1029A000012003F025FE641C280080B28442F3D38A
:1029B00003F00EFEF1BD000030040020C005002031
:1029C000D40500202200002004200240EFFDFFFF7C
:1029D00038B5344C2500243500212980324908704F
:1029E000A18CC0B201432980FFF7DEFEC0B20028EF
:1029F00003D1A08C10210143298031BD2A480078E1
:102A000070472A490880704728480088704728493D
:102A1000087070472648007870472649088070473C
:102A2000244800887047244908707047224800787D
:102A30007047224908707047204800787047204945
:102A4000087070471E480078704700B50100C9B291
:102A5000002903D100201B49087006E0C0B20228FB
:102A600003D118480178491C017000BD1548007851
:102A7000704715490870704713480078704713492C
:102A800008807047114800887047114908707047E6
:102A90000F48007870470F49087070470D4800785C
:102AA0007047000030040020F0060020C20600201D
:102AB000F1060020C4060020F2060020F3060020E4
:102AC000F40600202D000020F5060020C606002098
:102AD000F6060020F706002030B405004D40012224
:102AE000D20715404B180418240E25D01B0E2CD0ED
:102AF000FF2C31D0FF2B34D0E41A0002090210431E
:102B0000114343084808D10D1B1A02D2641EDB187A
:102B10001B18DB18834200D31B1A4941F9D37F34B9
:102B200023DDFF2C05DAE40548086041284330BC6A
:102B30007047FF20C005F9E728001B0E03D0FF2BCC
:102B4000F5D14902F3D0D043F1E7FF2C01D1400287
:102B5000F9D1FF20C005E9E74002F4D1FF2BF8D1FD
:102B6000F1E728004902E2D0EDE70B020020244201
:102B7000DCD15B129B1CD9D9D805D7E7334909684A
:102B80004843704700B5002807D430490A685210FE
:102B90008018096803F06AFB06E02C490A685210A5
:102BA000801A096803F062FB00BDF1B5284E294880
:102BB00000683060284F294801682948006803F000
:102BC000BFFB386027480168386803F0B9FB010093
:102BD0001E48006803F0FCFB234C0100386803F03A
:102BE000C9FB2060214D0098FFF7C8FF28603168BD
:102BF000286803F0B2FB0100206803F0BBFB1C4D0A
:102C00000100306803F09CFB286021680F480068D1
:102C100003F0A3FB174C396803F0ACFB206020687D
:102C20000F49086028680B4908602868FFF7AAFF69
:102C3000F2BD10B4074A00231360094C2360074C0F
:102C4000206008480160136010BC7047D87100080C
:102C50002406002030060020200600203806002030
:102C6000340600203C060020180600202C06002018
:102C7000280600201C060020F8B50821A020C00569
:102C800002F020F9AD4908701021A020C00502F023
:102C900019F9AB490870AB4CAB4D0121280002F08B
:102CA00011F920702021280002F00CF9A7490870C2
:102CB000A74DAA1DA7480178A048007803F0ECFCB6
:102CC0009E4908702A000932A34801789C48007880
:102CD00003F0E2FC9A490870A04F2A000F323978BD
:102CE000207803F0D9FC20709D4E2A0015323178EF
:102CF0009648007803F0D0FC944908708F4800781B
:102D0000944908708E48007893490870207838708C
:102D10008E4800783070934CE08C05280DDBFFF76F
:102D2000B1FEFF210902884203D100208E490870BC
:102D300015E001208C49087011E08B4E80210901BB
:102D4000A020C00502F0BEF83070884F2A000C3277
:102D50003978307803F0A0FC307030783870774FD5
:102D60003878002834D10120FFF74BFEFF252D02D3
:102D70007F480580002630007E490870FFF73EFE40
:102D8000042803D0FFF73AFE082811D1FFF72FFDE2
:102D900002280DD1FFF744FE7749884202D0012076
:102DA000FFF716FE012221002431AD48FFF7E6FDB2
:102DB0006088A8420BD1E08C022802DA0020FFF7DD
:102DC00026FEA11C0E800122A648FFF7D7FD258014
:102DD0005B4D2878002829D10020FFF712FE002043
:102DE00063490880208063490870FFF707FE0428C4
:102DF0001CD0FFF703FE082818D0E08C022815DB52
:102E0000FFF70EFE5C49884210D0FFF7F7FD02285D
:102E10000CD0FFF7ECFC022808D10220FFF7D8FD08
:102E20000122210024318E48FFF7A8FD38780028C0
:102E300005D02878002802D001204E4908704A4861
:102E40000078012808D1FFF7EBFD4B49884222D0DA
:102E50000220FFF7BDFD1EE0FFF7D0FD08281AD0C5
:102E6000FFF7CCFD042816D0FFF7C8FD202812D0AC
:102E7000FFF7D6FD404988420DD0E08C022803DAE6
:102E80000120FFF7A5FD06E0FFF7BEFD012802D1F6
:102E90000120FFF79DFD744D2878002833D0A84805
:102EA000007800282FD1387801282CD100202870F4
:102EB000FFF7B6FD3049884225D00120FFF7A7FD76
:102EC000A61CFF2000023080E08C052802DA0720D3
:102ED000FFF78AFCE08C022807DA0420FFF778FD70
:102EE000FDF7F2FA9749086002E00820FFF770FD4D
:102EF000012231005B48FFF741FD0122210024310E
:102F00005748FFF73BFDFFF77FFD00280AD18C49AA
:102F10000878012806D1002002000A7029780029CB
:102F200000D0287009480078012803D10120FFF75C
:102F300038FC02E00020FFF734FCF1BDD106002090
:102F4000D2060020D406002000040050D70600203E
:102F5000000000202600002027000020290000207B
:102F60002A00002030040020D30600202800002082
:102F7000D4050020D80600205A5A0000F8B5844D28
:102F8000A026F6050221300001F09CFF2870814C3C
:102F90000421300001F096FF20707F4E32007F4800
:102FA0000178287803F078FB28707D4FF21C39787F
:102FB000207803F071FB2070287878490870207819
:102FC00038702878002821D17648FF263602C6833B
:102FD000217800291DD0C08C02280DDAFFF70EFDE4
:102FE000022809D0FFF716FD002812D16E4841884B
:102FF000B1420ED106800CE06B484188B14208D145
:103000006A490978002904D1068002E00020654958
:10301000C883207800281FD1624EFF242402348404
:10302000287800281BD0FFF7E9FC022817D0F08C85
:1030300002280ADAFFF7EEFC002810D15A4841882E
:10304000A1420CD10021018009E057484188A142EA
:1030500005D10021018002E0002052490884F1BD21
:103060002400080802000808D606002080B5FFF7F3
:10307000D7FC4F49884262D0FFF7C0FC042813D127
:103080008021C9014B480088084204D000224A48E8
:1030900001F023FF03E00122474801F01EFFFF205B
:1030A00000024049888311E08021C901414800881D
:1030B000084204D00122404801F00FFF03E0002243
:1030C0003D4801F00AFF002036498883FFF79CFC49
:1030D000002815D1FFF78BFB022811D180210902AE
:1030E00034480088084204D00122334801F0F5FE3C
:1030F00003E00022304801F0F0FE00202949488317
:10310000FFF782FC002807D12C480078012816D14F
:103110002B480078012812D1802109022548008817
:10312000084204D00022244801F0D7FE03E0012227
:10313000214801F0D2FEFF2000021A49488301BD58
:10314000D90600207C06002010B5184C802109010A
:10315000A020C00501F0B6FE207020781949087043
:103160002078012803D10220FFF732FC0EE00D4841
:10317000C08C022803DA0120FFF72AFC06E0FFF7E3
:1031800043FC012802D10120FFF722FC10BD000002
:10319000CF060020D0060020000000202B000020D9
:1031A0002C00002030040020C0050020D3060020A1
:1031B0005A5A00002200002000080050D1060020CA
:1031C000D20600202800002010B5614C6148048020
:1031D00061480480FFF718FC022804D1FF20000298
:1031E0005E49488409E0FFF70FFC042803D1002062
:1031F0005A49488401E0594844845848C18C0229FE
:1032000002DA00F00BF808E0C08C801E032802D21E
:1032100000F02FF801E000F06BF810BD80B5FFF76B
:10322000EDFB012810D1FFF7EFFB022803D0FFF7D9
:10323000EBFB042808D10020464908804448464951
:1032400008800120FFF7DDFBFFF7D8FB01280FD135
:10325000FFF7E0FB01280BD100203E4908803C48E5
:103260003D4908800120FFF7CCFB0420FFF7B0FBAD
:1032700001BD80B5FFF7C2FB012807D1FFF7C4FBF2
:10328000022807D0FFF7C6FB012803D0FFF7B6FBE3
:10329000082813D100202F4908802D482E49088086
:1032A0000120FFF7AEFBFFF7A9FB082803D0FFF7CB
:1032B000B1FB012802D10120FFF7B5FBFFF79EFB10
:1032C000042803D1FFF7A0FB022807D0FFF796FBE5
:1032D00001280CD1FFF798FB042808D100201D49D4
:1032E00008801B481C4908800120FFF78AFB01BDAC
:1032F00080B5FFF783FB082812D10120FFF768FB98
:103300000120FFF784FBFFF77FFB022808D1002094
:10331000104908800E48104908800120FFF771FB12
:10332000FFF76CFB012812D1FFF774FB01280ED1C7
:103330000020084908800648074908800120FFF757
:1033400060FB0120FFF744FB0120FFF760FB01BD9C
:10335000A5A50000C0050020D405002030040020F1
:1033600001480068704700BFB006002010B5144C3B
:10337000A521490048439621490002F07AFF21889F
:10338000401A642148430F49098889B22288891A62
:1033900002F06CFF1E3010BD10B50B48002101601B
:1033A0000A4A11600A4C21600A490B8813604A8856
:1033B0000260888820602068FFF7D8FF206010BD79
:1033C0007A00F81F7E00F81F400600204406002007
:1033D000480600201006002010B5002408480168A7
:1033E00040220A430260002003F082F9002801D045
:1033F000012401E002F0DCFB2000C0B210BD00009F
:103400000020024010B50400002C01D101201EE074
:103410003920205C002805D100203821605420008C
:1034200002F056FC022039216054211D206800F072
:103430008BF901203E2160543A2160543B216054B5
:103440003C2160543D21605439216054002010BD5E
:1034500010B50400002C01D101201EE03920205CB1
:10346000002805D1002038216054200004F0BAFD66
:10347000022039216054211D206800F065F90120E7
:103480003E2160543A2160543B2160543C216054F9
:103490003D21605439216054002010BD10B5040056
:1034A000002902D13A20205C0BE0042902D13B2004
:1034B000205C06E0082902D13C20205C01E03D2090
:1034C000205C012801D001203DE0002904D1022028
:1034D0003A22A054C0B211E0042904D102203B22B8
:1034E000A054C0B20AE0082904D102203C22A05412
:1034F000C0B203E002203D22A054C0B201222068E5
:1035000000F002FA20688021C905884207D02068AF
:103510000D49884203D020680C4988420CD12068AC
:1035200080684007400F06280CD020680068012101
:1035300001432068016005E0206800680121014323
:1035400020680160002010BD000801400014014007
:10355000F8B50400002637003820205C012801D18E
:10356000022071E001203823E0540D00002A06D02B
:10357000042A1BD0082A32D00C2A47D05FE0290049
:10358000206800F00AF9206880690821014320685A
:1035900081612068806904218843216888612068EE
:1035A0008069E96801432068816149E02900206859
:1035B00000F00CF92068806980210901014320682E
:1035C000816120688069214901402068816120680B
:1035D0008069E968090201432068816130E02900BF
:1035E000206800F00EF92068C069082101432068B6
:1035F000C1612068C069042188432168C8612068CE
:10360000C069E96801432068C16119E029002068A8
:1036100000F011F92068C069802109010143206888
:10362000C1612068C069094901402068C161206802
:10363000C069E968090201432068C16100E0070030
:10364000382026543800C0B2F2BD0000FFFBFFFF57
:10365000F8B50400002637003820205C012801D18D
:1036600002206DE001253820255402203922A05483
:103670002068806877229043324A02402068826046
:103680000868002850D010284ED020284CD0302870
:103690004AD040283ED0502828D0602830D070280A
:1036A00009D080225201904204D08022920190429F
:1036B0000ED03EE03EE0CB684A688968206800F0A2
:1036C00007F920688068772101432068816031E034
:1036D000CB684A688968206800F0FAF8206880683A
:1036E0008021C90101432068816023E0CA684968DC
:1036F000206800F0BBF85021206800F0E1F819E0E4
:10370000CA684968206800F0C3F86021206800F0AA
:10371000D7F80FE0CA684968206800F0A7F8402190
:10372000206800F0CDF805E00968206800F0C8F8CE
:1037300000E02F0039202554382026543800C0B22C
:10374000F2BD0000FF00FFFF10B502688023DB051B
:10375000984205D0584CA04202D0584CA04204D107
:103760007024A24314004A682243984205D0524B69
:10377000984202D0514B984203D15B4B1340CA6828
:103780001A4380239A430B69134303608A68C26219
:10379000096881620121416110BD30B4026A0123D0
:1037A0009A430262026A436884697025AC43032528
:1037B000AC430D6825430224A2438C681443436044
:1037C000856149684163046230BC704770B4026A25
:1037D00010239A430262036A42688469434D25407C
:1037E000414E2E400C68240234432025AB438D68A3
:1037F0002D011D434260846149688163056270BC8C
:10380000704730B4026A3A4B13400362036A42685D
:10381000C5697024A5430324A5430C682C43354D8A
:103820001D408B681B022B434260C4614968C16321
:10383000036230BC704770B4026A2F4B13400362BE
:10384000036A4268C469294D2540274E2E400C6802
:1038500024023443294D1D408B681B032B434260D7
:10386000C46149680164036270BC704730B4036A84
:10387000046A0125AC4304628469F025AC4312015B
:1038800022430A24A34319438261016230BC70477A
:1038900030B4036A1024A34303628469036A184D99
:1038A000254012032A43A024A3430901194382613E
:1038B000016230BC70470000000801400014014064
:1038C000826870239A43114307220A43826070473B
:1038D00030B484680B4D254029430A431902114333
:1038E000816030BC70470000FFFCFFFFFF8FFFFFCF
:1038F000FFFEFFFFFFFDFFFFFFEFFFFFFFDFFFFF0B
:10390000FF0FFFFFFF00FFFF30B41F2401230D0056
:103910002540AB40056A9D430562036A0C40A24006
:103920001A43026230BC7047FEB5040000252F0028
:10393000280028005020205C012801D1022059E0F5
:10394000012630005021605403202168896801401D
:10395000012905D121680A681100C907C90F00E0D3
:10396000290000293DD1616D234A0A4002211143FB
:1039700061652168C968084000902068C06803211B
:1039800088432168C8602068806880210906014357
:1039900020688160FFF7E4FC0190206880680028BF
:1039A00013D5FFF7DDFC0199401A0B28F5D32068E9
:1039B00080680028F1D5606D022188431021014301
:1039C000616550202554012014E02068C0680099EA
:1039D00001432068C160606D02218843064366652B
:1039E00004E0606D202101436165370050202554BB
:1039F0003800C0B2FEBD0000FFFEFFFF10B504009E
:103A0000002C01D10120FDE0606D002806D10020CE
:103A1000A06550216054200002F0E4F81021606D90
:103A20000840002805D10420226892680240002A3C
:103A300007D0606D01436165002050216054012072
:103A4000E0E0616D704A0A4002211143616521681E
:103A500089688907890F012905D121680A68110041
:103A6000C907C90F00E00021002936D16168C022D2
:103A70001206914209D061688022D205914204D099
:103A800061688022120691420CD12168096989007F
:103A90008908226811612168096962680A432168FE
:103AA0000A610EE0216809698900890822681161AC
:103AB00056490A68564B13400B600A686368134303
:103AC0000B602168C968182291432268D16021687F
:103AD000C968A2680A432168CA604C490A684D4B0C
:103AE00013400B600A68636B5B0613430B60802115
:103AF0004905226892680A40002A04D12268926827
:103B00001143226891602168C968434A0A402168CC
:103B1000CA602169022900D000202168C968E268D2
:103B20000A4310432021615C490301432C20205C9F
:103B300040000843216B0143A06980030843E16909
:103B4000C90301432068C160606AFF21C231884215
:103B500007D02068C068616A0143A06A08432168F1
:103B6000C8602120205C012813D12020205C00287F
:103B700007D12068C0688021490201432068C160E4
:103B800007E0606D202101436165A06D01210143C3
:103B9000A165E06B012816D1206800691F4901402A
:103BA0002068016120680069216C0143606C084352
:103BB000A16C014320680161206800690121014373
:103BC0002068016109E020680069C00705D5206808
:103BD0000069012188432168086120684069072144
:103BE00088432168486120684069A16B01432068CF
:103BF00041610020A065606D0221884301210143DD
:103C00006165002010BD0000FFFEFFFF0827014096
:103C1000FFFFC3FFFFFFFFFD1902FEFF03FCFFFFD5
:103C2000F2B50400170000263500206880684007C0
:103C300044D45020205C012801D1022041E0012021
:103C400001005022A1542168C96808432168C86056
:103C5000E069012803D0200000F01CF905002800CD
:103C6000C0B200282BD13B00009A606D844901400E
:103C70008020400008436065A66550202654814896
:103C8000E16CC8628048E16C08638048E16C48637D
:103C90001C202168086020684068102101432068CA
:103CA0004160206801004031E06C02F0ADF920680D
:103CB0008068042101432068816000E0022528001B
:103CC000C0B2F2BD38B50400042021680968014083
:103CD000002904D021684968014000290AD108213F
:103CE000226812680A40002A3ED0226852681140B9
:103CF000002939D0616DC90604D4616D802292001B
:103D00000A4362652168C968C02212010A40002A7C
:103D100021D12021615C00291DD121680968090792
:103D200019D521688968084000280CD120684068AE
:103D30000C21884321684860606D5549014001208D
:103D40000843606507E0606D202101436165A06D57
:103D500001210143A165200004F045F9A069012873
:103D600002D00C2021680860802520680068284067
:103D700000280ED0206840682840002809D0606DD7
:103D80008021490201436165200004F02DF920687B
:103D900005601025206800682840002816D020689B
:103DA00040682840002811D0206B002803D02068EC
:103DB000C068C00708D5A06D02210143A165206835
:103DC0000560200004F011F92068056031BD38B5A8
:103DD00005000C005020285C012801D102204DE094
:103DE00001205021685428688068400708D5686D14
:103DF00020210143696500205021685401203DE0E5
:103E00006068484988421DD02868806A2168490353
:103E1000490B0143286881622068400308D5424865
:103E20000168802212040A4302600A2000F0D0F8E0
:103E3000206880031ED53C4801688022D2030A43D3
:103E4000026017E02868806A21684903490B8843AB
:103E5000296888622068400304D533480168514AC4
:103E60000A4002602068800304D52F4801684E4A4A
:103E70000A400260002050216854002032BD00003A
:103E8000FEF1FFFF2D3F0008AD3F0008B73F0008DF
:103E9000FFFEFFFF70B50400002108002068806865
:103EA0008007800F012805D1206800680100C9073C
:103EB000C90FFFE7002933D1206880684D490140D0
:103EC000002909D0606D102101436165A06D0121B9
:103ED0000143A165012024E0012520688068284372
:103EE00021688860012000F073F8FFF739FA0600B6
:103EF000206800682840002812D1FFF731FA801BA3
:103F00000B28F5D32068006828400028F0D1606DA8
:103F1000102101436165A06D0543A565012000E006
:103F2000002070BD011000000827014080B5816AA3
:103F30004A6D50231340002B30D1486D80229200EF
:103F400002434A650868C068C02212010240002A84
:103F500020D12020085C00281CD1086800680007D8
:103F600018D50868806840070CD4086840680C229F
:103F700090430A685060486D1F4A02400120104378
:103F8000486507E0486D202202434A65886D01229A
:103F900002438A65080004F026F802E0C96C496B08
:103FA000884701BDFFFF7FFFFFFFBFFF80B5806A2D
:103FB00004F01CF801BD80B5806A416D40220A43BF
:103FC0004265816D04220A43826504F00EF801BD4A
:103FD00018B5040009480068094902F04AF9444349
:103FE000009402E00098401E009000980028F9D14B
:103FF00011BD000017000080FFFEFFFF1C00002025
:1040000040420F0038B5744CE08C022800DAC4E05E
:10401000FEF744FD002802D1002070490870FEF729
:10402000EDFC042800D1B8E0FEF7F4FC002800D134
:10403000B2E002283ED003D3032800D18AE0ACE0EE
:1040400066480178491C0170E18C052919DB644937
:1040500009780078814203D20320FEF7D8FC28E0DB
:1040600000F09CF8FCF730FA5E490860FCF72CFA87
:104070005D4908600120FEF70EFD0220FEF7C7FC37
:1040800017E05A49C988007880B2814203D20320E0
:10409000FEF7BDFC0DE0FCF717FA52490860FCF78B
:1040A00013FA514908600120FEF7F5FC0220FEF7E3
:1040B000AEFC72E0FEF7C0FC01284AD10020FEF7FA
:1040C000B8FCE08C05282FDB444D45480078297862
:1040D000884229D3208B00280FD1FEF788FB0228C5
:1040E0000BD1FEF7AFFC002807D1FF2000023F49AB
:1040F00008800320FEF797FC2BE0208BFF210902AC
:10410000884226D1FEF773FB022822D1FEF79AFCE3
:1041100000281ED12878401C287000F03FF8FCF7DA
:10412000D3F93049086014E0E08C801E03280DD2DA
:104130002E48C188294A127892B2914206D3FF21B3
:10414000090201800320FEF76EFC02E00320FEF767
:104150005EFC22E0FEF752FC042816D00420FEF795
:1041600037FC0122210024312148FEF707FC002002
:104170001E4908801F4908800020FEF754FC0020DB
:10418000FEF745FC0020FEF754FC002013490870A0
:104190000020FEF780FC00E0FFE731BD00B50F48CE
:1041A0000178022903DA03201049088112E001781E
:1041B000022903D178200D4908810BE000780328FB
:1041C00004D1962040000949088103E0E120C000A5
:1041D0000649088100BD000030040020CE06002002
:1041E000FC7F00085406002058060020C00500206F
:1041F00024000808D4050020F8B53020694608805E
:10420000634FFEF7FBFB022803D06248C08C0228F4
:1042100009DB61480078002800D0B7E05D48C08C19
:10422000022800DAB2E05D4CA089002800D0ADE0A1
:10423000FEF7DDFA022800D0A8E0FF26360220882B
:10424000B04212D1FEF7E0FB00280ED15148C18CDC
:1042500002290EDBC08C022807DBFEF7CFFB042807
:1042600003D0FEF7CBFB082803D1FEF7DFFB0328C2
:104270003AD14B4D20882988884204D1FEF7D6FBDD
:10428000032800D082E04348018A491C0182418A08
:10429000491C41828682FEF7B1FB012802D1002031
:1042A000FEF7F9FB0120FEF793FB0220FEF7A9FBC6
:1042B0000020FEF7ACFB3800FEF73CFB68460288A6
:1042C00039003848FEF75AFB208828800620FEF780
:1042D0008BFA012034490870FEF7A8FB032855D15A
:1042E0000020FEF7A0FB51E02088002841D1FEF716
:1042F0008BFB01283DD1274DE88C02280ADBE88C96
:10430000022836DBFEF77AFB042832D0FEF776FB74
:1043100008282ED0208822490988884236D0288A49
:10432000401C2882AE820420FEF76BFB3800FEF7AB
:1043300001FB6846028839001A48FEF71FFB2088F7
:10434000174908800720FEF74FFA01201649087028
:10435000FEF76CFB012802D10220FEF764FBE88C1B
:10436000022813DB0220FEF733FB0020FEF793FB4D
:104370000CE02088B04209D1FEF746FB002805D1A9
:104380000448C08C022801DB00202080F1BD00BF62
:104390007403002030040020D3060020C005002054
:1043A000D405002000000808D906002070B50400DC
:1043B000002C01D101202DE019482168086019481E
:1043C00021680860606821684860A068216888608A
:1043D000FEF7C6FF050007262068C06830400028A9
:1043E0000BD0FEF7BDFF401B2B28F4D32068C0681C
:1043F0000640002EEFD003200CE020680069E16841
:10440000884203D0E0682168086102E0064821681C
:104410000860002070BD04490068016000207047FA
:10442000CCCC000055550000AAAA00007FB50600BC
:10443000FF240025009502F083F9019502961448A7
:10444000006880021349014013480818801BC00906
:104450000390694601A802F061F8002800D12C0001
:1044600002F09CF92000C0B204B070BD0B49087086
:1044700070470A4800787047094908807047084823
:1044800000887047074908807047064800887047D1
:104490007C00F81F00FCFF03FFFFFF07F806002069
:1044A000CA060020CC06002080B5C0B2012808D082
:1044B000022812D0042826D0082819D020282ED06F
:1044C00039E000228021A020C00500F006FD012275
:1044D00004211F4800F001FD38E000228021A020C7
:1044E000C00500F0FAFC0421194800F000FD2DE0A1
:1044F00000220421164800F0F0FC8021A020C00515
:1045000000F0F5FC22E000220421114800F0E5FC57
:1045100001228021A020C00500F0DFFC16E001226E
:1045200004210B4800F0D9FC01228021A020C00505
:1045300000F0D3FC0AE000228021A020C00500F09A
:10454000CCFC00220421024800F0C7FC01BD00BFE2
:104550000004005000B5BFF34F8F9748BC49086076
:10456000BFF34F8F00BFFDE738B50500080011000D
:104570001C00049BEDB2032D04D0062D16D0102D87
:104580001BD021E0220093252D0292B2AA4206D12F
:104590009BB2220092B2C9B202F0BCF905E09BB214
:1045A000220092B2C9B200F0D4F80DE09BB2220012
:1045B00092B2C9B200F0AEF806E09BB2220092B20D
:1045C000C9B200F058F8FFE7BE48048031BD38B5E5
:1045D00004000D00002108002800BB490988411A89
:1045E000C9B2200002F070FA2178012905D02178A3
:1045F000032902D0217802293CD180B2290089B256
:104600006118891E097809022A0092B2A218521E66
:104610001278891888422DD12078012802D10020F3
:10462000FEF713FA6078032804D006281CD010285F
:1046300006D01FE0290089B2200000F0A9F819E097
:10464000A0780002E178401893210902884205D140
:10465000290089B2200002F0D1F904E0290089B2D2
:10466000200000F0ABF805E0290089B2200000F03E
:10467000F1F8FFE731BD38B50400002528005D00E2
:10468000217010206070100080B2000AA07010002D
:10469000E070180080B2000A20716371100091214F
:1046A000090280B288420ED188480088864909886C
:1046B000411AC9B2200002F007FA010089B2090AC2
:1046C000A171E07125E02800A0711000842189010A
:1046D00080B2884204D18021200000F0E4FA05E095
:1046E00092B2290089B2200000F0AEFA2800093009
:1046F00075490988411AC9B2200002F0E5F90100A4
:1047000089B2090A2A0092B2A218D171ADB2611918
:10471000087231BD10B504000020217006206070C1
:10472000100080B2000AA070E270180080B2000A87
:10473000207163716648008863490988411AC9B2CB
:10474000200002F0C1F9010089B2090AA171E071EB
:1047500010BD10B50400002021700320607010000F
:1047600080B2000AA070E270180080B2000A2071C6
:1047700063715848008854490988411AC9B2200019
:1047800002F0A2F9010089B2090AA171E07110BD1D
:1047900010B50400FEF744F94F49884205D0494856
:1047A0000188200000F0ACF804E093210902200009
:1047B00000F0A6F810BD00000400FA05FEB50400E4
:1047C000172069464880454F029730206946088087
:1047D000BC4D01952079000261794618FEF720F959
:1047E0003F49884232D0A0780002E17840189021F9
:1047F0000902884211D1B6B2172E27D12E22E11D0F
:10480000380001F07DFE6846428802993548FEF77F
:10481000B5F80220FEF739F918E0A0780002E17837
:10482000401891210902884210D1B6B2302E0DD124
:104830006022E11D280001F063FE684602880199AC
:104840002948FEF79BF80120FEF71FF9F7BD00008D
:104850000CED00E0F8B505000127244E0096A8787D
:104860000002E978401892210902884229D11C4CA3
:10487000FEF7D6F82100884203D1FEF7F7F8C828E2
:104880001FDB2879000269794018A04219D1200065
:1048900030803A0092B200991548FEF76FF8BA4896
:1048A00001004231134A0A80134A4423C2520222B1
:1048B0001248FEF763F82000FEF7AFF80320FEF77A
:1048C000E4F8F1BD20000020867F000806170008EC
:1048D000821500089A1400085A5A00005405002056
:1048E000A5A500000002080800000808B406002082
:1048F000F8010808015600000507000042000808FA
:10490000F8B5040000252800280028002800080029
:104910008022120280B2904200D0D5E0012012E045
:104920000100C9B249006118C97809020200D2B277
:104930005200A21812798918A84A914202D1022184
:10494000A74A1170401C0100C9B20629E8DBA4483F
:104950000078022800D140E1A24DA348290012228C
:1049600001F0CEFDE0790002217A4018FF21090212
:10497000884205D0E0790002217A4018002804D14D
:10498000E0790002217A4018A880A888FF21090256
:10499000884212D17C48C08C022809DAFEF73AF826
:1049A000002805D1E078000221794018288004E031
:1049B000E0780002217940182880FF200002617908
:1049C0000902A2798918814205D0617909026279C8
:1049D0008918002904D161790902A27989186980AE
:1049E000617A0902A27A89186A461180E17A09027D
:1049F000227B8F18617B0902A27B8E18E17B090262
:104A0000227C8918A981617C0902A27C8918E9812C
:104A1000E17C0902227D89182982A989020091423C
:104A20000FD1E9890200914205D1A948FFF7FEFCA8
:104A3000FFF790FD05E0298A814202D10120FFF7AE
:104A400015FD5148C18C022919DBA24909883200A1
:104A500092B2914200D36E81C08C05280FDA9E4835
:104A6000008869460988884202D368460088E88041
:104A70009A480088390089B2884200D32F815A4869
:104A800041886A88914210D18188AA8891420CD1CC
:104A9000C188EA88914208D101892A89914204D1CA
:104AA00040896989884200D197E03024054D28006B
:104AB000FDF740FF220092B229008948FDF75EFF12
:104AC0008BE000BF740300200800864A80B2904249
:104AD00047D1E078000221794018002807D0FF264E
:104AE0003602E078000221794018B0420ED1264EFD
:104AF000E07800022179401830830821627934007F
:104B00004634200003F040FAF58266E0E0780002C7
:104B1000217940187449884205D0E0780002217953
:104B20004018A52802D10020FDF7A3FFFDF75FFE86
:104B30000B2808D1E078000221794018A52802D17D
:104B40000220FDF796FFE078000221794018A521A8
:104B50000902884241D10120FDF78BFF0A48C68235
:104B60003BE00800614A80B2904213D1E078000235
:104B700021794018FF2109020A0080B2904205D134
:104B80000800FDF77CFF28E0300400200020FDF73E
:104B900076FF22E008008022920180B2904207D185
:104BA000E07800022179401880B2FFF765FC14E03C
:104BB00008004F4A80B2904207D1E0780002217984
:104BC000401880B2FFF75EFC07E09320000289B234
:104BD000814202D10520FDF758FFF1BDFFFF000023
:104BE000E6060020C0050020D405002070B594B072
:104BF0000022130007E01C00E4B2045D6D461E00B5
:104C0000F6B2AC555B1C1C00E4B20D00A4B2ADB210
:104C1000AC42F0D30FE06C461300DBB2E35C15004E
:104C2000EDB2641964781500EDB244551400E4B295
:104C300004196370921C1300DBB20C009BB2A4B287
:104C4000A342E8D314B070BD70B594B004000D0059
:104C50008220000292B2824206D14E2225496E463F
:104C6000300001F04DFC05E0122223496E46300071
:104C700001F046FC290089B26846FFF7B7FF002023
:104C800008E069460200D2B2895C0200D2B2A218E2
:104C9000D171401C0100C9B22A0089B292B291427E
:104CA000EFD314B070BD10B5002209E0134B14000F
:104CB000E4B21B19DB781400E4B20419E371521C4E
:104CC0001300DBB20C009BB2A4B2A342EED310BD22
:104CD000807F0008E07F0008D67F0008DE7F0008A4
:104CE0000000080804810000A5A500000381000061
:104CF0000120000030040020C0050020C001002079
:104D0000FCB500220023002332E0062303E0684BB9
:104D10009842FAD105239C4613009B000C271F40A4
:104D20006346BB4033439608B600AB51614D2B68D8
:104D3000A3434E68F60300D523432B605E4D2B68DA
:104D4000A3434E68B60300D523432B605B4D2B680D
:104D5000A3434E68F60200D523432B60584D2B68C1
:104D6000A3434E68B60201D51C4323002B60521C9E
:104D70000B68D340002B00D199E001230D681C0083
:104D800094402C40002CF2D003254E682E40012E7A
:104D900003D04E682E40022E19D18768BC461600FB
:104DA00077002E00BE406746B743BC46CF6816006A
:104DB0007600B74066463743876047681E009640D6
:104DC000B7434E6836091E4096403E4346604E68E3
:104DD0002E40032E0FD0C768BC46160077002E0069
:104DE000BE406746B743BC468F6816007600B740A2
:104DF00066463743C7604E682E40022E1FD1D60844
:104E0000B6008619366A0196019E00960F27BC46A9
:104E10001600B7001C263E406746B740009EBE43C2
:104E200000960F69BC461600B7001C263E40674638
:104E3000B740009E3743D608B60086193762076828
:104E4000BC46160077002E00BE406746B7434E684A
:104E5000354016007600B5403D4305604D68C026DC
:104E6000B6022E40002E82D02E4D2E681E432E609C
:104E70002D4D9608B600AE5900960F27BC46160079
:104E8000B7000C263E406746B740009EBE43A027B1
:104E9000FF05B84201D100233DE7244FB84200D1BD
:104EA00039E7234B984200D031E7022333E7F3BDC3
:104EB000001C0050000401400404014008040140AB
:104EC0000C04014000B5006989B20840002801D0F7
:104ED000012000E00020C0B200BD00B5D2B2002A1F
:104EE00002D089B2816101E089B2816200BD42696C
:104EF0000B009BB213401B0489B29143194381619B
:104F0000704780B50B490A6803009BB21A40002A1B
:104F100005D0020092B20A6080B201F04DFE01BDE0
:104F2000000000003410024008000140000400505E
:104F30000008005014040140F8B50400002C01D111
:104F40000120C4E0634800680C25054080267602F5
:104F50006048006830402178C90751D5082D03D03A
:104F60000C2D0AD1B04208D159480068800347D5BA
:104F70006068002844D10120A9E06068B04204D1F3
:104F800053480168314301601BE06068A021C902F9
:104F9000884209D14E4801688022D2020A43026049
:104FA0000168314301600CE0494801689A4A0A40AF
:104FB000026001683140009100990168464A0A4048
:104FC0000260606800280DD0FEF7CAF9070040486B
:104FD0000068800314D4FEF7C3F9C01B6528F6D31C
:104FE000032074E0FEF7BCF907003948006880032D
:104FF00006D5FEF7B5F9C01B6528F6D3032066E099
:10500000606A002862D00C2D47D0606A022832D135
:105010002F4D2868814901402960FEF7A1F907005A
:105020008026B60428683040002806D0FEF798F99C
:10503000C01B0328F4D3032049E026480168784ABE
:105040000A40A16A1143E26A0A43216B11430160DD
:1050500028688021490401432960FEF781F9040092
:1050600028683040002831D1FEF77AF9001B032868
:10507000F6D303202BE0164C2068684901402160DC
:10508000FEF76EF90500206880011FD5FEF768F96C
:10509000401B0328F7D3032019E0606A012801D1DF
:1050A000012014E00B4800680640A16A8E420BD133
:1050B000F02189030140E26A914205D1C02109042F
:1050C0000140206B814201D0012000E00020F2BDB0
:1050D000001002400C100240FFFFFBFFFEB5040071
:1050E000002C01D1012096E0009101257C4E306812
:1050F00028400099884215D23068012188430099E0
:1051000001433160FEF72CF9070030682840009910
:10511000884207D0FEF724F9C01B72498842F4D3B5
:10512000032078E02078800706D56F480168F022D8
:105130009143A2680A43026020682840002823D0D7
:105140006068032805D169480068800101D4012006
:1051500061E0654F38680321884361680143396025
:10516000FEF7FEF80190606803280DD138680C2125
:1051700001400C2908D0FEF7F3F80199401A59496B
:105180008842F3D3032046E00098316829408842E2
:1051900015D2306801218843009901433160FEF740
:1051A000DFF80700306828400099884207D0FEF7F2
:1051B000D7F8C01B4B498842F4D303202BE020785A
:1051C000400706D548480168494A0A40E16811434A
:1051D00001602078000707D543480168454A0A4026
:1051E0002169C9001143016000F01CF842493E4AA0
:1051F000126812091207120F895CC8403F49086003
:105200003F48006801F074FA0100C9B2002901D0DA
:10521000C0B200E00020FEBDFFFFFEFFFFFFFFFE6B
:10522000FFFF02FF10B530490A680C201040042827
:1052300004D008280AD00C280AD037E02B48006890
:10524000C00601D52F4800E02F4838E02F4836E04F
:105250002F48930C1B071B0FC05C920D9407A40FE3
:10526000641C0968C90309D50021284A002301F0FC
:105270002FFD2200002301F044FD16E01B490968C0
:10528000C90609D500211F4A002301F021FD220093
:10529000002301F036FD08E000211B4A002301F045
:1052A00017FD2200002301F02CFD08E019480068DA
:1052B000400B4007400F0121401C8140C80310BD36
:1052C0000E480068704780B5FFF7FAFF1249134A8D
:1052D0001268120A5207520F895CC84002BD0000D2
:1052E00000200240891300000C1002400010024010
:1052F000FFF8FFFFFFC7FFFF8C7100081C000020B4
:105300001800002000093D000024F40000127A007B
:10531000BC71000804100240C87100080C10024063
:1053200000B50178890706D509490A680C239A4314
:10533000836813430B600178090706D504490A689E
:10534000044B1340006918430860002000BD0000B2
:105350004C100240FFCFFFFF10B50400002C01D11C
:1053600001204AE04120205C002805D10020402196
:105370006054200000F080FC24204121605420680B
:105380000068012188432168086060681B4901406A
:10539000206801611A48216889680140226891608B
:1053A000A168802212020A4321688A602168496844
:1053B000144A0A4321684A602168C9680840216884
:1053C000C860206961690143A0690002084321683F
:1053D000C860E069216A01432068016020680068B4
:1053E00001210143206801600020606420214122E6
:1053F000A154206342216054002010BDFFFFFFF044
:10540000FF7FFFFF00800002FEB504000F001600C2
:105410001D004120205C202800D0CAE00898002808
:1054200003D06846808C002804D18020800060640E
:105430000120BFE04020205C012801D10220B9E01A
:10544000012040216054FDF78BFF029002980090EC
:105450001923012280210902200000F01FFA0028F0
:1054600001D00120A6E02B00320021204121605410
:1054700040204221605400256564089860626846B7
:10548000808C60856563029801900A9800909BB2B9
:1054900092B2390089B2200000F06EF9002803D0E2
:1054A00040202554012085E080267600608DB042A2
:1054B0000DD3FF2020850020009080235B04228DE7
:1054C000D2B2390089B2200000F0BCFA0CE0608D45
:1054D00020850020009080239B04228DD2B23900C9
:1054E00089B2200000F0AEFA029A0A99200000F07A
:1054F00001FA00282ED1606A007821688862606A0B
:10550000401C60629948618D09186185218D0818D9
:105510002085608D00282ED0208D00282BD1029868
:1055200000900A9B00228021200000F0B7F900289B
:1055300012D1608DB04211D3FF2020850020009051
:1055400080235B04228DD2B2390089B2200000F0A2
:1055500079FA10E001202DE001202BE0608D2085FC
:105560000020009080239B04228DD2B2390089B2A2
:10557000200000F067FA608D0028B5D1029A0A99E0
:10558000200000F0E3F9002801D0012012E02020E3
:105590002168C86121684968754A0A4021684A60E3
:1055A00041216054280042216054402025540020AD
:1055B00000E00220FEBD0000FEB504000F00160052
:1055C0001D004120205C202800D0CDE00898002854
:1055D00003D06846808C002804D18020800060645D
:1055E0000120C2E04020205C012801D10220BCE063
:1055F000012040216054FDF7B3FE02900298009014
:105600001923012280210902200000F047F9002817
:1056100001D00120A9E02B0032002220412160545A
:105620004020422160540025656408986062684605
:10563000808C60856563029801900A9800909BB207
:1056400092B2390089B2200000F0D4F8002803D0CB
:1056500040202554012088E080267600608DB042ED
:105660000DD3FF2020854348009080235B04228DCA
:10567000D2B2390089B2200000F0E4F90CE0608D6C
:1056800020853C48009080239B04228DD2B23900B3
:1056900089B2200000F0D6F9029800900A9B0022FF
:1056A0000421200000F0FAF800282ED12068406A7A
:1056B000616A0870606A401C60622C48218D09187C
:1056C0002185618D08186085608D00282ED0208D81
:1056D00000282BD1029800900A9B002280212000F4
:1056E00000F0DCF8002812D1608DB04211D3FF2009
:1056F00020850020009080235B04228DD2B23900E7
:1057000089B2200000F09EF910E001202DE0012078
:105710002BE0608D20850020009080239B04228D4B
:10572000D2B2390089B2200000F08CF9608D0028D7
:10573000B2D1029A0A99200000F008F9002801D09D
:10574000012012E020202168C86121684968084AC8
:105750000A4021684A604121605428004221605477
:1057600040202554002000E00220FEBDFFFF000085
:1057700000E800FE00240080F8B5060014001D00BB
:10578000079F3B48009080235B042A00D2B289B275
:10579000300000F057F93A000699300000F0AAF8FE
:1057A000002801D0012024E0ADB2012D03D1E4B2E4
:1057B0003068846211E0200080B2000AC0B2316813
:1057C00088623A000699300000F094F8002801D071
:1057D00001200EE0E4B2306884620097069B00224C
:1057E0008021300000F05AF8002801D0012000E0AC
:1057F0000020F2BDF8B5060014001D00079F1C48EC
:10580000009000232A00D2B289B2300000F01AF9C9
:105810003A000699300000F06DF8002801D0012010
:1058200024E0ADB2012D03D1E4B23068846211E00E
:10583000200080B2000AC0B2316888623A0006993E
:10584000300000F057F8002801D001200EE0E4B24B
:10585000306884620097069B00224021300000F0EF
:105860001DF8002801D0012000E00020F2BD00005A
:105870000020008000B501688969890702D50021F0
:10588000026891620121026892690A40002A04D1EB
:105890000268926911430068816100BDF4B504009B
:1058A0000F001D00069E206880693840B84201D173
:1058B000012000E0002069460978884218D10020C4
:1058C000C0438542EFD0FDF74BFD801B854201D3DD
:1058D000002DE8D12020616C0143616441216054B6
:1058E000002001004222A15440216054012000E028
:1058F0000020F2BD70B504000D001600206880691C
:10590000800721D432002900200000F049F8002847
:1059100001D0012019E00020C0438542EED0FDF700
:105920001FFD801B854201D3002DE7D12020616C33
:105930000143616441216054002001004222A154CE
:1059400040216054012000E0002070BDF8B5050042
:105950000E001700202428688069204000281DD1EF
:105960003A003100280000F01BF8002807D1FDF7AD
:10597000F7FCC01B864204D3002EEBD101E00120CE
:105980000DE0686C2043686441202C540020010025
:105990004222A95440216854012000E00020F2BDB9
:1059A000F8B504001025206880692840002846D0FA
:1059B0000F00009220684068800106D4206840688B
:1059C0008021C90101432068416020262068806948
:1059D0003040002818D10020C0438742F5D0FDF7A1
:1059E000BFFC0099401A874201D3002FEDD1606CB3
:1059F0003043606441202654002001004222A1541B
:105A00004021605401201BE02068C5612068C66108
:105A10002000FFF72FFF20684068154901402068EB
:105A20004160606C042101436164412026540020E0
:105A300001004222A15440216054012000E00020D6
:105A4000F2BD0000F0B4049C05686D68660D094F56
:105A50003743BD4389B28905890D2943D2B2120467
:105A60000A4313431C4300684460F0BC70470000C5
:105A700000E800FEFF63FF0310B54122825C202A8C
:105A80002AD14022825C012A01D1022025E0012294
:105A900013004024035524234124035503681B6845
:105AA0000124A3430468236003681B68234C1C4043
:105AB00003681C6003681B68194303681960016868
:105AC00009680A4301680A602021412281540021AB
:105AD00040228154002000E0022010BD10B5412278
