:020000040800F2
:20000000E80500201D1E0008711D0008731D00080000000000000000000000000000000062
:20002000000000000000000000000000751D00080000000000000000771D0008791D0008EC
:200040006F120008A71A0008CB1D0008D71D0008351E0008371E0008391E00083B1E0008EA
:20006000000000003D1E00083F1E0008411E0008431E0008451E000800000000471E000810
:2000800000000000000000000000000000000000491E0008000000004B1E00084D1E00080D
:2000A000000000004F1E00080000000000000000811D0008511E00080000000000000000AE
:2000C00070B5030074335C68202C37D100290BD0140009D0846880256D01AC4206D1066915
:2000E000002E03D1CE0701D5012070BD7426865D012E23D001261E70C164010050310A8080
:200100004A8000228A61DA6021265E60AC4204D10469002C01D1264C00E0264C8C611A7060
:20012000EFF31081012282F310880068026880231343036081F31088002070BD022070BD46
:2001400070B5030074339C68202C2ED100290BD0140009D0846880256D01AC4206D104695F
:20016000002C03D1CC0701D5012070BD7424045D012C1AD001241C700023036603680E4C76
:20018000A3420FD05B681B020CD5EFF31083012484F31088046825688026F6042E432660A1
:2001A00083F3108800F0C2FA70BD022070BD00009B0800087908000800480040FEB5040096
:2001C0002368D869194609689A682500583520260E4000962026064001960026A94F07401D
:2001E0000BD1019F002F0CD0009F002F09D0E968002901D020008847F7BDD70702D4A24F3E
:200200000F4078D0C70706D5CF0504D501271F62AB6A1F43AF62830708D5D30706D502237F
:2002200027683B62AB6A04271F43AF620423184207D0D70705D527683B62AB6A02271F4303
:20024000AF620823184209D0009F002F01D1D20704D522681362AA6A1343AB6280221201B2
:20026000104007D0480105D520680262A86A20210143A962A86A002833D00198002807D0D1
:200280000098002804D0E968002901D020008847A86A402721688968394002D128210140C7
:2002A00024D0200000F0A2FA20688068074019D0EFF31080012181F3108821688A68402380
:2002C0009A438A6080F31088A86900280AD06F498163A86900F0CDFB002802D0A869816BDD
:2002E0008847F7BD200000F0EBFBF7BD200000F0E7FBAE62F7BDAF68012F00D094E0102759
:20030000384200D0394200D18EE01F621020C0430121C9432268926852064AD5AA6913686E
:200320005B689BB2002BE5D05827E75BBB42E1DA6B8012681268920635D4EFF310820092CE
:20034000012282F3108822681368514F1F401760009A82F31088EFF31082012383F31088A5
:2003600023689F683940996082F31088EFF31081012282F31088226893684027BB439360EC
:2003800081F3108820216962AE60EFF31081012282F31088226813681840106081F31088BB
:2003A000A86900F041FB5820205A6988411A89B236E05822A25A6B88D21A6B461A806A88DF
:2003C000002A5ED06A461288002A5AD0EFF310820192012282F31088226813684B4F1F40F2
:2003E0001760019A82F31088EFF31082012383F3108823689F683940996082F310882021E6
:200400006962AE60EE60EFF31081012282F31088226813681840106081F310886846018802
:20042000200000F04EFBF7BD80277F03384206D0520204D51F62200000F044FBF7BD8022E3
:20044000104207D00A4005D02969002919D020008847F7BD4022104013D00A4011D0EFF36B
:200460001080012181F3108821680A6840239A430A6080F31088202028622E61200000F0A5
:2004800022FBF7BD0F0800002001000465080008FFFEFFFF70B5040000250026206801687A
:2004A0009F4A0A40A168114322690A4361691143E2690A43026041689A4A0A40E168114348
:2004C0004160A169444A904202D00A00216A11438268954B13401943816000F04FFC002899
:2004E0000ED061684A08801800F06AFC80B201001039B64A914202D22168C86000E001263A
:200500006566A566300070BD00000000DFFEFFFF2421415CC90706D501684A68AC4B1340DB
:20052000826A1A434A602421415C890706D501684A68A84B1340C26A1A434A602421415C05
:20054000490706D501684A68A34B1340026B1A434A602421415C090706D501684A689F4BCE
:200560001340426B1A434A602421415CC90606D501688A689A4B1340826B1A438A602421DC
:20058000415C890606D501688A682C4B1340C26B1A438A602421415C490611D501684A6889
:2005A000904B1340026C1A434A60026C80235B039A4205D14A688C4B1340426C1A434A60E6
:2005C0002421415C090606D501684A689E4B1340806C18434860704700480040F8B5040019
:2005E00000257430C56000F025FC0700974E20680068000709D500963B000022802189031B
:20060000200000F01DF800280DD12068006840070BD500963B0000228021C903200000F028
:200620000FF8002801D00320F2BD2100743120204860886025660D700020F2BDFFDFFFFF9F
:20064000FEB5089F802424010025060001916846027002933068C06901990140019881420D
:2006600001D1012000E0002069460978884254D10020C0438742EDD000F0DCFB0299401A03
:20068000874201D3002F1FD1EFF31080012181F3108831680A686E4B13400B6080F3108871
:2006A000EFF31080012181F3108831688A6801239A438A6080F31088300074302021416063
:2006C000816005700320FEBD306800684007C1D53068C0692040BDD030680462EFF31080EB
:2006E000012181F3108831680A68594B13400B6080F31088EFF31080012181F3108831681B
:200700008A6801239A438A6080F3108830007430202141608160C160D3E70020FEBD0000A4
:20072000F369FFEFFFCFFFFFFFF4FFFFF0B54165010058310A804A800022CA608668FF242C
:2007400080235B019E4204D10569002D11D1414C0FE07F25002E03D10669002E06D108E0EA
:200760001C04A64207D10469002C01D18D8003E03F248C8000E08A808A6222244C62EFF323
:200780001084012585F310880568AE6801273743AF6084F3108884689C4204D10369002B16
:2007A00001D12D4B00E02D4BCB600A77EFF31081012282F310880068026890235B00134312
:2007C000036081F310880020F0BD0000F0FF0000FFFFFDFFFFFFFEFFFFFFFBFFFF7FFFFF85
:2007E000FFEFFFFFFFFFEFFFFFFF9FFF10B5EFF31081012282F3108802681368184C1C4078
:20080000146081F31088EFF31081012282F31088026893680124A343936081F31088016ED7
:2008200001290BD1EFF31081012282F31088026813681024A343136081F310882021C16728
:2008400000210166416610BDFFFFF7FFFFFFFF015FFEFFFFFF01000079090008FF080008B6
:20086000DFFEFFFF80B5806A0100523100220A810A8000F025F901BD816F212900D0704736
:2008800010B55221415A002900D11FE0C16C097802689162C16C491C11E0816F212900D0F4
:2008A000704710B55221415A002900D10EE0C16C0988C905C90D02689162C16C891CC16410
:2008C0005221415A491E5222815210BDEFF31081012282F31088026813688024A34313600A
:2008E00081F31088EFF31081012282F310880068026840231343036081F3108810BD38B595
:200900000100583102684B6A222B30D1526A8B881340426D1370426D521C42654A88521E86
:200920004A804A88002A26D1EFF31082012383F3108803681C682F4D25401D6082F31088FA
:20094000EFF31082012383F3108803689C680125AC439C6082F3108820224A620022CA602A
:200960008B68012B00D147E000F06AFA31BD906908210143916131BD38B5010058310268F7
:200980004B6A222B30D1526A8B881340426D1380426D921C42654A88521E4A804A88002AE4
:2009A00026D1EFF31082012383F3108803681C68104D25401D6082F31088EFF310820123C7
:2009C00083F3108803689C680125AC439C6082F3108820224A620022CA608B68012B00D152
:2009E0000AE000F02DFA31BD906908210143916131BD0000DFFEFFFF8A60EFF31081012267
:200A000082F31088026813681024A343136081F3108801681022CB69134000D00A62582174
:200A2000415A00F04EF831BD30B50100243100222523C35C022B04D00423C3630A7001204A
:200A400030BD03681C680E25AC431C6003681C680125AC431C6001234424045D1C25254009
:200A60000124AC40056C6C60252403550A70002030BD70B50022002401212523C35C022BDF
:200A800003D00422C263012418E003681D680E26B5431D6003681D688D431D604423C35CBF
:200AA0001C251D400123AB40056C6B602523C15424214254816B002900D08847200070BD14
:200AC000704770477047704738B59D4C60689D490140B0200002084360602068A10D01431E
:200AE000216000F0A7F905002068800506D400F0A1F9401B0328F7D3032032BDE0680321A1
:200B00008843E060E0680C21014006D000F092F9401B8D498842F5D3EEE78C488C4908601A
:200B20008C48006800F08AFB010025D120688A49014021602068802149020840009000980C
:200B4000206894490140216000F074F905002068800105D500F06EF9401B0328F7D3CBE7D0
:200B60000020E0602061FF20C030A061206D8021090401432165002032BD7CB5002817D030
:200B80006F4CE2680C21114080225202E36813400578ED0743D55500082903D00C2909D14D
:200BA000934207D121680D4039D04068002836D1012076BD4168914207D0A023DB029942B0
:200BC000216805D193000B43236021680A4309E0714B0B40236021680A4000920099216882
:200BE0006C4A0A402260406800280CD000F022F906002068284012D100F01CF9801B6528B6
:200C0000F7D3032076BD00F015F906002068284005D000F00FF9801B6528F7D3F1E7002009
:200C200076BDF8B5070033D000910124E4435B480068C107C90F0098814219D257480068F5
:200C40002040009901435548016000F0F3F8009D060052480068C107C90FA94207D000F087
:200C6000E9F8801B38498842F3D30320F2BD0095334D3878800705D5E868F0218843B968A2
:200C80000143E9603878C00719D52868800301D40120F2BDE8680321884379680143E960FD
:200CA00000F0C8F80600E8680C210140082906D000F0C0F8801B24498842F4D3D5E7009824
:200CC00036490968CA07D20F904217D2334800680440009820433149086000F0ABF8009C84
:200CE00006002E480068C107C90FA14206D000F0A1F8801B14498842F3D3B6E73878400712
:200D000005D5E86826490140F8680843E8603878000706D5E868234901403869C0000843CB
:200D2000E86000F01BF82049EA681206120F895CC840074908600748006800F07FFAF2BD00
:200D400000100240FF00FF008913000068FF1F00900000208C000020D4FFF6FE14488168B9
:200D60000C220A40082A01D112487047006801210004400F401C8140C80370470E480068AC
:200D80000E490A4A12685205FFE7520F895CC84070470000FFFFFBFFFFFFFEFF0020024097
:200DA000FFF8FFFFFFC7FFFF0C1E00080C1002400410024000127A00900000202C1E000806
:200DC000094214D088420FD30122030C01D100041204002300185B418B4200D35B1A52419B
:200DE000F8D319001000704701000020704708B500F03CFA08BD30B501684118446862080B
:200E00008A188368E40704D54C461B1901E0641C09D1914203D00C7864B2491C01E00C30BE
:200E200030BD0D78491C1D705B1C002CEFD4641EF7D5EEE701484068704700BF84000020BA
:200E400010B5384C01222100FFF77AF900280AD160882178344A1154401C60800120A080B8
:200E600000F002F8A06010BD80B5FFF7E3FF02BD10B50400FFF7DEFF001B10BD38B5C24D6F
:200E80002C682022291D200000F012FA80342C6031BD00001CB5684608A10A68026000F000
:200EA00064FA002808D1214C200000F0E1F901226946200000F0FCF913BD00005A5AA5A5D7
:200EC00038B50225174C6078002808D0012808D003280CD004281AD0062820D031BD012078
:200EE0001BE0A84800F0C4F9657001200CE0FFF7C5FF00F034FAE188814202D265700220A9
:200F000002E004206070002000F020FA31BDFFF7C1FF042000F01AFA0520607031BD00F032
:200F200001FA31BDD401002034010020807F0008F8B588B00027B44800689149884201D191
:200F400000F0F0F900F01AFA00F020F9142103A800F03CFA0124AD480168214301600168F4
:200F6000214000910099022102680A430260006801400091009800228421A020C00500F09C
:200F800091FA84200390049400240594069403A9A020C00500F022FA9D4D9E486860E120CA
:200FA0004002A86080204001E8602C61810869610C21A961EC612C626C623821A962C100D9
:200FC000A963E86340002864002300220021281D00F076FA002801D000F02EF98E48882154
:200FE000685003202900883148608C4829008831C8602900883188602800883000F0A6FA74
:20100000002801D000F018F9854E01223100281DFFF796F8FFF728FF290088310861FFF788
:2010200023FFB0600020707000F090F9002000F099F91EE00020707000F088F9FFF714FFEB
:2010400003990861B0680090FFF7F4FE0099401A03280ED3718806290BDBB088012808D1B4
:20106000704800F0BFFAB480748085216D4800F0ADF90121281DFFF724FDFFF721FF28003A
:201080008830039000F08DFA03980069FFF7F0FE3D28D7D38021A020C00500F009FA00F08E
:2010A00058F901280ED1009080239B01012201A9032000F081FA082201A9281DFFF700F8A6
:2010C0000220B9E700F045F9022814D100F047F900280ED0F0880090534B012201A9062042
:2010E00000F06AFA082201A9281DFEF7E9FF0320A2E70120A0E700F02CF9032811D14020D0
:20110000009084239B01012201A9032000F054FA082201A9281DFEF7D3FFF088401CF080AA
:201120008CE700F016F904280FD100F01EF900903E4B012201A9062000F03EFA082201A922
:20114000281DFEF7BDFF052076E700F002F9052813D100F00AF9002800D06BE77F1C2878A3
:20116000012802D0F8B2322808D100228021A020C00500F097F9062070705FE704205BE71D
:201180005A5AA5A5002000080000002038B598B034210BA800F01AF91421684600F016F9E7
:2011A000182105A800F012F921480168214A0A40C10C1143016001200B90A020C0020C906B
:2011C000002414940BA8FFF7D8FC002801D000F033F80F2000900225019502940394049471
:2011E00001216846FFF71DFD002801D000F024F80595079405A800F06DFA002801D000F0E8
:201200001BF819B030BD0000807F00082C100240980000200044004000300040FF0F0000C6
:20122000D401002034010020022000000120000000700040FFE7FFFF72B6FEE710B50400B7
:20124000FA20400100F07EFA00280BD1042C09D2002221000020C04300F067FA02488460D7
:20126000002010BD012010BD840000207047FEE77FB5060000F09BFAFF2400250095019521
:2012800002962E48006880022D4901402D480818801BC009401C0390694601A800F052FB22
:2012A000002800D1002400F0A7FA200004B070BDFEB507000C0016000025009500F077FA88
:2012C0003D0002940196009C002622E00298B10047183A682900022000F050FA002802D015
:2012E00020000224044338682968884202D02000042404432D1D0BE0104800688002104935
:201300000140104808188542E0D3200008240443761C0198864201D22006EDD000F06CFA08
:20132000E0B2FEBD38B5084C656800F039F8FFF7CBFB206880F30888A84731BD7C00F81F7A
:2013400000FCFF03FFFFFF070020000808490870704707480078704706490880704705488A
:2013600000887047044908807047034800887047E4010020E0010020E201002010B5002426
:201380001048016840220A4302600020FFF756FF002801D0012401E000F02CFB200010BD0D
:2013A00080B509480021C943C1600022C26081608260416042600160026000F073FB0020CE
:2013C00002BD0000002002401C100240002200BF094202D0491E4254FCD17047FCB503004B
:2013E0000A0003201900002358E0E40755D55C006D462C706C4624780325A540EC43556845
:2014000003262E40012E02D00540022D12D18E682640D5686F463F78BD4035438D604E68C0
:20142000012501279F40BE4357683F093D409D4035434D6055680540032D25D0CE68264035
:2014400095686F463F78BD403543CD6055680540022D19D1DD08AD004D192E6A01969F00A0
:201460001C263E406F467E70019EB4460F276E467678B7406646BE43B44617696E467678D8
:20148000B740664637432F620D682C40556805406E463678B54025430D605B1C1468DC4080
:2014A000A3D1F3BD002A01D0816170478162704742690B0013401B049143194381617047E9
:2014C000F2B5040017001D00002C14D0260074367068002803D13070200000F096FA2420F5
:2014E0007060206801680122914301602000FEF7D1FF012801D10120F2BD606A002802D05F
:201500002000FFF705F8009821688A688023DB0113438B6021688A680A4B1340184388607F
:2015200020680168084A0A40790511432A040A4302602068016801220A4302602000FFF796
:201540004DF8F2BDFF7FFFFFFFFF00FC70B5050001D1012070BD28681449016014490160CB
:2015600069684160A9688160FFF764FC072406002868C16821400AD0FFF75CFC801B2B2850
:20158000F6D32868C0682040F2D0032070BDE96802698A4201D0016101E0064901600020EC
:2015A00070BD04490068016000207047CCCC000055550000AAAA000070B50E0011001C001B
:2015C000049B344D032802D0062805D070BD2200300000F06CF803E02200300000F062F899
:2015E0002C8070BD38B504002078012850D16518AD1EFE316078032802D0062830D031BDD7
:20160000C9B2200000F050FA297809026A78891888421DD11F48008880229201904207D140
:20162000E07800022179401880B2FFF795FE31BD8421890188422BD100201749174AE31CE0
:201640001B5C135403230B70401C802820D2F6E7FF200002FFF786FE0420FFF777FE31BD20
:20166000C9B2200000F020FA297809026A7889188842EDD1A07820280AD1E078012807D17A
:201680002079002804D16079012801D10449087031BD000094000020D5010020040000205F
:2016A0009800002010B504002170062003E010B50400217003206070100AA070E270180A24
:2016C000207163710621200000F0EEF9010AA171E07110BD0178890706D504490A680C237A
:2016E0009A43806810430860002070474C10024010B5C20018231340FF249C40E24389072C
:20170000090E9940030004D418489B089B00C01806E0174B0007000F0838800880001818B2
:2017200003681A401143016010BD80B5FFF7E0FF01BD010005D40121C006C00E81400D48F4
:201740000160704710B5401E80214904884201D3012010BD084C606003210020C043FFF783
:20176000C7FF0020A0600721216010BD00E400E01CED00E000E100E010E000E0F2B5170011
:201780003E4C207C012801D10220F2BD012020743B4D280000F03CF80026010005D1009839
:2017A00066610760280000F033F82674F2BD0121344802680A400BD0EFF3108272B65B4B00
:2017C00083605B4B836082F31088026811400FD10222016811400DD0EFF3108172B6554BFF
:2017E000C360554BC36081F310880068024001D001207047002070472248016802220A4389
:20180000026001680122FFE70A4302600020704770B50500FFF70EFB0600494C2068C0075B
:201820000CD50020C0438542F8D0002D04D0FFF701FB801B8542F1D2032070BD0220216802
:20184000014000D020602068C00511D4206880050ED4206840050BD42068000508D4206839
:20186000800405D42068800302D42068C00303D500F00AF8012070BD002070BDBC0100209D
:2018800050C300000420024030B500222B4880235B002B490C681C4004D042690224144317
:2018A00044611A004B0D0C681C4006D0446901252543456114001A0022430B0D0C681C400F
:2018C00006D0446908252543456114001A002243CB0C0C681C4006D0446904252543456156
:2018E00014001A0022439B000C681C4006D0446910252543456114001A0022430B689B0380
:2019000006D5202344691C43446114002022224380235B020C681C4006D04469402525431D
:20192000456110001A0002430A6030BDEFCDAB8905040302BFAE9D8C16151413BC01002078
:2019400018200240FEB507000E001A4C207C012801D10220FEBD0120207417480090FFF7D1
:2019600057FF010023D10021C94331607968134D01960E0000E08036B968C9017A68891874
:201980008E4214D20E48FFF70CFE300000F01CF80098FFF73DFF2968082291432960296894
:2019A000084A0A402A600100E5D001990E6000212174FEBDBC01002050C30000042002407C
:2019C00020010020FFFDFFFF10B50021074A5161074A1368540D1C431460136808241C43DD
:2019E00014607F229043016010BD0000BC010020042002402748016801220A43026041683B
:201A0000802252050A434260704770B586B0040014220021684600F05FF820681E498842C3
:201A200035D11E48C168802292020A43C260012102680A430260026811400591059902241C
:201A40000168214301600068204005900598E0020090019400250295032603960420049021
:201A60006946A020C005FFF7B9FCC0200090019402950396049569460948FFF7AFFC0022F6
:201A800000211C20FFF751FE1C20FFF752FE06B070BD000034100240004400402C100240B7
:201AA000000400507047FEE730B5FF23FF24094A08E005785D40401C535D634054198025F6
:201AC0006D00645D0D00691E2D06F2D11802204330BD00BFEC1A000810B504000800110035
:201AE00002002000FFF774FC200010BD00C1814001C0804101C0804100C1814001C08041E7
:201B000000C1814000C1814001C0804101C0804100C1814000C1814001C0804100C18140B5
:201B200001C0804101C0804100C1814001C0804100C1814000C1814001C0804100C1814095
:201B400001C0804101C0804100C1814000C1814001C0804101C0804100C1814001C0804175
:201B600000C1814000C1814001C0804101C0804100C1814000C1814001C0804100C1814055
:201B800001C0804101C0804100C1814000C1814001C0804101C0804100C1814001C0804135
:201BA00000C1814000C1814001C0804100C1814001C0804101C0804100C1814001C0804115
:201BC00000C1814000C1814001C0804101C0804100C1814000C1814001C0804100C18140F5
:201BE00001C0804101C0804100C1814000C0C101C30302C2C60607C705C5C404CC0C0DCD75
:201C00000FCFCE0E0ACACB0BC90908C8D81819D91BDBDA1A1EDEDF1FDD1D1CDC14D4D51534
:201C2000D71716D6D21213D311D1D010F03031F133F3F23236F6F737F53534F43CFCFD3D94
:201C4000FF3F3EFEFA3A3BFB39F9F83828E8E929EB2B2AEAEE2E2FEF2DEDEC2CE42425E574
:201C600027E7E62622E2E323E12120E0A06061A163A3A26266A6A767A56564A46CACAD6DD4
:201C8000AF6F6EAEAA6A6BAB69A9A86878B8B979BB7B7ABABE7E7FBF7DBDBC7CB47475B5B4
:201CA00077B7B67672B2B373B17170B0509091519353529296565797559594549C5C5D9D14
:201CC0005F9F9E5E5A9A9B5B99595898884849894B8B8A4A4E8E8F4F8D4D4C8C44848545F4
:201CE00087474686824243834181804070B40123002413E00168001D194202D04D46691818
:201D0000491E0C60091D121F042AFAD20D00960701D50C80AD1C1A4000D02C700268001D7D
:201D2000002AE7D170BC704710B5074979441831064C7C44163404E0081D0A68891888477C
:201D40000100A142F8D110BD08000000240000009DFFFFFF5001000098000020000000003A
:201D600097F0FFFFEE0000002A00000000000020FEE7FEE77047704780B500F009F801BD8A
:201D800080B50248FEF71AFA01BD00009C0000200248416802788918416070478400002037
:201DA00000F00DF8002801D0FFF7BEFF00BF00BF002000BF00BFFFF7BBF800F002F80120B2
:201DC000704780B500F002F801BDFEE70746384600F002F8FBE7FEE780B500BF00BF024A0F
:201DE00011001820ABBEFBE7260002000548014603B4684680F3098800BF00BF00BF00BF2E
:201E0000FFF7CEFFA5EDF5FE7047000000000000000000000102030406070809014880478B
:201E200001480047091E0008ED1D00080000000001020304FEE7FEE7FEE7FEE7FEE7FEE769
:201E4000FEE7FEE7FEE7FEE7FEE7FEE7FEE7FEE7FEE703002000088100010001F9000004CA
:071E6000FB0003200000203D
:20200000080B0020FD7D00082D7300082F73000800000000000000000000000000000000B9
:20202000000000000000000000000000317300080000000000000000337300083573000896
:202040009350000803620008E7720008D37400089F7500087D7300088D730008977300084A
:2020600000000000A77300080F770008CB7A0008B1730008CF7A000800000000E37A000881
:2020800000000000000000000000000000000000BF7D000800000000CB7D0008157E000811
:2020A00000000000177E00080000000000000000BB730008197E00080000000000000000AE
:2020C00080B501008F20C00501F052F8002101F0A7F802D8FC21890501E0BF21090601F024
:2020E000B3F801F041F902BD10B57F4C0122210001F0B6F900280BD1A08821787B4A1154E8
:20210000401CA0807A4C0120208000F04DF8606010BD80B57448002181677649096841622D
:2021200075490968816275490968C16201210C3001F00AFE01BD38B56B4C01F07AFEE080B9
:20214000B4256D0002F00AF801282089E18806D1814201D3081A06E0281A401803E088424D
:2021600000D24019401A81B2A94200DD401B6449898D82B28A4202D3691A914200DA00209C
:20218000608131BD38B5012001F0F5FF564C0025206B8563A57001F04CFE208165815948CB
:2021A0000570FFF7B6FF31BD80B502F015F802BD10B5040002F010F8001B10BDF8B50024A2
:2021C000494D6C704E4E504F3878012811D102F01DF8022803D002F019F8012809D14B48FA
:2021E0000068A867032001F0C6FF0120A8703C7002E0A878012841D101F0C0FF032803D0BF
:2022000001F0BCFF052833D101F0B4FDFFF793FF01F0B4FF03281BD17088696F884227D269
:20222000042001F0A8FF286B846301F002FE28816C81FFF7B9FFE867FFF76BFF01F08EFF06
:20224000002801D1012000E0002001F08AFF0FE03089012806D1E86FFFF7AAFF718981428E
:2022600006D203E06889B189884201D3FFF78AFF02F02EF8286F02F053F86867A878022856
:2022800030D12048007802282CD101F077FF032803D001F073FF05281ED101F06BFDFFF703
:2022A0004AFF01F06BFF032802D1052001F063FF01F064FF05280FD13089012806D1E86F93
:2022C000FFF776FF7189814206D203E06889F189884201D3FFF756FF01F0FAFF286F02F054
:2022E0001FF86867F1BD000084040020EC030020B0060020E0060020E4060020E80600209F
:20230000FC0500209906002097060020D4060020F8B58EB0002469460C8202F049F800F0B7
:20232000CDFE142105A802F057F8E24D286804210143296028680421084000900098286849
:202340000121014329602868C107C90F00910098286802210143296028680221084000902A
:202360000098E14E00228903300002F002F901229103300002F0FDF80022E349A020C0052A
:2023800002F0F7F800220421E04802F0F2F8C02000020590012006900794089405A93000CE
:2023A00002F022F8062005900694079405A9A020C00502F019F810200590C426B6030696E7
:2023C000079405A9A020C00502F00EF8082005900696079405A9A020C00502F005F8C02041
:2023E00040000590012006900794089405A9A020C00501F0F9FF032005908426B603069647
:20240000079405A9C14801F0EFFF04200590012006900794089405A9BC4801F0E5FFE80C69
:2024200005900694079405A9A020C00501F0DCFF802000020590012006900794089005A904
:20244000A020C00501F0D0FF202005900696079405A9AE4801F0C8FF00220021052002F075
:20246000CEF8052002F0CFF800220021062002F0C6F8062002F0C7F800220021072002F06C
:20248000BEF8072002F0BFF868680121014369606868C107C90F00910098002201210920B1
:2024A00002F0ADF8092002F0AEF868460021002206C0A948A9490160C46380210906416051
:2024C00084600621816301210161C46020228154212284548462FF21C231416201212C2227
:2024E0008154042141618E02066384614463C46102F0AEF8002801D000F038FE984800906F
:2025000001966946944802F047FA002801D000F02DFE9448009069468F4802F03DFA00280F
:2025200001D000F023FE9048009069468A4802F033FA002801D000F019FE8C4803908C4876
:2025400003994860E1204002039988600398C66003980461280D039948610C200399886184
:202560000398C4610398046203984462382003998862F000039988630398C6637000039934
:2025800008647C48059000230022002102F0FEFA002801D000F0EAFD0AA80021002200233E
:2025A00000252EC0684606C006A82EC0724DB00428636C63AC637148E8632C646C64280090
:2025C000303002F029FB002801D000F0CFFD0A960AA92800303002F017FC002801D000F007
:2025E000C5FD2800303002F03AFB002801D000F0BDFD0094019469462800303002F04AFD2E
:20260000002801D000F0B2FD60200690079408940994042206A92800303002F089FB00283D
:2026200001D000F0A3FD2800303002F0F6FDB5480190B54801990860B44801994860019868
:20264000846001200199C8600198046101984461019884610198C46101980462019802F0B1
:2026600057FE002801D000F081FD0021019803F063F9002801D000F079FD0021019803F089
:2026800078F9002801D000F071FDA1480199C864032001990865701E01998865019948653D
:2026A0009C48089003F08EF9002801D000F05EFD994801E02C100240029084700299CC7043
:2026C0006C7002990C7102994C700198446602994C710198846602998C712C816C818F4987
:2026E0000C708F4902E000BF000800500C7001208C4908708C4908708C4908708C490C70B8
:202700008C490C708C4903E080810000000400500C7002990C70894E01223100884803F0DA
:2027200087F93088874988422AD1874E30223100864803F07DF9300003F085F91722844996
:20274000844803F075F9844884490180D64941807C4801F064FD1BE02C0000200024014090
:2027600020000014400000180000044830020020004400403402002084040020FF030000AB
:20278000CA4801F04CFD17227149724803F050F9C74E6F48008C03F0DBF9310003F0E8F9E0
:2027A000FFF78EFC07906A48408C03F0D1F9310003F0DEF9FFF784FC06906548808C03F014
:2027C000C7F9310003F0D4F9FFF77AFC0090079868620698A8620098E8625D48008A000426
:2027E000B44908605A48408A0004B34908605848408B0004B14908605548808B0004B0492A
:2028000008605348C08B0004AE4908605048808A0004AD490860AC674D48C08A0004AB4919
:2028200008604B48008B0004A94908604848008D03F08EF9310003F09BF9FFF741FC099099
:202840004348C08C03F084F9310003F091F9FFF737FC0099CF4A11600699CF4A116007996E
:20286000CE4A1160099901F098FD3948408D0299C87100200299087201F07DFC01F058FBA2
:202880006C6703F0B3FB0F2603F0C4F9761EFBD103F0D4FB01F0B8FA286B84630421280053
:2028A000303002F0FFF90021D64803F043FC002801D000F05BFC0322B949D24801F0AEFF3E
:2028C000002801D000F052FC012128000C3001F03BFA01222900059800F0C2FDFFF764FC27
:2028E0000199C866FFF760FC01990867FFF75CFC01994867FFF758FCAA4948600694AA4FA6
:202900005EE000BFB802002000540040BB7C70000030004004030020880000200000002046
:202920000100002002000020030000200400002005000020FB0600200F000020EC06002086
:20294000F8010808A5A500000405002000000808FC05002000020808A60500200156000096
:20296000012001F068FC0198006EFFF721FC8F494A8909895118FA2292005143814206D244
:2029800001F088FC012802D1002001F080FCF08C012815DC01F040FC012811D10198C06FA3
:2029A000009001F019FC0099401AFA214901884203D20198C06F002802D1002001F029FC91
:2029C0000121059803F01CFC6878012805D101F0D5FB022801DDFFF7F1FB0298C0780128A8
:2029E00000D0F6E00299CC7001F0C8FB06280BD101F06EFC286F01F093FC686701F0BAF9B7
:202A000001F017FAE880288101F0B8FB072828D101F05EFC286F01F083FC686701F0AAF922
:202A2000C1480088696F88421BD2042001F0A3FB286B846301F0FDF928816C810220A87092
:202A400001205B490870FFF7AFFBE867FFF761FB01F084FB002801D1012000E0002001F07C
:202A600080FB5448C08C042862DD01F087FB092835D101F02DFC286F01F052FC686701F02E
:202A800079F901F0F5FB012803D06846008A3C2820DD0A2001F06FFB286B8463FFF739FB25
:202AA00069460C821BE000BF050700005A5A00000000C842C8060020CC060020B806002097
:202AC000BC060020D0060020D4060020D8060020DC0600206846008A401C6946088201F066
:202AE0004DFB0B2824D101F0F3FB286F01F018FC686701F03FF901F0BBFB022803D06846A1
:202B0000008A3C280FDD022001F035FB286B8463002001F096FB012001F08DFBFFF7F9FAF9
:202B200069460C8204E06846008A401C6946088201F024FB0C2842D101F0CAFB286F01F012
:202B4000EFFB686701F016F902988079012836D10198806EFFF72CFB7349C98881422ED285
:202B600002998C7101988466042001F004FB286B846301F05EF928816C810220A870012073
:202B80000B490870FFF7C5FA01F0E8FA002813D1012012E0E8060020E4060020E0060020A4
:202BA00038030020B0060020400300206C0600209906002064050020002001F0D2FA01F0D9
:202BC000CBF903F027F803F053F903F01BFB03F0B9F902988078012800D081E0094E029954
:202BE0008C7001F0CBFA02282ED1069401F0C2F80298007A012827D102990C72C649C74849
:202C000002E000BF2C00002001F03EF9069831007431820089180C804C80401C6428F6DBF7
:202C2000069002988089BE49C8800298C08948810298008A08810298408A88800298808AA3
:202C400088810298C08AC88101F098FA062818D1A878002815D1B3480078002811D00120D9
:202C60000299087230007430069989004018E9880180696F41800698642802DA401CC0B28C
:202C8000069002984079012825D10198406EFFF78FFA2549898881421DD25C20305C401CD1
:202CA0000299087002994C7102988079002806D1012002998871FFF777FA019988660C2047
:202CC00001F059FA5C20305C042804DB202001F089FA02990C7003F04DFB089802F09DFE6A
:202CE0000198C06EFFF764FAFB280BD303F028FC002803D101F084FA03F03EFCFFF754FAC5
:202D00000199C8668648C08C042845DD0198806FFFF74EFA062821D301F096FA01281DD103
:202D200005200090804B01E0FC05002003223900032003F061FC0820039908800822390091
:202D4000059800F04DFBFFF72FFA0199886701F015FA022802D1082001F00DFA0198006FD1
:202D6000FFF726FADD2817D301F06EFA002813D101200090CD4B03223900032003F03CFC74
:202D800008200399088008223900059800F028FBFFF70AFA019908670198406FFFF708FA91
:202DA000292800D201E101F03DFAC14988420BD101F06AFA002807D101F054FAC82800DBD7
:202DC000F3E001F041FA002800D0EEE003F0B8FB002800D1AAE000220421B64801F0C9FB0B
:202DE0008021A020C00501F0CAFB082603F0A8FB01280AD10090B04B03223900062003F02D
:202E0000FBFB03980680022083E003F099FB02280AD101200090430301223900032003F021
:202E2000EBFB0398068040E0039840886946488203F086FB032811D16846408A0090C34BF8
:202E400001223900062003F0D7FB039806806846408A401C0399488004205AE003F070FB16
:202E600004280CD14020009084239B0101223900032003F0C1FB03980680052049E003F086
:202E80005FFB052815D14020009084239B0103223900102003F0B0FB89200399088003F0A6
:202EA00055FB6946498A814201D2032031E006202FE003F045FB06280BD101200090A44B64
:202EC00003223900032003F097FB0398068007201FE003F035FB07280BD102200090764B04
:202EE00003223900062003F087FB0398068008200FE003F025FB082849D103F02DFB009099
:202F0000934B01223900062003F076FB03980680002003F012FB3AE094000020A00000201E
:202F2000640500200F00002004810000039800880299497A80231B0200290BD10120029952
:202F400048720920009001223900032003F054FB08201AE001290CD102994C7227200090E4
:202F600082231B0201223900102003F045FB57200BE0022909D102994C7209200090012234
:202F80003900102003F038FB1B2003990880039802883900059800F023FA01F063F90028C6
:202FA0001BD0022001F053F917E001F06DF9032818D13F48009092231B02022239000620F9
:202FC00003F01AFB002001F05CF908200399088008223900059800F003FAFFF7E5F80199DD
:202FE000486734E0082601F04FF9022803D117200090902306E001F047F901280FD13020BF
:20300000009091231B0202223900102003F0F4FA002001F036F903980680082213E001F072
:2030200033F9052813D10B20009093231B0202223900032003F0E0FA002001F022F91B2011
:20304000039908801B223900059800F0C9F941484068FFF7ADF8032810D3A98805290DD968
:203060003C480088012809D13B4803F0E7FA39490C80AC809621384801F0AEF90198C06D1B
:20308000FFF796F8354E36490989FA2292004A4382420AD201F0B4F8082806D1F08C0428F1
:2030A00000DC5DE4012001F0CCF85CE403810000A5A50000000400500281000010B598B02B
:2030C00034210BA801F088F91421684601F084F9182105A801F080F922480168224A0A404C
:2030E000C10C1143016001200B90A020C0020C9002201490C0031590C0200003169080201D
:20310000C00317900BA803F009FD002801D000F02DF80F20009003200190002402940394C7
:2031200004940121684603F0A7FD002801D000F01DF80A2005900794099405A803F09AFE63
:20314000002801D000F012F818B010BD0220000001200000B0060020EC0300206405002036
:203160006C06002000700040FFE7FFFF72B6FEE730B405004D400122D20715404B180418D6
:20318000240E2ED01B0E32D0FF2C34D0FF2B3AD0E4180002090210431143000A090A9446CA
:2031A000C2B24A43000AC3B24B43000A4843110A5B181A43D2B2190A091801D44918641E01
:2031C000080A7F3C23DBFE2C08DAE40509061143634699416041284330BC7047FF20C005B6
:2031E000F9E728001B0EFF2BF6D1D043F4E72800FF2CF1D1F9E74002F7D1FF2B01D1490279
:20320000F3D1E005E7E7D8054902E4D0EDE743020020641CDFD15B129B1CDCD9D805DAE77B
:203220000CB4012212060318DA4207D84B18DA4204D802000A43921802D281420CBC704713
:20324000FCD088420CBC70470122D20703004B402ED4431A01D2C01AC91830B44B1804187F
:20326000240E1B0E22D0FF2C20D0E31A182B1DDC09021143C40D641E00021043944619258E
:20328000ED1A0A00AA40D940451801D36D08A41CE405D209280A2D062A436546AA416041E7
:2032A00003181B0EFF2B01D3C00DC00530BC7047514006E05140CCE70122D20703004B4052
:2032C000F8D4431A03D2C01AC9185040514030B44B18090211430418240E1B0E40D0FF2CBC
:2032E0003AD025009D410BD31ED8C50D4002401A0BD3ED050100400AC90591416841D5E75F
:20330000C50D40024918401AD0D001214008491C0018FCD58C4204D36D1A000AED05401905
:20332000C4E7E8051040C1E7182DBFDCAC1C0D00E140E5414D40012D4941C40D0002104396
:20334000451A01D46D199543641EE405280A2D069541604130BC7047FF2BA7D1D843A5E7A8
:203360002442A3D10020A1E70122D2070118090E7F3910D449421F310FD4001805D2C00195
:203380001043C84000D5D0437047C0011043C84005D440427047002070470042F3D5100014
:2033A000704730B501684118446862088A188368E40704D54C461B1901E0641C09D1914274
:2033C00003D00C7864B2491C01E00C3030BD0D78491C1D705B1C002CEFD4641EF7D5EEE711
:2033E00070B5030074335C68202C37D100290BD0140009D0846880256D01AC4206D10669C2
:20340000002E03D1CE0701D5012070BD7426865D012E23D001261E70C164010050310A802C
:203420004A8000228A61DA6021265E60AC4204D10469002C01D1264C00E0264C8C611A700D
:20344000EFF31081012282F310880068026880231343036081F31088002070BD022070BDF3
:2034600070B5030074339C68202C2ED100290BD0140009D0846880256D01AC4206D104690C
:20348000002C03D1CC0701D5012070BD7424045D012C1AD001241C700023036603680E4C23
:2034A000A3420FD05B681B020CD5EFF31083012484F31088046825688026F6042E4326604E
:2034C00083F3108800F0C2FA70BD022070BD0000BB3B0008993B000800480040FEB504009D
:2034E0002368D869194609689A682500583520260E4000962026064001960026A94F0740CA
:203500000BD1019F002F0CD0009F002F09D0E968002901D020008847F7BDD70702D4A24FEA
:203520000F4078D0C70706D5CF0504D501271F62AB6A1F43AF62830708D5D30706D502232C
:2035400027683B62AB6A04271F43AF620423184207D0D70705D527683B62AB6A02271F43B0
:20356000AF620823184209D0009F002F01D1D20704D522681362AA6A1343AB62802212015F
:20358000104007D0480105D520680262A86A20210143A962A86A002833D00198002807D07E
:2035A0000098002804D0E968002901D020008847A86A402721688968394002D12821014074
:2035C00024D0200000F0A2FA20688068074019D0EFF31080012181F3108821688A6840232D
:2035E0009A438A6080F31088A86900280AD06F498163A86903F000FD002802D0A869816B52
:203600008847F7BD200003F0A4FDF7BD200003F0A0FDAE62F7BDAF68012F00D094E0102789
:20362000384200D0394200D18EE01F621020C0430121C9432268926852064AD5AA6913681B
:203640005B689BB2002BE5D05827E75BBB42E1DA6B8012681268920635D4EFF3108200927B
:20366000012282F3108822681368514F1F401760009A82F31088EFF31082012383F3108852
:2036800023689F683940996082F31088EFF31081012282F31088226893684027BB43936099
:2036A00081F3108820216962AE60EFF31081012282F31088226813681840106081F3108868
:2036C000A86903F074FC5820205A6988411A89B236E05822A25A6B88D21A6B461A806A8855
:2036E000002A5ED06A461288002A5AD0EFF310820192012282F31088226813684B4F1F409F
:203700001760019A82F31088EFF31082012383F3108823689F683940996082F31088202192
:203720006962AE60EE60EFF31081012282F31088226813681840106081F3108868460188AF
:20374000200002F05DFDF7BD80277F03384206D0520204D51F62200003F0FCFCF7BD8022C1
:20376000104207D00A4005D02969002919D020008847F7BD4022104013D00A4011D0EFF318
:203780001080012181F3108821680A6840239A430A6080F31088202028622E61200003F04F
:2037A000DAFCF7BD0F08000020010004853B0008FFFEFFFF70B5040000250026206801681B
:2037C0009F4A0A40A168114322690A4361691143E2690A43026041689A4A0A40E1681143F5
:2037E0004160A169444A904202D00A00216A11438268954B13401943816003F010FB002883
:203800000ED061684A08801803F0BAFC80B201001039B64A914202D22168C86000E0012693
:203820006566A566300070BD00000000DFFEFFFF2421415CC90706D501684A68AC4B134088
:20384000826A1A434A602421415C890706D501684A68A84B1340C26A1A434A602421415CB2
:20386000490706D501684A68A34B1340026B1A434A602421415C090706D501684A689F4B7B
:203880001340426B1A434A602421415CC90606D501688A689A4B1340826B1A438A60242189
:2038A000415C890606D501688A682C4B1340C26B1A438A602421415C490611D501684A6836
:2038C000904B1340026C1A434A60026C80235B039A4205D14A688C4B1340426C1A434A6093
:2038E0002421415C090606D501684A689E4B1340806C18434860704700480040F8B50400C6
:2039000000257430C56000F067FC0700974E20680068000709D500963B0000228021890385
:20392000200000F01DF800280DD12068006840070BD500963B0000228021C903200000F0D5
:203940000FF8002801D00320F2BD2100743120204860886025660D700020F2BDFFDFFFFF4C
:20396000FEB5089F802424010025060001916846027002933068C0690199014001988142BA
:2039800001D1012000E0002069460978884254D10020C0438742EDD000F01EFC0299401A6D
:2039A000874201D3002F1FD1EFF31080012181F3108831680A686E4B13400B6080F310881E
:2039C000EFF31080012181F3108831688A6801239A438A6080F31088300074302021416010
:2039E000816005700320FEBD306800684007C1D53068C0692040BDD030680462EFF3108098
:203A0000012181F3108831680A68594B13400B6080F31088EFF31080012181F310883168C7
:203A20008A6801239A438A6080F3108830007430202141608160C160D3E70020FEBD000051
:203A4000F369FFEFFFCFFFFFFFF4FFFFF0B54165010058310A804A800022CA608668FF24D9
:203A600080235B019E4204D10569002D11D1414C0FE07F25002E03D10669002E06D108E097
:203A80001C04A64207D10469002C01D18D8003E03F248C8000E08A808A6222244C62EFF3D0
:203AA0001084012585F310880568AE6801273743AF6084F3108884689C4204D10369002BC3
:203AC00001D12D4B00E02D4BCB600A77EFF31081012282F310880068026890235B001343BF
:203AE000036081F310880020F0BD0000F0FF0000FFFFFDFFFFFFFEFFFFFFFBFFFF7FFFFF32
:203B0000FFEFFFFFFFFFEFFFFFFF9FFF10B5EFF31081012282F3108802681368184C1C4024
:203B2000146081F31088EFF31081012282F31088026893680124A343936081F31088016E84
:203B400001290BD1EFF31081012282F31088026813681024A343136081F310882021C167D5
:203B600000210166416610BDFFFFF7FFFFFFFF015FFEFFFFFF010000993C00081F3C0008BC
:203B8000DFFEFFFF80B5806A0100523100220A810A8003F0DEFA01BD816F212900D0704726
:203BA00010B55221415A002900D11FE0C16C097802689162C16C491C11E0816F212900D0A1
:203BC000704710B55221415A002900D10EE0C16C0988C905C90D02689162C16C891CC164BD
:203BE0005221415A491E5222815210BDEFF31081012282F31088026813688024A3431360B7
:203C000081F31088EFF31081012282F310880068026840231343036081F3108810BD38B541
:203C20000100583102684B6A222B30D1526A8B881340426D1370426D521C42654A88521E33
:203C40004A804A88002A26D1EFF31082012383F3108803681C682F4D25401D6082F31088A7
:203C6000EFF31082012383F3108803689C680125AC439C6082F3108820224A620022CA60D7
:203C80008B68012B00D147E0FEF72EFA31BD906908210143916131BD38B5010058310268DB
:203CA0004B6A222B30D1526A8B881340426D1380426D921C42654A88521E4A804A88002A91
:203CC00026D1EFF31082012383F3108803681C68104D25401D6082F31088EFF31082012374
:203CE00083F3108803689C680125AC439C6082F3108820224A620022CA608B68012B00D1FF
:203D00000AE0FEF7F1F931BD906908210143916131BD0000DFFEFFFF8A60EFF3108101224B
:203D200082F31088026813681024A343136081F3108801681022CB69134000D00A62582121
:203D4000415A02F05DFA31BD8269C369D218036AD2180260026A52008369D218534243600B
:203D6000026A8260002904D00C300021002200230EC0704770B500241E48006800282DD095
:203D80001D4909680904401A1C490C68844200DD04001B4D2100286803F027FA0600E968E1
:203DA000686803F022FA36182969A86803F01DFA6969301803F0FFF9E9682961EC60686135
:203DC00004000E484068A04201DA04006861002C04D5002401212800FFF7B6FF8020000297
:203DE0002018C113090C0818001480B205490968886370BDFC040020F8040020B80600204B
:203E000090040020B4040020E0B51C482021017002214170302181700421C170002242603B
:203E200082600021C94302910C210191009001231DE01FB5124C0020C043029002200190D6
:203E40000094012319226A210E4801F06FFB002803D160782178090202E0FF210902FF208F
:203E600001430804000DC005C00D04B010BD6A21044801F09BFA0EBD00000000A4060020E0
:203E8000F4060020B802002038B500220A809300C3185C88A12C0BDB0D88A54208D20C80AE
:203EA0001C884C8014000A256C438C805B88CB80521C642AEBDB05000C002088A1280EDB39
:203EC000FF219431414323480818800A0A2103F057F92080E0889C494143880AE0806088AB
:203EE000B42149009C4A9278002A2A8806D1904201D3801A08E0891A081805E0824201D399
:203F0000101A01E05118081A608061881A2048434111890E081880110A306080994D286853
:203F2000FEF746F920812868FEF742F9608131BD10B5894C012020700021934A1278012A1F
:203F400000D00020E17021716171A070FEF72CF9E06010BDC806FFFFF8B57F4C00260225F4
:203F6000E068FEF725F9894988420DD36570E079694608708648066086498E8286480078BC
:203F800000282FD1012031E0E0796946087083480078834909687C4A127863780C2B15D878
:203FA00001A75B00FF5EBF4418002400CAFF5E0062008400A200CC000A0142011A01360147
:203FC00090016570FFF735FF764908808EE0764E300001F07DFD30223100744801F093FD7D
:203FE000657083E072480078002801D100F00BF9267200F01DF9022802D1032000F015F9AD
:20400000FEF7D2F8E06071E06A4819E0E079142809DD05206070FFF70CFF62490880684653
:204020000670657162E0401C694608705EE0012805D15A490E70FEF7B7F8524908605E48C4
:20404000006853490860684606704FE0002806D1012052490870FEF7A7F84A4908604A484D
:204060000078012800D10126A670544800684849086002201BE00125002805D147490D7046
:20408000FEF792F83F4908603F480078012800D00126A670207A002804D12572FFF7C9FE91
:2040A000404908804648006839490860042000F0AAF81BE036480160012A00D00126A67047
:2040C00009200BE03349088B002803D0FF22120290420BD1C88A002808D10B20607005E0AC
:2040E0002B480160012A00D10126A67068460078E071A025ED05207901228243802149001A
:20410000280000F036FAA27880210902280000F030FAA078A17981420DD0A07129482A4988
:204120000968816129490968C1612949096801620121FFF709FE6078F2BD012A00D0012619
:20414000A6701D48AFE70000AE040000024908707047014800787047940600201D48807893
:20416000704709490978012902D1401E8041C00F18498870704717494870704715484078D6
:20418000704700001C0300208F000020411F0000FC04002064050020020000208D000020A2
:2041A000DC0600208C040020040500200000080803000020D8060020D4060020C80600200B
:2041C000CC06002090040020E0060020E4060020E80600209406002001484068704700BFFA
:2041E000D803002010B52D4908702D4CA084FFF7B0FF002803D1A08C10210143A18410BD40
:20420000264800787047274908807047254800887047254908707047234800787047234903
:20422000088070472148008870472149087070471F48007870471F49087070471D480078F4
:2042400070471D49087070471B48007870471B490A78030001D1002202E0022800D1521C58
:204260000A70704715480078704715490870704713480078704713490880704711480088EE
:2042800070471149087070470F48007870470F49087070470D48007870470000FC0600202B
:2042A00064050020EE060020FD060020F0060020FE060020FF06002000070020EA030020AB
:2042C00001070020F2060020020700200307002030B50E4801880E4A116041880D4A11602D
:2042E0000D4C25888188A520400048439621490002F046FF401B64214843A188491B02F0FE
:204300002BFF1E300549086030BD00BF38030020C0060020F40400207A00F81FC4060020EF
:2043200070B50400204DA869E860296AE86902F042FFA860696A02F03EFF0100802676024E
:20434000300002F06EFF0100A86802F04EFF286020046861E96802F03BFF0100286802F009
:2043600044FF0100E86802F026FF28612968300002F02EFFA96802F038FF0100E961286913
:20438000A861002801D4720800E0084A8018C213120C10180014696070BD034A002393614A
:2043A000D3611062516270472C0600200080FFFF10B500240748016840220A43026000204B
:2043C00002F092FF002801D0012401E000F090FE200010BD00200240002200BF094202D090
:2043E000491E4254FCD17047F0B585B000220F23039331E0062303E06B4B9842FAD10523D8
:20440000B3402B432360694B1D68019BDC4325404B68DB0302D52B00019D1D43634B1D60A3
:204420005D6825404E68B60302D52E00019D35435D609D6825404E68F60202D52E00019D50
:2044400035439D60DD682C404D68AD0202D52500019C2C43DC60521C0B681C00D44000D1AC
:204460007FE00124944023400193019B002BF2D0530003259D40EE4302964D68AE07B60F14
:20448000012E03D0AD07AD0F022D0ED18568029E2E40CD689D40354385604568A5434C68E9
:2044A000E606F60F96402E43466094006D466C7003244D682540032D25D0C568029E2E405A
:2044C0008D689D403543C5604D682540022D1AD1D508AD0045192E6A04966E4677781C263A
:2044E0003E406F463E70049EB446039F6E463678B7406646BE43B4460F696E463678B740CC
:20450000664637432F620568029E2E404D682C409C40344304604B68C024A4021C409AD08E
:204520000123234C24681C43214D2C60214C9508AD00641925686E4677780C263E40039F4D
:20454000B740BD43A027FF05B84201D1002357E7194FB842FBD0194B984200D04CE70223D9
:204560004EE705B0F0BD0069084000D00120C0B27047002A01D08161704781627047426900
:204580000B0013401B04914319438161704701000B4A13680B4000D1704780B5116002F099
:2045A00011FF01BD00000000001C0050000401403410024008000140000400500008005001
:2045C0001404014010B5C20018231340FF249C40E2438907090E9940030004D418489B08EB
:2045E0009B00C01806E0174B0007000F083880088000181803681A401143016010BD80B5F6
:20460000FFF7E0FF01BD010005D40121C006C00E81400D480160704710B5401E8021490438
:20462000884201D3012010BD084C606003210020C043FFF7C7FF0020A0600721216010BD41
:2046400000E400E01CED00E000E100E010E000E0F8B5040016D025005035002668680028BD
:2046600004D1AE602E70200000F05BFD10206968014003D121688A68520705D56968084371
:2046800068602E700120F2BD68685D4A02400220104368605B488A689207920F012A03D120
:2046A0000A461268D2072AD46268574BC0273F06BA4206D05F1CBA4203D080273F06BA42BD
:2046C00008D10A6913400B6121680A69636813430B610AE00A6913400B6101684B4A0A40E2
:2046E0000260016862680A4302602168CA6818239A43CA602168CA68A3681343CB600168C9
:20470000434A0A4002600168626B52060A43026020688021490582680A4002D18268114367
:2047200081602068C1683B4A0A40C2602069022801D1042100E000212068C268E3681343F8
:2047400019432022A25C52030A432C21615C49001143226B0A43A16989031143E269D20390
:204760000A43C260606AFF21C231884205D02168CA681043A26A0243CA6001202121615CA5
:20478000012910D12021615C002905D12168CA6803041343CB6006E0696820220A436A60BE
:2047A000A9680143A960E16B012921680A690FD1194B13400B6121680A69236C1343626C77
:2047C0001A43A36C13430B6121680A69024303E0024002D00A6982430A6121684A6907236A
:2047E0009A434A6121684A69A36B13434B61AE60696802229143084368600020F2BD00002C
:20480000FFFEFFFF08270140FFFFFF3FFFFFC3FFFFFFFFFD1902FEFF03FCFFFFF2B5050076
:204820001700002600242868816849073CD45021695C012901D10220F2BD01215023E95469
:20484000C2681143C160E869012804D0280000F0FDF8040029D13B00009A28005030476834
:204860007649394080277F000F434760866006707348E96CC8627348E96C08637248E96CC1
:2048800048631C20296808602868416810260E43466029684031E86C02F052FB28688168C4
:2048A00004220A43826000E002242000F2BDF8B5040020680127082110250422036813402B
:2048C00003D003465B68134006D103680B4037D003465B680B4033D0636D2B4003D1636DD9
:2048E0008E011E4366650346DB68C02636011E401DD12023E35C002B19D10068014016D0E2
:204900002068806802400BD1206840680C21884321684860606D634901403943616506E0CE
:20492000606D202101436165A06D3843A065200002F0C0FDA069012802D00C2021680860E2
:2049400080262068006830400CD020684068304008D0606D290301436165200002F0ABFD40
:204960002068066020680168294014D001464968294010D0216B002903D00146C9680F407B
:2049800007D0A16D02220A43A2650560200002F093FD20680560F1BDFEB55022825C012AEA
:2049A00001D10220FEBD0700503701223A70006800248268520706D5786820210143796005
:2049C0003C700120FEBD009109684903490B01918025AD02654E6900009A5268644B9A42CC
:2049E000826A019B15D01343836200980068014006D03068A901014331600A2000F0A4F82B
:204A000000980068054016D030688021C903014310E09A43826200980068014003D03068C5
:204A200054490140316000980068054003D030685149014031603C700020FEBDFEF1FFFF77
:204A4000B94A0008254B00082F4B0008F8B50600306881688907890F012903D1014609683F
:204A6000C9071CD4102401258168444A0A4015D1816829438160012000F066F8FFF7ACFB33
:204A8000070030680068284009D1FFF7A5FBC01B0B28F6D3306800682840F2D104E0002031
:204AA000F2BD0000FFFEFFFF706D04437465B06D0543B5650120F2BD10B5816A4A6D502326
:204AC00013402BD1486D8022920002434A650868C268C0231B0113401CD120228A5C002A7F
:204AE00018D10A681268120714D5012283685B0709D443680C24A3434360486D204B0340CB
:204B00001A434A6506E0486D202303434B65886D02438A65080002F0CDFC10BDC96C496B13
:204B2000884710BD80B5806A02F0C7FC01BD80B5806A416D40220A434265816D04220A43C3
:204B4000826502F0B9FC01BD18B504000D4800680D4902F015FB4443009402E00098401E30
:204B6000009000980028F9D111BD00000827014001100000FFFF7FFFFFFFBFFF17000080FD
:204B8000FFFEFFFFE403002040420F00F2B5040017001D00002C14D02600743670680028C3
:204BA00003D13070200000F05CFB24207060206801680122914301602000FEF7FBFD012887
:204BC00001D10120F2BD606A002802D02000FEF72FFE009821688A688023DB0113438B605A
:204BE00021688A680A4B13401843886020680168084A0A40790511432A040A43026020688B
:204C0000016801220A4302602000FEF777FEF2BDFF7FFFFFFFFF00FC10B5040001D10120EE
:204C200010BD3920205C002804D138216054200000F0E8FA022039216054211D206800F0F0
:204C40004DF901203E2160543A2160543B2160543C2160543D216054392100F065F810B52C
:204C6000040001D1012010BD3920205C002804D138216054200002F021FC02203921605432
:204C8000211D206800F02AF901203E2160543A2160543B2160543C2160543D21605439216B
:204CA00000F042F810B50400002901D13A2008E0042901D13B2004E0082901D13C2000E047
:204CC0003D20205C012801D0012010BD0220002901D13A2208E0042901D13B2204E0082941
:204CE00001D13C2200E03D22A0540122206800F0C3F9216801208207914205D0084A9142FA
:204D000002D0084A914205D189684907490F062904D021680968084321680860002010BD07
:204D200000080140001401406054002010BD0000F1B582B000206B46187002983823C05CF2
:204D4000012801D10220FEBD0120029B3824185508272C4EC5020C00002A06D0042A14D066
:204D6000082A24D00C2A32D043E00298006800F0DCF80298006881690F43876181690422B6
:204D8000914381618169E2680EE00298006800F0E2F80298006881690D43856181690E4015
:204DA00086618169E26812020A43826123E00298006800F0E8F802980068C1690F43C76119
:204DC000C16904229143C161C169E2680EE00298006800F0EFF802980068C1690D43C561B0
:204DE000C1690E40C661C169E26812020A43C26101E0694608700020029938228854684675
:204E00000078FEBDFFFBFFFFF8B504000026684606703820205C012801D10220F2BD2700A5
:204E2000383701253D7002203922A05420688268294B13408360086802003FD010283DD0DD
:204E400020283BD0302839D0402830D0502820D0602825D0702806D02B03984235D05B007B
:204E600098420AD02FE0CB684A688968206800F0E4F820688168772208E0CB684A6889687D
:204E8000206800F0DAF820688168AA030A4382601BE0CA684968206800F0A4F850210EE02A
:204EA000CA684968206800F0AEF8602107E0CA684968206800F096F8402100E001002068D6
:204EC00000F0B3F801E068460570392025543E7068460078F2BD00008800FFFF70B50268C9
:204EE0005B4B5C4C8025ED05A84203D0A04201D0984208D17026B24316004A683243A842F8
:204F000003D0A04201D0984203D1534B1340CA681A4380239A430B69134303608A68C2621A
:204F2000096881620121416170BD30B5026A01239A430262036A426885697324A5430C687E
:204F40002C430225AB438D681D434260846149684163056230BD30B5026A10239A43026283
:204F6000026A436884693D4D25400C6824022C432025AA438D682D0115434360846149684F
:204F80008163056230BD30B5026A354B13400362046A4268C56973239D430B682B43314D35
:204FA00025408C6824022C434260C3614968C163046230BD30B5026A2B4B13400362036A29
:204FC0004268C469254D25400C6824022C43274D1D408B681B032B434260C46149680164ED
:204FE000036230BD30B5036A046A0125AC4304628469F025AC431201224382610A229343D6
:205000001943016230BD30B5036A1024A34303628469036A164D254012032A438261A022CA
:20502000934309011943016230BD826870239A43114307220A438260704730B584680D4DFC
:20504000254029430A4319021143816030BD00000014014000080140FFFCFFFFFF8CFFFFD5
:20506000FFFEFFFFFFFDFFFFFFEFFFFFFFDFFFFFFF0FFFFFFF00FFFF10B5C906C90E036A92
:2050800001248C40A3430362036A8A401A43026210BDFEE7F0B53822825C012A01D102202E
:2050A000F0BD020038320123137002243925445505686E68AC687027BE430F6837436F6064
:2050C00005689E07B54205D0074EB54202D0074EB54204D18026B44349682143A96039219E
:2050E000435400201070F0BD0008014000140140E0B508220021684602F0E1F97B480168A8
:2051000001220A4302604168802252050A434260002000900190684602F0DCF902F00AFA80
:2051200007BD70B586B004001422002101A802F0C6F920686E49884237D16E488168420D9C
:205140000A438260012102680A430260006801400091009860200190032002900025039590
:2051600001A9A020C005FFF73FF9634E634830607560B560F5608020306180307061800075
:20518000B0612020F0613562300001F08DFE002801D0FDF7EBFFE664B462002201210C2083
:2051A000FFF72DFA0C20FFF72EFA06B070BD10B586B004001422002101A802F080F92068B3
:2051C0004F4988421CD101204A4C2168014321602168014000910099C021C9000191122118
:2051E00002910021039103210491059001A9A020C005FFF7F9F8E068802189030143E16009
:2052000006B010BD00688021C905884204D13D48016801220A430260704710B586B004001F
:205220001422002101A802F04AF920688021C905884214D102202F490A6802430A60096867
:205240000140009100990821019102900021039103210491059001A92B48FFF7C5F806B00D
:2052600010BD70B586B0040014220021684602F026F920682549884235D11E48C1688022F5
:2052800092020A43C260012102680A43026002681140059105990224016821430160006825
:2052A000204005900598E002009001940025029503260396042004906946A020C005FFF7F5
:2052C00093F8C0200090019402950396049569460D48FFF789F8002200211C20FFF78FF9FD
:2052E0001C20FFF790F906B070BD000034100240002401402C100240B40500200800024084
:205300000054004038100240000400500044004070B5040001D1012070BD2500403500268E
:205320006878002803D12E702000FFF740FF24206870206801680122914301606068184910
:20534000014020680161216816488A6802408A60A168C2430A4321688A6021684A68124BB7
:2053600013434B602168CA681040C860206961690143A069000208432168C860E069216A87
:205380000143206801602068016801220A4302606E60202068702663AE70002070BD000043
:2053A000FFFFFFF0FF7FFFFF00800002FEB504000F0016001D0040304078202800D0B2E037
:2053C0000898002803D06846808C002805D180208000210040314860A3E04020205C012898
:2053E00000D1A0E0012040216054FEF7F5FE0290009019230122D103200000F0C9F90028EF
:20540000EAD12B003200212021004031487040202100403188700020210040314860089805
:2054200060626846808C608500206063029801900A9800903900200000F03EF9002803D050
:205440000020402160546CE0608DFF280DD9FF2020850020009080235B04FF2239002000E1
:2054600000F055FA0A9E029D07E0628D22850020009080239B04D2B2F0E72A003100200061
:2054800000F0B3F900284CD1606A007821688862606A401C60628548618D09186185218D1E
:2054A00008182085618D002920D000041ED10095330000228021200000F06AF9002830D106
:2054C000608DFF2807D9FF2020850020009080235B04FF2206E0628D228500200090802372
:2054E0009B04D2B23900200000F011FA608D0028C3D131002A00200000F0A1F901000ED1A7
:2055000020202268D06122685368694D1D4055602200403250700020002393701070080061
:2055200002D00120FEBD0220FEBD0000FEB504000F0016001D0040304078202800D0B3E014
:205540000898002803D06846808C002805D180208000210040314860A4E04020205C012815
:2055600000D1A1E0012040216054FEF735FE0290009019230122D103200000F009F90028EC
:20558000EAD12B003200222021004031487040202100403188700020210040314860089883
:2055A00060626846808C608500206063029801900A9800903900200000F0ACF8002803D062
:2055C0000020402160546DE03A48618DFF290CD9FF212185009080235B04FF2239002000FA
:2055E00000F095F90A9E029D06E0628D2285009080239B04D2B2F1E700953300002204212D
:20560000200000F0C5F800284CD12068406A616A0870606A401C60622449208D4018208504
:20562000628D51186185618D002920D000041ED10095330000228021200000F0A9F80028CE
:2056400030D1608DFF2807D9FF2020850020009080235B04FF2206E0628D22850020009092
:2056600080239B04D2B23900200000F050F9608D0028C1D131002A00200000F0E0F80100E7
:205680000ED120202268D06122685368084D1D40556022004032507000200023937010706A
:2056A000080002D00120FEBD0220FEBDFFFF000000E800FE00240080F8B5060015001C00EB
:2056C000079F2B48009080235B04E2B2300000F01EF93A000699300000F087F8002817D1CC
:2056E000012C09D0280A316888623A000699300000F07BF800280BD1EDB2306885620097CA
:20570000069B00228021300000F042F8002800D00120F2BDF8B5060015001C00079F14481D
:2057200000900023E2B2300000F0F1F83A000699300000F05AF8002817D1012C09D0280A86
:20574000316888623A000699300000F04EF800280BD1EDB2306885620097069B00224021AA
:20576000300000F015F8002800D00120F2BD00000020008000688169890701D500218162D8
:20578000012182690A4002D18269114381617047F8B5002405000F00684602701E00286854
:2057A00080693840B84201D1012000E0002069460978884217D10020C0438642EFD0FEF71A
:2057C0000BFD0699401A864201D3002EE7D128004030202142680A43426041700021817011
:2057E00004700120F2BD0020F2BD70B504000D0016002068806980071FD4320029002000E4
:2058000000F044F8002801D0012070BD0020C0438542EED0FEF7E0FC801B854201D3002D39
:20582000E7D120004030202142680A43426041700021002282700170E6E7002070BDF8B528
:20584000202504000E0017002068806928401BD13A003100200000F019F8002807D1FEF794
:20586000BBFCC01B864204D3002EEDD101E00120F2BD20004030416829434160457000213E
:20588000002282700170F2E70020F2BDF8B5036810249D69254038D05D68AD0103D45D680D
:2058A000A6022E435E6005000F000092202628688169314011D10020C0438742F7D0FEF7B0
:2058C0008BFC0099401A874201D3002FEFD12800403041683143416010E0C4612868C661A0
:2058E0002800FFF747FF28684168114A0A40426028004030416804220A4342604670002197
:205900000022827001700120F2BD0020F2BDF0B5059C00684568660D064F3743BD43890538
:20592000890D294312040A4313431C434460F0BD00E800FEFF63FF0370B50200403253784E
:20594000202B14D14023C35C012B10D00123137024245470046825689D432560046825687F
:20596000164E2E4026600468256829431CE0022070BD70B5020040325378202B12D140232A
:20598000C35C012B0ED00123137024245470046825689D43256004682568094E2E40090204
:2059A000314301E0022070BD2160006801680B430360202050700020107070BDFFEFFFFF87
:2059C000FFF0FFFF70B5050001D1012070BD2868144901601449016069684160A968816020
:2059E000FEF7FAFB072406002868C16821400AD0FEF7F2FB801B2B28F6D32868C0682040E7
:205A0000F2D0032070BDE96802698A4201D0016101E006490160002070BD044900680160C5
:205A200000207047CCCC000055550000AAAA000030B5002304E05C0005192D880D535B1C07
:205A40009342F8DB30BD38B505003B4C4E222900200001F097FD39484E21695A018029009D
:205A60004E314A88364B1A80CA8842800A8982804A89C2808A890281CA894281088A314A43
:205A800010808888FEF7BFFB6088FF210902884201D1012000E00020FEF7BBFB2420205C7C
:205AA000C00601D5002000E00120FEF74FFBA08CC10701D5012008E0810701D5022004E0B3
:205AC000400701D5042000E00820FEF78BFB31BD38B504004E22184901F054FD4E34174D2A
:205AE00028882080164800886080FEF78FFBA0806888E080A8882081E88860812889A081AD
:205B00006889E08131BDF8B507000E001500002401F07BFD0C4801680C4A0A40026006E03C
:205B20006000325A3918012001F092FD641CAC42F6D301F081FDF1BD640500206C06002018
:205B4000800600201200002004200240EFFDFFFF9D2102000AD002D4491E9218FCD5C905FD
:205B6000100A1206524100D3012A48417047000030B405004D400122D20715404B180418DC
:205B8000240E25D01B0E2CD0FF2C31D0FF2B34D0E41A000209021043114343084808D10D34
:205BA0001B1A02D2641EDB181B18DB18834200D31B1A4941F9D37F3423DDFF2C05DAE40578
:205BC00048086041284330BC7047FF20C005F9E728001B0E03D0FF2BF5D14902F3D0D043CD
:205BE000F1E7FF2C01D14002F9D1FF20C005E9E74002F4D1FF2BF8D1F1E728004902E2D019
:205C0000EDE70B0200202442DCD15B129B1CD9D9D805D7E7F8B5944C0821A020C005FEF7CF
:205C2000A2FCA0701021A020C005FEF79CFCE0708E4D01212800FEF796FC6071202128003D
:205C4000FEF791FCE07122001A32217AA07801F043FDA07022001D32617AE07801F03CFD41
:205C6000E07022002332E17A607901F035FD607122002932217BE07901F02EFDE071A0783E
:205C80002072E07860726079E072E07920730026FF273F02A64DE88C052807DBFEF7EEFA51
:205CA000B84201D100200EE001200CE080210901A020C005FEF757FC207122002032A17A65
:205CC00001F00AFDA0722071A07800282FD10120FEF799FA97480780E673FEF791FA0428D5
:205CE00003D0FEF78DFA082811D1FEF747FA02280DD1FEF797FA9049884202D00120FEF7F4
:205D000071FA0122290024318C48FFF7FCFE6888B8420BD1E88C022802DA0020FEF779FAEB
:205D20006E800122A91C8648FFF7EDFE2F80E078002825D1FEF767FA7E4806802E80E67310
:205D4000FEF75EFA04281BD0FEF75AFA082817D0E88C022814DBFEF765FA774988420FD035
:205D6000FEF74EFA02280BD0FEF708FA022807D1FEF738FA0122290024317048FFF7C3FEB1
:205D8000A078002804D0E078002801D00120E0732079012806D1FEF745FA674988421DD0F6
:205DA000022019E0FEF72CFA082817D0FEF728FA042813D0FEF724FA20280FD0FEF732FA15
:205DC0005D4988420AD0E88C022801DA012003E0FEF71CFA012801D1FEF704FAA0790028C2
:205DE0002ED0207C00282BD1A078012828D1A671FEF718FA5049884222D00120FEF709FA1F
:205E00006F80E88C052802DA0720FEF7B4F9E88C022807DA0420FEF7E5F9FCF7C5F981495C
:205E2000086002E00820FEF7DDF90122A91C4448FFF769FE0122290024314048FFF763FED4
:205E4000FEF7E4F9002807D1207C012804D12674A079002800D0A671E079012800D00020A2
:205E6000FEF774F9F1BD00000000002000040050F8B56D4FA024E40502212000FEF773FBE2
:205E8000387004212000FEF76EFB78703A001432797B387801F020FC38703A001732B97B3F
:205EA000787801F019FC787039787973B87300241F4DFF26360200291ED1EE83002801D1CC
:205EC0002E84F1BDE88C02280DDAFEF799F9022809D0FEF7A1F900280FD154484088B04266
:205EE0000BD1524806E051484188B14205D13979002902D1068000E0EC837878002814D19B
:205F00002E843878002811D0FEF77AF902280DD0464FE88C022803DAFEF77EF9002805D12D
:205F20007888B04202D13C80F1BD2C84F1BD000064050020800600205A5A000024000808BD
:205F400002000808F8B5FEF76DF9394988424CD0384E8025ED01344CFEF752F90428608AD0
:205F60000BD1284201D0002200E0012229003000FEF7FFFAFF20000209E0284201D0012236
:205F800000E0002229003000FEF7F3FA00202A4FB8836D00FEF73AF900280FD1FEF7EEF878
:205FA00002280BD1608A284201D0012200E0002229003000FEF7DDFA00207883FEF726F93D
:205FC000002805D1A07801280FD1E07801280CD1608A284201D0002200E0012229003000A1
:205FE000FEF7C7FAFF2000027883F1BD10B50E4C80210901A020C005FEF7B5FA2071A0728B
:20600000012801D1022009E00B48C08C022801DA012003E0FEF7FAF8012801D1FEF7E2F821
:2060200010BD000034030020000000206C0600205A5A00000008005064050020F8B5394CC3
:2060400039480480394F3C80394D6C84FEF7DEF8022802D1FF20000268840026FEF7D6F8C3
:20606000042800D16E84E88C022823DAFEF7C8F801280DD1FEF7CAF8022803D0FEF7C6F873
:20608000042805D1284806803C800120FEF7BBF8FEF7B6F8012844D1FEF7BEF8012840D1BD
:2060A000214806803C800120FEF7ADF80420FEF799F8F1BDFEF7A4F8012807D1FEF7A6F8FD
:2060C000022807D0FEF7A8F8012803D0FEF798F8082810D1144806803C800120FEF793F859
:2060E000FEF78EF8082803D0FEF796F8012802D10120FEF79AF8FEF783F8042803D1FEF796
:2061000085F8022807D0FEF77BF8012809D1FEF77DF8042805D1044806803C800120FEF786
:2061200072F8F1BDA5A500006C0600208006002064050020FEB504000020694608705020CE
:20614000205C012801D10220FEBD0127502167542068032581682940012903D1216809689D
:20616000C9073DD4210050314A68244B134002221A434A60C1680D40C16803229143C16044
:2061800020688168802212060A438260FEF724F801902068802636068168314015D0FEF765
:2061A0001BF80199401A0B28F3D3206880680640EFD02000503041680222914310220A43AA
:2061C0004260002101700120FEBDC1680D43C560200050304168022291430F43476007E0F0
:2061E00020005030416820220A4342606846077000205021605468460078FEBDFFFEFFFFDF
:206200007047FEE7F8B5544CE08C022815DB0026FEF740F8002801D150490E70FDF7F0FFC8
:2062200004280AD04D4807787D1CFDF7F5FF012804D07DD303285CD01DD3F1BD474805707D
:20624000474EE08C052805DBEDB2312D4DD200F070F804E04348C088EDB2A84245D3FBF772
:20626000A3FF41490860FBF79FFF30600120FEF70EF802203AE0FDF7E1FF012858D10020CC
:20628000FDF7D9FFE08CFF263602052820DB312F1ED2208B002807D1FDF770FF022803D1E5
:2062A000FDF7D2FF00281AD0208BB04240D1FDF765FF02283CD1FDF7C7FF002838D1274870
:2062C000057000F036F8FBF76FFF27490860F1BD801E032809D22348C088B84205D32148B3
:2062E00006800320FDF7A1FFF1BD0320FDF791FFF1BDFDF785FF042815D00420FDF772FF4C
:206300000122210024311948FFF7FDFB15480680174806800020FDF788FF0020FDF779FFA6
:206320000020FDF788FF0D4806700020FDF7AFFFF1BD0A480078022801DA032009E001D1DA
:20634000782006E0032802D19620400001E0E120C00004490881704764050020FA060020F3
:20636000180300206C060020140300202400080880060020F8B55A4CFDF742FF022802D0BB
:20638000E08C022806DB5748007800285AD1E08C022857DB544DA889002853D1FDF7EEFE56
:2063A00002284FD10127FF2636022888B0420ED1FDF72CFF00280AD1E08C02280BDBFDF7FB
:2063C0001FFF042803D0FDF71BFF082803D1FDF72FFF032837D1288844490988884203D1CD
:2063E000FDF726FF03287AD1208A401C2082608A401C6082A682FDF703FF012802D1002004
:20640000FDF745FF0120FDF7EDFE0220FDF7FBFE0020FDF7FEFE3648FFF75AFB302234498D
:206420003448FFF770FB2888304908800620FDF7A2FE31480770FDF7FBFE03284FD10020CC
:20644000FDF7F3FEF1BD288800283CD1FDF7DEFE012838D1E08C022807DBFDF7D1FE04285B
:2064600031D0FDF7CDFE08282DD028881F490988884234D0208A401C2082A6820420FDF7D0
:20648000C2FE1B4E3000FFF723FB302231001948FFF739FB2888154908800720FDF76BFE67
:2064A00015480770FDF7C4FE012802D10220FDF7BCFEE08C022812DB0220FDF793FE00203C
:2064C000FDF7E5FEF1BD2888B04208D1FDF79EFE002804D1E08C022801DB00202880F1BD47
:2064E00064050020040000206C060020800600200405002000000808100000207FB5060014
:20650000FF240025009501F003F9019502961448006880021349014013480818801BC009C1
:206520000390694601A801F03BF8002800D1002401F013F9200004B070BD0C4908707047AD
:206540000A48007870470A490880704708480088704708490880704706480088704700007C
:206560007C00F81F00FCFF03FF1F000804070020F6060020F806002038B5A025ED051D4CF2
:20658000012808D002280DD004281DD0082811D020281BD023E0002280212800FDF7E9FFCC
:2065A000012222E0002280212800FDF7E2FF0421200006E0002204212000FDF7DAFF8021F6
:2065C0002800FDF7DCFF31BD002200E0012204212000FDF7CEFF01228021280007E00022B6
:2065E00080212800FDF7C5FF002204212000FDF7C0FF31BD0004005038B5050008001100B3
:206600001C00049B032D04D0062D0DD0102D0FD011E093221202944202D101F041F90AE017
:20662000220000F0F4F806E0220000F0EBF802E0220000F0B5F85048048031BDF8B5040025
:206640000F00FE31C9B201F0D1F92178012903D0032901D0022916D1E219921E13781B02CE
:2066600052789A1890420ED1012902D10020FDF7EEFD93263602414D6078032804D006286D
:206680004DD010280DD0F1BDFDF7CCFD3C49884202D03948018800E03100200000F0CAF84F
:2066A000F1BDA0780002E1784018B04204D13900200001F051F9F1BD207900026179461885
:2066C000B6B2FDF7AFFDA84254D0A0780002E17840189021090288420ED1172E4AD1294D9E
:2066E0002E22E11D280000F04DFF172229002648FFF709FA02203BE091210902884239D151
:20670000302E37D1B04D6022E11D280000F03AFF30222900AD48FFF7F6F9012028E0A078AF
:206720000002E178401892210902884222D1FDF779FDA84203D1FDF795FDC8281ADB2079FF
:20674000000261794018A84214D110490D8001220F48FFF7D8F90F490F4808800F484880B9
:206760000222C448FFF7CFF92800FDF758FD0320FDF787FDF1BD0000E8030020A5A500001C
:206780005A5A0000FC05002000020808EC060020F8010808A60500200156000005070000C9
:2067A00038B504005D00ADB2217010206070100AA070E270180A20716371912109028A420F
:2067C00007D10621200001F011F9010AA171E07131BDA571842189018A4204D1802120009C
:2067E00000F079F903E02900200000F045F9E91DC9B2200001F0FAF8010A6219D171611917
:20680000087231BD10B504002170062003E010B50400217003206070100AA070E270180AC2
:20682000207163710621200001F0E0F8010AA171E07110BDF8B50600AD4D80221202914272
:2068400000D0AAE00122AB49341D50003318DB781B02205C1818A84B984201D10220087086
:20686000521C062AF1DB0878022800D100E1A34CA3482100122200F085FEF0790002317A9A
:206880004018FF210902884201D0002800D1A080A088884209D1E88C022801DAFDF7BCFCD0
:2068A000F078000231794018208071790A02B0791318FF200002834201D0511800D16380AE
:2068C000717A0902B27A89186A465180F17A0902327B89186A461180717B0902B27B8F18A4
:2068E000F17B0902327C8918A181717C0902B27C8918E181F17C0902327D89182182A189F2
:20690000814214D1E18981420BD17E48FFF7F6FDBFF34F8F7C487D490860BFF34F8F00BF46
:20692000FDE7218A814202D10120FFF706FEE98C022913DBFF202E30BAB2824200D2678122
:2069400004290BDC694649880B2902D269464988E18069460988814200D2218168484188CA
:20696000628891420FD18188A28891420BD1C188E288914207D101892289914203D1408995
:206980006189884274D0104C2000FFF7A1F8302221000E48FFF7B7F8F1BDFF2424025C4AE9
:2069A000914237D1F07800023179401801D0A0420ED128837279082128004630FDF70EFDA2
:2069C0000020E882F1BD00BF04050020000008085049884201D0A52802D10020FDF745FC5E
:2069E000FDF7CCFB0B2808D1F078000231794018A52802D10220FDF738FCF0780002317966
:206A00004018A5210902884232D10120FDF72DFCEC82F1BD521E91420CD1F07800023179F2
:206A2000401880B2A04201D1200000E00020FDF722FCF1BD80229201914207D1F0780002EE
:206A40003179401880B2FFF77EFDF1BD521C914207D1F07800023179401880B2FFF779FDC0
:206A6000F1BD93200002814202D10520FDF709FCF1BD000042000808F8B5A8B004000E00E8
:206A800082200002824202D14E22194901E012221A49684600F076FD350004D03200694676
:206AA00014A800F055FD0020002314AA694607E0D6187678CE54D65CCF187E709B1CDBB2F8
