:020000040800F2
:10200000080B0020FD7D00082D7300082F730008C9
:1020100000000000000000000000000000000000C0
:102020000000000000000000000000003173000804
:102030000000000000000000337300083573000842
:102040009350000803620008E7720008D374000888
:102050009F7500087D7300088D7300089773000852
:1020600000000000A77300080F770008CB7A000873
:10207000B1730008CF7A000800000000E37A00087E
:102080000000000000000000000000000000000050
:10209000BF7D000800000000CB7D0008157E000811
:1020A00000000000177E0008000000000000000093
:1020B000BB730008197E000800000000000000004B
:1020C00080B501008F20C00501F052F8002101F019
:1020D000A7F802D8FC21890501E0BF21090601F01B
:1020E000B3F801F041F902BD10B57F4C0122210087
:1020F00001F0B6F900280BD1A08821787B4A115451
:10210000401CA0807A4C0120208000F04DF86060D7
:1021100010BD80B574480021816776490968416225
:1021200075490968816275490968C16201210C30ED
:1021300001F00AFE01BD38B56B4C01F07AFEE0807B
:10214000B4256D0002F00AF801282089E18806D143
:10215000814201D3081A06E0281A401803E0884299
:1021600000D24019401A81B2A94200DD401B6449E7
:10217000898D82B28A4202D3691A914200DA002024
:10218000608131BD38B5012001F0F5FF564C0025C6
:10219000206B8563A57001F04CFE20816581594854
:1021A0000570FFF7B6FF31BD80B502F015F802BD2E
:1021B00010B5040002F010F8001B10BDF8B50024A3
:1021C000494D6C704E4E504F3878012811D102F0B5
:1021D0001DF8022803D002F019F8012809D14B4854
:1021E0000068A867032001F0C6FF0120A8703C70BA
:1021F00002E0A878012841D101F0C0FF032803D0F4
:1022000001F0BCFF052833D101F0B4FDFFF793FFC7
:1022100001F0B4FF03281BD17088696F884227D270
:10222000042001F0A8FF286B846301F002FE2881DE
:102230006C81FFF7B9FFE867FFF76BFF01F08EFFD6
:10224000002801D1012000E0002001F08AFF0FE00A
:102250003089012806D1E86FFFF7AAFF7189814212
:1022600006D203E06889B189884201D3FFF78AFF6B
:1022700002F02EF8286F02F053F86867A878022859
:1022800030D12048007802282CD101F077FF0328B4
:1022900003D001F073FF05281ED101F06BFDFFF79D
:1022A0004AFF01F06BFF032802D1052001F063FF14
:1022B00001F064FF05280FD13089012806D1E86FAD
:1022C000FFF776FF7189814206D203E06889F189C0
:1022D000884201D3FFF756FF01F0FAFF286F02F0A2
:1022E0001FF86867F1BD000084040020EC030020A3
:1022F000B0060020E0060020E4060020E8060020EA
:10230000FC0500209906002097060020D406002036
:10231000F8B58EB0002469460C8202F049F800F04E
:10232000CDFE142105A802F057F8E24D28680421DB
:10233000014329602868042108400090009828681B
:102340000121014329602868C107C90F0091009845
:102350002868022101432960286802210840009072
:102360000098E14E00228903300002F002F90122B8
:102370009103300002F0FDF80022E349A020C005DF
:1023800002F0F7F800220421E04802F0F2F8C02041
:1023900000020590012006900794089405A93000DA
:1023A00002F022F8062005900694079405A9A020C3
:1023B000C00502F019F810200590C426B603069651
:1023C000079405A9A020C00502F00EF8082005908A
:1023D0000696079405A9A020C00502F005F8C020C4
:1023E00040000590012006900794089405A9A020BC
:1023F000C00501F0F9FF032005908426B603069678
:10240000079405A9C14801F0EFFF042005900120C1
:1024100006900794089405A9BC4801F0E5FFE80C74
:1024200005900694079405A9A020C00501F0DCFFE3
:10243000802000020590012006900794089005A9CD
:10244000A020C00501F0D0FF20200590069607943B
:1024500005A9AE4801F0C8FF00220021052002F0C6
:10246000CEF8052002F0CFF800220021062002F06D
:10247000C6F8062002F0C7F800220021072002F06B
:10248000BEF8072002F0BFF86868012101436960C7
:102490006868C107C90F0091009800220121092036
:1024A00002F0ADF8092002F0AEF8684600210022E3
:1024B00006C0A948A9490160C4638021090641609A
:1024C00084600621816301210161C460202281545E
:1024D000212284548462FF21C231416201212C22D5
:1024E0008154042141618E02066384614463C461A6
:1024F00002F0AEF8002801D000F038FE98480090B5
:1025000001966946944802F047FA002801D000F08D
:102510002DFE9448009069468F4802F03DFA00284D
:1025200001D000F023FE9048009069468A4802F0EE
:1025300033FA002801D000F019FE8C4803908C4833
:1025400003994860E1204002039988600398C660BF
:1025500003980461280D039948610C200399886150
:102560000398C46103980462039844623820039975
:102570008862F000039988630398C663700003992A
:1025800008647C48059000230022002102F0FEFA36
:10259000002801D000F0EAFD0AA800210022002353
:1025A00000252EC0684606C006A82EC0724DB00495
:1025B00028636C63AC637148E8632C646C64280026
:1025C000303002F029FB002801D000F0CFFD0A9640
:1025D0000AA92800303002F017FC002801D000F0D2
:1025E000C5FD2800303002F03AFB002801D000F091
:1025F000BDFD0094019469462800303002F04AFD88
:10260000002801D000F0B2FD6020069007940894E5
:102610000994042206A92800303002F089FB002822
:1026200001D000F0A3FD2800303002F0F6FDB548DF
:102630000190B54801990860B44801994860019833
:10264000846001200199C860019804610198446187
:10265000019884610198C46101980462019802F0B4
:1026600057FE002801D000F081FD0021019803F001
:1026700063F9002801D000F079FD0021019803F0F2
:1026800078F9002801D000F071FDA1480199C864D3
:10269000032001990865701E0199886501994865B4
:1026A0009C48089003F08EF9002801D000F05EFDF0
:1026B000994801E02C100240029084700299CC707D
:1026C0006C7002990C7102994C70019844660299E1
:1026D0004C710198846602998C712C816C818F49B0
:1026E0000C708F4902E000BF000800500C70012000
:1026F0008C4908708C4908708C4908708C490C70A2
:102700008C490C708C4903E080810000000400506B
:102710000C7002990C70894E01223100884803F038
:1027200087F93088874988422AD1874E3022310084
:10273000864803F07DF9300003F085F917228449BB
:10274000844803F075F9844884490180D649418062
:102750007C4801F064FD1BE02C00002000240140B7
:10276000200000144000001800000448300200203F
:10277000004400403402002084040020FF030000D5
:10278000CA4801F04CFD17227149724803F050F914
:10279000C74E6F48008C03F0DBF9310003F0E8F915
:1027A000FFF78EFC07906A48408C03F0D1F93100A6
:1027B00003F0DEF9FFF784FC06906548808C03F097
:1027C000C7F9310003F0D4F9FFF77AFC00900798BD
:1027D00068620698A8620098E8625D48008A000472
:1027E000B44908605A48408A0004B3490860584810
:1027F000408B0004B14908605548808B0004B04903
:1028000008605348C08B0004AE4908605048808A75
:102810000004AD490860AC674D48C08A0004AB496C
:1028200008604B48008B0004A94908604848008DA7
:1028300003F08EF9310003F09BF9FFF741FC09909A
:102840004348C08C03F084F9310003F091F9FFF79D
:1028500037FC0099CF4A11600699CF4A1160079959
:10286000CE4A1160099901F098FD3948408D0299CE
:10287000C87100200299087201F07DFC01F058FB3C
:102880006C6703F0B3FB0F2603F0C4F9761EFBD18F
:1028900003F0D4FB01F0B8FA286B8463042128000C
:1028A000303002F0FFF90021D64803F043FC002845
:1028B00001D000F05BFC0322B949D24801F0AEFF21
:1028C000002801D000F052FC012128000C3001F05A
:1028D0003BFA01222900059800F0C2FDFFF764FCD5
:1028E0000199C866FFF760FC01990867FFF75CFC77
:1028F00001994867FFF758FCAA4948600694AA4F17
:102900005EE000BFB802002000540040BB7C7000B5
:102910000030004004030020880000200000002058
:10292000010000200200002003000020040000201D
:1029300005000020FB0600200F000020EC06002010
:10294000F8010808A5A500000405002000000808FB
:10295000FC05002000020808A60500200156000022
:10296000012001F068FC0198006EFFF721FC8F49FF
:102970004A8909895118FA2292005143814206D2AC
:1029800001F088FC012802D1002001F080FCF08CCD
:10299000012815DC01F040FC012811D10198C06F1D
:1029A000009001F019FC0099401AFA21490188426F
:1029B00003D20198C06F002802D1002001F029FC49
:1029C0000121059803F01CFC6878012805D101F06D
:1029D000D5FB022801DDFFF7F1FB0298C078012842
:1029E00000D0F6E00299CC7001F0C8FB06280BD1AC
:1029F00001F06EFC286F01F093FC686701F0BAF9F2
:102A000001F017FAE880288101F0B8FB072828D1E7
:102A100001F05EFC286F01F083FC686701F0AAF901
:102A2000C1480088696F88421BD2042001F0A3FBD3
:102A3000286B846301F0FDF928816C810220A87065
:102A400001205B490870FFF7AFFBE867FFF761FB08
:102A500001F084FB002801D1012000E0002001F0FA
:102A600080FB5448C08C042862DD01F087FB0928F4
:102A700035D101F02DFC286F01F052FC686701F0A0
:102A800079F901F0F5FB012803D06846008A3C285B
:102A900020DD0A2001F06FFB286B8463FFF739FB10
:102AA00069460C821BE000BF050700005A5A00006F
:102AB0000000C842C8060020CC060020B80600204E
:102AC000BC060020D0060020D4060020D806002036
:102AD000DC0600206846008A401C6946088201F036
:102AE0004DFB0B2824D101F0F3FB286F01F018FCFB
:102AF000686701F03FF901F0BBFB022803D068468C
:102B0000008A3C280FDD022001F035FB286B84632E
:102B1000002001F096FB012001F08DFBFFF7F9FA90
:102B200069460C8204E06846008A401C69460882B7
:102B300001F024FB0C2842D101F0CAFB286F01F000
:102B4000EFFB686701F016F902988079012836D109
:102B50000198806EFFF72CFB7349C98881422ED201
:102B600002998C7101988466042001F004FB286BA3
:102B7000846301F05EF928816C810220A870012035
:102B80000B490870FFF7C5FA01F0E8FA002813D1E5
:102B9000012012E0E8060020E4060020E006002004
:102BA00038030020B0060020400300206C060020FF
:102BB0009906002064050020002001F0D2FA01F0FF
:102BC000CBF903F027F803F053F903F01BFB03F0F4
:102BD000B9F902988078012800D081E0094E029965
:102BE0008C7001F0CBFA02282ED1069401F0C2F8C5
:102BF0000298007A012827D102990C72C649C74869
:102C000002E000BF2C00002001F03EF906983100E0
:102C10007431820089180C804C80401C6428F6DBDB
:102C2000069002988089BE49C8800298C089488170
:102C30000298008A08810298408A88800298808AD7
:102C400088810298C08AC88101F098FA062818D1B4
:102C5000A878002815D1B3480078002811D00120A9
:102C60000299087230007430069989004018E9888A
:102C70000180696F41800698642802DA401CC0B266
:102C8000069002984079012825D10198406EFFF7FF
:102C90008FFA2549898881421DD25C20305C401C16
:102CA0000299087002994C7102988079002806D127
:102CB000012002998871FFF777FA019988660C2044
:102CC00001F059FA5C20305C042804DB202001F07C
:102CD00089FA02990C7003F04DFB089802F09DFEF2
:102CE0000198C06EFFF764FAFB280BD303F028FCB1
:102CF000002803D101F084FA03F03EFCFFF754FAF8
:102D00000199C8668648C08C042845DD0198806F0B
:102D1000FFF74EFA062821D301F096FA01281DD1BB
:102D200005200090804B01E0FC05002003223900C3
:102D3000032003F061FC0820039908800822390071
:102D4000059800F04DFBFFF72FFA0199886701F015
:102D500015FA022802D1082001F00DFA0198006F3F
:102D6000FFF726FADD2817D301F06EFA002813D1F9
:102D700001200090CD4B03223900032003F03CFCDE
:102D800008200399088008223900059800F028FBE4
:102D9000FFF70AFA019908670198406FFFF708FAF0
:102DA000292800D201E101F03DFAC14988420BD146
:102DB00001F06AFA002807D101F054FAC82800DBB4
:102DC000F3E001F041FA002800D0EEE003F0B8FB98
:102DD000002800D1AAE000220421B64801F0C9FB76
:102DE0008021A020C00501F0CAFB082603F0A8FB43
:102DF00001280AD10090B04B03223900062003F0CD
:102E0000FBFB03980680022083E003F099FB022875
:102E10000AD101200090430301223900032003F06E
:102E2000EBFB0398068040E003984088694648829F
:102E300003F086FB032811D16846408A0090C34BFB
:102E400001223900062003F0D7FB0398068068466C
:102E5000408A401C0399488004205AE003F070FB2C
:102E600004280CD14020009084239B0101223900CA
:102E7000032003F0C1FB03980680052049E003F01E
:102E80005FFB052815D14020009084239B0103227D
:102E90003900102003F0B0FB89200399088003F06B
:102EA00055FB6946498A814201D2032031E0062060
:102EB0002FE003F045FB06280BD101200090A44B26
:102EC00003223900032003F097FB039806800720B4
:102ED0001FE003F035FB07280BD102200090764B52
:102EE00003223900062003F087FB039806800820A0
:102EF0000FE003F025FB082849D103F02DFB0090DB
:102F0000934B01223900062003F076FB03980680DC
:102F1000002003F012FB3AE094000020A000002003
:102F2000640500200F000020048100000398008841
:102F30000299497A80231B0200290BD101200299B2
:102F400048720920009001223900032003F054FB4D
:102F500008201AE001290CD102994C722720009018
:102F600082231B0201223900102003F045FB572069
:102F70000BE0022909D102994C720920009001222C
:102F80003900102003F038FB1B20039908800398B8
:102F900002883900059800F023FA01F063F900284F
:102FA0001BD0022001F053F917E001F06DF903285E
:102FB00018D13F48009092231B02022239000620BC
:102FC00003F01AFB002001F05CF908200399088047
:102FD00008223900059800F003FAFFF7E5F8019997
:102FE000486734E0082601F04FF9022803D1172082
:102FF0000090902306E001F047F901280FD130201E
:10300000009091231B0202223900102003F0F4FAF1
:10301000002001F036F903980680082213E001F041
:1030200033F9052813D10B20009093231B020222B1
:103030003900032003F0E0FA002001F022F91B2000
:10304000039908801B223900059800F0C9F941480E
:103050004068FFF7ADF8032810D3A98805290DD9DA
:103060003C480088012809D13B4803F0E7FA394978
:103070000C80AC809621384801F0AEF90198C06D03
:10308000FFF796F8354E36490989FA2292004A43ED
:1030900082420AD201F0B4F8082806D1F08C042844
:1030A00000DC5DE4012001F0CCF85CE40381000069
:1030B000A5A50000000400500281000010B598B0E2
:1030C00034210BA801F088F91421684601F084F935
:1030D000182105A801F080F922480168224A0A4017
:1030E000C10C1143016001200B90A020C0020C9084
:1030F00002201490C0031590C02000031690802079
:10310000C00317900BA803F009FD002801D000F0C0
:103110002DF80F20009003200190002402940394C6
:1031200004940121684603F0A7FD002801D000F0B7
:103130001DF80A2005900794099405A803F09AFE4B
:10314000002801D000F012F818B010BD02200000D5
:1031500001200000B0060020EC03002064050020E0
:103160006C06002000700040FFE7FFFF72B6FEE72C
:1031700030B405004D400122D20715404B18041809
:10318000240E2ED01B0E32D0FF2C34D0FF2B3AD081
:10319000E4180002090210431143000A090A944688
:1031A000C2B24A43000AC3B24B43000A4843110A61
:1031B0005B181A43D2B2190A091801D44918641EBF
:1031C000080A7F3C23DBFE2C08DAE40509061143DC
:1031D000634699416041284330BC7047FF20C005D9
:1031E000F9E728001B0EFF2BF6D1D043F4E72800A7
:1031F000FF2CF1D1F9E74002F7D1FF2B01D14902B1
:10320000F3D1E005E7E7D8054902E4D0EDE7430252
:103210000020641CDFD15B129B1CDCD9D805DAE7E7
:103220000CB4012212060318DA4207D84B18DA420E
:1032300004D802000A43921802D281420CBC7047A3
:10324000FCD088420CBC70470122D20703004B40DF
:103250002ED4431A01D2C01AC91830B44B1804181E
:10326000240E1B0E22D0FF2C20D0E31A182B1DDCBD
:1032700009021143C40D641E00021043944619252F
:10328000ED1A0A00AA40D940451801D36D08A41CC4
:10329000E405D209280A2D062A436546AA41604161
:1032A00003181B0EFF2B01D3C00DC00530BC7047A7
:1032B000514006E05140CCE70122D20703004B40C9
:1032C000F8D4431A03D2C01AC9185040514030B440
:1032D0004B18090211430418240E1B0E40D0FF2C7A
:1032E0003AD025009D410BD31ED8C50D4002401A8F
:1032F0000BD3ED050100400AC90591416841D5E7AE
:10330000C50D40024918401AD0D001214008491C7F
:103310000018FCD58C4204D36D1A000AED05401943
:10332000C4E7E8051040C1E7182DBFDCAC1C0D0058
:10333000E140E5414D40012D4941C40D00021043DB
:10334000451A01D46D199543641EE405280A2D061B
:103350009541604130BC7047FF2BA7D1D843A5E70A
:103360002442A3D10020A1E70122D2070118090EAF
:103370007F3910D449421F310FD4001805D2C00143
:103380001043C84000D5D0437047C0011043C84027
:1033900005D440427047002070470042F3D510002A
:1033A000704730B501684118446862088A1883681C
:1033B000E40704D54C461B1901E0641C09D1914275
:1033C00003D00C7864B2491C01E00C3030BD0D789C
:1033D000491C1D705B1C002CEFD4641EF7D5EEE772
:1033E00070B5030074335C68202C37D100290BD0F2
:1033F000140009D0846880256D01AC4206D10669AD
:10340000002E03D1CE0701D5012070BD7426865D44
:10341000012E23D001261E70C164010050310A80A4
:103420004A8000228A61DA6021265E60AC4204D1C3
:103430000469002C01D1264C00E0264C8C611A70E6
:10344000EFF31081012282F3108800680268802364
:103450001343036081F31088002070BD022070BD0B
:1034600070B5030074339C68202C2ED100290BD03A
:10347000140009D0846880256D01AC4206D104692E
:10348000002C03D1CC0701D5012070BD7424045D4C
:10349000012C1AD001241C700023036603680E4C13
:1034A000A3420FD05B681B020CD5EFF310830124FD
:1034B00084F31088046825688026F6042E4326606D
:1034C00083F3108800F0C2FA70BD022070BD0000C6
:1034D000BB3B0008993B000800480040FEB50400D3
:1034E0002368D869194609689A6825005835202646
:1034F0000E4000962026064001960026A94F074060
:103500000BD1019F002F0CD0009F002F09D0E9683C
:10351000002901D020008847F7BDD70702D4A24F69
:103520000F4078D0C70706D5CF0504D501271F6205
:10353000AB6A1F43AF62830708D5D30706D50223C2
:1035400027683B62AB6A04271F43AF62042318421B
:1035500007D0D70705D527683B62AB6A02271F4310
:10356000AF620823184209D0009F002F01D1D20773
:1035700004D522681362AA6A1343AB628022120147
:10358000104007D0480105D520680262A86A2021B2
:103590000143A962A86A002833D00198002807D007
:1035A0000098002804D0E968002901D0200088474D
:1035B000A86A402721688968394002D12821014042
:1035C00024D0200000F0A2FA20688068074019D0BB
:1035D000EFF31080012181F3108821688A6840236D
:1035E0009A438A6080F31088A86900280AD06F493E
:1035F0008163A86903F000FD002802D0A869816BEF
:103600008847F7BD200003F0A4FDF7BD200003F0BC
:10361000A0FDAE62F7BDAF68012F00D094E0102787
:10362000384200D0394200D18EE01F621020C043E2
:103630000121C9432268926852064AD5AA691368D3
:103640005B689BB2002BE5D05827E75BBB42E1DA11
:103650006B8012681268920635D4EFF310820092E4
:10366000012282F3108822681368514F1F401760AF
:10367000009A82F31088EFF31082012383F31088FD
:1036800023689F683940996082F31088EFF31081B6
:10369000012282F31088226893684027BB4393601D
:1036A00081F3108820216962AE60EFF3108101225E
:1036B00082F31088226813681840106081F3108824
:1036C000A86903F074FC5820205A6988411A89B20D
:1036D00036E05822A25A6B88D21A6B461A806A8842
:1036E000002A5ED06A461288002A5AD0EFF3108270
:1036F0000192012282F31088226813684B4F1F4009
:103700001760019A82F31088EFF31082012383F38C
:10371000108823689F683940996082F310882021BF
:103720006962AE60EE60EFF31081012282F31088CF
:10373000226813681840106081F310886846018879
:10374000200002F05DFDF7BD80277F03384206D0E0
:10375000520204D51F62200003F0FCFCF7BD80225A
:10376000104207D00A4005D02969002919D020004D
:103770008847F7BD4022104013D00A4011D0EFF324
:103780001080012181F3108821680A6840239A4340
:103790000A6080F31088202028622E61200003F048
:1037A000DAFCF7BD0F08000020010004853B00088B
:1037B000FFFEFFFF70B504000025002620680168A9
:1037C0009F4A0A40A168114322690A436169114373
:1037D000E2690A43026041689A4A0A40E16811437B
:1037E0004160A169444A904202D00A00216A114313
:1037F0008268954B13401943816003F010FB002849
:103800000ED061684A08801803F0BAFC80B201004B
:103810001039B64A914202D22168C86000E0012600
:103820006566A566300070BD00000000DFFEFFFF8A
:103830002421415CC90706D501684A68AC4B134096
:10384000826A1A434A602421415C890706D50168CF
:103850004A68A84B1340C26A1A434A602421415C5B
:10386000490706D501684A68A34B1340026B1A4307
:103870004A602421415C090706D501684A689F4BCC
:103880001340426B1A434A602421415CC90606D5A5
:1038900001688A689A4B1340826B1A438A6024211C
:1038A000415C890606D501688A682C4B1340C26BBF
:1038B0001A438A602421415C490611D501684A688F
:1038C000904B1340026C1A434A60026C80235B03E6
:1038D0009A4205D14A688C4B1340426C1A434A60A5
:1038E0002421415C090606D501684A689E4B1340B5
:1038F000806C18434860704700480040F8B50400E9
:1039000000257430C56000F067FC0700974E206802
:103910000068000709D500963B000022802189033A
:10392000200000F01DF800280DD120680068400735
:103930000BD500963B0000228021C903200000F037
:103940000FF8002801D00320F2BD2100743120209F
:103950004860886025660D700020F2BDFFDFFFFF24
:10396000FEB5089F802424010025060001916846C9
:10397000027002933068C069019901400198814248
:1039800001D1012000E0002069460978884254D125
:103990000020C0438742EDD000F01EFC0299401A7F
:1039A000874201D3002F1FD1EFF31080012181F353
:1039B000108831680A686E4B13400B6080F31088E2
:1039C000EFF31080012181F3108831688A680123A8
:1039D0009A438A6080F3108830007430202141605F
:1039E000816005700320FEBD306800684007C1D5C6
:1039F0003068C0692040BDD030680462EFF31080A9
:103A0000012181F3108831680A68594B13400B601B
:103A100080F31088EFF31080012181F31088316862
:103A20008A6801239A438A6080F3108830007430DA
:103A3000202141608160C160D3E70020FEBD00000D
:103A4000F369FFEFFFCFFFFFFFF4FFFFF0B5416524
:103A5000010058310A804A800022CA608668FF242B
:103A600080235B019E4204D10569002D11D1414C98
:103A70000FE07F25002E03D10669002E06D108E055
:103A80001C04A64207D10469002C01D18D8003E0FB
:103A90003F248C8000E08A808A6222244C62EFF30B
:103AA0001084012585F310880568AE680127374327
:103AB000AF6084F3108884689C4204D10369002BB2
:103AC00001D12D4B00E02D4BCB600A77EFF3108135
:103AD000012282F310880068026890235B00134380
:103AE000036081F310880020F0BD0000F0FF0000AB
:103AF000FFFFFDFFFFFFFEFFFFFFFBFFFF7FFFFF5D
:103B0000FFEFFFFFFFFFEFFFFFFF9FFF10B5EFF39A
:103B10001081012282F3108802681368184C1C403F
:103B2000146081F31088EFF31081012282F3108872
:103B3000026893680124A343936081F31088016EA7
:103B400001290BD1EFF31081012282F31088026862
:103B500013681024A343136081F310882021C167E8
:103B600000210166416610BDFFFFF7FFFFFFFF0167
:103B70005FFEFFFFFF010000993C00081F3C0008AA
:103B8000DFFEFFFF80B5806A0100523100220A810A
:103B90000A8003F0DEFA01BD816F212900D0704751
:103BA00010B55221415A002900D11FE0C16C09789B
:103BB00002689162C16C491C11E0816F212900D01B
:103BC000704710B55221415A002900D10EE0C16C56
:103BD0000988C905C90D02689162C16C891CC1645C
:103BE0005221415A491E5222815210BDEFF31081D9
:103BF000012282F31088026813688024A3431360B3
:103C000081F31088EFF31081012282F3108800689D
:103C1000026840231343036081F3108810BD38B558
:103C20000100583102684B6A222B30D1526A8B88CE
:103C30001340426D1370426D521C42654A88521EF9
:103C40004A804A88002A26D1EFF31082012383F3A9
:103C5000108803681C682F4D25401D6082F3108872
:103C6000EFF31082012383F3108803689C68012519
:103C7000AC439C6082F3108820224A620022CA6012
:103C80008B68012B00D147E0FEF72EFA31BD906919
:103C900008210143916131BD38B5010058310268F6
:103CA0004B6A222B30D1526A8B881340426D1380AD
:103CB000426D921C42654A88521E4A804A88002AF8
:103CC00026D1EFF31082012383F3108803681C6868
:103CD000104D25401D6082F31088EFF31082012300
:103CE00083F3108803689C680125AC439C6082F3D1
:103CF000108820224A620022CA608B68012B00D102
:103D00000AE0FEF7F1F931BD9069082101439161A4
:103D100031BD0000DFFEFFFF8A60EFF3108101225A
:103D200082F31088026813681024A343136081F3A0
:103D3000108801681022CB69134000D00A62582114
:103D4000415A02F05DFA31BD8269C369D218036A33
:103D5000D2180260026A52008369D218534243604B
:103D6000026A8260002904D00C3000210022002366
:103D70000EC0704770B500241E48006800282DD082
:103D80001D4909680904401A1C490C68844200DD79
:103D900004001B4D2100286803F027FA0600E9689B
:103DA000686803F022FA36182969A86803F01DFA3A
:103DB0006969301803F0FFF9E9682961EC6068610E
:103DC00004000E484068A04201DA04006861002C3B
:103DD00004D5002401212800FFF7B6FF802000024F
:103DE0002018C113090C0818001480B2054909688D
:103DF000886370BDFC040020F8040020B806002091
:103E000090040020B4040020E0B51C48202101707B
:103E100002214170302181700421C1700022426072
:103E200082600021C94302910C210191009001237D
:103E30001DE01FB5124C0020C043029002200190EB
:103E40000094012319226A210E4801F06FFB00281B
:103E500003D160782178090202E0FF210902FF20E6
:103E600001430804000DC005C00D04B010BD6A2157
:103E7000044801F09BFA0EBD00000000A4060020DB
:103E8000F4060020B802002038B500220A80930012
:103E9000C3185C88A12C0BDB0D88A54208D20C80CE
:103EA0001C884C8014000A256C438C805B88CB8076
:103EB000521C642AEBDB05000C002088A1280EDBD5
:103EC000FF219431414323480818800A0A2103F056
:103ED00057F92080E0889C494143880AE080608847
:103EE000B42149009C4A9278002A2A8806D190423F
:103EF00001D3801A08E0891A081805E0824201D32C
:103F0000101A01E05118081A608061881A2048438D
:103F10004111890E081880110A306080994D286877
:103F2000FEF746F920812868FEF742F9608131BD2D
:103F300010B5894C012020700021934A1278012A83
:103F400000D00020E17021716171A070FEF72CF9A2
:103F5000E06010BDC806FFFFF8B57F4C00260225C3
:103F6000E068FEF725F9894988420DD36570E0794C
:103F7000694608708648066086498E8286480078C1
:103F800000282FD1012031E0E0796946087083488C
:103F90000078834909687C4A127863780C2B15D81D
:103FA00001A75B00FF5EBF4418002400CAFF5E004B
:103FB00062008400A200CC000A0142011A0136010D
:103FC00090016570FFF735FF764908808EE0764EE8
:103FD000300001F07DFD30223100744801F093FD86
:103FE000657083E072480078002801D100F00BF979
:103FF000267200F01DF9022802D1032000F015F905
:10400000FEF7D2F8E06071E06A4819E0E079142820
:1040100009DD05206070FFF70CFF624908806846E3
:104020000670657162E0401C694608705EE0012818
:1040300005D15A490E70FEF7B7F8524908605E483C
:10404000006853490860684606704FE0002806D1B2
:10405000012052490870FEF7A7F84A4908604A480B
:104060000078012800D10126A6705448006848490C
:10407000086002201BE00125002805D147490D708A
:10408000FEF792F83F4908603F480078012800D0C9
:104090000126A670207A002804D12572FFF7C9FEF8
:1040A000404908804648006839490860042000F00B
:1040B000AAF81BE036480160012A00D00126A6704C
:1040C00009200BE03349088B002803D0FF2212029D
:1040D00090420BD1C88A002808D10B20607005E0FF
:1040E0002B480160012A00D10126A670684600789D
:1040F000E071A025ED05207901228243802149004D
:10410000280000F036FAA27880210902280000F089
:1041100030FAA078A17981420DD0A07129482A49AE
:104120000968816129490968C161294909680162F1
:104130000121FFF709FE6078F2BD012A00D00126B7
:10414000A6701D48AFE70000AE04000002490870E9
:104150007047014800787047940600201D48807819
:10416000704709490978012902D1401E8041C00FDA
:10417000184988707047174948707047154840784B
:10418000704700001C0300208F000020411F00002A
:10419000FC04002064050020020000208D000020A7
:1041A000DC0600208C040020040500200000080824
:1041B00003000020D8060020D4060020C8060020F6
:1041C000CC06002090040020E0060020E406002039
:1041D000E80600209406002001484068704700BFB0
:1041E000D803002010B52D4908702D4CA084FFF78E
:1041F000B0FF002803D1A08C10210143A18410BD81
:10420000264800787047274908807047254800886D
:104210007047254908707047234800787047234944
:10422000088070472148008870472149087070470E
:104230001F48007870471F49087070471D48007874
:1042400070471D49087070471B48007870471B492C
:104250000A78030001D1002202E0022800D1521C9A
:104260000A70704715480078704715490870704704
:104270001348007870471349088070471148008838
:1042800070471149087070470F48007870470F4910
:10429000087070470D48007870470000FC06002049
:1042A00064050020EE060020FD060020F006002038
:1042B000FE060020FF06002000070020EA03002081
:1042C00001070020F206002002070020030700205B
:1042D00030B50E4801880E4A116041880D4A1160C0
:1042E0000D4C25888188A52040004843962149002F
:1042F00002F046FF401B64214843A188491B02F09D
:104300002BFF1E300549086030BD00BF3803002078
:10431000C0060020F40400207A00F81FC406002024
:1043200070B50400204DA869E860296AE86902F0C8
:1043300042FFA860696A02F03EFF01008026760213
:10434000300002F06EFF0100A86802F04EFF286006
:1043500020046861E96802F03BFF0100286802F070
:1043600044FF0100E86802F026FF28612968300058
:1043700002F02EFFA96802F038FF0100E961286908
:10438000A861002801D4720800E0084A8018C2130E
:10439000120C10180014696070BD034A0023936169
:1043A000D3611062516270472C0600200080FFFF2D
:1043B00010B500240748016840220A43026000202B
:1043C00002F092FF002801D0012401E000F090FEED
:1043D000200010BD00200240002200BF094202D090
:1043E000491E4254FCD17047F0B585B000220F231E
:1043F000039331E0062303E06B4B9842FAD1052387
:10440000B3402B432360694B1D68019BDC4325406F
:104410004B68DB0302D52B00019D1D43634B1D60E0
:104420005D6825404E68B60302D52E00019D3543D8
:104430005D609D6825404E68F60202D52E00019D04
:1044400035439D60DD682C404D68AD0202D52500E6
:10445000019C2C43DC60521C0B681C00D44000D132
:104460007FE00124944023400193019B002BF2D074
:10447000530003259D40EE4302964D68AE07B60FEC
:10448000012E03D0AD07AD0F022D0ED18568029E1F
:104490002E40CD689D40354385604568A5434C68F6
:1044A000E606F60F96402E43466094006D466C700B
:1044B00003244D682540032D25D0C568029E2E405B
:1044C0008D689D403543C5604D682540022D1AD149
:1044D000D508AD0045192E6A04966E4677781C26DD
:1044E0003E406F463E70049EB446039F6E4636784B
:1044F000B7406646BE43B4460F696E463678B7404D
:10450000664637432F620568029E2E404D682C4058
:104510009C40344304604B68C024A4021C409AD0E1
:104520000123234C24681C43214D2C60214C950809
:10453000AD00641925686E4677780C263E40039FCF
:10454000B740BD43A027FF05B84201D1002357E77C
:10455000194FB842FBD0194B984200D04CE70223C8
:104560004EE705B0F0BD0069084000D00120C0B2A0
:104570007047002A01D081617047816270474269AB
:104580000B0013401B0491431943816170470100E4
:104590000B4A13680B4000D1704780B5116002F0E0
:1045A00011FF01BD00000000001C0050000401408C
:1045B0003410024008000140000400500008005080
:1045C0001404014010B5C20018231340FF249C407E
:1045D000E2438907090E9940030004D418489B0858
:1045E0009B00C01806E0174B0007000F0838800832
:1045F0008000181803681A401143016010BD80B58F
:10460000FFF7E0FF01BD010005D40121C006C00E87
:1046100081400D480160704710B5401E802149045B
:10462000884201D3012010BD084C606003210020A6
:10463000C043FFF7C7FF0020A0600721216010BD25
:1046400000E400E01CED00E000E100E010E000E02C
:10465000F8B5040016D025005035002668680028FB
:1046600004D1AE602E70200000F05BFD1020696860
:10467000014003D121688A68520705D5696808435B
:1046800068602E700120F2BD68685D4A0240022019
:10469000104368605B488A689207920F012A03D131
:1046A0000A461268D2072AD46268574BC0273F06D1
:1046B000BA4206D05F1CBA4203D080273F06BA42F6
:1046C00008D10A6913400B6121680A6963681343C2
:1046D0000B610AE00A6913400B6101684B4A0A400A
:1046E0000260016862680A4302602168CA68182390
:1046F0009A43CA602168CA68A3681343CB60016803
:10470000434A0A4002600168626B52060A43026033
:1047100020688021490582680A4002D182681143DD
:1047200081602068C1683B4A0A40C2602069022853
:1047300001D1042100E000212068C268E36813432E
:1047400019432022A25C52030A432C21615C4900D8
:104750001143226B0A43A16989031143E269D20321
:104760000A43C260606AFF21C231884205D02168D5
:10477000CA681043A26A0243CA6001202121615C19
:10478000012910D12021615C002905D12168CA6866
:1047900003041343CB6006E0696820220A436A6081
:1047A000A9680143A960E16B012921680A690FD159
:1047B000194B13400B6121680A69236C1343626C27
:1047C0001A43A36C13430B6121680A69024303E097
:1047D000024002D00A6982430A6121684A690723BC
:1047E0009A434A6121684A69A36B13434B61AE60E7
:1047F000696802229143084368600020F2BD00000E
:10480000FFFEFFFF08270140FFFFFF3FFFFFC3FF41
:10481000FFFFFFFD1902FEFF03FCFFFFF2B50500DD
:104820001700002600242868816849073CD45021DD
:10483000695C012901D10220F2BD01215023E95414
:10484000C2681143C160E869012804D0280000F063
:10485000FDF8040029D13B00009A28005030476839
:104860007649394080277F000F4347608660067095
:104870007348E96CC8627348E96C08637248E96C74
:1048800048631C20296808602868416810260E4388
:10489000466029684031E86C02F052FB2868816864
:1048A00004220A43826000E002242000F2BDF8B531
:1048B0000400206801270821102504220368134002
:1048C00003D003465B68134006D103680B4037D022
:1048D00003465B680B4033D0636D2B4003D1636D9F
:1048E0008E011E4366650346DB68C02636011E4006
:1048F0001DD12023E35C002B19D10068014016D0A4
:104900002068806802400BD1206840680C218843F1
:1049100021684860606D634901403943616506E084
:10492000606D202101436165A06D3843A0652000C2
:1049300002F0C0FDA069012802D00C2021680860A7
:1049400080262068006830400CD0206840683040E5
:1049500008D0606D290301436165200002F0ABFDC2
:104960002068066020680168294014D00146496823
:10497000294010D0216B002903D00146C9680F409F
:1049800007D0A16D02220A43A2650560200002F053
:1049900093FD20680560F1BDFEB55022825C012ABE
:1049A00001D10220FEBD0700503701223A70006895
:1049B00000248268520706D5786820210143796077
:1049C0003C700120FEBD009109684903490B01912B
:1049D0008025AD02654E6900009A5268644B9A4288
:1049E000826A019B15D013438362009800680140DE
:1049F00006D03068A901014331600A2000F0A4F814
:104A000000980068054016D030688021C903014332
:104A100010E09A43826200980068014003D0306839
:104A200054490140316000980068054003D0306867
:104A30005149014031603C700020FEBDFEF1FFFF96
:104A4000B94A0008254B00082F4B0008F8B50600AE
:104A5000306881688907890F012903D101460968F7
:104A6000C9071CD4102401258168444A0A4015D185
:104A7000816829438160012000F066F8FFF7ACFBF4
:104A8000070030680068284009D1FFF7A5FBC01B6C
:104A90000B28F6D3306800682840F2D104E00020EB
:104AA000F2BD0000FFFEFFFF706D04437465B06D42
:104AB0000543B5650120F2BD10B5816A4A6D5023EA
:104AC00013402BD1486D8022920002434A6508684A
:104AD000C268C0231B0113401CD120228A5C002A1B
:104AE00018D10A681268120714D5012283685B077F
:104AF00009D443680C24A3434360486D204B034012
:104B00001A434A6506E0486D202303434B65886DD0
:104B100002438A65080002F0CDFC10BDC96C496BE8
:104B2000884710BD80B5806A02F0C7FC01BD80B522
:104B3000806A416D40220A434265816D04220A4326
:104B4000826502F0B9FC01BD18B504000D4800688B
:104B50000D4902F015FB4443009402E00098401E0A
:104B6000009000980028F9D111BD000008270140ED
:104B700001100000FFFF7FFFFFFFBFFF1700008055
:104B8000FFFEFFFFE403002040420F00F2B50400E7
:104B900017001D00002C14D0260074367068002801
:104BA00003D13070200000F05CFB2420706020688E
:104BB00001680122914301602000FEF7FBFD0128FE
:104BC00001D10120F2BD606A002802D02000FEF76A
:104BD0002FFE009821688A688023DB0113438B60D5
:104BE00021688A680A4B134018438860206801686E
:104BF000084A0A40790511432A040A4302602068E2
:104C0000016801220A4302602000FEF777FEF2BD30
:104C1000FF7FFFFFFFFF00FC10B5040001D1012062
:104C200010BD3920205C002804D1382160542000B8
:104C300000F0E8FA022039216054211D206800F0BC
:104C40004DF901203E2160543A2160543B216054CB
:104C50003C2160543D216054392100F065F810B5C5
:104C6000040001D1012010BD3920205C002804D1AE
:104C700038216054200002F021FC022039216054C8
:104C8000211D206800F02AF901203E2160543A21BC
:104C900060543B2160543C2160543D2160543921D3
:104CA00000F042F810B50400002901D13A2008E0D4
:104CB000042901D13B2004E0082901D13C2000E077
:104CC0003D20205C012801D0012010BD02200029D8
:104CD00001D13A2208E0042901D13B2204E008294D
:104CE00001D13C2200E03D22A0540122206800F0C6
:104CF000C3F9216801208207914205D0084A9142F8
:104D000002D0084A914205D189684907490F06290E
:104D100004D021680968084321680860002010BD9C
:104D200000080140001401406054002010BD000044
:104D3000F1B582B000206B46187002983823C05C31
:104D4000012801D10220FEBD0120029B3824185504
:104D500008272C4EC5020C00002A06D0042A14D0C5
:104D6000082A24D00C2A32D043E00298006800F0D0
:104D7000DCF80298006881690F4387618169042229
:104D8000914381618169E2680EE00298006800F059
:104D9000E2F80298006881690D43856181690E40DF
:104DA00086618169E26812020A43826123E0029807
:104DB000006800F0E8F802980068C1690F43C76115
:104DC000C16904229143C161C169E2680EE00298A1
:104DD000006800F0EFF802980068C1690D43C561F2
:104DE000C1690E40C661C169E26812020A43C2612C
:104DF00001E069460870002002993822885468460C
:104E00000078FEBDFFFBFFFFF8B5040000266846F2
:104E100006703820205C012801D10220F2BD270055
:104E2000383701253D7002203922A054206882685D
:104E3000294B13408360086802003FD010283DD002
:104E400020283BD0302839D0402830D0502820D0DE
:104E5000602825D0702806D02B03984235D05B00FF
:104E600098420AD02FE0CB684A688968206800F031
:104E7000E4F820688168772208E0CB684A6889688E
:104E8000206800F0DAF820688168AA030A4382608B
:104E90001BE0CA684968206800F0A4F850210EE0C1
:104EA000CA684968206800F0AEF8602107E0CA6867
:104EB0004968206800F096F8402100E00100206871
:104EC00000F0B3F801E068460570392025543E70C3
:104ED00068460078F2BD00008800FFFF70B50268E8
:104EE0005B4B5C4C8025ED05A84203D0A04201D06D
:104EF000984208D17026B24316004A683243A8424D
:104F000003D0A04201D0984203D1534B1340CA684A
:104F10001A4380239A430B69134303608A68C26271
:104F2000096881620121416170BD30B5026A0123C7
:104F30009A430262036A426885697324A5430C6838
:104F40002C430225AB438D681D4342608461496850
:104F50004163056230BD30B5026A10239A43026294
:104F6000026A436884693D4D25400C6824022C4345
:104F70002025AA438D682D0115434360846149684B
:104F80008163056230BD30B5026A354B1340036260
:104F9000046A4268C56973239D430B682B43314DF6
:104FA00025408C6824022C434260C3614968C16378
:104FB000046230BD30B5026A2B4B13400362036AB2
:104FC0004268C469254D25400C6824022C43274DB6
:104FD0001D408B681B032B434260C4614968016418
:104FE000036230BD30B5036A046A0125AC43046234
:104FF0008469F025AC431201224382610A22934363
:105000001943016230BD30B5036A1024A343036223
:105010008469036A164D254012032A438261A02247
:10502000934309011943016230BD826870239A439A
:10503000114307220A438260704730B584680D4DE2
:10504000254029430A4319021143816030BD000005
:105050000014014000080140FFFCFFFFFF8CFFFF30
:10506000FFFEFFFFFFFDFFFFFFEFFFFFFFDFFFFF83
:10507000FF0FFFFFFF00FFFF10B5C906C90E036A4F
:1050800001248C40A3430362036A8A401A430262EC
:1050900010BDFEE7F0B53822825C012A01D1022062
:1050A000F0BD020038320123137002243925445523
:1050B00005686E68AC687027BE430F6837436F6041
:1050C00005689E07B54205D0074EB54202D0074E8F
:1050D000B54204D18026B44349682143A9603921EF
:1050E000435400201070F0BD00080140001401403E
:1050F000E0B508220021684602F0E1F97B4801682A
:1051000001220A4302604168802252050A4342603C
:10511000002000900190684602F0DCF902F00AFAE3
:1051200007BD70B586B004001422002101A802F06A
:10513000C6F920686E49884237D16E488168420DB1
:105140000A438260012102680A430260006801404C
:1051500000910098602001900320029000250395A3
:1051600001A9A020C005FFF73FF9634E63483060F6
:105170007560B560F56080203061803070618000BE
:10518000B0612020F0613562300001F08DFE002812
:1051900001D0FDF7EBFFE664B462002201210C2090
:1051A000FFF72DFA0C20FFF72EFA06B070BD10B5F0
:1051B00086B004001422002101A802F080F92068C2
:1051C0004F4988421CD101204A4C2168014321608B
:1051D0002168014000910099C021C900019112216C
:1051E00002910021039103210491059001A9A020BF
:1051F000C005FFF7F9F8E068802189030143E16009
:1052000006B010BD00688021C905884204D13D4820
:10521000016801220A430260704710B586B004009D
:105220001422002101A802F04AF920688021C90552
:10523000884214D102202F490A6802430A60096893
:1052400001400091009908210191029000210391F1
:1052500003210491059001A92B48FFF7C5F806B07A
:1052600010BD70B586B0040014220021684602F01B
:1052700026F920682549884235D11E48C168802218
:1052800092020A43C260012102680A430260026876
:1052900011400591059902240168214301600068CD
:1052A000204005900598E0020090019400250295A9
:1052B00003260396042004906946A020C005FFF74A
:1052C00093F8C020009001940295039604956946D6
:1052D0000D48FFF789F8002200211C20FFF78FF905
:1052E0001C20FFF790F906B070BD0000341002409A
:1052F000002401402C100240B405002008000240A8
:1053000000540040381002400004005000440040A7
:1053100070B5040001D1012070BD25004035002684
:105320006878002803D12E702000FFF740FF24206A
:105330006870206801680122914301606068184923
:10534000014020680161216816488A6802408A602D
:10535000A168C2430A4321688A6021684A68124BE7
:1053600013434B602168CA681040C86020696169B6
:105370000143A069000208432168C860E069216A0E
:105380000143206801602068016801220A4302602D
:105390006E60202068702663AE70002070BD000033
:1053A000FFFFFFF0FF7FFFFF00800002FEB504005B
:1053B0000F0016001D0040304078202800D0B2E0D9
:1053C0000898002803D06846808C002805D18020EA
:1053D0008000210040314860A3E04020205C01288B
:1053E00000D1A0E0012040216054FEF7F5FE0290BC
:1053F000009019230122D103200000F0C9F90028F0
:10540000EAD12B0032002120210040314870402099
:105410002100403188700020210040314860089808
:1054200060626846808C608500206063029801900D
:105430000A9800903900200000F03EF9002803D0BF
:105440000020402160546CE0608DFF280DD9FF20C2
:1054500020850020009080235B04FF22390020007B
:1054600000F055FA0A9E029D07E0628D2285002019
:10547000009080239B04D2B2F0E72A003100200084
:1054800000F0B3F900284CD1606A00782168886286
:10549000606A401C60628548618D09186185218DB4
:1054A00008182085618D002920D000041ED10095A8
:1054B000330000228021200000F06AF9002830D15A
:1054C000608DFF2807D9FF202085002000908023D1
:1054D0005B04FF2206E0628D22850020009080237D
:1054E0009B04D2B23900200000F011FA608D002830
:1054F000C3D131002A00200000F0A1F901000ED133
:1055000020202268D06122685368694D1D40556093
:105510002200403250700020002393701070080069
:1055200002D00120FEBD0220FEBD0000FEB5040039
:105530000F0016001D0040304078202800D0B3E056
:105540000898002803D06846808C002805D1802068
:105550008000210040314860A4E04020205C012808
:1055600000D1A1E0012040216054FEF735FE0290F9
:10557000009019230122D103200000F009F900282E
:10558000EAD12B0032002220210040314870402017
:105590002100403188700020210040314860089887
:1055A00060626846808C608500206063029801908C
:1055B0000A9800903900200000F0ACF8002803D0D1
:1055C0000020402160546DE03A48618DFF290CD9DC
:1055D000FF212185009080235B04FF2239002000F9
:1055E00000F095F90A9E029D06E0628D22850090EA
:1055F00080239B04D2B2F1E70095330000220421FE
:10560000200000F0C5F800284CD12068406A616A8B
:105610000870606A401C60622449208D4018208513
:10562000628D51186185618D002920D000041ED142
:105630000095330000228021200000F0A9F8002806
:1056400030D1608DFF2807D9FF20208500200090F1
:1056500080235B04FF2206E0628D228500200090FB
:1056600080239B04D2B23900200000F050F9608DF5
:105670000028C1D131002A00200000F0E0F801002C
:105680000ED120202268D06122685368084D1D4049
:10569000556022004032507000200023937010703B
:1056A000080002D00120FEBD0220FEBDFFFF000069
:1056B00000E800FE00240080F8B5060015001C007C
:1056C000079F2B48009080235B04E2B2300000F07B
:1056D0001EF93A000699300000F087F8002817D12B
:1056E000012C09D0280A316888623A0006993000F6
:1056F00000F07BF800280BD1EDB23068856200978E
:10570000069B00228021300000F042F8002800D0E3
:105710000120F2BDF8B5060015001C00079F1448D3
:1057200000900023E2B2300000F0F1F83A00069950
:10573000300000F05AF8002817D1012C09D0280AAF
:10574000316888623A000699300000F04EF800286F
:105750000BD1EDB2306885620097069B0022402194
:10576000300000F015F8002800D00120F2BD000044
:105770000020008000688169890701D500218162CD
:10578000012182690A4002D1826911438161704717
:10579000F8B5002405000F00684602701E00286856
:1057A00080693840B84201D1012000E000206946FC
:1057B0000978884217D10020C0438642EFD0FEF717
:1057C0000BFD0699401A864201D3002EE7D128002E
:1057D0004030202142680A434260417000218170BC
:1057E00004700120F2BD0020F2BD70B504000D0070
:1057F00016002068806980071FD43200290020002D
:1058000000F044F8002801D0012070BD0020C04302
:105810008542EED0FEF7E0FC801B854201D3002DCF
:10582000E7D120004030202142680A4342604170A5
:105830000021002282700170E6E7002070BDF8B5FB
:10584000202504000E0017002068806928401BD125
:105850003A003100200000F019F8002807D1FEF7C7
:10586000BBFCC01B864204D3002EEDD101E0012019
:10587000F2BD20004030416829434160457000215D
:10588000002282700170F2E70020F2BDF8B50368D3
:1058900010249D69254038D05D68AD0103D45D6852
:1058A000A6022E435E6005000F00009220262868A5
:1058B0008169314011D10020C0438742F7D0FEF703
:1058C0008BFC0099401A874201D3002FEFD12800AA
:1058D000403041683143416010E0C4612868C661CE
:1058E0002800FFF747FF28684168114A0A404260D4
:1058F00028004030416804220A434260467000217B
:105900000022827001700120F2BD0020F2BDF0B5CE
:10591000059C00684568660D064F3743BD43890501
:10592000890D294312040A4313431C434460F0BD0C
:1059300000E800FEFF63FF0370B5020040325378B9
:10594000202B14D14023C35C012B10D001231370F2
:1059500024245470046825689D43256004682568E4
:10596000164E2E4026600468256829431CE002205C
:1059700070BD70B5020040325378202B12D1402305
:10598000C35C012B0ED001231370242454700468CF
:1059900025689D43256004682568094E2E4009024C
:1059A000314301E0022070BD2160006801680B43B3
:1059B0000360202050700020107070BDFFEFFFFFCB
:1059C000FFF0FFFF70B5050001D1012070BD286810
:1059D000144901601449016069684160A9688160E7
:1059E000FEF7FAFB072406002868C16821400AD0A8
:1059F000FEF7F2FB801B2B28F6D32868C0682040F6
:105A0000F2D0032070BDE96802698A4201D00161C9
:105A100001E006490160002070BD04490068016092
:105A200000207047CCCC000055550000AAAA000009
:105A300030B5002304E05C0005192D880D535B1C74
:105A40009342F8DB30BD38B505003B4C4E222900AF
:105A5000200001F097FD39484E21695A0180290044
:105A60004E314A88364B1A80CA8842800A89828021
:105A70004A89C2808A890281CA894281088A314A58
:105A800010808888FEF7BFFB6088FF2109028842EA
:105A900001D1012000E00020FEF7BBFB2420205CA8
:105AA000C00601D5002000E00120FEF74FFBA08CCE
:105AB000C10701D5012008E0810701D5022004E0DB
:105AC000400701D5042000E00820FEF78BFB31BD24
:105AD00038B504004E22184901F054FD4E34174DDC
:105AE00028882080164800886080FEF78FFBA08001
:105AF0006888E080A8882081E88860812889A08162
:105B00006889E08131BDF8B507000E00150000245A
:105B100001F07BFD0C4801680C4A0A40026006E077
:105B20006000325A3918012001F092FD641CAC4229
:105B3000F6D301F081FDF1BD640500206C06002064
:105B4000800600201200002004200240EFFDFFFF2D
:105B50009D2102000AD002D4491E9218FCD5C90525
:105B6000100A1206524100D3012A48417047000032
:105B700030B405004D400122D20715404B180418DF
:105B8000240E25D01B0E2CD0FF2C31D0FF2B34D06F
:105B9000E41A000209021043114343084808D10DDA
:105BA0001B1A02D2641EDB181B18DB18834200D3B9
:105BB0001B1A4941F9D37F3423DDFF2C05DAE405B4
:105BC00048086041284330BC7047FF20C005F9E712
:105BD00028001B0E03D0FF2BF5D14902F3D0D04390
:105BE000F1E7FF2C01D14002F9D1FF20C005E9E720
:105BF0004002F4D1FF2BF8D1F1E728004902E2D0AE
:105C0000EDE70B0200202442DCD15B129B1CD9D9AA
:105C1000D805D7E7F8B5944C0821A020C005FEF7B9
:105C2000A2FCA0701021A020C005FEF79CFCE07033
:105C30008E4D01212800FEF796FC6071202128007E
:105C4000FEF791FCE07122001A32217AA07801F06F
:105C500043FDA07022001D32617AE07801F03CFD26
:105C6000E07022002332E17A607901F035FD607145
:105C700022002932217BE07901F02EFDE071A0782D
:105C80002072E07860726079E072E079207300261B
:105C9000FF273F02A64DE88C052807DBFEF7EEFA4A
:105CA000B84201D100200EE001200CE08021090162
:105CB000A020C005FEF757FC207122002032A17AF7
:105CC00001F00AFDA0722071A07800282FD10120D8
:105CD000FEF799FA97480780E673FEF791FA0428D1
:105CE00003D0FEF78DFA082811D1FEF747FA0228F3
:105CF0000DD1FEF797FA9049884202D00120FEF7B5
:105D000071FA0122290024318C48FFF7FCFE6888D3
:105D1000B8420BD1E88C022802DA0020FEF779FAAB
:105D20006E800122A91C8648FFF7EDFE2F80E078E7
:105D3000002825D1FEF767FA7E4806802E80E6739C
:105D4000FEF75EFA04281BD0FEF75AFA082817D08F
:105D5000E88C022814DBFEF765FA774988420FD0F9
:105D6000FEF74EFA02280BD0FEF708FA022807D1F8
:105D7000FEF738FA0122290024317048FFF7C3FEEC
:105D8000A078002804D0E078002801D00120E0733A
:105D90002079012806D1FEF745FA674988421DD0CF
:105DA000022019E0FEF72CFA082817D0FEF728FA8F
:105DB000042813D0FEF724FA20280FD0FEF732FA79
:105DC0005D4988420AD0E88C022801DA012003E00C
:105DD000FEF71CFA012801D1FEF704FAA079002889
:105DE0002ED0207C00282BD1A078012828D1A671A4
:105DF000FEF718FA5049884222D00120FEF709FA2E
:105E00006F80E88C052802DA0720FEF7B4F9E88CE9
:105E1000022807DA0420FEF7E5F9FCF7C5F9814905
:105E2000086002E00820FEF7DDF90122A91C4448C1
:105E3000FFF769FE0122290024314048FFF763FE85
:105E4000FEF7E4F9002807D1207C012804D126744C
:105E5000A079002800D0A671E079012800D00020A8
:105E6000FEF774F9F1BD00000000002000040050AE
:105E7000F8B56D4FA024E40502212000FEF773FB66
:105E8000387004212000FEF76EFB78703A0014325F
:105E9000797B387801F020FC38703A001732B97BF2
:105EA000787801F019FC787039787973B873002428
:105EB0001F4DFF26360200291ED1EE83002801D196
:105EC0002E84F1BDE88C02280DDAFEF799F902283C
:105ED00009D0FEF7A1F900280FD154484088B042FC
:105EE0000BD1524806E051484188B14205D1397979
:105EF000002902D1068000E0EC837878002814D1D4
:105F00002E843878002811D0FEF77AF902280DD0B7
:105F1000464FE88C022803DAFEF77EF9002805D107
:105F20007888B04202D13C80F1BD2C84F1BD0000E4
:105F300064050020800600205A5A0000240008084A
:105F400002000808F8B5FEF76DF9394988424CD0CF
:105F5000384E8025ED01344CFEF752F90428608A52
:105F60000BD1284201D0002200E00122290030009C
:105F7000FEF7FFFAFF20000209E0284201D00122CB
:105F800000E0002229003000FEF7F3FA00202A4F3B
:105F9000B8836D00FEF73AF900280FD1FEF7EEF84E
:105FA00002280BD1608A284201D0012200E00022A1
:105FB00029003000FEF7DDFA00207883FEF726F98D
:105FC000002805D1A07801280FD1E07801280CD154
:105FD000608A284201D0002200E00122290030001E
:105FE000FEF7C7FAFF2000027883F1BD10B50E4C12
:105FF00080210901A020C005FEF7B5FA2071A0722A
:10600000012801D1022009E00B48C08C022801DAE6
:10601000012003E0FEF7FAF8012801D1FEF7E2F8CB
:1060200010BD000034030020000000206C0600209A
:106030005A5A00000008005064050020F8B5394C99
:1060400039480480394F3C80394D6C84FEF7DEF8C6
:10605000022802D1FF20000268840026FEF7D6F84D
:10606000042800D16E84E88C022823DAFEF7C8F8F1
:1060700001280DD1FEF7CAF8022803D0FEF7C6F8B2
:10608000042805D1284806803C800120FEF7BBF893
:10609000FEF7B6F8012844D1FEF7BEF8012840D13A
:1060A000214806803C800120FEF7ADF80420FEF771
:1060B00099F8F1BDFEF7A4F8012807D1FEF7A6F87C
:1060C000022807D0FEF7A8F8012803D0FEF798F8B9
:1060D000082810D1144806803C800120FEF793F870
:1060E000FEF78EF8082803D0FEF796F8012802D1B3
:1060F0000120FEF79AF8FEF783F8042803D1FEF793
:1061000085F8022807D0FEF77BF8012809D1FEF7B1
:106110007DF8042805D1044806803C800120FEF764
:1061200072F8F1BDA5A500006C06002080060020D5
:1061300064050020FEB50400002069460870502068
:10614000205C012801D10220FEBD012750216754A7
:106150002068032581682940012903D12168096845
:10616000C9073DD4210050314A68244B1340022214
:106170001A434A60C1680D40C16803229143C1605F
:1061800020688168802212060A438260FEF724F8A4
:1061900001902068802636068168314015D0FEF7D0
:1061A0001BF80199401A0B28F3D320688068064039
:1061B000EFD02000503041680222914310220A4360
:1061C0004260002101700120FEBDC1680D43C56021
:1061D000200050304168022291430F43476007E09E
:1061E00020005030416820220A4342606846077010
:1061F00000205021605468460078FEBDFFFEFFFF7E
:106200007047FEE7F8B5544CE08C022815DB0026F9
:10621000FEF740F8002801D150490E70FDF7F0FF5D
:1062200004280AD04D4807787D1CFDF7F5FF0128AA
:1062300004D07DD303285CD01DD3F1BD4748057041
:10624000474EE08C052805DBEDB2312D4DD200F034
:1062500070F804E04348C088EDB2A84245D3FBF78C
:10626000A3FF41490860FBF79FFF30600120FEF764
:106270000EF802203AE0FDF7E1FF012858D1002096
:10628000FDF7D9FFE08CFF263602052820DB312FF1
:106290001ED2208B002807D1FDF770FF022803D102
:1062A000FDF7D2FF00281AD0208BB04240D1FDF775
:1062B00065FF02283CD1FDF7C7FF002838D12748E9
:1062C000057000F036F8FBF76FFF27490860F1BD55
:1062D000801E032809D22348C088B84205D321482C
:1062E00006800320FDF7A1FFF1BD0320FDF791FF1C
:1062F000F1BDFDF785FF042815D00420FDF772FFDE
:106300000122210024311948FFF7FDFB15480680C2
:10631000174806800020FDF788FF0020FDF779FF71
:106320000020FDF788FF0D4806700020FDF7AFFF45
:10633000F1BD0A480078022801DA032009E001D102
:10634000782006E0032802D19620400001E0E120F9
:10635000C00004490881704764050020FA06002047
:10636000180300206C0600201403002024000808F5
:1063700080060020F8B55A4CFDF742FF022802D0F3
:10638000E08C022806DB5748007800285AD1E08CC0
:10639000022857DB544DA889002853D1FDF7EEFEA3
:1063A00002284FD10127FF2636022888B0420ED19D
:1063B000FDF72CFF00280AD1E08C02280BDBFDF74B
:1063C0001FFF042803D0FDF71BFF082803D1FDF7AA
:1063D0002FFF032837D1288844490988884203D1F0
:1063E000FDF726FF03287AD1208A401C2082608A8C
:1063F000401C6082A682FDF703FF012802D1002025
:10640000FDF745FF0120FDF7EDFE0220FDF7FBFE45
:106410000020FDF7FEFE3648FFF75AFB30223449D4
:106420003448FFF770FB2888304908800620FDF7C4
:10643000A2FE31480770FDF7FBFE03284FD1002074
:10644000FDF7F3FEF1BD288800283CD1FDF7DEFE04
:10645000012838D1E08C022807DBFDF7D1FE0428A3
:1064600031D0FDF7CDFE08282DD028881F49098896
:10647000884234D0208A401C2082A6820420FDF766
:10648000C2FE1B4E3000FFF723FB302231001948BB
:10649000FFF739FB2888154908800720FDF76BFEB8
:1064A00015480770FDF7C4FE012802D10220FDF750
:1064B000BCFEE08C022812DB0220FDF793FE0020D8
:1064C000FDF7E5FEF1BD2888B04208D1FDF79EFE3C
:1064D000002804D1E08C022801DB00202880F1BDD7
:1064E00064050020040000206C06002080060020C7
:1064F0000405002000000808100000207FB50600F9
:10650000FF240025009501F003F901950296144837
:10651000006880021349014013480818801BC00915
:106520000390694601A801F03BF8002800D100243F
:1065300001F013F9200004B070BD0C4908707047D9
:106540000A48007870470A49088070470848008860
:106550007047084908807047064800887047000067
:106560007C00F81F00FCFF03FF1F00080407002049
:10657000F6060020F806002038B5A025ED051D4CD4
:10658000012808D002280DD004281DD0082811D0D9
:1065900020281BD023E0002280212800FDF7E9FFFE
:1065A000012222E0002280212800FDF7E2FF0421E1
:1065B000200006E0002204212000FDF7DAFF802100
:1065C0002800FDF7DCFF31BD002200E0012204219C
:1065D0002000FDF7CEFF01228021280007E00022E5
:1065E00080212800FDF7C5FF002204212000FDF7CF
:1065F000C0FF31BD0004005038B50500080011008F
:106600001C00049B032D04D0062D0DD0102D0FD09F
:1066100011E093221202944202D101F041F90AE002
:10662000220000F0F4F806E0220000F0EBF802E0AF
:10663000220000F0B5F85048048031BDF8B50400E0
:106640000F00FE31C9B201F0D1F92178012903D040
:10665000032901D0022916D1E219921E13781B02D8
:1066600052789A1890420ED1012902D10020FDF7EC
:10667000EEFD93263602414D6078032804D00628AB
:106680004DD010280DD0F1BDFDF7CCFD3C4988421E
:1066900002D03948018800E03100200000F0CAF83B
:1066A000F1BDA0780002E1784018B04204D1390071
:1066B000200001F051F9F1BD2079000261794618FE
:1066C000B6B2FDF7AFFDA84254D0A0780002E17841
:1066D00040189021090288420ED1172E4AD1294D27
:1066E0002E22E11D280000F04DFF17222900264828
:1066F000FFF709FA02203BE091210902884239D1D3
:10670000302E37D1B04D6022E11D280000F03AFF55
:1067100030222900AD48FFF7F6F9012028E0A078E3
:106720000002E178401892210902884222D1FDF747
:1067300079FDA84203D1FDF795FDC8281ADB207921
:10674000000261794018A84214D110490D8001223D
:106750000F48FFF7D8F90F490F4808800F484880C5
:106760000222C448FFF7CFF92800FDF758FD0320A7
:10677000FDF787FDF1BD0000E8030020A5A500009E
:106780005A5A0000FC05002000020808EC06002010
:10679000F8010808A60500200156000005070000C2
:1067A00038B504005D00ADB2217010206070100A91
:1067B000A070E270180A20716371912109028A4267
:1067C00007D10621200001F011F9010AA171E07141
:1067D00031BDA571842189018A4204D18021200024
:1067E00000F079F903E02900200000F045F9E91DE7
:1067F000C9B2200001F0FAF8010A6219D1716119D9
:10680000087231BD10B504002170062003E010B5F8
:106810000400217003206070100AA070E270180A52
:10682000207163710621200001F0E0F8010AA171D6
:10683000E07110BDF8B50600AD4D80221202914204
:1068400000D0AAE00122AB49341D50003318DB7898
:106850001B02205C1818A84B984201D10220087036
:10686000521C062AF1DB0878022800D100E1A34C73
:10687000A3482100122200F085FEF0790002317A4F
:106880004018FF210902884201D0002800D1A080D1
:10689000A088884209D1E88C022801DAFDF7BCFC07
:1068A000F078000231794018208071790A02B079BD
:1068B0001318FF200002834201D0511800D16380D9
:1068C000717A0902B27A89186A465180F17A09020E
:1068D000327B89186A461180717B0902B27B8F185E
:1068E000F17B0902327C8918A181717C0902B27C9A
:1068F0008918E181F17C0902327D89182182A18900
:10690000814214D1E18981420BD17E48FFF7F6FD27
:10691000BFF34F8F7C487D490860BFF34F8F00BFA6
:10692000FDE7218A814202D10120FFF706FEE98CB2
:10693000022913DBFF202E30BAB2824200D26781D7
:1069400004290BDC694649880B2902D2694649882B
:10695000E18069460988814200D2218168484188E6
:10696000628891420FD18188A28891420BD1C1885F
:10697000E288914207D101892289914203D140895D
:106980006189884274D0104C2000FFF7A1F83022B2
:1069900021000E48FFF7B7F8F1BDFF2424025C4A3E
:1069A000914237D1F07800023179401801D0A042ED
:1069B0000ED128837279082128004630FDF70EFD9C
:1069C0000020E882F1BD00BF040500200000080897
:1069D0005049884201D0A52802D10020FDF745FC8E
:1069E000FDF7CCFB0B2808D1F07800023179401874
:1069F000A52802D10220FDF738FCF0780002317999
:106A00004018A5210902884232D10120FDF72DFC52
:106A1000EC82F1BD521E91420CD1F0780002317926
:106A2000401880B2A04201D1200000E00020FDF714
:106A300022FCF1BD80229201914207D1F078000240
:106A40003179401880B2FFF77EFDF1BD521C9142B2
:106A500007D1F07800023179401880B2FFF779FD54
:106A6000F1BD93200002814202D10520FDF709FC0F
:106A7000F1BD000042000808F8B5A8B004000E00FF
:106A800082200002824202D14E22194901E01222E4
:106A90001A49684600F076FD350004D03200694698
:106AA00014A800F055FD0020002314AA694607E051
:106AB000D6187678CE54D65CCF187E709B1CDBB28D
:106AC000AB42F5DB03E00A5C2318DA71401CA842F4
:106AD000F9DB29B0F0BD30B500220F4B04E09C1863
:106AE000E4788518EC71521C8A42F8DB30BD000056
:106AF0006405002091000020FFFF00006C060020CC
:106B000080060020807F00080400FA050CED00E0FC
:106B100004810000A5A50000EC030020FEB50700DD
:106B200000D1A2E0534CE0680C2101400091802587
:106B30006D02E06828403978C9070CD5009908290A
:106B400003D00C2921D1A8421FD12068800302D58F
:106B50007868002877D0786A00286CD000990C29D2
:106B600070D06E028F49022820685DD101402160FB
:106B7000FDF732FB0500206830403BD0FDF72CFBD1
:106B8000401B0228F7D90320FEBD7868A84207D031
:106B9000A021C9028842206806D1A90001432160D2
:106BA0002068284320600AE07F4901402160206876
:106BB0002840019001982068794901402160786857
:106BC00000280BD0FDF708FB060020688003C2D424
:106BD000FDF702FB801B6528F7D3D4E7FDF7FCFA2D
:106BE000060020688003B6D5FDF7F6FA801B6528FD
:106BF000F7D3C8E7E06890490140B86A0843F96AEA
:106C00000143386B0843E06020687108014321604C
:106C1000FDF7E2FA05002068304028D1FDF7DCFAE4
:106C2000401B0228F7D9AEE701402160FDF7D4FAF6
:106C30000500206830401AD0FDF7CEFA401B02282C
:106C4000F7D9A0E7012810D0E0680540B96A8D4265
:106C50000BD1F02189030140FA6A914205D1C0218C
:106C600009040140386B814201D00120FEBD0020A3
:106C7000FEBD000000100240F8B5070036D00091BC
:106C80000126F6436D480068C107C90F009881428C
:106C900019D26A4800683040009901436748016092
:106CA000FDF79AFA009C050064480068C107C90F07
:106CB000A14207D0FDF790FA401B61498842F3D307
:106CC0000320F2BD00945F4C3878800705D5E0685A
:106CD000F0218843B9680143E1603878C0071ED5C8
:106CE0007868032804D12168890101D40120F2BD0C
:106CF000E168032291430843E060FDF76DFA79688B
:106D000003290CD10500E0680C2101400C2906D0B4
:106D1000FDF762FA401B4A498842F4D3D0E7009855
:106D200046490968CA07D20F904217D24348006803
:106D300006400098304341490860FDF74DFA009D38
:106D400006003E480068C107C90FA94206D0FDF7FA
:106D500043FA801B3A498842F3D3B1E738784007B9
:106D600005D5E06838490140F8680843E0603878A4
:106D7000000706D5E068354901403869C00008437E
:106D8000E06000F013F83249E2681206120F895CE5
:106D9000C840304908603048006800F0A5FAF2BDEC
:106DA000FFFFFBFFFFFFFFFEFFFFFEFF50B5254A81
:106DB000D16810230C200840042804D0082809D0EA
:106DC0000C2809D023E01068034001D0244850BDAE
:106DD000244850BD244850BD24488C02240F005D37
:106DE00009028C0F641C0021D668F60301D51E4AE7
:106DF00003E01268134002D0194A002300E0194A48
:106E000000F00CFE2200002300F021FE50BD50686F
:106E100001210004400F401C8140C80350BD0D48B3
:106E2000006813490D4A12685205FFE7520F895C4A
:106E3000C840704700000000FFFF02FF0020024032
:106E40008913000000100240FFF8FFFFFFC7FFFF9B
:106E5000307D0008E4030020E00300200C10024015
:106E600000093D000024F40000127A00407D000873
:106E70000C7E00080A490278920705D50A680C239F
:106E80009A43836813430B600278120705D50A689A
:106E9000044B13400069184308600020704700004D
:106EA0004C100240FFCFFFFF70B5040001D101205C
:106EB00070BD20681E494018142100F061F980005F
:106EC00060641C482064022025216054206800680A
:106ED00019490140A0680843E1680143206908435B
:106EE00061690143A0690843E1690143206A0843DD
:106EF00021680860A0688021C901884210D00F482D
:106F00001C2102680F23656C1C262E40B3409A4357
:106F1000026002686368656C29408B40134303601C
:106F20000020E06301212522A1542421605470BD7A
:106F3000F8FFFDBF000002400F80FFFFA8000240E5
:106F4000F8B50400002000252426A65D012E01D1FD
:106F50000220F2BD01262427E65502262527E75DFB
:106F6000012F1FD12527E655E06320680668012719
:106F7000BE430660200000F0D8F82068216B00298D
:106F8000016801D00E2205E00422914301602068CF
:106F900001680A220A4302602068016801220A434C
:106FA000026002E02421605402252800F2BD30B5C1
:106FB0000100243100222523C35C022B04D00423CA
:106FC000C3630A70012030BD03681C680E25AC4302
:106FD0001C6003681C680125AC431C600123442429
:106FE000045D1C2525400124AC40056C6C60252403
:106FF00003550A70002030BD70B500220024012125
:107000002523C35C022B03D00422C263012418E0B1
:1070100003681D680E26B5431D6003681D688D4317
:107020001D604423C35C1C251D400123AB40056C3F
:107030006B602523C15424214254816B002900D068
:107040008847200070BDFEB5016C09680291016897
:107050000A6801924422825C1C2313406A46137022
:1070600004232022029C6D462D780426AE40264043
:1070700014D0019C1C4011D00C68224002D10A6837
:107080009A430A604421415C1C220A409340016CEF
:107090004B60016B002947D08847F7BD01230224CC
:1070A0000025029EB4466E4636780227B7406646F3
:1070B000374019D0019E264016D00E68324005D1C7
:1070C0000A680A26B2430A60252143544421415CE0
:1070D0001C220A409440016C4C6024214554C16A32
:1070E000002921D08847F7BD082264466E463678CD
:1070F0000827B740274017D0019C224014D00A68C7
:107100000E24A2430A604421415C1C220A40012152
:107110009140026C5160C36325214354242145549E
:10712000416B002900D08847F7BD70B50124442584
:10713000455D1C262E40B440056C6C60046863609D
:107140008068102802D1A260E16070BDA160E26099
:1071500070BD704770477047CA0F00D04942031096
:107160005A400DD004B500D3404200F009F8009A0F
:10717000D20701D34942124200D5404204BD00006B
:10718000094214D088420FD30122030C01D100041C
:107190001204002300185B418B4200D35B1A52415A
:1071A000F8D319001000704701000020704708B59F
:1071B00000F08CFC08BD03000A0098188021090625
:1071C0005A400A4003D143400B4000D008007047AA
:1071D00003000A00981A802109065A400A4003D089
:1071E00043400B4000D00800704710B50A00C1179B
:1071F000D31700F013FCCA1300290DDAD3430DD1C5
:107200000022401E9141020C0C0422430004C017CE
:10721000C107C90F501810BD002AF4D08020000605
:1072200010BDF2B584B080252D06002959D00390F9
:107230000746002F00D57F420E46002E00D576422D
:10724000002411200290300D000510D03800710C80
:10725000491CFFF795FF04000021009701913200BF
:10726000002300F0DBFB400CCA0310433F1A11203F
:1072700001E03609001F310701D10428F9DA002F97
:1072800024D0002822D400212A0001E0491C520801
:107290001742FBD0C9B2884200DC01008F40401A7F
:1072A000029038003100FFF76BFF0100029A904016
:1072B00024180020C043D040814312D1380031004F
:1072C000FFF75EFF4F000298401ED8E7641C60087D
:1072D0000399049A4A40154001D04142080005B084
:1072E000F0BD2800FBE7FEE738B505000D4CFA209D
:1072F00080002178FFF744FF01000B480068FFF78A
:107300003FFFFDF789F900280AD1042D08D2002299
:1073100029000020C043FDF772F9A560002032BDAE
:10732000012032BDD8030020E4030020FEE7FEE781
:107330007047704738B549480178491C0122484BCD
:107340001A70484B484CCDB2022D0CD0042D0AD0F7
:10735000052D06D0062D06D0082D04D00A2D04D008
:1073600008E01A7006E0227004E022701A703F49AB
:107370000A700021017000F0ABFB31BD80B5012027
:10738000FDF705F90220FDF702F901BD80B50820DF
:10739000FDF7FDF801BD80B51020FDF7F8F82020BD
:1073A000FDF7F5F801BD80B53148FFF74CFE01BD92
:1073B00080B53048FDF77BFA01BD80B52E48FCF75B
:1073C0008DF801BDF8B501002C4F2D4EA022D2053D
:1073D00001242C48012934D0022929D0082904D0BD
:1073E000102916D0202932D0F1BD274D1000FDF70D
:1073F000BAF82870002809D1FF20000238802349FC
:107400000880FCF7BBFE022800D0347028782049A1
:1074100015E01000FDF7A7F8010005D10221317039
:1074200000213980194A11801A4908701A4906E06A
:10743000FDF799F8010001D118490C70184908703E
:10744000F1BD184CFDF78FF820701749F7E7174C7E
:10745000FDF789F820701649F1E700008900002047
:107460008C0000208B000020850400208A00002072
:10747000B40500202C0000203402002080060020EB
:107480009706002000040050020000206C06002037
:107490000800002003000020090000200600002052
:1074A000FB060020050000200B0000200700002044
:1074B0000C0000207047704770477047704710B548
:1074C00004000800110002002000FCF787FF2000E4
:1074D00010BDFEE71B490A68E0239A430368134383
:1074E0000B601949194A4B6813404B600B681340F5
:1074F0000B60CB681340CB608B681A408A60802297
:1075000052024368134002D00B6813430B60436878
:107510009B0302D54B6813434B600379DB0702D50D
:107520008B6813438B600079800702D5C8680243DB
:10753000CA6070470348FFE7016810220A430260EF
:10754000704700000070004000040140FFFFFEFF94
:1075500070B4103A03D378C9103A78C0FBD25307FD
:1075600001D318C918C001D508C908C0D20704D36F
:107570000B880380891C801C002A01D50B780370BE
:1075800070BC70478B0701D18307E1D0124205D050
:107590000B78491C0370401C521EF9D17047FEE75E
:1075A000FEB507000E00234C207C012801D10220EB
:1075B000FEBD012020742448009000F0DAF801009C
:1075C00020D10021C94331607968204D01960E0019
:1075D00000E08036B968C9017A6889188E4211D2F4
:1075E000300000F05DF8009800F0C3F82968082228
:1075F000914329602968294A0A402A600100E8D09D
:1076000001990E6000212174FEBD01200F490A6816
:1076100002400DD0EFF3108272B62C4B8B602C4BD6
:107620008B6082F310880968084001D00120704700
:1076300000207047540600202648016801220A43B2
:10764000026000207047000050C300000420024088
:10765000F7B504001C4D287C012801D10220FEBD95
:1076600001202874174F380000F083F8002601002D
:1076700011D101996E61029A022C01D10A600AE0CF
:10768000012C01D10A8006E0002C01D10A7002E031
:10769000380000F06EF82E74FEBD0000FFFDFFFF05
:1076A00010B50021084A51610A4A1368540D1C4361
:1076B0001460136808241C4314607F229043016007
:1076C00010BD000050C3000054060020EFCDAB8970
:1076D000050403020420024020B5030015786D1C48
:1076E0000120012B08D1002904D115709378E9B24B
:1076F000994209D1002508E0012904D11570537879
:10770000E9B2994201D100250020157020BDFEE7A5
:107710000121334802680A400BD0EFF3108272B6A1
:10772000594B8360594B836082F310880268114083
:107730000FD10222016811400DD0EFF3108172B613
:10774000534BC360534BC36081F310880068024001
:1077500001D00120704700207047214801680222B3
:107760000A43026001680122FFE70A430260002029
:10777000704770B50500FCF72FFD0600474C2068E8
:10778000C0070CD50020C0438542F8D0002D04D09E
:10779000FCF722FD801B8542F1D2032070BD022040
:1077A0002168014000D020602068C00511D4206805
:1077B00080050ED4206840050BD42068000508D44D
:1077C0002068800405D42068800302D42068C003A8
:1077D00003D500F007F8012070BD002070BD000047
:1077E0000420024030B500222B4880235B002B4947
:1077F0000C681C4004D042690224144344611A00FE
:107800004B0D0C681C4006D0446901252543456199
:1078100014001A0022430B0D0C681C4006D044696A
:1078200008252543456114001A002243CB0C0C683F
:107830001C4006D0446904252543456114001A0004
:1078400022439B000C681C4006D044691025254348
:10785000456114001A0022430B689B0306D52023C0
:1078600044691C43446114002022224380235B02AC
:107870000C681C4006D04469402525434561100032
:107880001A0002430A6030BDEFCDAB890504030244
:10789000BFAE9D8C1615141354060020182002400C
:1078A00070B504000D005E000421FCF795FD257005
:1078B00003206070A670FCF7A3FC002808D0FCF73A
:1078C0009FFC012804D0FCF79BFC042801D1022076
:1078D0002071414D802109022800FCF744FEA0716F
:1078E0008021C9012800FCF73EFE2072A025ED058D
:1078F00002212800FCF737FEA07204212800FCF7C3
:1079000032FE207308212800FCF72DFEA073102101
:107910002800FCF728FE2074802109012800FCF7CC
:1079200022FEA07402212D48FCF71DFE2075FCF7F5
:1079300080FA010A6175A075294801680904090ED9
:10794000E17500682076F61CF1B2200000F04EF8D8
:10795000010A6176A07670BD38B50400FCF762FCC0
:107960002049884237D0E0790002217A401880B25D
:10797000002804D0012802D0022802D10420FCF7FC
:1079800031FC154D80210902607A0002A27A80182C
:10799000000401D1002200E001222800FCF7E9FDEB
:1079A0008021C901E07A0002227B8018000401D105
:1079B000002200E001222800FCF7DBFDE07E00024F
:1079C000217F4018000401D1062000E0072006496D
:1079D0000870FCF7C1FA31BD0008005000040050E7
:1079E000F8040020A5A500009506002030B5FF236F
:1079F000FF24094A08E005785D40401C535D634060
:107A0000541980256D00645D0D00691E2D06F2D1AC
:107A10001802204330BD00BFE47A000830B443436D
:107A200051435D18010C0C00130C5C432D1980B2FE
:107A3000434392B251430024C918644124040B0407
:107A4000090C09195043C018694130BC70471242F3
:107A50002DD0994231D970B500251B4209D00C00B8
:107A6000002112E01100FFF78BFB0A000021002328
:107A700070BD0942F6D000240126491864419442A1
:107A800000D3A41A7641F8D33100012601E07641F3
:107A900009D2001864416D41A41A9D41F7D2A4187F
:107AA0005D41B619F5D3300022002B0070BD1B429A
:107AB000CFD108B500F014F808BD01D19042CAD268
:107AC00002000B00002100207047FEE77047FEE730
:107AD000024841680278891841607047D803002045
