:1000000078CEFF1FD94D0000FF4D0000074E0000C5
:1000100000000000000000000000000000000000E0
:100020000000000000000000000000000F4E000073
:100030000000000000000000174E00001F4E0000EE
:10004000F34D0000F34D0000F34D0000F34D0000B0
:10005000F34D0000F34D0000F34D0000F34D0000A0
:10006000F34D0000F34D0000F34D0000F34D000090
:10007000F34D0000F34D0000F34D0000F34D000080
:10008000F34D0000F34D0000F34D0000F34D000070
:10009000F34D0000F34D0000F34D0000F34D000060
:1000A000F34D0000F34D0000F34D0000F34D000050
:1000B000F34D0000F34D0000F34D0000F34D000040
:0800C000C48E000000000000E6
:100410003055203D3D20286D61736B2026207E28BD
:1004200028307832303030305529207C2028307800
:1004300032305529292900002E2E5C2E2E5C6C6945
:10044000627261726965735C6E78705F6B6D785F04
:100450006C69627261726965735C64657669636513
:10046000735C4D4B4D33355A375C647269766572F7
:10047000735C66736C5F7064622E68003055203D5B
:100480003D20286D61736B2026207E283078343023
:100490005529290064656E203E2030002E2E5C2EEA
:1004A0002E5C62617369635F706C6174666F726DFC
:1004B0005C626173655F706C6174666F726D5C6DB8
:1004C00063755F68616C5C736F757263655C6B6D9F
:1004D0005F68775F74696D65725F7064622E630038
:1004E0000000000001000000010000000200000008
:1004F00002000000040000000300000008000000EB
:10050000000100000A0000000400000010000000CC
:1005100000020000140000000500000020000000A0
:10052000000300002800000006000000400000005A
:1005300001030000500000000700000080000000E0
:1005400002030000A00000000303000040010000BF
:100550000403000080020000050300000005000005
:1005600006030000000A000007030000001400005A
:100570003020213D20636F6E666967002E2E5C2E51
:100580002E5C6C69627261726965735C6E78705F13
:100590006B6D785F6C69627261726965735C6465CA
:1005A00076696365735C4D4B4D33355A375C6472C5
:1005B00069766572735C66736C5F7069742E68002F
:1005C000636F756E7420213D20305500705F777227
:1005D0006974655F656E61626C655F6C61746368A8
:1005E00020213D20300000002E2E5C2E2E5C62610A
:1005F0007369635F706C6174666F726D5C62617366
:10060000655F706C6174666F726D5C65787465723D
:100610006E616C5F647269766572735C736F75721C
:1006200063655C617432356666313631615F666C74
:100630006173685F6472697665722E630000000002
:10064000776169745F666F725F726561647920219A
:100650003D2030007370695F736C6176655F69641B
:1006600020213D203078464600000000905F0100C8
:1006700048E801004093340200879303776169746E
:100680005F666F725F726561647920213D20300082
:100690002E2E5C2E2E5C62617369635F706C6174D8
:1006A000666F726D5C626173655F706C6174666FBA
:1006B000726D5C65787465726E616C5F6472697688
:1006C0006572735C736F757263655C6174343564F5
:1006D00062313631655F666C6173685F647269763A
:1006E00065722E63000000007370695F736C617641
:1006F000655F696420213D20307846460000000097
:10070000B80B0000A00F00000800000080B14F01EE
:10071000C8AF0000A0860100001000000002000029
:100720000010000000020000705F666C6173685F7B
:1007300065726173655F73757370656E6420213DCA
:10074000203000002E2E5C2E2E5C62617369635F88
:10075000706C6174666F726D5C626173655F706C02
:100760006174666F726D5C65787465726E616C5FE2
:10077000647269766572735C736F757263655C66CB
:100780006C6173685F6472697665722E6300000045
:10079000705F666C6173685F65726173655F7265D7
:1007A00073756D6520213D2030000000636865632E
:1007B0006B5F69665F726561647920213D2030005E
:1007C000705F666C6173685F65726173655F6368B3
:1007D000697020213D2030001F2600001F460800C0
:1007E000000000000000000045470000000000007D
:1007F0006368616E6E656C203C202875696E743389
:10080000325F7429283429002E2E5C2E2E5C6C69F0
:10081000627261726965735C6E78705F6B6D785F30
:100820006C69627261726965735C6465766963653F
:10083000735C4D4B4D33355A375C64726976657223
:10084000735C66736C5F646D612E680068616E64D2
:100850006C6520213D2030002E2E5C2E2E5C6C69B4
:10086000627261726965735C6E78705F6B6D785FE0
:100870006C69627261726965735C646576696365EF
:10088000735C4D4B4D33355A375C647269766572D3
:10089000735C66736C5F646D616D75782E680000C3
:1008A000705F68616E646C6520213D20300000003F
:1008B0002E2E5C2E2E5C62617369635F706C6174B6
:1008C000666F726D5C626173655F706C6174666F98
:1008D000726D5C6D63755F68616C5C736F7572637C
:1008E000655C6B6D5F646D615F6D616E61676572A4
:1008F0002E630000705F636F6E66696720213D2084
:1009000030000000705F636F6E6669672D3E737222
:1009100063203C205245534F55524345535F434F4C
:10092000554E5400705F636F6E6669672D3E73723B
:1009300063203E20444D415F525F44495341424C45
:10094000450000006368616E6E656C203C20434882
:10095000414E4E454C535F434F554E5400000000EE
:10096000494E544552525550545F4D414E414745B2
:10097000525F455F4F4B203D3D206973725F73743A
:100980006174757300000000705F68616E646C656F
:100990002D3E6368616E6E656C203E20444D415F64
:1009A0004348414E4E454C5F4E4F4E4500000000BF
:1009B000705F68616E646C65203D3D20705F6368A8
:1009C000616E6E656C2D3E705F68616E646C650073
:1009D000705F6368616E6E656C2D3E705F726573EB
:1009E0006F7572636520213D20300000705F747266
:1009F000616E7366657220213D203000705F636810
:100A0000616E6E656C2D3E66736C5F7472616E73A1
:100A10006665725F636F6E6669672E7372634164A9
:100A2000647220213D203000705F6368616E6E65E6
:100A30006C2D3E66736C5F7472616E736665725F77
:100A4000636F6E6669672E646573744164647220B7
:100A5000213D2030000000002830203D3D20705F07
:100A60006368616E6E656C2D3E7372635F6369725D
:100A700063756C61725F6C656E67746829207C7C3D
:100A8000202830203D3D2028282875696E74333297
:100A90005F7429705F7472616E736665722D3E704B
:100AA0005F7372632920262028705F6368616E6E11
:100AB000656C2D3E7372635F63697263756C6172FE
:100AC0005F6C656E677468202D203129292900002C
:100AD0002830203D3D20705F6368616E6E656C2D2F
:100AE0003E6473745F63697263756C61725F6C6599
:100AF0006E67746829207C7C202830203D3D2028AA
:100B0000282875696E7433325F7429705F7472615E
:100B10006E736665722D3E705F64737429202620A3
:100B200028705F6368616E6E656C2D3E6473745FE0
:100B300063697263756C61725F6C656E677468205F
:100B40002D20312929290000705F636F6E74726F48
:100B50006C6C657220213D2030000000705F63687E
:100B6000616E6E656C20213D20300000286B444D85
:100B7000415F4D6F64756C6F44697361626C652091
:100B8000213D207372635F6D6F64756C6F29207CEB
:100B90007C202830203D3D20705F6368616E6E656B
:100BA0006C2D3E7372635F63697263756C61725F13
:100BB0006C656E6774682900286B444D415F4D6F0A
:100BC00064756C6F44697361626C6520213D2064BB
:100BD00073745F6D6F64756C6F29207C7C20283086
:100BE000203D3D20705F6368616E6E656C2D3E64D4
:100BF00073745F63697263756C61725F6C656E6755
:100C000074682900705F66736C5F68616E646C6500
:100C100020213D2030000000286368616E6E656C05
:100C2000203E20444D415F4348414E4E454C5F4E6F
:100C30004F4E452920262620286368616E6E656C1C
:100C4000203C204348414E4E454C535F434F554E48
:100C500054290000705F66736C5F68616E646C6538
:100C6000203D3D2026705F6368616E6E656C2D3E91
:100C700066736C5F68616E646C650000000202015F
:100C80000102030102020401030205010002060140
:100C9000010207010202080103020901000210011A
:100CA00001021101020212010302130100021401E8
:100CB00001021501020216010302170100012001C1
:100CC0000101210102012201030123010001280188
:100CD00002023A0103023B0100FF3C0101FF3D011A
:100CE00002FF3E0103FF3F0105000000BD6B000055
:100CF00006000000396C000007000000B56C000021
:100D0000080000004D6D0000000000000000000021
:100D100010000000010000002000000002000000A0
:100D200040000000030000008000000004000000FC
:100D300000010000050000000002000006000000A5
:100D40000004000007000000000800000800000088
:100D50000010000009000000002000000A00000050
:100D6000004000000B000000008000000C000000AC
:100D7000000001000D000000000002000E00000055
:100D8000000004000F000000636F6E6669670000DA
:100D90002E2E5C2E2E5C6C69627261726965735CCA
:100DA0006E78705F6B6D785F6C6962726172696595
:100DB000735C646576696365735C4D4B4D33355A7E
:100DC000375C647269766572735C66736C5F706FB2
:100DD00072742E68000000000060044000F00F40B4
:100DE0000070044001F00F400080044002F00F400A
:100DF0000090044003F00F4000A0044040F00F407A
:100E000000B0044041F00F4000C0044042F00F40E9
:100E100000D0044043F00F4000E0044080F00F4059
:100E20000070034081F00F400080034082F00F40CB
:100E30000090034083F00F40DD8D0000358E0000F0
:100E4000018F0000358F0000638F0000CB89000008
:100E5000238A0000298B00005D8B0000918B00002D
:100E6000CD2B00003D2C0000BD2C0000F92C000013
:100E7000352D0000E31D00003B1E0000491F00004F
:100E8000751F0000A91F0000007005400000000051
:100E9000070000000C0000003F6E00000000000092
:100EA0000000000000800540000000000800000075
:100EB0000D000000B76E0000000000000000000000
:100EC0000090054000000000090000000E00000036
:100ED0002F6F0000000000000000000000C0034071
:100EE000000000001E01000023000000A76F0000AA
:100EF000000000000000000000D0034000000000DF
:100F00001E01000023000000A76F00000000000089
:100F10000000000000D00240010000000B020000B1
:100F200010000000892F00001D2F00004B700000F2
:100F300000E00240000000000B0200001000000072
:100F4000892F00001D2F00005D70000000E00240AE
:100F5000010000000B02000010000000892F0000BB
:100F60001D2F00006F7000000060034000000000B3
:100F7000050300000A00000081700000000000006E
:100F8000000000007469636B73203E203055000040
:100F90002E2E5C2E2E5C6C69627261726965735CC8
:100FA0006E78705F6B6D785F6C6962726172696593
:100FB000735C646576696365735C4D4B4D33355A7C
:100FC000375C647269766572735C66736C5F6C70B3
:100FD000746D722E6800000064656E203E20300043
:100FE0002E2E5C2E2E5C62617369635F706C61747F
:100FF000666F726D5C626173655F706C6174666F61
:10100000726D5C6D63755F68616C5C736F75726344
:10101000655C6B6D5F68775F74696D65725F6C703E
:10102000746D722E630000000000000001000000DB
:1010300000000000020000000100000004000000A9
:101040000200000008000000030000001000000083
:101050000400000020000000050000004000000027
:1010600006000000800000000700000000010000F2
:101070000800000000020000090000000004000059
:101080000A000000000800000B0000000010000033
:101090000C000000002000000D00000000400000D7
:1010A0000E000000008000000F00000000000100A2
:1010B00064656E203E2030002E2E5C2E2E5C626118
:1010C0007369635F706C6174666F726D5C6261738B
:1010D000655F706C6174666F726D5C6D63755F687F
:1010E000616C5C736F757263655C6B6D5F68775F75
:1010F00074696D65725F71746D722E63000000001B
:1011000008000000010000000900000002000000CB
:101110000A000000040000000B00000008000000AE
:101120000C000000100000000D0000002000000076
:101130000E000000400000000F00000080000000D2
:101140000000000303030303030303030303030378
:10115000030303030303030303030303030303035F
:101160000303030303000000F2F3FBFEFF00010290
:10117000030405060708090A0B0C0D0E0F101112C7
:10118000131415161718191A1B1C1D1E1F0000001A
:101190000002000100020100000200000002000045
:1011A0000000000203020001000201010002000031
:1011B000030200010402000000020400002D3101BE
:1011C000000480003020213D2063616C6C6261630B
:1011D0006B0000002E2E5C2E2E5C62617369635FD3
:1011E000706C6174666F726D5C626173655F706C68
:1011F0006174666F726D5C6D63755F68616C5C7362
:101200006F757263655C6B6D5F6D63755F6C766443
:101210002E6300003020213D20705F7370695F6392
:101220006F6E66002E2E5C2E2E5C62617369635FAA
:10123000706C6174666F726D5C626173655F706C17
:101240006174666F726D5C6D63755F68616C5C7311
:101250006F757263655C6B6D5F7370695F647269F3
:101260007665722E63000000696E7374616E63654B
:10127000203C204452495645525F434F554E54003E
:101280007370695F736C6176655F6964203C20539D
:101290004C4156455F4D41585F434F554E540000F9
:1012A0003020213D20705F72785F6275660000001B
:1012B0003020213D20705F74785F62756600000009
:1012C000444D415F535F50415353203D3D20646D79
:1012D000615F737461747573000000003020213DFC
:1012E00020705F646174615F7472616E73666572B1
:1012F000000000003020213D20705F68616E646C4A
:10130000650000003020213D20705F626173650040
:101310003020213D20705F6D61737465725F68617C
:101320006E646C65000000003020213D20705F730A
:101330006C6176655F73656C656374005350495FDB
:101340004E4F4E4520213D20705F736C6176655F86
:1013500073656C6563742D3E7370695F696E737439
:10136000616E6365000000004452495645525F4378
:101370004F554E54203E20705F736C6176655F73ED
:10138000656C6563742D3E7370695F696E7374611B
:101390006E636500006007400B0A0000000000005B
:1013A00009450000000000000000000000000000EF
:1013B00009450000000000000000000030203D3D15
:1013C00020696E697469616C697A65640000000067
:1013D0002E2E5C2E2E5C62617369635F706C61748B
:1013E000666F726D5C626173655F706C6174666F6D
:1013F000726D5C6D63755F68616C5C736F75726351
:10140000655C6B6D5F7761746368646F672E630002
:1014100074696D656F75745F6D73203E205741541C
:101420004348444F475F5441534B5F4D494E5F52D1
:10143000455345545F54494D455F4D5300000000EE
:101440005761746368646F67205461736B000000B8
:101450003020213D20705F62617365002E2E5C2E6E
:101460002E5C62617369635F706C6174666F726D2C
:101470005C626173655F706C6174666F726D5C6DE8
:1014800063755F68616C5C736F757263655C6B6DCF
:101490005F7069745F6D616E616765722E630000D5
:1014A0003020213D20705F636F6E66696700000029
:1014B0006368616E6E656C5F696E646578203C2060
:1014C0005049545F4142534F4C5554455F43484146
:1014D0004E4E454C5F4E554D424552003020213D09
:1014E0002073756269737200696E7374616E6365EF
:1014F000203C202873697A656F66287069745F6282
:101500006173657329202F2073697A656F662828B7
:101510007069745F6261736573295B305D292900AE
:1015200000D0024000E002400D003C100E003C10D4
:10153000305520213D20675F7874616C30467265BC
:10154000710000002E2E5C2E2E5C6C69627261723E
:101550006965735C6E78705F6B6D785F6C696272E1
:1015600061726965735C646576696365735C4D4B34
:101570004D33355A375C647269766572735C667395
:101580006C5F636C6F636B2E63000000305520212D
:101590003D20675F7874616C33324672657100007C
:1015A000675F7874616C304672657100675F78744C
:1015B000616C333246726571000000006D636770C4
:1015C0006C6C30636C6B00008002DC020005B805B7
:1015D00080079508000A710B6368616E6E656C2068
:1015E0003C202875696E7433325F742928342900D1
:1015F000433A5C4769745265706F735C4677526F0B
:101600006F745C456C6563747269636974794D6568
:10161000746572735C6C69627261726965735C6E29
:1016200078705F6B6D785F6C696272617269657307
:101630005C646576696365735C4D4B4D33355A3731
:101640005C647269766572735C66736C5F646D610D
:101650002E680000696E7374616E6365203C2028FB
:1016600073697A656F6628735F646D614261736543
:101670007329202F2073697A656F662828735F6449
:101680006D614261736573295B305D29290000003B
:101690002E2E5C2E2E5C6C69627261726965735CC1
:1016A0006E78705F6B6D785F6C696272617269658C
:1016B000735C646576696365735C4D4B4D33355A75
:1016C000375C647269766572735C66736C5F646DB7
:1016D000612E6300636F6E66696720213D203000D4
:1016E00068616E646C6520213D2030000080004000
:1016F0000100401000010203696E7374616E63653E
:10170000203C202873697A656F6628735F646D6179
:101710006D7578426173657329202F2073697A652E
:101720006F662828735F646D616D757842617365BB
:1017300073295B305D2929002E2E5C2E2E5C6C698E
:10174000627261726965735C6E78705F6B6D785FF1
:101750006C69627261726965735C64657669636500
:10176000735C4D4B4D33355A375C647269766572E4
:10177000735C66736C5F646D616D75782E630000D9
:101780000010024001003C102E2E5C2E2E5C6C6975
:10179000627261726965735C6E78705F6B6D785FA1
:1017A0006C69627261726965735C646576696365B0
:1017B000735C4D4B4D33355A375C64726976657294
:1017C000735C66736C5F6770696F2E630000000066
:1017D0003020213D20636F6E66696700696E737407
:1017E000616E6365203C202873697A656F66287393
:1017F0005F6C70746D72426173657329202F207362
:10180000697A656F662828735F6C70746D724261C7
:10181000736573295B305D29290000002E2E5C2E34
:101820002E5C6C69627261726965735C6E78705F60
:101830006B6D785F6C69627261726965735C646517
:1018400076696365735C4D4B4D33355A375C647212
:1018500069766572735C66736C5F6C70746D722E02
:10186000630000003020213D20636F6E66696700D1
:1018700000C0034000D003401C003C101D003C1081
:10188000696E7374616E6365203C202873697A65A4
:101890006F6628735F706462426173657329202FDD
:1018A0002073697A656F662828735F70646242618D
:1018B000736573295B305D29290000002E2E5C2E94
:1018C0002E5C6C69627261726965735C6E78705FC0
:1018D0006B6D785F6C69627261726965735C646577
:1018E00076696365735C4D4B4D33355A375C647272
:1018F00069766572735C66736C5F7064622E6300F8
:101900003020213D20636F6E6669670000600340F0
:1019100016003C10696E7374616E6365203C20286C
:1019200073697A656F6628735F71746D7242617353
:10193000657329202F2073697A656F662828735F85
:1019400071746D724261736573295B305D29290082
:101950002E2E5C2E2E5C6C69627261726965735CFE
:101960006E78705F6B6D785F6C69627261726965C9
:10197000735C646576696365735C4D4B4D33355AB2
:10198000375C647269766572735C66736C5F7174E0
:101990006D722E63000000003020213D20636F6EC9
:1019A00066696700007005400080054000900540B2
:1019B00000A0054017003810180038101900381022
:1019C0001A003810696E7374616E6365203C2028BC
:1019D00073697A656F6628735F73706942617365B6
:1019E0007329202F2073697A656F662828735F73C7
:1019F00070694261736573295B305D2929000000BD
:101A00002E2E5C2E2E5C6C69627261726965735C4D
:101A10006E78705F6B6D785F6C6962726172696518
:101A2000735C646576696365735C4D4B4D33355A01
:101A3000375C647269766572735C66736C5F737031
:101A4000692E63006669666F73697A65203E20308F
:101A50000000000028636F6E66696720213D20301A
:101A6000292026262028737263436C6F636B5F48BE
:101A70007A20213D203055290000000068616E6405
:101A80006C6520213D2030002868616E646C652003
:101A9000213D2030292026262028786665722021C5
:101AA0003D20302900000000005007400060074042
:101AB00000700740040404001500341016003410B0
:101AC000170034103020213D20636F6E6669670077
:101AD0002E2E5C2E2E5C6C69627261726965735C7D
:101AE0006E78705F6B6D785F6C6962726172696548
:101AF000735C646576696365735C4D4B4D33355A31
:101B0000375C647269766572735C66736C5F776468
:101B10006F672E6300000000464C4153485F4452FB
:101B2000495645525F535F50415353203D3D206617
:101B30006C6173685F737461747573006D61696E55
:101B40002E630000666C6173685F737461747573F3
:101B5000203D3D20464C4153485F44524956455232
:101B60005F535F50415353004D61696E2054617360
:101B70006B00000000040000010000000A003810A3
:101B800000080000040000000E00381001080000EA
:101B9000040000000E0038100707000003000000DA
:101BA0000D00381006070000010000000D0038107D
:101BB0002000000000020000010100000048E801D0
:101BC00000000000E0C9FF1F11330000E0C5FF1F47
:101BD000000400006400000053454747455220655B
:101BE0006D624F532056353136303175000000009C
:101BF00091C90000D81B000008181C20242C0004E8
:101C00000C1014181C24282C3034FFFFFF444546C8
:101C100000B5010049B2002905D40121C206D20E47
:101C20009140BF4A116000BD00B5010049B20029D2
:101C300009D40121C206D20E9140BA4A1160BFF305
:101C40004F8FBFF36F8F00BD38B504000025200013
:101C50007F21C94340B2884202D10120050003E040
:101C6000200040B2FFF7D4FF280032BD38B5040091
:101C7000002520007F21C94340B2884202D10120C3
:101C8000050003E0200040B2FFF7CEFF280032BD80
:101C900000B50A00D2B2002A04D0026880231343A0
:101CA000036003E0026880239A43026000BD01687C
:101CB000802252020A4302607047016801220A43EF
:101CC0000260704738B505000C0097482040002896
:101CD00005D0FF227C329549954800F06FF92868BD
:101CE0002043286031BD38B505000C008E482040E7
:101CF000002805D0C42252008C498D4800F05EF9BE
:101D00002868A043286031BD38B505000C002000CC
:101D100040218843002805D0FF22A232834985480C
:101D200000F04CF92868A043286031BD8AB24260B7
:101D300070478AB2C2607047F2B5010002200023EA
:101D40001C00122C16D27C4DE600AE1976680F6886
:101D5000BE420DD3E600AE5D009F3E70E600AE19B8
:101D600076781670E600AD196D680D60180001E018
:101D7000641CE6E7C0B2F2BDF4B507000E00300007
:101D800000213A00002300F02BF96C4A002300F0F8
:101D900040F90500012400988440641E002C04D101
:101DA00061226749674800F009F92800210000F026
:101DB00087F9401CF2BD10B502000220002902D1B3
:101DC000002318000BE05D4B9A4202D30023180059
:101DD00005E00C0054439C4201D300231800C0B21C
:101DE00010BD70B504000D0001200600002C01D1CB
:101DF00006000AE02168002901D0060005E02069FC
:101E0000407A032801D1002006003000C0B200282B
:101E100010D100206072A8682060E86860602878AF
:101E20002072022000F008FBE0606968200000F0EA
:101E300004F806003000C0B270BDF0B587B00500F0
:101E40000F00012420006946087010223900E8685C
:101E5000FFF792FF0390687A694608723900E868D4
:101E6000FFF7A9FF06003000C0B2002807D102AA80
:101E7000521C02A9891C03A8FFF75EFF0600300070
:101E8000C0B2002847D16846007A012802D1280054
:101E900000F070F805A800F0A6FD002005A9087064
:101EA0006A46927A4A706A46527A8A700F22CA70DB
:101EB0002A7A012A01D10C7100E008713800002152
:101EC00000900191E868039900F0FAF802000023FD
:101ED0000098019900F084F8184A002300F099F85E
:101EE000049005A92869006800F045FD0499286957
:101EF0000068FFF71BFF049928690068FFF719FFC6
:101F000028690068FFF7D9FE6846007A012802D1E7
:101F1000280000F019F83000C0B207B0F0BD000092
:101F200000E100E080E100E0DFFFFDFF3804000099
:101F3000100400007C040000E004000040420F0098
:101F40009C0400009404000038B504000025012022
:101F5000607220690068FFF7AAFE202120690068EE
:101F6000FFF7B0FE206908214056FFF76DFE2800FC
:101F7000C0B232BD70B5040000252E00607A002882
:101F800004D1206908214056FFF770FE2021206906
:101F90000068FFF7A8FE002120690068FFF778FEBF
:101FA00065723000C0B270BD10B5040040212069D8
:101FB0000068FFF7A9FE002010BD001000B583B037
:101FC0000091019202906A4604491820ABBE002895
:101FD00001D100F033FD03B000BD00BF10100200BE
:101FE00030B4434351435D18010C0C00130C5C43A7
:101FF0002D1980B2434392B251430024C918644161
:1020000024040B04090C09195043C018694130BC61
:10201000704712422DD0994231D970B500251B422C
:1020200009D00C00002112E0110000F049F80A006C
:102030000021002370BD0942F6D000240126491872
:102040006441944200D3A41A7641F8D331000126AA
:1020500001E0764109D2001864416D41A41A9D4106
:10206000F7D2A4185D41B619F5D3300022002B0039
:1020700070BD1B42CFD108B500F0E6FC08BD01D110
:102080009042CAD202000B00002100207047F446A3
:10209000002804D4494200F013F84042604740420F
:1020A000002905D45FD000F00BF840424942604758
:1020B000494200F005F84942604703460B43E6D425
:1020C0000022030A8B420BD203098B4219D2430828
:1020D0008B422ED2411A00D201465241104670471F
:1020E000FF2209023FD012068B4205D312120902C9
:1020F0008B4201D31212090203098B4219D300E06B
:10210000090AC3098B4201D3CB01C01A524183098A
:102110008B4201D38B01C01A524143098B4201D338
:102120004B01C01A524103098B4201D30B01C01A63
:102130005241C3088B4201D3CB00C01A52418308DD
:102140008B4201D38B00C01A524143088B4201D30A
:102150004B00C01A5241884200D3401A5241CFD29C
:1021600001461046704708B500F070FC08BD00023B
:1021700010B471490A689C4B13408204C0242403A4
:1021800014401C430C6010BC704710B480490A68AE
:10219000984B13400204C024A40214401C430C605A
:1021A00010BC704702785F2313400A781A4302700C
:1021B00070470278F02313400B430370704710B54B
:1021C0008A480078C0B20100C907C90F002902D0AF
:1021D00001290BD015E0864C2068002804D1DA22B2
:1021E00085498648FFF7EAFE20680BE0844C2068AA
:1021F000002804D1DF2280498A48FFF7DFFE2068EB
:1022000000E0002010BD70B5FFF7D9FF7D490978C7
:10221000C9B2C9084C07640FE0407B490978C9B2CC
:1022200009098D07AD0F714909780E00F607F60F01
:102230002900C9B2002919D03100C9B2002915D12D
:102240002100C9B20029052904D9891F04D0491EDB
:1022500006D009E0400909E01421FFF731FF05E04D
:102260000C21FFF72DFF01E00021080070BD00B533
:102270006D480078C00702D46C48006808E06C48DC
:1022800000686C490978C9B249084907490FC84034
:1022900000BD80B564480078C0B20100C906C90F0E
:1022A000002902D1FFF7AFFF01E06048006802BDDE
:1022B00038B54E480078C0B285092800C0B2002861
:1022C00003D0022810D00CD311E04D4C2068002818
:1022D00005D1FF224A3248495248FFF76FFE206875
:1022E00006E05248006803E0FFF78DFF00E00020A1
:1022F00032BD00B501008748814201D2002005E0CF
:102300008548814201D2012000E00220C0B200BD18
:1023100010B58248007800060BD5354C206800289F
:1023200005D1BD22520034498B48FFF747FE206893
:1023300000E0002010BD000000E0034010B5874819
:102340000068800C8007800F002805D0022817D075
:102350000ED3032816D018E0294C2068002805D198
:10236000C922520024499248FFF728FE24680DE054
:1023700080242402FFF7CCFFA04200D0002405E017
:10238000082403E0FA24A40000E00024200010BD8B
:1023900004F0034038B503248B480068000C20404B
:1023A000002805D0022809D005D3032816D018E04C
:1023B00000F0D6F816E000F018F913E000F0B0F8DD
:1023C000944D2968090F491CFFF77AFE2968090E08
:1023D0000C40641C2100FFF773FE03E0FFF7AEFF23
:1023E00000E0002032BD0000FFFFF3FF0C4006407C
:1023F000B0C5FF1FFFFFFCFF4415000030150000B3
:10240000B4C5FF1F004006400140064080B500F003
:1024100087F880490968090F491CFFF751FE02BD82
:10242000000000008C1500000640064080C1FF1F20
:1024300084C1FF1F0840064038B504002000C0B228
:102440000028012814D9801E1BD0401E29D0401E10
:1024500039D0401E3AD0401E4AD0401E39D0401ECE
:102460003AD0401E3BD0401E3CD0C01E3DD042E082
:1024700000F056F867490968090F491CFFF720FE6C
:102480003AE000F04DF8634D2968090F491CFFF749
:1024900017FE2968090E8907890F491CFFF710FEEE
:1024A0002AE000F03DF85B4D2968090E8907890F85
:1024B000491CFFF705FE2A681100C903C90F491C12
:1024C000FFF7FEFD18E0FFF765FF15E0FFF736FFA9
:1024D00012E000F07BF80FE000F06CF80CE000F088
:1024E0003FF809E000F081F806E0FA20800003E000
:1024F000FFF70EFF00E0002032BD10B50400606859
:10250000444908602078FFF740FE6078FFF730FE0E
:1025100010BD00009898000001127A00006006408B
:1025200010B578480078C0B280088407A40F002C4A
:1025300007D0022C0BD007D3032C0BD100F055F899
:1025400009E000F00DF806E0FFF791FE03E0FFF769
:1025500036FE00E0002010BDA015000000E00340A2
:1025600070B569480078800703D466480078800613
:1025700001D500201AE0FFF78CFE0600002E01D1E5
:10258000300013E061480178C9B249098907890F11
:102590000C000078C00905005D482100C9B289001F
:1025A00040182900C9B24900405A704370BD00006C
:1025B000AC15000080B557480078800701D4002092
:1025C00001E0FFF754FE02BD04F0034010B5FFF731
:1025D00060FE0400FFF7A4FFC008A04203D3002C54
:1025E00001D0200000E0002010BD10B54548007863
:1025F000400601D400200CE0FFF75AFE0400002C36
:1026000004D1454A45495B48FFF7D8FCFF207830A4
:10261000604310BD44F0034070B502000120404B00
:102620001C7804401500EDB2AC4201D0040000E07B
:1026300000241D78FE262E401040304318702000E4
:10264000C0B2002807D04C4801000800411E0028F5
:1026500001D000BFF9E7002070BDF7B5020029489E
:1026600003789B089B079B0F0193012304781D00AF
:1026700025406C4665703E4C2578EDB26D086D07BF
:102680006D0F6E4635706D462D7A6E463678B542C2
:102690001CD0204D2D78AD0702D4019D012D0BD10A
:1026A0006D466D78012D07D1174D2E78FE273740E6
:1026B0002F700578ED07FCD42678D02535406E467E
:1026C000367A76000E2737402F4327700E4C257838
:1026D000FE262E401D000D40354325700D4C2578FB
:1026E000FC262E4016432670019C012C01D0940735
:1026F00005D504781C400D00EDB2AC42F9D10020A4
:10270000FEBD000006400640014006400340064072
:10271000C815000000400640F70200004415000004
:102720000C40064070B504002068FFF7E2FD06008B
:10273000314D21792800FFF73CFD30480178C32254
:102740000A40310130230B40134361791943017072
:10275000A11D2800FFF726FD6079002806D0287803
:10276000000603D5054800788007FBD570BD000042
:1027700008400640BC150000DC050000064006408D
:10278000F7B500244B480578012249490B781B090D
:102790001340002B05D113001C00037820265E4057
:1027A0000670454B1F783B263E40042737431F7079
:1027B0000B781B091340002BFAD02200D2B2002A5A
:1027C00000D00570EB06DB0E6A461278D2011A4380
:1027D0006B461B795B0160261E4016430670087825
:1027E00080088007800F0028F9D10298002801D0C6
:1027F000029880470020FEBD006006400140064070
:10280000FFB581B00020694608702A48037801248A
:1028100027490A7812092240002A06D022006D4674
:102820002A7002782025554005700322224D2E780B
:1028300017003740BC466E463679F70038263E40D2
:1028400067463E432E701D4D2D78ED0706D41C4D76
:102850002D786D0702D50D78AD07FCD50D782D09C3
:102860002540002DFAD16C462478002C00D003704E
:10287000DC06E40E6B461B7ADB0123436C46247BAB
:10288000650160242C401C43047003782500EDB2E0
:10289000AB42FAD10878800810400028FAD1049899
:1028A000002801D004988047002005B0F0BD00004A
:1028B0000640064003400640004006400C400640EB
:1028C0000140064070B506000D0014001248017862
:1028D000FD220A40027022002900C9B23000C0B2B5
:1028E000FFF74EFF70BDF1B50F0016001D00069CEE
:1028F00009480178FD220A40027068460078FFF717
:102900008BFE23002A00D2B23100C9B23800C0B217
:10291000FFF776FFF2BD000001400640010C404A7F
:1029200089180A680123834013430B60704700B580
:102930000A00D2B2002A04D0026880231343036045
:1029400003E0026880239A43026000BD38B50500A9
:102950000024002C06D13348A1004058A84201D0E1
:10296000641CF6E7002C04D034222F492F48FFF7CF
:1029700025FB200032BD70B506000C00002C04D1F0
:10298000462229492A48FFF719FB3000FFF7DEFFEE
:10299000284980000858FFF7C1FF316826480840E1
:1029A00021788904C02212030A40024360780003A0
:1029B000E021C90101401143E0780002F022120138
:1029C00002400A43A07880000C2505401543207979
:1029D000002802D02800022505433560012130007F
:1029E000FFF7A5FF70BDF8B50400002C04D17D22CF
:1029F0000D490F48FFF7E2FA05250026009627004B
:102A0000009A2900380000F023F8300020703000D0
:102A100060703000A0700F20E0702671F1BD0000E2
:102A200000E003400C190000BC18000080180000F2
:102A30000019000010190000F180F3FF80B501209B
:102A400000F030F801BD000170472000704794117C
:102A50001206130A1A43130C1A4300BF094205D089
:102A6000830707D00270401C491EF9D1704700004F
:102A70000022FFE71300103906D330B4140015000C
:102A800010393CC0FCD230BC490700D30CC000D583
:102A900004C0890002D30280801C002900D5027086
:102AA0007047581B80B500BF00BF024A11001820B4
:102AB000ABBEFBE72600020010B50400002C04D1D9
:102AC0006B227A497A48FFF779FA0020207010BD0E
:102AD00030B40B00DBB21B01C318842464001B5903
:102AE00013430C00E4B22401041984256D006351E2
:102AF00030BC704730B40B00DBB21B01C318842418
:102B000064001B5993430C00E4B22401041984258A
:102B10006D00635130BC704710B40B00DBB21B0179
:102B2000C318862464001A5110BC704770B50600A3
:102B30000D001400002C04D1F8225C495D48FFF719
:102B40003DFA601E2900C9B20901711880225200A5
:102B5000885070BD10B40A00D2B2120182188423CA
:102B60005B00D258012313430A00D2B2120182182B
:102B700084246400135110BC704710B40A00D2B210
:102B80001201821884235B00D25801239A430B0060
:102B9000DBB21B01C318842464001A5110BC7047B7
:102BA00010B502000220002902D1002318000BE01A
:102BB000414B9A4202D30023180005E00C00544315
:102BC0009C4201D300231800C0B210BD7CB50400A4
:102BD0000D0001200600002C01D106000AE021684A
:102BE000002901D0060005E02069407A022801D1C1
:102BF000002006003000C0B200281CD10020607206
:102C0000A8682060E8686060287820720220FFF7DA
:102C100013FCE0606846FFF74FFF0023206942681D
:102C2000D2B269462069006800F0E3F869682000C4
:102C300000F004F806003000C0B276BDF3B581B0F4
:102C400005000026687A694608700299E868FFF76F
:102C5000A7FF07003800C0B2002824D168460078DA
:102C6000012802D1280000F047F802980021EA6804
:102C70000023FFF7B5F9104A0023FFF7CAF900282F
:102C800001D1012400E00400220028694168C9B292
:102C900028690068FFF74AFF68460078012802D1DA
:102CA000280000F00BF83800C0B2FEBD7C05000023
:102CB00070050000C005000040420F0038B5040058
:102CC00001200500607220694168C9B2206900686E
:102CD000FFF740FF022220694168C9B220690068FD
:102CE000FFF7F6FE20694168C9B22069006800F06C
:102CF000CAF80020C0B232BD70B50500002426001D
:102D000028694168C9B22869006800F0E0F8022229
:102D100028694168C9B228690068FFF7EBFE286995
:102D20004168C9B228690068FFF727FF6C7230005C
:102D3000C0B270BD10B50400012220694168C9B25B
:102D400020690068FFF7E8FE002010BD00B5010013
:102D500049B2002905D40121C206D20E9140834A0E
:102D6000116000BD00B5010049B2002909D401215C
:102D7000C206D20E91407E4A1160BFF34F8FBFF35F
:102D80006F8F00BD010C7B4A89180A6801238340BC
:102D900013430B60704738B50400002520007F21E5
:102DA000C94340B2884202D10120050003E020005F
:102DB00040B2FFF7CBFF280032BD38B50400002534
:102DC00020007F21C94340B2884202D10120050082
:102DD00003E0200040B2FFF7C5FF280032BDC9B2B2
:102DE000090140188621490041580800C007C00F5A
:102DF0007047F8B504000F001500002C04D15922CB
:102E00005D495E48FFF7DAF8002F04D15A225A498B
:102E10005B48FFF7D3F8200000F01CF95949800007
:102E20000858FFF7AFFF2068022188432060280080
:102E3000C0B200012018842149004058072188436E
:102E40002900C9B20901611884225200885020006B
:102E500000F000F98A4E69460978305C814211D34E
:102E6000200000F0F7F869460978315438780128D5
:102E700004D1206801218843206003E020680121FB
:102E800001432160F1BD70B506000D002900C9B2F3
:102E9000300000F0F7F804002000C0B2042804DB82
:102EA0008A2235498B48FFF789F88B482100C9B23F
:102EB000415C00290AD101212200D2B28154874805
:102EC0000178491C01700B20FFF765FF70BD70B5DC
:102ED00006000D002900C9B2300000F0D3F804004C
:102EE0002000C0B2042804DB982223497948FFF768
:102EF00065F879482100C9B2415C01290DD1002152
:102F00002200D2B2815475480178491E01700078C0
:102F1000002802D10B20FFF750FF70BDF8B5060066
:102F20000F001500002E04D1A82213491348FFF703
:102F300045F82800002804D1A9220F496848FFF766
:102F40003DF83900C9B2300000F09CF804002000C0
:102F5000C0B2042804DBAC2207495E48FFF72EF814
:102F600060482100C9B289004550F1BD00E100E090
:102F700080E100E000E003405C1400005014000019
:102F8000A01400002815000070B5574C7020205C7C
:102F9000002802D1A52000F00AF926006F366F2024
:102FA000205C401C30702078401C207000F05AFAE1
:102FB0004C4D2868002807D000214C48FFF70FFF30
:102FC000002801D0286880476868002807D00121C0
:102FD0004648FFF704FF002801D068688047A868CA
:102FE000002807D000214248FFF7F9FE002801D051
:102FF000A8688047E868002807D001213C48FFF70F
:10300000EEFE002801D0E868804772B620780128DB
:1030100010D1606800280DD06F20205C002802D1FC
:10302000982000F0C4F86F20205C401E307000F043
:10303000CCFD0AE06F20205C002802D1982000F02F
:10304000B6F86F20205C401E30702078401E207043
:1030500062B670BD38B505000024022C06D22548A2
:10306000A1004058A84201D0641CF6E7022C04D30A
:10307000E02221492148FEF7A1FF200032BD0000D7
:103080006ACAFF1F00B502001848824205D10B0032
:10309000DBB2002B01D1002019E0824205D10800EB
:1030A000C0B2012801D1012011E01148824205D1AE
:1030B0000B00DBB2002B01D1022008E0824205D1D7
:1030C0000800C0B2012801D1032000E00420C0B2F2
:1030D00000BD0000B01400004CC5FF1F73CAFF1FE5
:1030E000DC14000050C5FF1F98C1FF1F00D0024034
:1030F00000E00240201500005C140000E81400000D
:10310000F0B5020052B2002A17D418228F4B0400E7
:1031100064B2A408A4001C59FF25C6001640B5409F
:10312000AC438D01EDB2C60032409540254302000C
:1031300052B2920892009D501BE00F22B04B18240F
:1031400005006DB21540083DAD08AE0005006DB23A
:103150002A40083A920892009A58FF25C700274053
:10316000BD40AA438D01EDB2C7003C40A5401543C8
:103170009D51F0BD10B50400601E802149048842B5
:1031800001D301200EE0601E9E490860032100204B
:10319000C043FFF7B5FF00209B49086007209B490B
:1031A0000860002010BD000000B530BFFDE700B58D
:1031B00097490A78521C0A709649088000228A5E54
:1031C000002AFBD100BD38B5914C7020205C00284E
:1031D00002D1A520FFF7EBFF25006F356F20205CA3
:1031E000401C28702078401C207000F03BF900F053
:1031F0000DFD89480168FA229200914207D2874961
:103200000978002903D10168491C016004E001210B
:10321000824A11700021016072B62078012810D115
:10322000606800280DD06F20205C002802D1982013
:10323000FFF7BDFF6F20205C401E287000F0C5FC2A
:103240000AE06F20205C002802D19820FFF7AFFF32
:103250006F20205C401E28702078401E207062B6CF
:1032600031BD000000B500BFFDE7F0B585B06C488A
:10327000006802906B480068009000273C00200026
:10328000C0B204280AD202A967482200D2B20C2395
:103290005A43801800F033FD641CF0E7624C694625
:1032A0002000243000F02BFD604803C803AA03C2AD
:1032B000083A01A807702521615C41702421615CF6
:1032C0008170012203A93800C0B200F0DFFD01A81F
:1032D00001F088F9040056492000C0B201F0C8FA94
:1032E00006003000C0B2002804D09A22514952484A
:1032F000FEF764FE01F09AFB05002800C0B200282A
:1033000004D09C224B494D48FEF758FE05B0F0BD55
:103310007CB50120694602000A7000268E70487054
:10332000474C6946200000F0EAFCFFF79EFF3B4D4A
:103330002878002804D02178607800F06DFD2E7088
:10334000FA25280001F06EFCF1E7000000E400E03F
:1033500070B586B001F067FD03223A49042001F000
:1033600086FD03223849032001F081FD042001F08D
:10337000B0FD032001F0ADFD0024250033490020FD
:1033800001F05BFE224E7078102802D39920FFF7DF
:103390000EFF72B67078401C707000F009FB0122BD
:1033A0002B49012001F029FF68460470FFF72EF831
:1033B000FA218900FEF784FEFFF7DCFE002800D02A
:1033C000FEE768460078002804D100220021214849
:1033D00001F072FF01A82049142201F0DFFF01A9CA
:1033E0001E4802F002F802F02FF81D49884202D070
:1033F000FD20FFF7DCFE00F02FFB06B070BD0000E3
:103400001CED00E014E000E018E000E010E000E057
:1034100098C1FF1F6CCAFF1F28CAFF1F74CAFF1F75
:10342000B41B0000B81B0000801B0000BC1B000088
:10343000BA3A00003C1B0000181B0000441B0000AF
:10344000741B0000C7310000BD3A0000002D31019F
:103450006532000010270000C41B0000681B00003C
:1034600091C9000080B502F001F8002806D00228BA
:1034700006D00CD3042805D004D305E0A32004E033
:10348000A62002E0A72000E0A820FFF790FE01BDE3
:10349000F8B50027994C67700120207072B6606BF8
:1034A00021007131009100280AD06178491C6170B7
:1034B00080476763A76300990F706078401E607053
:1034C00062B601F0DDFF0078CD2802D07D20FFF745
:1034D0006EFEA068002815D0C06A0078CD2802D002
:1034E0007820FFF764FEA06800280BD0050038356F
:1034F0002968002906D040682968096888476D68EE
:10350000002DF9D100988078002800D1D9E00098EA
:103510004078A168452288542079002800D1D0E065
:1035200072B6A068277162B6002800D1C8E00168B1
:10353000002900D1C4E002690B69934200D0BFE0CA
:103540000B68002B00D1A7E01D69954200D0A3E0D5
:103550001900F5E7216B411A00D52063FB203040AC
:1035600010280AD1A868806840684421415C00297D
:1035700003D100692969884218D12868E06162B6E0
:1035800072B6E569002D36D044202E5C002E32D074
:103590007007E3D5E868E16A411A0029DADC2800FF
:1035A00000F082F94420285C0028D7D172B622E0CE
:1035B000E069002803D02969006981421BD30420F7
:1035C0004421695C014211D0E868E16A401A002890
:1035D00007DC280000F068F972B64420285C002857
:1035E00009D0E868216B411A00D5206362B62D68C6
:1035F000002D72B6DCD1607900280CD06771E06ACA
:10360000A84940182063A16A002901D020008847FA
:1036100062B6A569ECE76760E669002E33D0442006
:10362000305C00280ED0B06880684568280000F043
:10363000B1F930692861012060703100280000F084
:10364000F2F8E561E069A0604721405C0F2802D0F4
:103650008020FFF7ACFDA0680500383529680029F7
:1036600006D040682968496888476D68002DF9D1FF
:10367000A0684521415C009A5170009A9170016BDD
:10368000491C016306E000998F7000994F70A76094
:10369000277062B62000F2BD72B60268E369834209
:1036A00000D1E261036A1A60136201620A68026073
:1036B000002A00D01062086008004530417801708F
:1036C00062B6A068002806D04421415C002902D1DE
:1036D000416B491C4163E069002800D166E74FE770
:1036E00010B5040003E02068C06800F0DDF872B691
:1036F00020680028F7D1014C00F0D4F998C1FF1FD1
:103700006078102802D39920FFF751FD60780028D7
:1037100000D162B631BDF8B505000026A24C607834
:10372000102802D39920FFF742FD72B66078401C42
:103730006070042711E02868C0684421405C38426A
:1037400007D0E06A2968C968C968081A012800DA40
:1037500001262868C06800F0A7F828680028EAD188
:103760006078102802D39920FFF721FD6078401E71
:1037700060706078002800D162B63000F2BD38B5C4
:10378000894C2578681C2070200000F012FA257002
:10379000B6E780B584B002900190834A93680393A2
:1037A00072B6036800936B4603600098002802D04D
:1037B0006846009B586090686A4682604422815443
:1037C000FFF7DDFF05B000BD10B584B00290019099
:1037D000754CA368039372B6A368DA60E36AD21AE1
:1037E000012A0ADA6078102802D39920FFF7DFFC5B
:1037F0006078002815D162B613E0026800926A462C
:1038000002600098002802D06846009A506068461E
:10381000A268906004200843A16844228854FFF7FE
:10382000AEFF04B010BD70B505000C00286900287B
:1038300002D1CB20FFF7BBFC5B4E3078401C3070D0
:103840002869002C0DD0216829602C622560002990
:1038500013D00D622A004432096981420BD190785D
:103860000AE03400183421680029EDD00A6990423A
:10387000EAD20C00F7E7002050704420285C0028B2
:103880000DD172B6280000F00FF87078102802D31E
:103890009920FFF78CFC7078002800D162B601F007
:1038A000F7F970BDFFFFFF7F38B505003E4CA868F3
:1038B000002804D0E06AE860280000F036F84420D0
:1038C000285C8007800F4421685400282CD1E069CF
:1038D000002817D1E56101202178002906D1207048
:1038E000200000F066F90020207000E06071607830
:1038F000102802D39920FFF75AFC6078002813D1D2
:1039000062B631BD296902698A42E3D3A842E2D096
:10391000914209D12A001268002AE8D0136999421D
:10392000E5D18242F7D1D5E731BD8268116852688E
:10393000002900D04A60116000218160704770B595
:1039400001F09EFD0600194DE868446801F09AFDFB
:103950003018021BE868016B914204D32100C06A51
:1039600001F036FD70BDFB20FFF721FC70BD80B576
:103970004548816E002903D0826891630021D1639C
:10398000406E002800D0804701BD80B59B20FFF726
:103990000EFC01BD0168026A11600168002901D0B6
:1039A000006A08627047000098C1FF1F98C1FF1F9E
:1039B0007CB53648006801785329FDD134488079B8
:1039C0000028FBD13348006834498842FAD12E4C94
:1039D00033482063012530488561C5618562C56231
:1039E000056245626E20205C00280FD001280AD1B4
:1039F000606A00280AD1A068002812D020006E302A
:103A0000407800280DD1E320FFF7D1FB606A002841
:103A100007D020006E304078002802D1A120FFF7A7
:103A2000C6FB01F023FD012802D1A020FFF7BFFB58
:103A300001F034FD257001F023FD060001F02CFD9E
:103A400001003000091A203902D0CD22FFF700F81A
:103A500020006E30857073BD38B50B4D2C006E3470
:103A6000A078002802D1A520FFF7A1FB72B66E2036
:103A7000285C002802D0E420FFF799FB0120207089
:103A800000F064F831BD000098C1FF1FF41B000076
:103A9000F81B0000F01B00002CCAFF1F91C900009A
:103AA000FFFFFF7F6078102802D39920FFF77FFB8C
:103AB0006078002800D162B610BD010145488168D8
:103AC000002901D108B00CD0EFF30982283A4A60EE
:103AD0000368F8C243464C4655465E4678C2734674
:103AE00008C23D4988478168002917D04A681432C6
:103AF00078CAB346AA46A146984608CA9E46283ABE
:103B0000F8CA0360143282F3098890693349884205
:103B100002DB334A904200DB62B6704731483249DB
:103B20000968401A80F308883049C16130498161D1
:103B30000621C9438E46704701BC2E488047204667
:103B400002BC884702BC8E462B4908472148C06802
:103B500000280CD0EFF314816A4673467EC03946C4
:103B600042464B4654465D463EC024488047244862
:103B70001D490968401A0721884380F308880021FD
:103B80001448417062B61F491F4A0A60FEE7114897
:103B9000C06818303EC80F4690469946A246AB46CC
:103BA0002C387EC881F31488BFF36F8F95469E46EC
:103BB000704703680CB40021417062B61149124A83
:103BC0000A6000BF0CBC036070470E490E4A0A60D1
:103BD0007047000098C1FF1F91340000B33B000004
:103BE000C93B000058CEFF1FB01B000000000001C1
:103BF000A93100006F3900008B3900003F39000007
:103C000078CEFF1F04ED00E00000001038B501F091
:103C10002DFC012802D0A220FFF7C9FA244C01F0A4
:103C200025FC012806D16F20205C002802D1A420A9
:103C3000FFF7BDFA1F4D6868012803D080204000BF
:103C4000FFF7B5FAA868012803D080204000FFF7ED
:103C5000AEFAA06B002805D0012022006F329070D0
:103C600060711BE0E26A521CE2622000103003C85F
:103C70000023401C59412300103303C3206B101A4A
:103C800001D40120607120006F30C178002905D077
:103C9000491EC170090601D101202071646CFFE743
:103CA00002E0606880472468002CFAD131BD000032
:103CB00098C1FF1F88C1FF1F010C5E4A89180A685E
:103CC0000123834013430B60704770B506000D005D
:103CD0001400002C05D1FF22123257495748FEF735
:103CE0006DF9A80030182188018070BD0A000271AA
:103CF00070470A00027270470A0002737047F1B5FC
:103D000082B00E00022529000024220000AFBF1C53
:103D10003800FEF79DFE290022006F463800FEF7AE
:103D200097FE02988068FFF7C7FF7078002808D0D8
:103D3000012808D100A8801C012101703178417050
:103D400001E068468470B078012806D16846008892
:103D5000032101436846018010E0B078022807D1B2
:103D600068460088364901400D436846058005E0F5
:103D7000684600883249014068460180F078012891
:103D80000AD1684600882F490140F078400120227E
:103D90001040084369460880684600882A49014067
:103DA000029840680002E022D20002400A436846BE
:103DB0000280264C00AA921C029801780298407852
:103DC000C0002018406801F0A0FB6A460298017804
:103DD00002984078C0002058FFF777FF0020FEBD12
:103DE00038B504000D000121A94018482200D2B2C4
:103DF000D20080184068FFF77CFF31BD38B5040061
:103E00000D000121A94011482200D2B2D200801831
:103E10004068FFF76BFF31BD38B504000D0001218C
:103E2000A9400A482200D2B2D20080184068FFF7A9
:103E300063FF31BD00E00340900D0000880D0000DD
:103E4000FCFF0000DFFF0000FFF80000D80D0000BD
:103E500000B50A00D2B2002A04D0C278402313432E
:103E6000C37003E0C278BF231340C37000BD00B528
:103E70001300DBB2002B03D083780B43837002E086
:103E800083788B43837000BD801D7047F6B585B085
:103E900006000F00002F04D18B2294499448FEF7AE
:103EA0008DF8300093490978C0B2884204D38C223F
:103EB0008E499148FEF782F80024009402228F492F
:103EC000092000F0D4FF092001F003F838680490BD
:103ED000012501A8290001702100417039790029CC
:103EE00002D0012903D004E02100817001E0290003
:103EF00081707979002902D0012903D004E02100E2
:103F0000C17001E02900C170B979002902D00129EE
:103F100003D004E02100017101E0290001712100BA
:103F20004171210041722100017229008171290033
:103F3000C1710020FEF780FA0090009A01A9704834
:103F40003300DBB2DB00C05801F0BAFC6846007EEB
:103F5000012809D13000C0B200F084F9022069497B
:103F60003200D2B2885418E03300DBB2664A6748A8
:103F700084463100C9B224204143604641188C4632
:103F80005F493000C0B2C0000858614601F00CFE25
:103F900028005C493200D2B288545D483100C9B271
:103FA0000901401801F046FFA6483100C9B20901D5
:103FB000401801F045FFA448017800290ED1057092
:103FC0002000C0B2022809DAA0480078A0492200E7
:103FD000D2B203235A438854641CF1E7002007B08F
:103FE000F0BDFFB587B06846007F9A4909788842DE
:103FF00004D3ED223D499848FDF7E0FF08980028DA
:1040000004D1EE2239499548FDF7D8FF904E684615
:10401000007F03214843305C6946087002A81021E4
:10402000FEF726FD089803906846808C0490854C26
:104030006846007800012518280001F09DFF3148EE
:1040400069460978405C022806D102A968460078D2
:1040500000F0A4F905000EE002AA2C486946097890
:1040600024235943411826486B461B78DB00C0586F
:1040700001F0CFFD05007A4F25486946097809010E
:10408000401801903900019802F072F8002801D11F
:10409000002000E00120C0B2012801D10520050068
:1040A000002D11D10AA8007801280DD16846007FA3
:1040B00003214843301881786846007F032250432B
:1040C00030184078FFF79AFE6846007800012418FF
:1040D000200001F097FF052D01D1022004E0002D02
:1040E00001D0012000E000200BB0F0BD2412000040
:1040F000141200007D92000068120000814600004A
:104100009413000034C4FF1FA545000068C3FF1FBF
:10411000D4C3FF1FFFB587B0070038004D490978A9
:10412000C0B2884205D3FF22243298494A48FDF79D
:1041300045FF0898002805D19222520093499448DF
:10414000FDF73CFF424C3800C0B203214843205CDD
:104150006946087003A81021FEF78AFC08980390AE
:104160006846808C0590374E684600780001351807
:10417000280001F001FF3800C0B203214843201895
:1041800081783800C0B20322504320184078FFF7EE
:1041900027FE804869460978405C022806D103A9B9
:1041A0006846007800F0FAF805000EE003AA7A48A5
:1041B00069460978242359434118CA486B461B783D
:1041C000DB00C05801F025FD050025480290C648D7
:1041D000694609780901401801900299019801F097
:1041E000C7FF002801D1002000E00120C0B2012853
:1041F00001D105200500002D11D10AA80078012861
:104200000DD13800C0B2032148432018817838000E
:10421000C0B20322504320184078FFF7EFFD6846F4
:10422000007800013418200001F0ECFE052D01D1CA
:10423000022004E0002D01D0012000E000200BB09E
:10424000F0BD000004C4FF1F70CAFF1F7F92000072
:1042500038C4FF1F7E92000080120000A0120000F0
:10426000B80B0000F0B58BB0070038009F49097803
:10427000C0B2884205D3AF2252009D499D48FDF748
:104280009DFE9D483900C9B2C9004018019095486B
:104290003900C9B2C9004018029002980568012689
:1042A000A8780400E4B2A4093440641C9348854211
:1042B00001D100200BE09248854201D1042006E0A4
:1042C0009048854201D1042001E00020C04300282D
:1042D00003D0E87AFE210140E9722000C0B2012833
:1042E00000D0022607A8AD49102201F057F807A810
:1042F0000299097901703900C9B2099106734673B0
:1043000003A8A749102201F049F803A802994979A6
:1043100001703900C9B205910673467307A9019867
:10432000801C02F0DFF869460870684600780028B3
:1043300005D0FF228E326E49CE48FDF73FFE0021A8
:104340000198801C02F006FA01210198801C02F0FD
:104350003DFA03A90198C01C02F0C4F86946087030
:1043600068460078002805D0FF2294326049C14891
:10437000FDF724FE00210198C01C02F0ADF90121D7
:104380000198C01C02F022FA0BB0F0BD241200000C
:10439000B012000034C4FF1F68C3FF1FF1B58AB01C
:1043A0000C000AA8007851490978884205D3CE222A
:1043B00052004F494F48FDF701FE002C05D1FF2266
:1043C0009E324B498648FDF7F9FD4B480AA909780A
:1043D000C9004018009043480AA90978C90040184C
:1043E0000390039807682068002802D160680028BD
:1043F00002D0A068002801D1042070E0002138001C
:10440000FFF726FD01213800FFF722FD2068002874
:1044100006D001210098801C02F05EF9266809E0B0
:1044200000210098801C02F057F9380001F0B7F81D
:1044300091490E1807963800FFF726FD0890A068EE
:1044400080B209906068002807D06068029001215E
:104450000098C01C02F07EF906E088480290002116
:104460000098C01C02F076F93800FFF70DFD0490AB
:1044700002980590A06880B2069001252800009956
:104480004870012204213800FFF7F1FC04A90098CC
:10449000C01C02F0D9F96946087168460079002805
:1044A00005D0FF22E63212497248FDF787FD0098D9
:1044B0000570012220213800FFF7D9FC07A90098D8
:1044C000801C02F0C1F905002800C0B2002805D008
:1044D000FF22EC3206496748FDF770FD00200BB063
:1044E000F0BD000094130000D4C3FF1F7D920000B4
:1044F000241200006812000050C3FF1F0050074044
:104500000060074000700740FEB506000F00002E57
:1045100005D1FF22F43278497848FDF74FFD3D0080
:1045200077482900C9B2C900401800907548290091
:10453000C9B2C9004418A01CB0420BD100222021EE
:1045400000980068FFF793FCA01C02F013FA00200B
:10455000207013E0E01CB0420BD10022042100982F
:104560000068FFF784FCE01C02F004FA0020607091
:1045700004E0654A604965A0FDF720FD2078002829
:104580000BD16078002808D161482900C9B209011F
:1045900040180190019801F057FEF7BD9C130000F0
:1045A000AC130000FEB505000C001700002D05D16E
:1045B0008522920050495748FDF700FD002C04D198
:1045C000554A4D495548FDF7F9FC029E50483100C7
:1045D000C9B2090140180090009801F035FEF7BDFE
:1045E000DC12000070B50400002C04D14C4A424992
:1045F0004C48FDF7E3FC4C4D28782178884205D1E2
:10460000882292003C494948FDF7D8FC2078484967
:104610000978884204D3474A37494748FDF7CEFC1A
:10462000FF2000210A00D2B2022A20DA434A0B00FE
:10463000DBB203267343D35C2E78B34215D12378C3
:104640000D00EDB203267543535563780D00EDB2AE
:104650000326754355196B70A3780D00EDB2032640
:10466000754352199370080001E0491CDAE7C0B2A3
:1046700070BD0000C0120000DCC5FF1F68CAFF1F2C
:1046800038B52F4C7020205C002802D1A520FEF701
:104690008EFD25006F356F20205C401C287020782F
:1046A000401C2070FEF7DEFE01F0A8FB72B62078F9
:1046B000012810D1606800280DD06F20205C0028F0
:1046C00002D19820FEF773FD6F20205C401E2870F9
:1046D000FFF77BFA0AE06F20205C002802D19820C7
:1046E000FEF765FD6F20205C401E28702078401E7C
:1046F000207062B631BD000024120000F4120000E8
:104700009413000050C3FF1F070200003000000098
:10471000D4C3FF1F04130000150200001013000093
:104720001F020000281300007F9200003C130000CD
:104730007D920000210200006813000038C4FF1FB2
:1047400098C1FF1F70B505000C00B64E300001F097
:104750007BFD70BD10B5052002F041FDB14C20007D
:1047600001F072FD10BDFFB581B00398002804D19F
:1047700064223D493D48FDF721FC02980199884299
:1047800001D2032054E0A74F3C00200001F03EFD81
:104790000199052002F0EBFC06003000C0B20028B1
:1047A00003D1052002F001FD06003000C0B2002850
:1047B00001D003203CE03D00280001F092FC03986A
:1047C000804704002000C0B2002802D12000C0B2FF
:1047D0002EE00499052002F0CAFC05002800C0B2B2
:1047E000002801D0032023E0019E029886421ED2B9
:1047F0000097009801F00AFD052002F0D6FC0500A4
:104800002800C0B2002801D0032011E000970098D2
:1048100001F067FC0398804704002000C0B2002824
:1048200002D12000C0B203E004983618DDE705206D
:1048300005B0F0BD10B57A4C2068002804D147229D
:1048400009498148FDF7BAFB2068804710BD10B5C3
:10485000754C2068002804D1532203497B48FDF79A
:10486000ADFB2068804710BD44070000AC07000086
:10487000F2B586B00600764D2878002801D00120D8
:10488000CCE0032100273A0001AC2000FEF7E0F85D
:10489000012421003A0000AF7F1C3800FEF7D8F851
:1048A00002A86C49102200F079FD6B480078694637
:1048B00048700023012200A9491C3000C0B2FFF754
:1048C00029FC6946887068468078002808D1012351
:1048D000032201A93000C0B2FFF783FB694688704C
:1048E00068468078002801D0032097E0032201A9C0
:1048F0005A4802F09FFC002837D102A9052002F097
:1049000001FC07003800C0B2002806D0CE2254496E
:1049100054A0FDF753FB032080E053493000C0B2A0
:1049200002F000FD694608706846007800285ED1F4
:104930004E484F4908604F484F4908604F4850491A
:104940000860504850490860504851490860514833
:10495000514908605148524908605248304908603E
:104960005148314908602C7041E0032201A94F48A9
:1049700002F060FC002837D102A9052002F0C2FB3A
:1049800007003800C0B2002806D0E822344935A01C
:10499000FDF714FB032041E033493000C0B203F0BF
:1049A00047F8694608706846007800281FD14048DB
:1049B0002F4908603F48304908603F483049086047
:1049C0003E48314908603E48314908603D48324917
:1049D00008603D48324908603C48114908603C483D
:1049E000114908602C7002E002206946087028789E
:1049F000002811D00B4801F01DFA06984378354A7B
:104A000006980178344803F0A3FC01000800C0B206
:104A1000002801D0032001E06846007807B0F0BD0F
:104A200064C2FF1F38C2FF1F68C2FF1F10B51C4CB5
:104A30002068002805D1FF221C3209492748FDF7CC
:104A4000BDFA2068804710BD2807000090070000CD
:104A50006FCAFF1FE00700007A920000D80700002D
:104A6000440700003000000067470000E1780000C4
:104A700048C2FF1F617300004CC2FF1F7974000021
:104A800050C2FF1F7575000054C2FF1F99760000C9
:104A900058C2FF1F997700005CC2FF1F51780000C9
:104AA00060C2FF1F6179000063790000DC0700002D
:104AB000797A0000A97A0000617C0000457D000041
:104AC000C57E0000CD7F00003D8100000182000016
:104AD000598200004F48000035480000C007000020
:104AE00010B504004E486E21415C00290AD140787F
:104AF000002802D09A20FEF75AFB03F05DFC001B51
:104B000009D5FAE772B68168CC6004218068442236
:104B10008154FEF734FE10BDFBB505001700404C74
:104B200020006F3000904078002802D1A520FEF7C9
:104B30003EFB606A002806D06F20205C002802D16E
:104B4000A120FEF734FB00F091FC012802D1A02047
:104B5000FEF72DFB72B6A66905E0AE4202D1AA208F
:104B6000FEF725FB3668002EF7D16078102802D3B7
:104B70009920FEF71CFB6078002800D162B60A9EDF
:104B8000099C48212800FDF773FF280044300F21BD
:104B9000C1702F616F614421695C009A52790A43A8
:104BA0000270867001986862582C02D27820FEF755
:104BB000FEFA089F029EEF62AC62CD22210038000F
:104BC000FDF746FF38190721884358380021016056
:104BD0000221C943416221490164802149044164A1
:104BE000C664B61C06651E49C1621E4901631E49A2
:104BF00041631E4941601E4981601E49C1601E49D2
:104C000001611E4941611E4981611E49C1611E4900
:104C10000162686000212800FEF705FE03B0F0BDC8
:104C200098C1FF1F10B504001848416A002906D03A
:104C30006F21405C002802D1A120FEF7B8FA00F0F5
:104C400015FC012802D1A020FEF7B1FA012C04DBEB
:104C500003F0B2FB2018FFF743FF10BD393B000003
:104C60000100CCCC0200CCCC0300CCCC0400CCCCDA
:104C70000500CCCC0600CCCC0700CCCC0800CCCCBA
:104C80000900CCCC0A00CCCC0B00CCCC98C1FF1FC7
:104C900010B5134C2078002802D19720FEF787FA30
:104CA0002078401E20702078002817D160680028E6
:104CB00014D072B66068002806D001202070200051
:104CC000FEF777FF002020706078102802D399202B
:104CD000FEF76DFA6078002800D162B610BD0000C2
:104CE00098C1FF1F00B5010049B2002905D4012178
:104CF000C206D20E9140854A116000BD00B5010088
:104D000049B2002909D40121C206D20E9140804A3D
:104D10001160BFF34F8FBFF36F8F00BDF0B502007E
:104D200052B2002A17D418227A4B040064B2A408A5
:104D3000A4001C59FF25C6001640B540AC438D01A8
:104D4000EDB2C600324095402543020052B29208AF
:104D500092009D501BE00F226F4B182405006DB28E
:104D60001540083DAD08AE0005006DB22A40083A76
:104D7000920892009A58FF25C7002740BD40AA43D9
:104D80008D01EDB2C7003C40A54015439D51F0BDDB
:104D900038B50400002520007F21C94340B2884275
:104DA00002D10120050003E0200040B2FFF79AFF86
:104DB000280032BD38B50400002520007F21C943FA
:104DC00040B2884202D10120050003E0200040B239
:104DD000FFF794FF280032BD72B650485049016079
:104DE0000A6882F308884F48804762B64E480047F9
:104DF000704780B5EFF30580C0B20090FEE780B544
:104E0000FFF7F7FF01BD80B5FFF7F3FF01BD80B5E8
:104E1000FFF7EFFF01BD80B5FFF7EBFF01BD80B5E8
:104E2000FFF7E7FF01BDF8B5C0263D4F3F4C250019
:104E300032003900280000F0CBFA72B60025252D8B
:104E400007D23B4841573B484057FFF767FF6D1C6F
:104E5000F5E739480460394C6078102802D399206E
:104E6000FEF7A5F96078002800D162B6F1BDF7B56C
:104E700006000F00022400250095252E0ED22D4895
:104E80008157103100916A46082151568057FFF72B
:104E900045FF26480099890047502C002000C0B2E9
:104EA000FEBDF8B50400022500263700252C0DD2E2
:104EB000204800571030070021481C49BA0088508C
:104EC000102C02D3200000F012F835002800C0B2E8
:104ED000F2BD38B504000225252C05D2154800572F
:104EE000FFF756FF002005002800C0B232BD38B5DC
:104EF00004000225252C05D20E480057FFF75AFF63
:104F0000002005002800C0B232BD000000E100E032
:104F100080E100E000E400E01CED00E008ED00E0CE
:104F200000000000659100009591000000C0FF1F87
:104F3000401100006811000008ED00E098C1FF1F5B
:104F4000F34D000010B470490A68704B134082069C
:104F5000C024240514401C430C6010BC704710B4DE
:104F600069490A686A4B13404205E024240414404E
:104F70001C430C6010BC704710B466490A683023AB
:104F80009A43030130241C4014430C6010BC70474A
:104F900010B45D490A68E0239A434301E0241C40B1
:104FA00014430C6010BC704710B457490A681823AA
:104FB0009A43C30018241C4014430C6010BC704773
:104FC000C020800454490860704754490860704705
:104FD000534908607047028C524B13400B430384C3
:104FE000704738B504004B480068C004FBD54E4DEF
:104FF0002888C00708D5210089B24C48FFF7EBFF8D
:1050000028884B490140298031BD00B5494801003D
:10501000481E002901D000BFF9E700BD10B43D498A
:105020000A68454B13400200D2B21207802464057F
:1050300022401A430A6010BC7047F8B506000F0002
:1050400000253000C0B203280DD1FFF7B9FF3B4C5B
:105050003B4A6179A079FDF735FCE278A178607868
:10506000FDF7FBFA38E03000C0B2012816D1380055
:10507000FFF7AEFFFFF7A4FF0020FFF7B2FF314CB0
:105080002F4800906379A2792179E079FDF72BFC14
:10509000E278A1786078FDF7E0FA1DE03000C0B258
:1050A000002817D1FFF78CFF274C2000FDF73AFBB3
:1050B0002068FFF78AFF254C214800906379A27988
:1050C0002179E079FDF70FFCE278A1786078FDF7AF
:1050D000C4FA01E0012005001D48FDF70EFA012089
:1050E000FFF74AFF0120FFF799FF0120FFF737FF85
:1050F0000120FFF759FF0120FFF724FF0120FFF7F0
:1051000047FF2800C0B2F2BD04F00340FFFFFFF3E9
:10511000FFFF1FFF6CF0034044F00340B0C5FF1FCA
:10512000B4C5FF1FE1FF000020000540000005405E
:10513000FEFF000030750000FFFFFFEF9011000040
:105140000B500000A4110000BC110000B0110000C1
:105150009C11000000B501000878000601D501206F
:1051600000E0002000BD017840220A430270704731
:1051700070B54B4C7020205C002802D1A520FEF7B2
:1051800016F825006F356F20205C401C28702078B1
:10519000401C2070FEF766F9424E3000FFF7DAFF40
:1051A000002805D03000FFF7DEFF3F480068804749
:1051B00072B62078012810D1606800280DD06F20C9
:1051C000205C002802D19820FDF7F1FF6F20205CC1
:1051D000401E2870FEF7F9FC0AE06F20205C0028D2
:1051E00002D19820FDF7E3FF6F20205C401E28705D
:1051F0002078401E207062B670BDF3B581B0050006
:105200001700012006002900C9B2002903D0290097
:10521000C9B2012941D10024694622000A70220046
:105220004A703A00D2B2012A02D102000A7005E0A7
:105230003A00D2B2022A01D102004A702A00D2B248
:10524000002A02D12000887004E02A00D2B2012A8C
:1052500000D188706946134803F0C0F83800C0B226
:10526000012813D10298002804D141220F49104887
:10527000FCF7A4FE02980C49086000220D490B209F
:10528000FFF7F5FD0B20FFF724FE05E00B20FFF7ED
:1052900008FE0B20FFF72BFE26003000C0B2FEBD3B
:1052A00098C1FF1F00D007404CC3FF1FD41100005E
:1052B000C411000071510000F6B589B006000F005E
:1052C0002A4C2078002804D01C2229492948FCF7C0
:1052D00075FE29480078B04204D31D22244927488E
:1052E000FCF76CFE684603F091F80125684629003A
:1052F000017000210A0042700A0082700AAA127826
:1053000002710A00C2700A0042712A008271002FE5
:1053100003D02900C171029700E0C17103967008A3
:10532000174908606946174803F096F81648059033
:10533000164806900895C02004A988811448049056
:10534000257004A9134800F050F80BB0F0BD10B55B
:1053500011480078002802D10A4803F0C4F8084830
:1053600004682000FFF75EFCF2E7000071CAFF1F2F
:10537000D0130000BC130000809200001014000045
:1053800048C5FF1F003005404F53000040C4FF1FB9
:1053900000C5FF1F4014000072CAFF1F70B4103A0E
:1053A00003D378C9103A78C0FBD2530701D318C988
:1053B00018C001D508C908C0D20704D30B880380E0
:1053C000891C801C002A01D50B78037070BC7047C3
:1053D0008B0701D18307E1D0124205D00B78491C1D
:1053E0000370401C521EF9D170473EB505000C00F9
:1053F00002200290A0890190A06800906368226951
:1054000029002068FFF788FB37BD30B501684118D7
:10541000446862088A188368E40704D54C461B195F
:1054200001E0641C09D1914203D00C7864B2491C9C
:1054300001E00C3030BD0D78491C1D705B1C002C48
:10544000EFD4641EF7D5EEE780B500F00FF8012821
:1054500006D104480078002802D1A420FDF7A7FE59
:10546000014802BD07C2FF1F91C90000EFF305808C
:10547000002804D00E2801D1042070470120704775
:105480000248704702480349401A704778CAFF1F14
:1054900078CEFF1F78CAFF1F6846704710B5124CC0
:1054A00020680004000D114988420BD10F202168AB
:1054B000090D014006D121680840022802D2FE20D1
:1054C000FDF775FEEFF3108072B6216AFF22120419
:1054D0000A43226280F31088EFF31480800702D51C
:1054E000A720FDF764FE10BD00ED00E0270C0000D2
:1054F00000B51300DBB2002B03D101238B400372F4
:1055000002E001238B40037100BD70B504000E0062
:105510001500002D04D164220B490C48FCF74EFD08
:105520002878002805D1207D0121B14088432075CD
:1055300009E06A7831002000FFF7DAFF207D0121C1
:10554000B1400143217570BD88170000D0170000DD
:1055500000B5010049B2002905D40121C206D20ECE
:105560009140854A116000BD010C844A89180A687F
:105570000123834013430B60704738B504000025B6
:1055800020007F21C94340B2884202D1012005009A
:1055900003E0200040B2FFF7DBFF280032BD38B542
:1055A00005000024032C06D27548A1004058A842EB
:1055B00001D0641CF6E7032C04D38422714972489D
:1055C000FCF7FCFC200032BD38B505000C002800BB
:1055D000FFF7E5FF6D490C5431BDF7B505000C0030
:1055E000002601273800694608702800FFF7D7FF1A
:1055F000A978C9B289090F407F1C02998E4214D242
:10560000002C09D02178A971641CA978490608D515
:105610002178E971641C04E05C490A5CAA71095CA8
:10562000E9713900C9B27618E7E7F7BDF4B50700AC
:105630000C00002501263000B978C9B289090E4056
:10564000761C0098854212D2002C09D0B8792070BF
:10565000641CB878400606D5F8792070641C02E016
:10566000380000F099FA3000C0B22D18E9E7F1BD1A
:1056700070B501000020030002008E4CA14201D150
:1056800005000BE08C4DA94201D1042506E08B4DAD
:10569000A94201D1042501E00025ED43002D2CD0C5
:1056A000CD7AEDB22D092E00F607F60F3200150067
:1056B000EDB2002D11D1A1420AD07F48814201D123
:1056C000042005E07D48814201D1042000E0FF2054
:1056D000C0B203235843800810E0A1420AD07648A4
:1056E000814201D1042005E07448814201D10420A7
:1056F00000E0FF20C0B2400800E00120C0B270BD51
:10570000F8B506000D002F7E687E02281FD3694879
:10571000864201D100240BE06748864201D104246F
:1057200006E06648864201D1042401E00024E443F7
:10573000012C05DA842252001249A048FCF73EFCF5
:10574000A8686100884201D2AF6800E067003A00B3
:10575000D2B229683000FFF740FF2868002804D043
:1057600028683900C9B240182860A8683900C9B251
:10577000401AA860F1BD000000E100E000E0034035
:10578000A81A0000001A0000C4190000DCC5FF1FA1
:10579000F8B505000C00267E607E012835D1E8783A
:1057A000C00616D52878800648D53200D2B22168C6
:1057B0002800FFF712FF2068002804D0206831007D
:1057C000C9B240182060A0683100C9B2401AA06078
:1057D00034E02878800631D5A0683100C9B288420B
:1057E0002CD33200D2B221682800FFF7F6FE2068E1
:1057F000002804D020683100C9B240182060A06899
:105800003100C9B2401AA060E3E7607E4700A0689B
:10581000082801D2A06807003A00D2B22168280007
:10582000FFF7DBFE2068002804D020683900C9B2E9
:1058300040182060A068FFB2C01BA060F1BD70B529
:1058400005000C00267E607E012816D1287800060F
:105850002ED53200D2B261682800FFF7E7FE6068FB
:10586000002804D060683100C9B240186060E06868
:105870003100C9B2401AE0601AE02878C00717D496
:105880003200D2B261682800FFF7D0FE60680028BD
:1058900004D060683100C9B240186060E06831002F
:1058A000C9B2401AE060E068617E49008842E4D1F4
:1058B00070BD0000005007400060074000700740C6
:1058C000F4B505000C00002C02D00098002805D18A
:1058D000FF22C03262496348FCF770FB2800FFF7E3
:1058E0005EFE614980000858FFF73EFEE878BF2160
:1058F0000140E9700121102204230820A678F60057
:1059000007003740BC46E678B7001E003E406746B9
:105910003E43B446267A7700022637406646374330
:10592000BC4627790E003E4067463E431643EE7064
:105930004026277AFFB27F083F011740BC46677AAE
:10594000FFB27F08FF0038406746384367787F0022
:105950000743BC46677A0800384067463843677992
:10596000BF0137400743AF705848854201D100233B
:1059700007E05748854204D01148854201D00023F2
:10598000DB43002B09D0A079400120231840E379A4
:105990001B011A4002431143E972009AE168280092
:1059A00000F098F8FF212800FFF70EFE207800286D
:1059B00002D0E8780643EE70F1BD0000441A000002
:1059C0000070074000B501000878404A914201D1BB
:1059D00000220BE03E4A914201D1042206E06D4ACA
:1059E000914201D1042201E00022D243002A03D0D7
:1059F0000200887A0002104300BD30B5CA0703D503
:105A0000C27880231343C3700222114203D0C378AB
:105A100020241C43C4700423194203D084788025B9
:105A200025438570294CA04201D100240BE0284C6D
:105A3000A04201D11C0006E0564CA04201D11C003E
:105A400001E00024E443002C09D00C0702D5C47AFD
:105A50002243C272CA0602D5C27A1343C37230BD52
:105A6000001A0000541A0000B81A000000B5CA0756
:105A700003D5C2785206520EC2708A0703D5C27887
:105A8000DF231340C3700422114203D083785B06E6
:105A90005B0E83700D4B984201D1002207E00C4B46
:105AA000984204D03B4B984201D00022D243002AB6
:105AB0000BD00A0703D5C27AFD231340C372CA066E
:105AC00003D5C27AFB231340C37200BD00500740C8
:105AD00000600740F7B585B0069802900026F643AF
:105AE00007200490082003900027082F24D2002EBE
:105AF00022D00220050000200400092C1AD2002E1A
:105B000018D007983900491C6943FCF7D9FA01906D
:105B10000298019988420AD302980199401A00908C
:105B20000098B04203D200980600049703946D00D9
:105B3000641CE2E77F1CD8E703980007000F049974
:105B4000090170220A4002430598427008B0F0BD76
:105B500000B5624A904201D100220BE0604A9042B7
:105B600001D1042206E00B4A904201D1042201E057
:105B70000022D243002A0CD00A00D2B2002A04D05C
:105B8000C27A01231343C37203E0C27AFE23134097
:105B9000C37200BD00700740010000228B79C879F4
:105BA0000002184380B27047FEB582B005000C00B9
:105BB000002C04D17B4A59497B48FCF7FFF92800A7
:105BC000FFF7EDFC06002420019000200090270044
:105BD000009A01993800FCF73BFF7448B10044502B
:105BE0000398E061049820627148724908602800B7
:105BF000FFF73EFD6076A878C0B280090100C907B2
:105C0000C90F491C21766C488057FFF7B6FC05B0D8
:105C1000F0BDF8B507000C001600002C01D0002ED6
:105C200004D1664A3D496648FCF7C8F90020009057
:105C30002069012802D1AF20C0004DE03068002863
:105C400002D17068002802D0B068002801D1042079
:105C500042E03068206070686060B0686061B06881
:105C6000A060B068E060012525613800FFF700FD05
:105C70006076B068617E4900884201D22800607673
:105C8000607E022812D308252068002802D0280050
:105C90001025054301213800FFF75AFF38784007E7
:105CA000FCD521003800FFF72BFD10E0206800280C
:105CB00002D028000225054300213800FFF748FFE5
:105CC00038788006FCD521003800FFF719FD29003F
:105CD0003800FFF792FE0020F2BD000000500740A0
:105CE0000060074070B505000C00002C04D1354A57
:105CF0000A492D48FCF762F90220617E022902D38D
:105D00001826064301E00326064331002800FFF76A
:105D1000ADFE00202061E060A06070BD001A0000B0
:105D200070B505000C00002C04D1274A27491E48F5
:105D3000FCF744F9E068002803D021002800FFF7B1
:105D40007EFDA068002814D0E068A168401A617E3A
:105D500088420ED221002800FFF71AFDA068002813
:105D600007D110212800FFF781FE02212800FFF74C
:105D700044FEA068002814D1E068002811D1280052
:105D8000FFF720FE80060CD521002800FFF7AAFFB0
:105D9000E069002805D0236A214A21002800E6692D
:105DA000B04770BDF50300007C1A0000C8C5FF1F96
:105DB000215D0000D4C5FF1FB41A00001E040000BE
:105DC000881A0000A4040000C6040000001A0000A5
:105DD00038B504000D00E078C00607D51248A900C8
:105DE00041582000114A1268904706E00E48A90069
:105DF000415820000B4A1268904731BD10B500246D
:105E0000032C0CD20848A1004058002805D02100DE
:105E10000748A2008058FFF7DBFF641CF0E710BDC5
